{
    "_format": "hh-sol-artifact-1",
    "contractName": "CheckTix",
    "sourceName": "contracts/checktix/CheckTix.sol",
    "abi": [
        {
            "inputs": [
                {
                    "internalType": "address",
                    "name": "_showAdd",
                    "type": "address"
                }
            ],
            "stateMutability": "nonpayable",
            "type": "constructor"
        },
        {
            "inputs": [
                {
                    "internalType": "address",
                    "name": "newValidator",
                    "type": "address"
                }
            ],
            "name": "changeValidator",
            "outputs": [],
            "stateMutability": "nonpayable",
            "type": "function"
        },
        {
            "inputs": [],
            "name": "checkInClosed",
            "outputs": [
                {
                    "internalType": "bool",
                    "name": "",
                    "type": "bool"
                }
            ],
            "stateMutability": "view",
            "type": "function"
        },
        {
            "inputs": [
                {
                    "internalType": "uint256",
                    "name": "nftNumber",
                    "type": "uint256"
                }
            ],
            "name": "checkInNft",
            "outputs": [
                {
                    "internalType": "bool",
                    "name": "",
                    "type": "bool"
                }
            ],
            "stateMutability": "nonpayable",
            "type": "function"
        },
        {
            "inputs": [
                {
                    "internalType": "uint256",
                    "name": "",
                    "type": "uint256"
                }
            ],
            "name": "checkedIn",
            "outputs": [
                {
                    "internalType": "bool",
                    "name": "",
                    "type": "bool"
                }
            ],
            "stateMutability": "view",
            "type": "function"
        },
        {
            "inputs": [],
            "name": "closeCheckIn",
            "outputs": [],
            "stateMutability": "nonpayable",
            "type": "function"
        },
        {
            "inputs": [],
            "name": "ticketContract",
            "outputs": [
                {
                    "internalType": "address",
                    "name": "",
                    "type": "address"
                }
            ],
            "stateMutability": "view",
            "type": "function"
        },
        {
            "inputs": [],
            "name": "validator",
            "outputs": [
                {
                    "internalType": "address",
                    "name": "",
                    "type": "address"
                }
            ],
            "stateMutability": "view",
            "type": "function"
        },
        {
            "inputs": [
                {
                    "internalType": "uint256",
                    "name": "nftNum",
                    "type": "uint256"
                }
            ],
            "name": "viewCheckedIn",
            "outputs": [
                {
                    "internalType": "bool",
                    "name": "",
                    "type": "bool"
                }
            ],
            "stateMutability": "view",
            "type": "function"
        },
        {
            "stateMutability": "payable",
            "type": "receive"
        }
    ],
    "bytecode": "0x608060405234801561001057600080fd5b50604051610bc9380380610bc98339818101604052810190610032919061011c565b80600160006101000a81548173ffffffffffffffffffffffffffffffffffffffff021916908373ffffffffffffffffffffffffffffffffffffffff160217905550336000806101000a81548173ffffffffffffffffffffffffffffffffffffffff021916908373ffffffffffffffffffffffffffffffffffffffff16021790555050610149565b600080fd5b600073ffffffffffffffffffffffffffffffffffffffff82169050919050565b60006100e9826100be565b9050919050565b6100f9816100de565b811461010457600080fd5b50565b600081519050610116816100f0565b92915050565b600060208284031215610132576101316100b9565b5b600061014084828501610107565b91505092915050565b610a71806101586000396000f3fe60806040526004361061007f5760003560e01c806364162e8f1161004e57806364162e8f1461015b578063d257b05b14610198578063f6abfc76146101af578063fa34316a146101d857610086565b8063020865961461008b5780633a5381b5146100c85780634e23ec79146100f357806358a86e1d1461013057610086565b3661008657005b600080fd5b34801561009757600080fd5b506100b260048036038101906100ad91906106b4565b610203565b6040516100bf91906106fc565b60405180910390f35b3480156100d457600080fd5b506100dd610223565b6040516100ea9190610758565b60405180910390f35b3480156100ff57600080fd5b5061011a600480360381019061011591906106b4565b610247565b60405161012791906106fc565b60405180910390f35b34801561013c57600080fd5b50610145610271565b6040516101529190610758565b60405180910390f35b34801561016757600080fd5b50610182600480360381019061017d91906106b4565b610297565b60405161018f91906106fc565b60405180910390f35b3480156101a457600080fd5b506101ad6104eb565b005b3480156101bb57600080fd5b506101d660048036038101906101d1919061079f565b610595565b005b3480156101e457600080fd5b506101ed610666565b6040516101fa91906106fc565b60405180910390f35b60026020528060005260406000206000915054906101000a900460ff1681565b60008054906101000a900473ffffffffffffffffffffffffffffffffffffffff1681565b60006002600083815260200190815260200160002060009054906101000a900460ff169050919050565b600160009054906101000a900473ffffffffffffffffffffffffffffffffffffffff1681565b6000801515600160149054906101000a900460ff161515146102ee576040517f08c379a00000000000000000000000000000000000000000000000000000000081526004016102e590610829565b60405180910390fd5b60008054906101000a900473ffffffffffffffffffffffffffffffffffffffff1673ffffffffffffffffffffffffffffffffffffffff163373ffffffffffffffffffffffffffffffffffffffff161461037c576040517f08c379a000000000000000000000000000000000000000000000000000000000815260040161037390610895565b60405180910390fd5b600015156002600084815260200190815260200160002060009054906101000a900460ff161515146103e3576040517f08c379a00000000000000000000000000000000000000000000000000000000081526004016103da90610901565b60405180910390fd5b600160009054906101000a900473ffffffffffffffffffffffffffffffffffffffff1673ffffffffffffffffffffffffffffffffffffffff1663907bff846040518163ffffffff1660e01b8152600401602060405180830381865afa158015610450573d6000803e3d6000fd5b505050506040513d601f19601f820116820180604052508101906104749190610936565b8211156104b6576040517f08c379a00000000000000000000000000000000000000000000000000000000081526004016104ad906109af565b60405180910390fd5b60016002600084815260200190815260200160002060006101000a81548160ff02191690831515021790555060019050919050565b60008054906101000a900473ffffffffffffffffffffffffffffffffffffffff1673ffffffffffffffffffffffffffffffffffffffff163373ffffffffffffffffffffffffffffffffffffffff1614610579576040517f08c379a000000000000000000000000000000000000000000000000000000000815260040161057090610a1b565b60405180910390fd5b60018060146101000a81548160ff021916908315150217905550565b60008054906101000a900473ffffffffffffffffffffffffffffffffffffffff1673ffffffffffffffffffffffffffffffffffffffff163373ffffffffffffffffffffffffffffffffffffffff1614610623576040517f08c379a000000000000000000000000000000000000000000000000000000000815260040161061a90610a1b565b60405180910390fd5b806000806101000a81548173ffffffffffffffffffffffffffffffffffffffff021916908373ffffffffffffffffffffffffffffffffffffffff16021790555050565b600160149054906101000a900460ff1681565b600080fd5b6000819050919050565b6106918161067e565b811461069c57600080fd5b50565b6000813590506106ae81610688565b92915050565b6000602082840312156106ca576106c9610679565b5b60006106d88482850161069f565b91505092915050565b60008115159050919050565b6106f6816106e1565b82525050565b600060208201905061071160008301846106ed565b92915050565b600073ffffffffffffffffffffffffffffffffffffffff82169050919050565b600061074282610717565b9050919050565b61075281610737565b82525050565b600060208201905061076d6000830184610749565b92915050565b61077c81610737565b811461078757600080fd5b50565b60008135905061079981610773565b92915050565b6000602082840312156107b5576107b4610679565b5b60006107c38482850161078a565b91505092915050565b600082825260208201905092915050565b7f6e6f206c6f6e67657220636865636b696e67207469636b657473000000000000600082015250565b6000610813601a836107cc565b915061081e826107dd565b602082019050919050565b6000602082019050818103600083015261084281610806565b9050919050565b7f76616c696461746f720000000000000000000000000000000000000000000000600082015250565b600061087f6009836107cc565b915061088a82610849565b602082019050919050565b600060208201905081810360008301526108ae81610872565b9050919050565b7f616c726561647920636865636b656420696e0000000000000000000000000000600082015250565b60006108eb6012836107cc565b91506108f6826108b5565b602082019050919050565b6000602082019050818103600083015261091a816108de565b9050919050565b60008151905061093081610688565b92915050565b60006020828403121561094c5761094b610679565b5b600061095a84828501610921565b91505092915050565b7f7469636b657420646f6573206e6f742065786973740000000000000000000000600082015250565b60006109996015836107cc565b91506109a482610963565b602082019050919050565b600060208201905081810360008301526109c88161098c565b9050919050565b7f6f6e6c792076616c696461746f72000000000000000000000000000000000000600082015250565b6000610a05600e836107cc565b9150610a10826109cf565b602082019050919050565b60006020820190508181036000830152610a34816109f8565b905091905056fea264697066735822122029c118164770236d3289234deba14b623bdcb1c897ec41e5b80afe7308b125c964736f6c63430008110033",
    "linkReferences": {},
    "deployedLinkReferences": {}
}