{
  "_format": "hh-sol-artifact-1",
  "contractName": "ControlShow",
  "sourceName": "contracts/ControlShow.sol",
  "abi": [
    {
      "inputs": [
        {
          "internalType": "uint256",
          "name": "_showNumber",
          "type": "uint256"
        },
        {
          "internalType": "address",
          "name": "_band",
          "type": "address"
        },
        {
          "internalType": "address",
          "name": "_venue",
          "type": "address"
        }
      ],
      "stateMutability": "nonpayable",
      "type": "constructor"
    },
    {
      "inputs": [],
      "name": "completeShow",
      "outputs": [],
      "stateMutability": "nonpayable",
      "type": "function"
    },
    {
      "inputs": [],
      "name": "refundShow",
      "outputs": [],
      "stateMutability": "nonpayable",
      "type": "function"
    },
    {
      "inputs": [
        {
          "internalType": "uint256",
          "name": "newShowDate",
          "type": "uint256"
        }
      ],
      "name": "rescheduleShow",
      "outputs": [],
      "stateMutability": "nonpayable",
      "type": "function"
    },
    {
      "inputs": [
        {
          "internalType": "string",
          "name": "_baseUri",
          "type": "string"
        }
      ],
      "name": "setNewBaseUri",
      "outputs": [],
      "stateMutability": "nonpayable",
      "type": "function"
    },
    {
      "inputs": [
        {
          "internalType": "uint256",
          "name": "newMaxSup",
          "type": "uint256"
        }
      ],
      "name": "setNewMaxSupply",
      "outputs": [],
      "stateMutability": "nonpayable",
      "type": "function"
    },
    {
      "inputs": [
        {
          "internalType": "address",
          "name": "_ticketContract",
          "type": "address"
        }
      ],
      "name": "setTicketContract",
      "outputs": [],
      "stateMutability": "nonpayable",
      "type": "function"
    },
    {
      "inputs": [],
      "name": "showCompleted",
      "outputs": [
        {
          "internalType": "bool",
          "name": "",
          "type": "bool"
        }
      ],
      "stateMutability": "view",
      "type": "function"
    },
    {
      "inputs": [],
      "name": "showNumber",
      "outputs": [
        {
          "internalType": "uint256",
          "name": "",
          "type": "uint256"
        }
      ],
      "stateMutability": "view",
      "type": "function"
    },
    {
      "inputs": [],
      "name": "ticketContract",
      "outputs": [
        {
          "internalType": "address",
          "name": "",
          "type": "address"
        }
      ],
      "stateMutability": "view",
      "type": "function"
    },
    {
      "inputs": [],
      "name": "tixMaxSupply",
      "outputs": [
        {
          "internalType": "uint256",
          "name": "",
          "type": "uint256"
        }
      ],
      "stateMutability": "view",
      "type": "function"
    },
    {
      "stateMutability": "payable",
      "type": "receive"
    }
  ],
  "bytecode": "0x60e06040523480156200001157600080fd5b506040516200124a3803806200124a833981810160405281019062000037919062000196565b8260c081815250508173ffffffffffffffffffffffffffffffffffffffff1660808173ffffffffffffffffffffffffffffffffffffffff16815250508073ffffffffffffffffffffffffffffffffffffffff1660a08173ffffffffffffffffffffffffffffffffffffffff168152505033600160006101000a81548173ffffffffffffffffffffffffffffffffffffffff021916908373ffffffffffffffffffffffffffffffffffffffff160217905550505050620001f2565b600080fd5b6000819050919050565b6200010b81620000f6565b81146200011757600080fd5b50565b6000815190506200012b8162000100565b92915050565b600073ffffffffffffffffffffffffffffffffffffffff82169050919050565b60006200015e8262000131565b9050919050565b620001708162000151565b81146200017c57600080fd5b50565b600081519050620001908162000165565b92915050565b600080600060608486031215620001b257620001b1620000f1565b5b6000620001c2868287016200011a565b9350506020620001d5868287016200017f565b9250506040620001e8868287016200017f565b9150509250925092565b60805160a05160c051610ff76200025360003960006103ca01526000818161027601528181610443015281816106290152818161082601526109a6015260008181610221015281816103ee015281816105d401526109510152610ff76000f3fe6080604052600436106100955760003560e01c8063b7c7d9a711610059578063b7c7d9a714610162578063c0caa7721461018b578063c2d4dba5146101b4578063cb00953f146101df578063efa725f6146101f65761009c565b8063501fb35c146100a157806358a86e1d146100ca57806373b4dba1146100f557806376dad22314610120578063a2a5aa3a1461014b5761009c565b3661009c57005b600080fd5b3480156100ad57600080fd5b506100c860048036038101906100c39190610c1b565b61021f565b005b3480156100d657600080fd5b506100df610391565b6040516100ec9190610ca5565b60405180910390f35b34801561010157600080fd5b5061010a6103b5565b6040516101179190610cdb565b60405180910390f35b34801561012c57600080fd5b506101356103c8565b6040516101429190610d0f565b60405180910390f35b34801561015757600080fd5b506101606103ec565b005b34801561016e57600080fd5b5061018960048036038101906101849190610d56565b6105d2565b005b34801561019757600080fd5b506101b260048036038101906101ad9190610daf565b61074b565b005b3480156101c057600080fd5b506101c961081e565b6040516101d69190610d0f565b60405180910390f35b3480156101eb57600080fd5b506101f4610824565b005b34801561020257600080fd5b5061021d60048036038101906102189190610d56565b61094f565b005b7f000000000000000000000000000000000000000000000000000000000000000073ffffffffffffffffffffffffffffffffffffffff163373ffffffffffffffffffffffffffffffffffffffff1614806102c457507f000000000000000000000000000000000000000000000000000000000000000073ffffffffffffffffffffffffffffffffffffffff163373ffffffffffffffffffffffffffffffffffffffff16145b610303576040517f08c379a00000000000000000000000000000000000000000000000000000000081526004016102fa90610e39565b60405180910390fd5b60008054906101000a900473ffffffffffffffffffffffffffffffffffffffff1673ffffffffffffffffffffffffffffffffffffffff1663a0bcfc7f826040518263ffffffff1660e01b815260040161035c9190610ec7565b600060405180830381600087803b15801561037657600080fd5b505af115801561038a573d6000803e3d6000fd5b5050505050565b60008054906101000a900473ffffffffffffffffffffffffffffffffffffffff1681565b600360009054906101000a900460ff1681565b7f000000000000000000000000000000000000000000000000000000000000000081565b7f000000000000000000000000000000000000000000000000000000000000000073ffffffffffffffffffffffffffffffffffffffff163373ffffffffffffffffffffffffffffffffffffffff16148061049157507f000000000000000000000000000000000000000000000000000000000000000073ffffffffffffffffffffffffffffffffffffffff163373ffffffffffffffffffffffffffffffffffffffff16145b6104d0576040517f08c379a00000000000000000000000000000000000000000000000000000000081526004016104c790610e39565b60405180910390fd5b60008054906101000a900473ffffffffffffffffffffffffffffffffffffffff1673ffffffffffffffffffffffffffffffffffffffff16637389df8a6040518163ffffffff1660e01b8152600401600060405180830381600087803b15801561053857600080fd5b505af115801561054c573d6000803e3d6000fd5b5050505060008054906101000a900473ffffffffffffffffffffffffffffffffffffffff1673ffffffffffffffffffffffffffffffffffffffff166399203d236040518163ffffffff1660e01b8152600401600060405180830381600087803b1580156105b857600080fd5b505af11580156105cc573d6000803e3d6000fd5b50505050565b7f000000000000000000000000000000000000000000000000000000000000000073ffffffffffffffffffffffffffffffffffffffff163373ffffffffffffffffffffffffffffffffffffffff16148061067757507f000000000000000000000000000000000000000000000000000000000000000073ffffffffffffffffffffffffffffffffffffffff163373ffffffffffffffffffffffffffffffffffffffff16145b6106b6576040517f08c379a00000000000000000000000000000000000000000000000000000000081526004016106ad90610e39565b60405180910390fd5b8060028190555060008054906101000a900473ffffffffffffffffffffffffffffffffffffffff1673ffffffffffffffffffffffffffffffffffffffff16636f8b44b0826040518263ffffffff1660e01b81526004016107169190610d0f565b600060405180830381600087803b15801561073057600080fd5b505af1158015610744573d6000803e3d6000fd5b5050505050565b600160009054906101000a900473ffffffffffffffffffffffffffffffffffffffff1673ffffffffffffffffffffffffffffffffffffffff163373ffffffffffffffffffffffffffffffffffffffff16146107db576040517f08c379a00000000000000000000000000000000000000000000000000000000081526004016107d290610f35565b60405180910390fd5b806000806101000a81548173ffffffffffffffffffffffffffffffffffffffff021916908373ffffffffffffffffffffffffffffffffffffffff16021790555050565b60025481565b7f000000000000000000000000000000000000000000000000000000000000000073ffffffffffffffffffffffffffffffffffffffff163373ffffffffffffffffffffffffffffffffffffffff16146108b2576040517f08c379a00000000000000000000000000000000000000000000000000000000081526004016108a990610fa1565b60405180910390fd5b6001600360006101000a81548160ff02191690831515021790555060008054906101000a900473ffffffffffffffffffffffffffffffffffffffff1673ffffffffffffffffffffffffffffffffffffffff1663e146f7276040518163ffffffff1660e01b8152600401600060405180830381600087803b15801561093557600080fd5b505af1158015610949573d6000803e3d6000fd5b50505050565b7f000000000000000000000000000000000000000000000000000000000000000073ffffffffffffffffffffffffffffffffffffffff163373ffffffffffffffffffffffffffffffffffffffff1614806109f457507f000000000000000000000000000000000000000000000000000000000000000073ffffffffffffffffffffffffffffffffffffffff163373ffffffffffffffffffffffffffffffffffffffff16145b610a33576040517f08c379a0000000000000000000000000000000000000000000000000000000008152600401610a2a90610e39565b60405180910390fd5b60008054906101000a900473ffffffffffffffffffffffffffffffffffffffff1673ffffffffffffffffffffffffffffffffffffffff16635b7646bf826040518263ffffffff1660e01b8152600401610a8c9190610d0f565b600060405180830381600087803b158015610aa657600080fd5b505af1158015610aba573d6000803e3d6000fd5b5050505050565b6000604051905090565b600080fd5b600080fd5b600080fd5b600080fd5b6000601f19601f8301169050919050565b7f4e487b7100000000000000000000000000000000000000000000000000000000600052604160045260246000fd5b610b2882610adf565b810181811067ffffffffffffffff82111715610b4757610b46610af0565b5b80604052505050565b6000610b5a610ac1565b9050610b668282610b1f565b919050565b600067ffffffffffffffff821115610b8657610b85610af0565b5b610b8f82610adf565b9050602081019050919050565b82818337600083830152505050565b6000610bbe610bb984610b6b565b610b50565b905082815260208101848484011115610bda57610bd9610ada565b5b610be5848285610b9c565b509392505050565b600082601f830112610c0257610c01610ad5565b5b8135610c12848260208601610bab565b91505092915050565b600060208284031215610c3157610c30610acb565b5b600082013567ffffffffffffffff811115610c4f57610c4e610ad0565b5b610c5b84828501610bed565b91505092915050565b600073ffffffffffffffffffffffffffffffffffffffff82169050919050565b6000610c8f82610c64565b9050919050565b610c9f81610c84565b82525050565b6000602082019050610cba6000830184610c96565b92915050565b60008115159050919050565b610cd581610cc0565b82525050565b6000602082019050610cf06000830184610ccc565b92915050565b6000819050919050565b610d0981610cf6565b82525050565b6000602082019050610d246000830184610d00565b92915050565b610d3381610cf6565b8114610d3e57600080fd5b50565b600081359050610d5081610d2a565b92915050565b600060208284031215610d6c57610d6b610acb565b5b6000610d7a84828501610d41565b91505092915050565b610d8c81610c84565b8114610d9757600080fd5b50565b600081359050610da981610d83565b92915050565b600060208284031215610dc557610dc4610acb565b5b6000610dd384828501610d9a565b91505092915050565b600082825260208201905092915050565b7f6f6e6c792062616e64206f722076656e75650000000000000000000000000000600082015250565b6000610e23601283610ddc565b9150610e2e82610ded565b602082019050919050565b60006020820190508181036000830152610e5281610e16565b9050919050565b600081519050919050565b60005b83811015610e82578082015181840152602081019050610e67565b60008484015250505050565b6000610e9982610e59565b610ea38185610ddc565b9350610eb3818560208601610e64565b610ebc81610adf565b840191505092915050565b60006020820190508181036000830152610ee18184610e8e565b905092915050565b7f6f6e6c792063726561746f722063616e2063616c6c0000000000000000000000600082015250565b6000610f1f601583610ddc565b9150610f2a82610ee9565b602082019050919050565b60006020820190508181036000830152610f4e81610f12565b9050919050565b7f6f6e6c792076656e756500000000000000000000000000000000000000000000600082015250565b6000610f8b600a83610ddc565b9150610f9682610f55565b602082019050919050565b60006020820190508181036000830152610fba81610f7e565b905091905056fea26469706673582212203e8c0e2fab5afe88d7528f41f397d43ffe8f60aa16a77b6a4f578a0b4eb2480c64736f6c63430008110033",
  "linkReferences": {},
  "deployedLinkReferences": {}
}