{
  "_format": "hh-sol-artifact-1",
  "contractName": "CreateProfileNFT",
  "sourceName": "contracts/profilecontracts/CreateProfileNFT.sol",
  "abi": [
    {
      "inputs": [
        {
          "internalType": "address",
          "name": "_profileContract",
          "type": "address"
        }
      ],
      "stateMutability": "nonpayable",
      "type": "constructor"
    },
    {
      "anonymous": false,
      "inputs": [
        {
          "indexed": true,
          "internalType": "address",
          "name": "owner",
          "type": "address"
        },
        {
          "indexed": true,
          "internalType": "address",
          "name": "approved",
          "type": "address"
        },
        {
          "indexed": true,
          "internalType": "uint256",
          "name": "tokenId",
          "type": "uint256"
        }
      ],
      "name": "Approval",
      "type": "event"
    },
    {
      "anonymous": false,
      "inputs": [
        {
          "indexed": true,
          "internalType": "address",
          "name": "owner",
          "type": "address"
        },
        {
          "indexed": true,
          "internalType": "address",
          "name": "operator",
          "type": "address"
        },
        {
          "indexed": false,
          "internalType": "bool",
          "name": "approved",
          "type": "bool"
        }
      ],
      "name": "ApprovalForAll",
      "type": "event"
    },
    {
      "anonymous": false,
      "inputs": [
        {
          "indexed": true,
          "internalType": "address",
          "name": "from",
          "type": "address"
        },
        {
          "indexed": true,
          "internalType": "address",
          "name": "to",
          "type": "address"
        },
        {
          "indexed": true,
          "internalType": "uint256",
          "name": "tokenId",
          "type": "uint256"
        }
      ],
      "name": "Transfer",
      "type": "event"
    },
    {
      "inputs": [
        {
          "internalType": "address",
          "name": "to",
          "type": "address"
        },
        {
          "internalType": "uint256",
          "name": "tokenId",
          "type": "uint256"
        }
      ],
      "name": "approve",
      "outputs": [],
      "stateMutability": "nonpayable",
      "type": "function"
    },
    {
      "inputs": [
        {
          "internalType": "address",
          "name": "owner",
          "type": "address"
        }
      ],
      "name": "balanceOf",
      "outputs": [
        {
          "internalType": "uint256",
          "name": "",
          "type": "uint256"
        }
      ],
      "stateMutability": "view",
      "type": "function"
    },
    {
      "inputs": [
        {
          "internalType": "uint256",
          "name": "tokenId",
          "type": "uint256"
        }
      ],
      "name": "getApproved",
      "outputs": [
        {
          "internalType": "address",
          "name": "",
          "type": "address"
        }
      ],
      "stateMutability": "view",
      "type": "function"
    },
    {
      "inputs": [
        {
          "internalType": "address",
          "name": "owner",
          "type": "address"
        },
        {
          "internalType": "address",
          "name": "operator",
          "type": "address"
        }
      ],
      "name": "isApprovedForAll",
      "outputs": [
        {
          "internalType": "bool",
          "name": "",
          "type": "bool"
        }
      ],
      "stateMutability": "view",
      "type": "function"
    },
    {
      "inputs": [
        {
          "internalType": "string",
          "name": "_tokenUri",
          "type": "string"
        }
      ],
      "name": "makeNFT",
      "outputs": [
        {
          "internalType": "uint256",
          "name": "",
          "type": "uint256"
        }
      ],
      "stateMutability": "nonpayable",
      "type": "function"
    },
    {
      "inputs": [],
      "name": "name",
      "outputs": [
        {
          "internalType": "string",
          "name": "",
          "type": "string"
        }
      ],
      "stateMutability": "view",
      "type": "function"
    },
    {
      "inputs": [
        {
          "internalType": "uint256",
          "name": "tokenId",
          "type": "uint256"
        }
      ],
      "name": "ownerOf",
      "outputs": [
        {
          "internalType": "address",
          "name": "",
          "type": "address"
        }
      ],
      "stateMutability": "view",
      "type": "function"
    },
    {
      "inputs": [],
      "name": "profileContract",
      "outputs": [
        {
          "internalType": "address",
          "name": "",
          "type": "address"
        }
      ],
      "stateMutability": "view",
      "type": "function"
    },
    {
      "inputs": [
        {
          "internalType": "address",
          "name": "from",
          "type": "address"
        },
        {
          "internalType": "address",
          "name": "to",
          "type": "address"
        },
        {
          "internalType": "uint256",
          "name": "tokenId",
          "type": "uint256"
        }
      ],
      "name": "safeTransferFrom",
      "outputs": [],
      "stateMutability": "nonpayable",
      "type": "function"
    },
    {
      "inputs": [
        {
          "internalType": "address",
          "name": "from",
          "type": "address"
        },
        {
          "internalType": "address",
          "name": "to",
          "type": "address"
        },
        {
          "internalType": "uint256",
          "name": "tokenId",
          "type": "uint256"
        },
        {
          "internalType": "bytes",
          "name": "data",
          "type": "bytes"
        }
      ],
      "name": "safeTransferFrom",
      "outputs": [],
      "stateMutability": "nonpayable",
      "type": "function"
    },
    {
      "inputs": [
        {
          "internalType": "address",
          "name": "operator",
          "type": "address"
        },
        {
          "internalType": "bool",
          "name": "approved",
          "type": "bool"
        }
      ],
      "name": "setApprovalForAll",
      "outputs": [],
      "stateMutability": "nonpayable",
      "type": "function"
    },
    {
      "inputs": [
        {
          "internalType": "bytes4",
          "name": "interfaceId",
          "type": "bytes4"
        }
      ],
      "name": "supportsInterface",
      "outputs": [
        {
          "internalType": "bool",
          "name": "",
          "type": "bool"
        }
      ],
      "stateMutability": "view",
      "type": "function"
    },
    {
      "inputs": [],
      "name": "symbol",
      "outputs": [
        {
          "internalType": "string",
          "name": "",
          "type": "string"
        }
      ],
      "stateMutability": "view",
      "type": "function"
    },
    {
      "inputs": [
        {
          "internalType": "uint256",
          "name": "tokenId",
          "type": "uint256"
        }
      ],
      "name": "tokenURI",
      "outputs": [
        {
          "internalType": "string",
          "name": "",
          "type": "string"
        }
      ],
      "stateMutability": "view",
      "type": "function"
    },
    {
      "inputs": [
        {
          "internalType": "address",
          "name": "from",
          "type": "address"
        },
        {
          "internalType": "address",
          "name": "to",
          "type": "address"
        },
        {
          "internalType": "uint256",
          "name": "tokenId",
          "type": "uint256"
        }
      ],
      "name": "transferFrom",
      "outputs": [],
      "stateMutability": "nonpayable",
      "type": "function"
    }
  ],
  "bytecode": "0x60806040523480156200001157600080fd5b50604051620032103803806200321083398181016040528101906200003791906200017b565b6040518060400160405280600781526020017f43727970746978000000000000000000000000000000000000000000000000008152506040518060400160405280600381526020017f43545800000000000000000000000000000000000000000000000000000000008152508160009081620000b4919062000427565b508060019081620000c6919062000427565b50505080600860006101000a81548173ffffffffffffffffffffffffffffffffffffffff021916908373ffffffffffffffffffffffffffffffffffffffff160217905550506200050e565b600080fd5b600073ffffffffffffffffffffffffffffffffffffffff82169050919050565b6000620001438262000116565b9050919050565b620001558162000136565b81146200016157600080fd5b50565b60008151905062000175816200014a565b92915050565b60006020828403121562000194576200019362000111565b5b6000620001a48482850162000164565b91505092915050565b600081519050919050565b7f4e487b7100000000000000000000000000000000000000000000000000000000600052604160045260246000fd5b7f4e487b7100000000000000000000000000000000000000000000000000000000600052602260045260246000fd5b600060028204905060018216806200022f57607f821691505b602082108103620002455762000244620001e7565b5b50919050565b60008190508160005260206000209050919050565b60006020601f8301049050919050565b600082821b905092915050565b600060088302620002af7fffffffffffffffffffffffffffffffffffffffffffffffffffffffffffffffff8262000270565b620002bb868362000270565b95508019841693508086168417925050509392505050565b6000819050919050565b6000819050919050565b60006200030862000302620002fc84620002d3565b620002dd565b620002d3565b9050919050565b6000819050919050565b6200032483620002e7565b6200033c62000333826200030f565b8484546200027d565b825550505050565b600090565b6200035362000344565b6200036081848462000319565b505050565b5b8181101562000388576200037c60008262000349565b60018101905062000366565b5050565b601f821115620003d757620003a1816200024b565b620003ac8462000260565b81016020851015620003bc578190505b620003d4620003cb8562000260565b83018262000365565b50505b505050565b600082821c905092915050565b6000620003fc60001984600802620003dc565b1980831691505092915050565b6000620004178383620003e9565b9150826002028217905092915050565b6200043282620001ad565b67ffffffffffffffff8111156200044e576200044d620001b8565b5b6200045a825462000216565b620004678282856200038c565b600060209050601f8311600181146200049f57600084156200048a578287015190505b62000496858262000409565b86555062000506565b601f198416620004af866200024b565b60005b82811015620004d957848901518255600182019150602085019450602081019050620004b2565b86831015620004f95784890151620004f5601f891682620003e9565b8355505b6001600288020188555050505b505050505050565b612cf2806200051e6000396000f3fe608060405234801561001057600080fd5b50600436106100f55760003560e01c806370a0823111610097578063b88d4fde11610066578063b88d4fde14610284578063c87b56dd146102a0578063c910262f146102d0578063e985e9c514610300576100f5565b806370a08231146101fc57806395d89b411461022c578063a22cb4651461024a578063a3974b2114610266576100f5565b8063095ea7b3116100d3578063095ea7b31461017857806323b872dd1461019457806342842e0e146101b05780636352211e146101cc576100f5565b806301ffc9a7146100fa57806306fdde031461012a578063081812fc14610148575b600080fd5b610114600480360381019061010f9190611b34565b610330565b6040516101219190611b7c565b60405180910390f35b610132610412565b60405161013f9190611c27565b60405180910390f35b610162600480360381019061015d9190611c7f565b6104a4565b60405161016f9190611ced565b60405180910390f35b610192600480360381019061018d9190611d34565b6104ea565b005b6101ae60048036038101906101a99190611d74565b610601565b005b6101ca60048036038101906101c59190611d74565b610661565b005b6101e660048036038101906101e19190611c7f565b610681565b6040516101f39190611ced565b60405180910390f35b61021660048036038101906102119190611dc7565b610707565b6040516102239190611e03565b60405180910390f35b6102346107be565b6040516102419190611c27565b60405180910390f35b610264600480360381019061025f9190611e4a565b610850565b005b61026e610866565b60405161027b9190611ced565b60405180910390f35b61029e60048036038101906102999190611fbf565b61088c565b005b6102ba60048036038101906102b59190611c7f565b6108ee565b6040516102c79190611c27565b60405180910390f35b6102ea60048036038101906102e591906120e3565b610a00565b6040516102f79190611e03565b60405180910390f35b61031a6004803603810190610315919061212c565b610ac6565b6040516103279190611b7c565b60405180910390f35b60007f80ac58cd000000000000000000000000000000000000000000000000000000007bffffffffffffffffffffffffffffffffffffffffffffffffffffffff1916827bffffffffffffffffffffffffffffffffffffffffffffffffffffffff191614806103fb57507f5b5e139f000000000000000000000000000000000000000000000000000000007bffffffffffffffffffffffffffffffffffffffffffffffffffffffff1916827bffffffffffffffffffffffffffffffffffffffffffffffffffffffff1916145b8061040b575061040a82610b5a565b5b9050919050565b6060600080546104219061219b565b80601f016020809104026020016040519081016040528092919081815260200182805461044d9061219b565b801561049a5780601f1061046f5761010080835404028352916020019161049a565b820191906000526020600020905b81548152906001019060200180831161047d57829003601f168201915b5050505050905090565b60006104af82610bc4565b6004600083815260200190815260200160002060009054906101000a900473ffffffffffffffffffffffffffffffffffffffff169050919050565b60006104f582610681565b90508073ffffffffffffffffffffffffffffffffffffffff168373ffffffffffffffffffffffffffffffffffffffff1603610565576040517f08c379a000000000000000000000000000000000000000000000000000000000815260040161055c9061223e565b60405180910390fd5b8073ffffffffffffffffffffffffffffffffffffffff16610584610c0f565b73ffffffffffffffffffffffffffffffffffffffff1614806105b357506105b2816105ad610c0f565b610ac6565b5b6105f2576040517f08c379a00000000000000000000000000000000000000000000000000000000081526004016105e9906122d0565b60405180910390fd5b6105fc8383610c17565b505050565b61061261060c610c0f565b82610cd0565b610651576040517f08c379a000000000000000000000000000000000000000000000000000000000815260040161064890612362565b60405180910390fd5b61065c838383610d65565b505050565b61067c8383836040518060200160405280600081525061088c565b505050565b60008061068d8361105e565b9050600073ffffffffffffffffffffffffffffffffffffffff168173ffffffffffffffffffffffffffffffffffffffff16036106fe576040517f08c379a00000000000000000000000000000000000000000000000000000000081526004016106f5906123ce565b60405180910390fd5b80915050919050565b60008073ffffffffffffffffffffffffffffffffffffffff168273ffffffffffffffffffffffffffffffffffffffff1603610777576040517f08c379a000000000000000000000000000000000000000000000000000000000815260040161076e90612460565b60405180910390fd5b600360008373ffffffffffffffffffffffffffffffffffffffff1673ffffffffffffffffffffffffffffffffffffffff168152602001908152602001600020549050919050565b6060600180546107cd9061219b565b80601f01602080910402602001604051908101604052809291908181526020018280546107f99061219b565b80156108465780601f1061081b57610100808354040283529160200191610846565b820191906000526020600020905b81548152906001019060200180831161082957829003601f168201915b5050505050905090565b61086261085b610c0f565b838361109b565b5050565b600860009054906101000a900473ffffffffffffffffffffffffffffffffffffffff1681565b61089d610897610c0f565b83610cd0565b6108dc576040517f08c379a00000000000000000000000000000000000000000000000000000000081526004016108d390612362565b60405180910390fd5b6108e884848484611207565b50505050565b60606108f982610bc4565b60006006600084815260200190815260200160002080546109199061219b565b80601f01602080910402602001604051908101604052809291908181526020018280546109459061219b565b80156109925780601f1061096757610100808354040283529160200191610992565b820191906000526020600020905b81548152906001019060200180831161097557829003601f168201915b5050505050905060006109a3611263565b905060008151036109b85781925050506109fb565b6000825111156109ed5780826040516020016109d59291906124bc565b604051602081830303815290604052925050506109fb565b6109f68461127a565b925050505b919050565b6000610a0c60076112e2565b6000610a1860076112f8565b9050610a243382611306565b610a2e8184611523565b600860009054906101000a900473ffffffffffffffffffffffffffffffffffffffff1673ffffffffffffffffffffffffffffffffffffffff16635969db3a30836040518363ffffffff1660e01b8152600401610a8b9291906124e0565b600060405180830381600087803b158015610aa557600080fd5b505af1158015610ab9573d6000803e3d6000fd5b5050505080915050919050565b6000600560008473ffffffffffffffffffffffffffffffffffffffff1673ffffffffffffffffffffffffffffffffffffffff16815260200190815260200160002060008373ffffffffffffffffffffffffffffffffffffffff1673ffffffffffffffffffffffffffffffffffffffff16815260200190815260200160002060009054906101000a900460ff16905092915050565b60007f01ffc9a7000000000000000000000000000000000000000000000000000000007bffffffffffffffffffffffffffffffffffffffffffffffffffffffff1916827bffffffffffffffffffffffffffffffffffffffffffffffffffffffff1916149050919050565b610bcd81611590565b610c0c576040517f08c379a0000000000000000000000000000000000000000000000000000000008152600401610c03906123ce565b60405180910390fd5b50565b600033905090565b816004600083815260200190815260200160002060006101000a81548173ffffffffffffffffffffffffffffffffffffffff021916908373ffffffffffffffffffffffffffffffffffffffff160217905550808273ffffffffffffffffffffffffffffffffffffffff16610c8a83610681565b73ffffffffffffffffffffffffffffffffffffffff167f8c5be1e5ebec7d5bd14f71427d1e84f3dd0314c0f7b2291e5b200ac8c7c3b92560405160405180910390a45050565b600080610cdc83610681565b90508073ffffffffffffffffffffffffffffffffffffffff168473ffffffffffffffffffffffffffffffffffffffff161480610d1e5750610d1d8185610ac6565b5b80610d5c57508373ffffffffffffffffffffffffffffffffffffffff16610d44846104a4565b73ffffffffffffffffffffffffffffffffffffffff16145b91505092915050565b8273ffffffffffffffffffffffffffffffffffffffff16610d8582610681565b73ffffffffffffffffffffffffffffffffffffffff1614610ddb576040517f08c379a0000000000000000000000000000000000000000000000000000000008152600401610dd29061257b565b60405180910390fd5b600073ffffffffffffffffffffffffffffffffffffffff168273ffffffffffffffffffffffffffffffffffffffff1603610e4a576040517f08c379a0000000000000000000000000000000000000000000000000000000008152600401610e419061260d565b60405180910390fd5b610e5783838360016115d1565b8273ffffffffffffffffffffffffffffffffffffffff16610e7782610681565b73ffffffffffffffffffffffffffffffffffffffff1614610ecd576040517f08c379a0000000000000000000000000000000000000000000000000000000008152600401610ec49061257b565b60405180910390fd5b6004600082815260200190815260200160002060006101000a81549073ffffffffffffffffffffffffffffffffffffffff02191690556001600360008573ffffffffffffffffffffffffffffffffffffffff1673ffffffffffffffffffffffffffffffffffffffff168152602001908152602001600020600082825403925050819055506001600360008473ffffffffffffffffffffffffffffffffffffffff1673ffffffffffffffffffffffffffffffffffffffff16815260200190815260200160002060008282540192505081905550816002600083815260200190815260200160002060006101000a81548173ffffffffffffffffffffffffffffffffffffffff021916908373ffffffffffffffffffffffffffffffffffffffff160217905550808273ffffffffffffffffffffffffffffffffffffffff168473ffffffffffffffffffffffffffffffffffffffff167fddf252ad1be2c89b69c2b068fc378daa952ba7f163c4a11628f55a4df523b3ef60405160405180910390a461105983838360016116f7565b505050565b60006002600083815260200190815260200160002060009054906101000a900473ffffffffffffffffffffffffffffffffffffffff169050919050565b8173ffffffffffffffffffffffffffffffffffffffff168373ffffffffffffffffffffffffffffffffffffffff1603611109576040517f08c379a000000000000000000000000000000000000000000000000000000000815260040161110090612679565b60405180910390fd5b80600560008573ffffffffffffffffffffffffffffffffffffffff1673ffffffffffffffffffffffffffffffffffffffff16815260200190815260200160002060008473ffffffffffffffffffffffffffffffffffffffff1673ffffffffffffffffffffffffffffffffffffffff16815260200190815260200160002060006101000a81548160ff0219169083151502179055508173ffffffffffffffffffffffffffffffffffffffff168373ffffffffffffffffffffffffffffffffffffffff167f17307eab39ab6107e8899845ad3d59bd9653f200f220920489ca2b5937696c31836040516111fa9190611b7c565b60405180910390a3505050565b611212848484610d65565b61121e848484846116fd565b61125d576040517f08c379a00000000000000000000000000000000000000000000000000000000081526004016112549061270b565b60405180910390fd5b50505050565b606060405180602001604052806000815250905090565b606061128582610bc4565b600061128f611263565b905060008151116112af57604051806020016040528060008152506112da565b806112b984611884565b6040516020016112ca9291906124bc565b6040516020818303038152906040525b915050919050565b6001816000016000828254019250508190555050565b600081600001549050919050565b600073ffffffffffffffffffffffffffffffffffffffff168273ffffffffffffffffffffffffffffffffffffffff1603611375576040517f08c379a000000000000000000000000000000000000000000000000000000000815260040161136c90612777565b60405180910390fd5b61137e81611590565b156113be576040517f08c379a00000000000000000000000000000000000000000000000000000000081526004016113b5906127e3565b60405180910390fd5b6113cc6000838360016115d1565b6113d581611590565b15611415576040517f08c379a000000000000000000000000000000000000000000000000000000000815260040161140c906127e3565b60405180910390fd5b6001600360008473ffffffffffffffffffffffffffffffffffffffff1673ffffffffffffffffffffffffffffffffffffffff16815260200190815260200160002060008282540192505081905550816002600083815260200190815260200160002060006101000a81548173ffffffffffffffffffffffffffffffffffffffff021916908373ffffffffffffffffffffffffffffffffffffffff160217905550808273ffffffffffffffffffffffffffffffffffffffff16600073ffffffffffffffffffffffffffffffffffffffff167fddf252ad1be2c89b69c2b068fc378daa952ba7f163c4a11628f55a4df523b3ef60405160405180910390a461151f6000838360016116f7565b5050565b61152c82611590565b61156b576040517f08c379a000000000000000000000000000000000000000000000000000000000815260040161156290612875565b60405180910390fd5b8060066000848152602001908152602001600020908161158b9190612a41565b505050565b60008073ffffffffffffffffffffffffffffffffffffffff166115b28361105e565b73ffffffffffffffffffffffffffffffffffffffff1614159050919050565b60018111156116f157600073ffffffffffffffffffffffffffffffffffffffff168473ffffffffffffffffffffffffffffffffffffffff16146116655780600360008673ffffffffffffffffffffffffffffffffffffffff1673ffffffffffffffffffffffffffffffffffffffff168152602001908152602001600020600082825461165d9190612b42565b925050819055505b600073ffffffffffffffffffffffffffffffffffffffff168373ffffffffffffffffffffffffffffffffffffffff16146116f05780600360008573ffffffffffffffffffffffffffffffffffffffff1673ffffffffffffffffffffffffffffffffffffffff16815260200190815260200160002060008282546116e89190612b76565b925050819055505b5b50505050565b50505050565b600061171e8473ffffffffffffffffffffffffffffffffffffffff16611952565b15611877578373ffffffffffffffffffffffffffffffffffffffff1663150b7a02611747610c0f565b8786866040518563ffffffff1660e01b81526004016117699493929190612bff565b6020604051808303816000875af19250505080156117a557506040513d601f19601f820116820180604052508101906117a29190612c60565b60015b611827573d80600081146117d5576040519150601f19603f3d011682016040523d82523d6000602084013e6117da565b606091505b50600081510361181f576040517f08c379a00000000000000000000000000000000000000000000000000000000081526004016118169061270b565b60405180910390fd5b805181602001fd5b63150b7a0260e01b7bffffffffffffffffffffffffffffffffffffffffffffffffffffffff1916817bffffffffffffffffffffffffffffffffffffffffffffffffffffffff19161491505061187c565b600190505b949350505050565b60606000600161189384611975565b01905060008167ffffffffffffffff8111156118b2576118b1611e94565b5b6040519080825280601f01601f1916602001820160405280156118e45781602001600182028036833780820191505090505b509050600082602001820190505b600115611947578080600190039150507f3031323334353637383961626364656600000000000000000000000000000000600a86061a8153600a858161193b5761193a612c8d565b5b049450600085036118f2575b819350505050919050565b6000808273ffffffffffffffffffffffffffffffffffffffff163b119050919050565b600080600090507a184f03e93ff9f4daa797ed6e38ed64bf6a1f01000000000000000083106119d3577a184f03e93ff9f4daa797ed6e38ed64bf6a1f01000000000000000083816119c9576119c8612c8d565b5b0492506040810190505b6d04ee2d6d415b85acef81000000008310611a10576d04ee2d6d415b85acef81000000008381611a0657611a05612c8d565b5b0492506020810190505b662386f26fc100008310611a3f57662386f26fc100008381611a3557611a34612c8d565b5b0492506010810190505b6305f5e1008310611a68576305f5e1008381611a5e57611a5d612c8d565b5b0492506008810190505b6127108310611a8d576127108381611a8357611a82612c8d565b5b0492506004810190505b60648310611ab05760648381611aa657611aa5612c8d565b5b0492506002810190505b600a8310611abf576001810190505b80915050919050565b6000604051905090565b600080fd5b600080fd5b60007fffffffff0000000000000000000000000000000000000000000000000000000082169050919050565b611b1181611adc565b8114611b1c57600080fd5b50565b600081359050611b2e81611b08565b92915050565b600060208284031215611b4a57611b49611ad2565b5b6000611b5884828501611b1f565b91505092915050565b60008115159050919050565b611b7681611b61565b82525050565b6000602082019050611b916000830184611b6d565b92915050565b600081519050919050565b600082825260208201905092915050565b60005b83811015611bd1578082015181840152602081019050611bb6565b60008484015250505050565b6000601f19601f8301169050919050565b6000611bf982611b97565b611c038185611ba2565b9350611c13818560208601611bb3565b611c1c81611bdd565b840191505092915050565b60006020820190508181036000830152611c418184611bee565b905092915050565b6000819050919050565b611c5c81611c49565b8114611c6757600080fd5b50565b600081359050611c7981611c53565b92915050565b600060208284031215611c9557611c94611ad2565b5b6000611ca384828501611c6a565b91505092915050565b600073ffffffffffffffffffffffffffffffffffffffff82169050919050565b6000611cd782611cac565b9050919050565b611ce781611ccc565b82525050565b6000602082019050611d026000830184611cde565b92915050565b611d1181611ccc565b8114611d1c57600080fd5b50565b600081359050611d2e81611d08565b92915050565b60008060408385031215611d4b57611d4a611ad2565b5b6000611d5985828601611d1f565b9250506020611d6a85828601611c6a565b9150509250929050565b600080600060608486031215611d8d57611d8c611ad2565b5b6000611d9b86828701611d1f565b9350506020611dac86828701611d1f565b9250506040611dbd86828701611c6a565b9150509250925092565b600060208284031215611ddd57611ddc611ad2565b5b6000611deb84828501611d1f565b91505092915050565b611dfd81611c49565b82525050565b6000602082019050611e186000830184611df4565b92915050565b611e2781611b61565b8114611e3257600080fd5b50565b600081359050611e4481611e1e565b92915050565b60008060408385031215611e6157611e60611ad2565b5b6000611e6f85828601611d1f565b9250506020611e8085828601611e35565b9150509250929050565b600080fd5b600080fd5b7f4e487b7100000000000000000000000000000000000000000000000000000000600052604160045260246000fd5b611ecc82611bdd565b810181811067ffffffffffffffff82111715611eeb57611eea611e94565b5b80604052505050565b6000611efe611ac8565b9050611f0a8282611ec3565b919050565b600067ffffffffffffffff821115611f2a57611f29611e94565b5b611f3382611bdd565b9050602081019050919050565b82818337600083830152505050565b6000611f62611f5d84611f0f565b611ef4565b905082815260208101848484011115611f7e57611f7d611e8f565b5b611f89848285611f40565b509392505050565b600082601f830112611fa657611fa5611e8a565b5b8135611fb6848260208601611f4f565b91505092915050565b60008060008060808587031215611fd957611fd8611ad2565b5b6000611fe787828801611d1f565b9450506020611ff887828801611d1f565b935050604061200987828801611c6a565b925050606085013567ffffffffffffffff81111561202a57612029611ad7565b5b61203687828801611f91565b91505092959194509250565b600067ffffffffffffffff82111561205d5761205c611e94565b5b61206682611bdd565b9050602081019050919050565b600061208661208184612042565b611ef4565b9050828152602081018484840111156120a2576120a1611e8f565b5b6120ad848285611f40565b509392505050565b600082601f8301126120ca576120c9611e8a565b5b81356120da848260208601612073565b91505092915050565b6000602082840312156120f9576120f8611ad2565b5b600082013567ffffffffffffffff81111561211757612116611ad7565b5b612123848285016120b5565b91505092915050565b6000806040838503121561214357612142611ad2565b5b600061215185828601611d1f565b925050602061216285828601611d1f565b9150509250929050565b7f4e487b7100000000000000000000000000000000000000000000000000000000600052602260045260246000fd5b600060028204905060018216806121b357607f821691505b6020821081036121c6576121c561216c565b5b50919050565b7f4552433732313a20617070726f76616c20746f2063757272656e74206f776e6560008201527f7200000000000000000000000000000000000000000000000000000000000000602082015250565b6000612228602183611ba2565b9150612233826121cc565b604082019050919050565b600060208201905081810360008301526122578161221b565b9050919050565b7f4552433732313a20617070726f76652063616c6c6572206973206e6f7420746f60008201527f6b656e206f776e6572206f7220617070726f76656420666f7220616c6c000000602082015250565b60006122ba603d83611ba2565b91506122c58261225e565b604082019050919050565b600060208201905081810360008301526122e9816122ad565b9050919050565b7f4552433732313a2063616c6c6572206973206e6f7420746f6b656e206f776e6560008201527f72206f7220617070726f76656400000000000000000000000000000000000000602082015250565b600061234c602d83611ba2565b9150612357826122f0565b604082019050919050565b6000602082019050818103600083015261237b8161233f565b9050919050565b7f4552433732313a20696e76616c696420746f6b656e2049440000000000000000600082015250565b60006123b8601883611ba2565b91506123c382612382565b602082019050919050565b600060208201905081810360008301526123e7816123ab565b9050919050565b7f4552433732313a2061646472657373207a65726f206973206e6f74206120766160008201527f6c6964206f776e65720000000000000000000000000000000000000000000000602082015250565b600061244a602983611ba2565b9150612455826123ee565b604082019050919050565b600060208201905081810360008301526124798161243d565b9050919050565b600081905092915050565b600061249682611b97565b6124a08185612480565b93506124b0818560208601611bb3565b80840191505092915050565b60006124c8828561248b565b91506124d4828461248b565b91508190509392505050565b60006040820190506124f56000830185611cde565b6125026020830184611df4565b9392505050565b7f4552433732313a207472616e736665722066726f6d20696e636f72726563742060008201527f6f776e6572000000000000000000000000000000000000000000000000000000602082015250565b6000612565602583611ba2565b915061257082612509565b604082019050919050565b6000602082019050818103600083015261259481612558565b9050919050565b7f4552433732313a207472616e7366657220746f20746865207a65726f2061646460008201527f7265737300000000000000000000000000000000000000000000000000000000602082015250565b60006125f7602483611ba2565b91506126028261259b565b604082019050919050565b60006020820190508181036000830152612626816125ea565b9050919050565b7f4552433732313a20617070726f766520746f2063616c6c657200000000000000600082015250565b6000612663601983611ba2565b915061266e8261262d565b602082019050919050565b6000602082019050818103600083015261269281612656565b9050919050565b7f4552433732313a207472616e7366657220746f206e6f6e20455243373231526560008201527f63656976657220696d706c656d656e7465720000000000000000000000000000602082015250565b60006126f5603283611ba2565b915061270082612699565b604082019050919050565b60006020820190508181036000830152612724816126e8565b9050919050565b7f4552433732313a206d696e7420746f20746865207a65726f2061646472657373600082015250565b6000612761602083611ba2565b915061276c8261272b565b602082019050919050565b6000602082019050818103600083015261279081612754565b9050919050565b7f4552433732313a20746f6b656e20616c7265616479206d696e74656400000000600082015250565b60006127cd601c83611ba2565b91506127d882612797565b602082019050919050565b600060208201905081810360008301526127fc816127c0565b9050919050565b7f45524337323155524953746f726167653a2055524920736574206f66206e6f6e60008201527f6578697374656e7420746f6b656e000000000000000000000000000000000000602082015250565b600061285f602e83611ba2565b915061286a82612803565b604082019050919050565b6000602082019050818103600083015261288e81612852565b9050919050565b60008190508160005260206000209050919050565b60006020601f8301049050919050565b600082821b905092915050565b6000600883026128f77fffffffffffffffffffffffffffffffffffffffffffffffffffffffffffffffff826128ba565b61290186836128ba565b95508019841693508086168417925050509392505050565b6000819050919050565b600061293e61293961293484611c49565b612919565b611c49565b9050919050565b6000819050919050565b61295883612923565b61296c61296482612945565b8484546128c7565b825550505050565b600090565b612981612974565b61298c81848461294f565b505050565b5b818110156129b0576129a5600082612979565b600181019050612992565b5050565b601f8211156129f5576129c681612895565b6129cf846128aa565b810160208510156129de578190505b6129f26129ea856128aa565b830182612991565b50505b505050565b600082821c905092915050565b6000612a18600019846008026129fa565b1980831691505092915050565b6000612a318383612a07565b9150826002028217905092915050565b612a4a82611b97565b67ffffffffffffffff811115612a6357612a62611e94565b5b612a6d825461219b565b612a788282856129b4565b600060209050601f831160018114612aab5760008415612a99578287015190505b612aa38582612a25565b865550612b0b565b601f198416612ab986612895565b60005b82811015612ae157848901518255600182019150602085019450602081019050612abc565b86831015612afe5784890151612afa601f891682612a07565b8355505b6001600288020188555050505b505050505050565b7f4e487b7100000000000000000000000000000000000000000000000000000000600052601160045260246000fd5b6000612b4d82611c49565b9150612b5883611c49565b9250828203905081811115612b7057612b6f612b13565b5b92915050565b6000612b8182611c49565b9150612b8c83611c49565b9250828201905080821115612ba457612ba3612b13565b5b92915050565b600081519050919050565b600082825260208201905092915050565b6000612bd182612baa565b612bdb8185612bb5565b9350612beb818560208601611bb3565b612bf481611bdd565b840191505092915050565b6000608082019050612c146000830187611cde565b612c216020830186611cde565b612c2e6040830185611df4565b8181036060830152612c408184612bc6565b905095945050505050565b600081519050612c5a81611b08565b92915050565b600060208284031215612c7657612c75611ad2565b5b6000612c8484828501612c4b565b91505092915050565b7f4e487b7100000000000000000000000000000000000000000000000000000000600052601260045260246000fdfea2646970667358221220505aafc6b7c80a4f385c3bda9ce67a1eeda5d340090f7a91493e36a004527e5e64736f6c63430008110033",
  "linkReferences": {},
  "deployedLinkReferences": {}
}