{
  "_format": "hh-sol-artifact-1",
  "contractName": "CreatorContract",
  "sourceName": "contracts/CreatorContract.sol",
  "abi": [
    {
      "inputs": [
        {
          "internalType": "address",
          "name": "_createCon",
          "type": "address"
        },
        {
          "internalType": "address",
          "name": "_createTickAdd",
          "type": "address"
        }
      ],
      "stateMutability": "nonpayable",
      "type": "constructor"
    },
    {
      "inputs": [
        {
          "internalType": "uint256",
          "name": "",
          "type": "uint256"
        }
      ],
      "name": "allShows",
      "outputs": [
        {
          "internalType": "string",
          "name": "showName",
          "type": "string"
        },
        {
          "internalType": "address",
          "name": "ticketAddress",
          "type": "address"
        },
        {
          "internalType": "address",
          "name": "escrowAddress",
          "type": "address"
        },
        {
          "internalType": "address",
          "name": "controllerContract",
          "type": "address"
        },
        {
          "internalType": "address",
          "name": "band",
          "type": "address"
        },
        {
          "internalType": "address",
          "name": "venue",
          "type": "address"
        },
        {
          "internalType": "uint256",
          "name": "showTime",
          "type": "uint256"
        },
        {
          "internalType": "uint256",
          "name": "price",
          "type": "uint256"
        },
        {
          "internalType": "bool",
          "name": "completed",
          "type": "bool"
        }
      ],
      "stateMutability": "view",
      "type": "function"
    },
    {
      "inputs": [],
      "name": "createContAdd",
      "outputs": [
        {
          "internalType": "address",
          "name": "",
          "type": "address"
        }
      ],
      "stateMutability": "view",
      "type": "function"
    },
    {
      "inputs": [
        {
          "internalType": "string",
          "name": "_name",
          "type": "string"
        },
        {
          "internalType": "string",
          "name": "_symbol",
          "type": "string"
        },
        {
          "internalType": "address",
          "name": "_bandAddress",
          "type": "address"
        },
        {
          "internalType": "uint256",
          "name": "endDate",
          "type": "uint256"
        },
        {
          "internalType": "uint256",
          "name": "price",
          "type": "uint256"
        }
      ],
      "name": "createShow",
      "outputs": [],
      "stateMutability": "nonpayable",
      "type": "function"
    },
    {
      "inputs": [],
      "name": "createTickAdd",
      "outputs": [
        {
          "internalType": "address",
          "name": "",
          "type": "address"
        }
      ],
      "stateMutability": "view",
      "type": "function"
    },
    {
      "inputs": [],
      "name": "returnAllShows",
      "outputs": [
        {
          "components": [
            {
              "internalType": "string",
              "name": "showName",
              "type": "string"
            },
            {
              "internalType": "address",
              "name": "ticketAddress",
              "type": "address"
            },
            {
              "internalType": "address",
              "name": "escrowAddress",
              "type": "address"
            },
            {
              "internalType": "address",
              "name": "controllerContract",
              "type": "address"
            },
            {
              "internalType": "address",
              "name": "band",
              "type": "address"
            },
            {
              "internalType": "address",
              "name": "venue",
              "type": "address"
            },
            {
              "internalType": "uint256",
              "name": "showTime",
              "type": "uint256"
            },
            {
              "internalType": "uint256",
              "name": "price",
              "type": "uint256"
            },
            {
              "internalType": "bool",
              "name": "completed",
              "type": "bool"
            }
          ],
          "internalType": "struct CreatorContract.Show[]",
          "name": "",
          "type": "tuple[]"
        }
      ],
      "stateMutability": "view",
      "type": "function"
    },
    {
      "inputs": [
        {
          "internalType": "address",
          "name": "",
          "type": "address"
        }
      ],
      "name": "showAddress",
      "outputs": [
        {
          "internalType": "string",
          "name": "showName",
          "type": "string"
        },
        {
          "internalType": "address",
          "name": "ticketAddress",
          "type": "address"
        },
        {
          "internalType": "address",
          "name": "escrowAddress",
          "type": "address"
        },
        {
          "internalType": "address",
          "name": "controllerContract",
          "type": "address"
        },
        {
          "internalType": "address",
          "name": "band",
          "type": "address"
        },
        {
          "internalType": "address",
          "name": "venue",
          "type": "address"
        },
        {
          "internalType": "uint256",
          "name": "showTime",
          "type": "uint256"
        },
        {
          "internalType": "uint256",
          "name": "price",
          "type": "uint256"
        },
        {
          "internalType": "bool",
          "name": "completed",
          "type": "bool"
        }
      ],
      "stateMutability": "view",
      "type": "function"
    },
    {
      "inputs": [],
      "name": "showNumber",
      "outputs": [
        {
          "internalType": "uint256",
          "name": "",
          "type": "uint256"
        }
      ],
      "stateMutability": "view",
      "type": "function"
    },
    {
      "stateMutability": "payable",
      "type": "receive"
    }
  ],
  "bytecode": "0x60806040523480156200001157600080fd5b506040516200255d3803806200255d83398181016040528101906200003791906200012b565b81600160006101000a81548173ffffffffffffffffffffffffffffffffffffffff021916908373ffffffffffffffffffffffffffffffffffffffff16021790555080600260006101000a81548173ffffffffffffffffffffffffffffffffffffffff021916908373ffffffffffffffffffffffffffffffffffffffff160217905550505062000172565b600080fd5b600073ffffffffffffffffffffffffffffffffffffffff82169050919050565b6000620000f382620000c6565b9050919050565b6200010581620000e6565b81146200011157600080fd5b50565b6000815190506200012581620000fa565b92915050565b60008060408385031215620001455762000144620000c1565b5b6000620001558582860162000114565b9250506020620001688582860162000114565b9150509250929050565b6123db80620001826000396000f3fe6080604052600436106100745760003560e01c80639f65c0d01161004e5780639f65c0d014610101578063a3f50f4214610146578063d64d79d014610171578063d7f2600b146101b65761007b565b8063473025b3146100805780635d4a389a146100ab57806376dad223146100d65761007b565b3661007b57005b600080fd5b34801561008c57600080fd5b506100956101df565b6040516100a29190611114565b60405180910390f35b3480156100b757600080fd5b506100c0610205565b6040516100cd9190611114565b60405180910390f35b3480156100e257600080fd5b506100eb61022b565b6040516100f89190611148565b60405180910390f35b34801561010d57600080fd5b50610128600480360381019061012391906111a3565b610231565b60405161013d9998979695949392919061127b565b60405180910390f35b34801561015257600080fd5b5061015b6103b4565b604051610168919061150d565b60405180910390f35b34801561017d57600080fd5b506101986004803603810190610193919061155b565b6106e3565b6040516101ad9998979695949392919061127b565b60405180910390f35b3480156101c257600080fd5b506101dd60048036038101906101d891906116bd565b610866565b005b600260009054906101000a900473ffffffffffffffffffffffffffffffffffffffff1681565b600160009054906101000a900473ffffffffffffffffffffffffffffffffffffffff1681565b60005481565b60046020528060005260406000206000915090508060000180546102549061179f565b80601f01602080910402602001604051908101604052809291908181526020018280546102809061179f565b80156102cd5780601f106102a2576101008083540402835291602001916102cd565b820191906000526020600020905b8154815290600101906020018083116102b057829003601f168201915b5050505050908060010160009054906101000a900473ffffffffffffffffffffffffffffffffffffffff16908060020160009054906101000a900473ffffffffffffffffffffffffffffffffffffffff16908060030160009054906101000a900473ffffffffffffffffffffffffffffffffffffffff16908060040160009054906101000a900473ffffffffffffffffffffffffffffffffffffffff16908060050160009054906101000a900473ffffffffffffffffffffffffffffffffffffffff16908060060154908060070154908060080160009054906101000a900460ff16905089565b60606000805467ffffffffffffffff8111156103d3576103d2611592565b5b60405190808252806020026020018201604052801561040c57816020015b6103f961100a565b8152602001906001900390816103f15790505b50905060005b6000548110156106db57600360008281526020019081526020016000206040518061012001604052908160008201805461044b9061179f565b80601f01602080910402602001604051908101604052809291908181526020018280546104779061179f565b80156104c45780601f10610499576101008083540402835291602001916104c4565b820191906000526020600020905b8154815290600101906020018083116104a757829003601f168201915b505050505081526020016001820160009054906101000a900473ffffffffffffffffffffffffffffffffffffffff1673ffffffffffffffffffffffffffffffffffffffff1673ffffffffffffffffffffffffffffffffffffffff1681526020016002820160009054906101000a900473ffffffffffffffffffffffffffffffffffffffff1673ffffffffffffffffffffffffffffffffffffffff1673ffffffffffffffffffffffffffffffffffffffff1681526020016003820160009054906101000a900473ffffffffffffffffffffffffffffffffffffffff1673ffffffffffffffffffffffffffffffffffffffff1673ffffffffffffffffffffffffffffffffffffffff1681526020016004820160009054906101000a900473ffffffffffffffffffffffffffffffffffffffff1673ffffffffffffffffffffffffffffffffffffffff1673ffffffffffffffffffffffffffffffffffffffff1681526020016005820160009054906101000a900473ffffffffffffffffffffffffffffffffffffffff1673ffffffffffffffffffffffffffffffffffffffff1673ffffffffffffffffffffffffffffffffffffffff16815260200160068201548152602001600782015481526020016008820160009054906101000a900460ff1615151515815250508282815181106106bd576106bc6117d0565b5b602002602001018190525080806106d39061182e565b915050610412565b508091505090565b60036020528060005260406000206000915090508060000180546107069061179f565b80601f01602080910402602001604051908101604052809291908181526020018280546107329061179f565b801561077f5780601f106107545761010080835404028352916020019161077f565b820191906000526020600020905b81548152906001019060200180831161076257829003601f168201915b5050505050908060010160009054906101000a900473ffffffffffffffffffffffffffffffffffffffff16908060020160009054906101000a900473ffffffffffffffffffffffffffffffffffffffff16908060030160009054906101000a900473ffffffffffffffffffffffffffffffffffffffff16908060040160009054906101000a900473ffffffffffffffffffffffffffffffffffffffff16908060050160009054906101000a900473ffffffffffffffffffffffffffffffffffffffff16908060060154908060070154908060080160009054906101000a900460ff16905089565b6000808154809291906108789061182e565b91905055506000428361088b9190611876565b9050600060405161089b906110c6565b604051809103906000f0801580156108b7573d6000803e3d6000fd5b5090506000600260009054906101000a900473ffffffffffffffffffffffffffffffffffffffff1673ffffffffffffffffffffffffffffffffffffffff1663f14dde178989858a33898b6040518863ffffffff1660e01b815260040161092397969594939291906118aa565b6020604051808303816000875af1158015610942573d6000803e3d6000fd5b505050506040513d601f19601f82011682018060405250810190610966919061193c565b90506000600160009054906101000a900473ffffffffffffffffffffffffffffffffffffffff1673ffffffffffffffffffffffffffffffffffffffff1663dd5de44d6000548933866040518563ffffffff1660e01b81526004016109cd9493929190611969565b6020604051808303816000875af11580156109ec573d6000803e3d6000fd5b505050506040513d601f19601f82011682018060405250810190610a10919061193c565b90508173ffffffffffffffffffffffffffffffffffffffff16638f283970826040518263ffffffff1660e01b8152600401610a4b9190611114565b600060405180830381600087803b158015610a6557600080fd5b505af1158015610a79573d6000803e3d6000fd5b505050508273ffffffffffffffffffffffffffffffffffffffff1663c0caa772836040518263ffffffff1660e01b8152600401610ab69190611114565b600060405180830381600087803b158015610ad057600080fd5b505af1158015610ae4573d6000803e3d6000fd5b505050506040518061012001604052808a81526020018373ffffffffffffffffffffffffffffffffffffffff1681526020018473ffffffffffffffffffffffffffffffffffffffff1681526020018273ffffffffffffffffffffffffffffffffffffffff1681526020018873ffffffffffffffffffffffffffffffffffffffff1681526020013373ffffffffffffffffffffffffffffffffffffffff1681526020018581526020018681526020016000151581525060036000805481526020019081526020016000206000820151816000019081610bc29190611b5a565b5060208201518160010160006101000a81548173ffffffffffffffffffffffffffffffffffffffff021916908373ffffffffffffffffffffffffffffffffffffffff16021790555060408201518160020160006101000a81548173ffffffffffffffffffffffffffffffffffffffff021916908373ffffffffffffffffffffffffffffffffffffffff16021790555060608201518160030160006101000a81548173ffffffffffffffffffffffffffffffffffffffff021916908373ffffffffffffffffffffffffffffffffffffffff16021790555060808201518160040160006101000a81548173ffffffffffffffffffffffffffffffffffffffff021916908373ffffffffffffffffffffffffffffffffffffffff16021790555060a08201518160050160006101000a81548173ffffffffffffffffffffffffffffffffffffffff021916908373ffffffffffffffffffffffffffffffffffffffff16021790555060c0820151816006015560e082015181600701556101008201518160080160006101000a81548160ff0219169083151502179055509050506040518061012001604052808a81526020018373ffffffffffffffffffffffffffffffffffffffff1681526020018473ffffffffffffffffffffffffffffffffffffffff1681526020018273ffffffffffffffffffffffffffffffffffffffff1681526020018873ffffffffffffffffffffffffffffffffffffffff1681526020013373ffffffffffffffffffffffffffffffffffffffff16815260200185815260200186815260200160001515815250600460008473ffffffffffffffffffffffffffffffffffffffff1673ffffffffffffffffffffffffffffffffffffffff1681526020019081526020016000206000820151816000019081610e639190611b5a565b5060208201518160010160006101000a81548173ffffffffffffffffffffffffffffffffffffffff021916908373ffffffffffffffffffffffffffffffffffffffff16021790555060408201518160020160006101000a81548173ffffffffffffffffffffffffffffffffffffffff021916908373ffffffffffffffffffffffffffffffffffffffff16021790555060608201518160030160006101000a81548173ffffffffffffffffffffffffffffffffffffffff021916908373ffffffffffffffffffffffffffffffffffffffff16021790555060808201518160040160006101000a81548173ffffffffffffffffffffffffffffffffffffffff021916908373ffffffffffffffffffffffffffffffffffffffff16021790555060a08201518160050160006101000a81548173ffffffffffffffffffffffffffffffffffffffff021916908373ffffffffffffffffffffffffffffffffffffffff16021790555060c0820151816006015560e082015181600701556101008201518160080160006101000a81548160ff021916908315150217905550905050505050505050505050565b60405180610120016040528060608152602001600073ffffffffffffffffffffffffffffffffffffffff168152602001600073ffffffffffffffffffffffffffffffffffffffff168152602001600073ffffffffffffffffffffffffffffffffffffffff168152602001600073ffffffffffffffffffffffffffffffffffffffff168152602001600073ffffffffffffffffffffffffffffffffffffffff16815260200160008152602001600081526020016000151581525090565b61077980611c2d83390190565b600073ffffffffffffffffffffffffffffffffffffffff82169050919050565b60006110fe826110d3565b9050919050565b61110e816110f3565b82525050565b60006020820190506111296000830184611105565b92915050565b6000819050919050565b6111428161112f565b82525050565b600060208201905061115d6000830184611139565b92915050565b6000604051905090565b600080fd5b600080fd5b611180816110f3565b811461118b57600080fd5b50565b60008135905061119d81611177565b92915050565b6000602082840312156111b9576111b861116d565b5b60006111c78482850161118e565b91505092915050565b600081519050919050565b600082825260208201905092915050565b60005b8381101561120a5780820151818401526020810190506111ef565b60008484015250505050565b6000601f19601f8301169050919050565b6000611232826111d0565b61123c81856111db565b935061124c8185602086016111ec565b61125581611216565b840191505092915050565b60008115159050919050565b61127581611260565b82525050565b6000610120820190508181036000830152611296818c611227565b90506112a5602083018b611105565b6112b2604083018a611105565b6112bf6060830189611105565b6112cc6080830188611105565b6112d960a0830187611105565b6112e660c0830186611139565b6112f360e0830185611139565b61130161010083018461126c565b9a9950505050505050505050565b600081519050919050565b600082825260208201905092915050565b6000819050602082019050919050565b600082825260208201905092915050565b6000611357826111d0565b611361818561133b565b93506113718185602086016111ec565b61137a81611216565b840191505092915050565b61138e816110f3565b82525050565b61139d8161112f565b82525050565b6113ac81611260565b82525050565b60006101208301600083015184820360008601526113d0828261134c565b91505060208301516113e56020860182611385565b5060408301516113f86040860182611385565b50606083015161140b6060860182611385565b50608083015161141e6080860182611385565b5060a083015161143160a0860182611385565b5060c083015161144460c0860182611394565b5060e083015161145760e0860182611394565b5061010083015161146c6101008601826113a3565b508091505092915050565b600061148383836113b2565b905092915050565b6000602082019050919050565b60006114a38261130f565b6114ad818561131a565b9350836020820285016114bf8561132b565b8060005b858110156114fb57848403895281516114dc8582611477565b94506114e78361148b565b925060208a019950506001810190506114c3565b50829750879550505050505092915050565b600060208201905081810360008301526115278184611498565b905092915050565b6115388161112f565b811461154357600080fd5b50565b6000813590506115558161152f565b92915050565b6000602082840312156115715761157061116d565b5b600061157f84828501611546565b91505092915050565b600080fd5b600080fd5b7f4e487b7100000000000000000000000000000000000000000000000000000000600052604160045260246000fd5b6115ca82611216565b810181811067ffffffffffffffff821117156115e9576115e8611592565b5b80604052505050565b60006115fc611163565b905061160882826115c1565b919050565b600067ffffffffffffffff82111561162857611627611592565b5b61163182611216565b9050602081019050919050565b82818337600083830152505050565b600061166061165b8461160d565b6115f2565b90508281526020810184848401111561167c5761167b61158d565b5b61168784828561163e565b509392505050565b600082601f8301126116a4576116a3611588565b5b81356116b484826020860161164d565b91505092915050565b600080600080600060a086880312156116d9576116d861116d565b5b600086013567ffffffffffffffff8111156116f7576116f6611172565b5b6117038882890161168f565b955050602086013567ffffffffffffffff81111561172457611723611172565b5b6117308882890161168f565b94505060406117418882890161118e565b935050606061175288828901611546565b925050608061176388828901611546565b9150509295509295909350565b7f4e487b7100000000000000000000000000000000000000000000000000000000600052602260045260246000fd5b600060028204905060018216806117b757607f821691505b6020821081036117ca576117c9611770565b5b50919050565b7f4e487b7100000000000000000000000000000000000000000000000000000000600052603260045260246000fd5b7f4e487b7100000000000000000000000000000000000000000000000000000000600052601160045260246000fd5b60006118398261112f565b91507fffffffffffffffffffffffffffffffffffffffffffffffffffffffffffffffff820361186b5761186a6117ff565b5b600182019050919050565b60006118818261112f565b915061188c8361112f565b92508282019050808211156118a4576118a36117ff565b5b92915050565b600060e08201905081810360008301526118c4818a611227565b905081810360208301526118d88189611227565b90506118e76040830188611105565b6118f46060830187611105565b6119016080830186611105565b61190e60a0830185611139565b61191b60c0830184611139565b98975050505050505050565b60008151905061193681611177565b92915050565b6000602082840312156119525761195161116d565b5b600061196084828501611927565b91505092915050565b600060808201905061197e6000830187611139565b61198b6020830186611105565b6119986040830185611105565b6119a56060830184611105565b95945050505050565b60008190508160005260206000209050919050565b60006020601f8301049050919050565b600082821b905092915050565b600060088302611a107fffffffffffffffffffffffffffffffffffffffffffffffffffffffffffffffff826119d3565b611a1a86836119d3565b95508019841693508086168417925050509392505050565b6000819050919050565b6000611a57611a52611a4d8461112f565b611a32565b61112f565b9050919050565b6000819050919050565b611a7183611a3c565b611a85611a7d82611a5e565b8484546119e0565b825550505050565b600090565b611a9a611a8d565b611aa5818484611a68565b505050565b5b81811015611ac957611abe600082611a92565b600181019050611aab565b5050565b601f821115611b0e57611adf816119ae565b611ae8846119c3565b81016020851015611af7578190505b611b0b611b03856119c3565b830182611aaa565b50505b505050565b600082821c905092915050565b6000611b3160001984600802611b13565b1980831691505092915050565b6000611b4a8383611b20565b9150826002028217905092915050565b611b63826111d0565b67ffffffffffffffff811115611b7c57611b7b611592565b5b611b86825461179f565b611b91828285611acd565b600060209050601f831160018114611bc45760008415611bb2578287015190505b611bbc8582611b3e565b865550611c24565b601f198416611bd2866119ae565b60005b82811015611bfa57848901518255600182019150602085019450602081019050611bd5565b86831015611c175784890151611c13601f891682611b20565b8355505b6001600288020188555050505b50505050505056fe608060405234801561001057600080fd5b50336000806101000a81548173ffffffffffffffffffffffffffffffffffffffff021916908373ffffffffffffffffffffffffffffffffffffffff160217905550610719806100606000396000f3fe60806040526004361061004e5760003560e01c80631162f3dd1461005a57806369d8957514610085578063a99c20a31461008f578063c0c1a370146100b8578063c0caa772146100e157610055565b3661005557005b600080fd5b34801561006657600080fd5b5061006f61010a565b60405161007c919061048a565b60405180910390f35b61008d610110565b005b34801561009b57600080fd5b506100b660048036038101906100b191906104d6565b61020b565b005b3480156100c457600080fd5b506100df60048036038101906100da91906104d6565b610307565b005b3480156100ed57600080fd5b5061010860048036038101906101039190610561565b61039f565b005b60025481565b600160009054906101000a900473ffffffffffffffffffffffffffffffffffffffff1673ffffffffffffffffffffffffffffffffffffffff163373ffffffffffffffffffffffffffffffffffffffff16146101a0576040517f08c379a0000000000000000000000000000000000000000000000000000000008152600401610197906105eb565b60405180910390fd5b600160009054906101000a900473ffffffffffffffffffffffffffffffffffffffff1673ffffffffffffffffffffffffffffffffffffffff166108fc479081150290604051600060405180830381858888f19350505050158015610208573d6000803e3d6000fd5b50565b600160009054906101000a900473ffffffffffffffffffffffffffffffffffffffff1673ffffffffffffffffffffffffffffffffffffffff163373ffffffffffffffffffffffffffffffffffffffff161461029b576040517f08c379a0000000000000000000000000000000000000000000000000000000008152600401610292906105eb565b60405180910390fd5b600160009054906101000a900473ffffffffffffffffffffffffffffffffffffffff1673ffffffffffffffffffffffffffffffffffffffff166108fc829081150290604051600060405180830381858888f19350505050158015610303573d6000803e3d6000fd5b5050565b60008054906101000a900473ffffffffffffffffffffffffffffffffffffffff1673ffffffffffffffffffffffffffffffffffffffff163373ffffffffffffffffffffffffffffffffffffffff1614610395576040517f08c379a000000000000000000000000000000000000000000000000000000000815260040161038c90610657565b60405180910390fd5b8060028190555050565b60008054906101000a900473ffffffffffffffffffffffffffffffffffffffff1673ffffffffffffffffffffffffffffffffffffffff163373ffffffffffffffffffffffffffffffffffffffff161461042d576040517f08c379a0000000000000000000000000000000000000000000000000000000008152600401610424906106c3565b60405180910390fd5b80600160006101000a81548173ffffffffffffffffffffffffffffffffffffffff021916908373ffffffffffffffffffffffffffffffffffffffff16021790555050565b6000819050919050565b61048481610471565b82525050565b600060208201905061049f600083018461047b565b92915050565b600080fd5b6104b381610471565b81146104be57600080fd5b50565b6000813590506104d0816104aa565b92915050565b6000602082840312156104ec576104eb6104a5565b5b60006104fa848285016104c1565b91505092915050565b600073ffffffffffffffffffffffffffffffffffffffff82169050919050565b600061052e82610503565b9050919050565b61053e81610523565b811461054957600080fd5b50565b60008135905061055b81610535565b92915050565b600060208284031215610577576105766104a5565b5b60006105858482850161054c565b91505092915050565b600082825260208201905092915050565b7f6f6e6c79207469636b6574732066756e6374696f6e0000000000000000000000600082015250565b60006105d560158361058e565b91506105e08261059f565b602082019050919050565b60006020820190508181036000830152610604816105c8565b9050919050565b7f6f6e6c792061646d696e2066756e6374696f6e00000000000000000000000000600082015250565b600061064160138361058e565b915061064c8261060b565b602082019050919050565b6000602082019050818103600083015261067081610634565b9050919050565b7f6f6e6c792061646d696e00000000000000000000000000000000000000000000600082015250565b60006106ad600a8361058e565b91506106b882610677565b602082019050919050565b600060208201905081810360008301526106dc816106a0565b905091905056fea2646970667358221220e09c33777463e2c12b5981c6ce70732819a76af192b711d87a9319fd2f25d66964736f6c63430008110033a2646970667358221220d48133303e5d5a6754c5b075e3ff68c4913db9be4b9cefcbe4a48518b1d2d5d364736f6c63430008110033",
  "linkReferences": {},
  "deployedLinkReferences": {}
}