{
  "_format": "hh-sol-artifact-1",
  "contractName": "CreatorContract",
  "sourceName": "contracts/CreatorContract.sol",
  "abi": [
    {
      "inputs": [
        {
          "internalType": "address",
          "name": "_createCon",
          "type": "address"
        },
        {
          "internalType": "address",
          "name": "_createTickAdd",
          "type": "address"
        }
      ],
      "stateMutability": "nonpayable",
      "type": "constructor"
    },
    {
      "inputs": [
        {
          "internalType": "uint256",
          "name": "",
          "type": "uint256"
        }
      ],
      "name": "allShows",
      "outputs": [
        {
          "internalType": "string",
          "name": "showName",
          "type": "string"
        },
        {
          "internalType": "address",
          "name": "ticketAddress",
          "type": "address"
        },
        {
          "internalType": "address",
          "name": "escrowAddress",
          "type": "address"
        },
        {
          "internalType": "address",
          "name": "controllerContract",
          "type": "address"
        },
        {
          "internalType": "address",
          "name": "band",
          "type": "address"
        },
        {
          "internalType": "address",
          "name": "venue",
          "type": "address"
        },
        {
          "internalType": "uint256",
          "name": "showTime",
          "type": "uint256"
        },
        {
          "internalType": "uint256",
          "name": "price",
          "type": "uint256"
        },
        {
          "internalType": "bool",
          "name": "completed",
          "type": "bool"
        }
      ],
      "stateMutability": "view",
      "type": "function"
    },
    {
      "inputs": [],
      "name": "createContAdd",
      "outputs": [
        {
          "internalType": "address",
          "name": "",
          "type": "address"
        }
      ],
      "stateMutability": "view",
      "type": "function"
    },
    {
      "inputs": [
        {
          "internalType": "string",
          "name": "_name",
          "type": "string"
        },
        {
          "internalType": "string",
          "name": "_symbol",
          "type": "string"
        },
        {
          "internalType": "address",
          "name": "_bandAddress",
          "type": "address"
        },
        {
          "internalType": "address",
          "name": "_venueAddress",
          "type": "address"
        },
        {
          "internalType": "uint256",
          "name": "endDate",
          "type": "uint256"
        },
        {
          "internalType": "uint256",
          "name": "price",
          "type": "uint256"
        }
      ],
      "name": "createShow",
      "outputs": [],
      "stateMutability": "nonpayable",
      "type": "function"
    },
    {
      "inputs": [],
      "name": "createTickAdd",
      "outputs": [
        {
          "internalType": "address",
          "name": "",
          "type": "address"
        }
      ],
      "stateMutability": "view",
      "type": "function"
    },
    {
      "inputs": [],
      "name": "returnAllShows",
      "outputs": [
        {
          "components": [
            {
              "internalType": "string",
              "name": "showName",
              "type": "string"
            },
            {
              "internalType": "address",
              "name": "ticketAddress",
              "type": "address"
            },
            {
              "internalType": "address",
              "name": "escrowAddress",
              "type": "address"
            },
            {
              "internalType": "address",
              "name": "controllerContract",
              "type": "address"
            },
            {
              "internalType": "address",
              "name": "band",
              "type": "address"
            },
            {
              "internalType": "address",
              "name": "venue",
              "type": "address"
            },
            {
              "internalType": "uint256",
              "name": "showTime",
              "type": "uint256"
            },
            {
              "internalType": "uint256",
              "name": "price",
              "type": "uint256"
            },
            {
              "internalType": "bool",
              "name": "completed",
              "type": "bool"
            }
          ],
          "internalType": "struct CreatorContract.Show[]",
          "name": "",
          "type": "tuple[]"
        }
      ],
      "stateMutability": "view",
      "type": "function"
    },
    {
      "inputs": [],
      "name": "showNumber",
      "outputs": [
        {
          "internalType": "uint256",
          "name": "",
          "type": "uint256"
        }
      ],
      "stateMutability": "view",
      "type": "function"
    },
    {
      "stateMutability": "payable",
      "type": "receive"
    }
  ],
  "bytecode": "0x60806040523480156200001157600080fd5b50604051620020bf380380620020bf83398181016040528101906200003791906200012b565b81600160006101000a81548173ffffffffffffffffffffffffffffffffffffffff021916908373ffffffffffffffffffffffffffffffffffffffff16021790555080600260006101000a81548173ffffffffffffffffffffffffffffffffffffffff021916908373ffffffffffffffffffffffffffffffffffffffff160217905550505062000172565b600080fd5b600073ffffffffffffffffffffffffffffffffffffffff82169050919050565b6000620000f382620000c6565b9050919050565b6200010581620000e6565b81146200011157600080fd5b50565b6000815190506200012581620000fa565b92915050565b60008060408385031215620001455762000144620000c1565b5b6000620001558582860162000114565b9250506020620001688582860162000114565b9150509250929050565b611f3d80620001826000396000f3fe6080604052600436106100595760003560e01c8063473025b3146100655780635d4a389a14610090578063711da84b146100bb57806376dad223146100e4578063a3f50f421461010f578063d64d79d01461013a57610060565b3661006057005b600080fd5b34801561007157600080fd5b5061007a61017f565b6040516100879190610c91565b60405180910390f35b34801561009c57600080fd5b506100a56101a5565b6040516100b29190610c91565b60405180910390f35b3480156100c757600080fd5b506100e260048036038101906100dd9190610e68565b6101cb565b005b3480156100f057600080fd5b506100f96106cf565b6040516101069190610f3c565b60405180910390f35b34801561011b57600080fd5b506101246106d5565b6040516101319190611196565b60405180910390f35b34801561014657600080fd5b50610161600480360381019061015c91906111b8565b610a04565b6040516101769998979695949392919061123e565b60405180910390f35b600260009054906101000a900473ffffffffffffffffffffffffffffffffffffffff1681565b600160009054906101000a900473ffffffffffffffffffffffffffffffffffffffff1681565b6000808154809291906101dd90611301565b9190505550600042836101f09190611349565b9050600060405161020090610b87565b604051809103906000f08015801561021c573d6000803e3d6000fd5b5090506000600260009054906101000a900473ffffffffffffffffffffffffffffffffffffffff1673ffffffffffffffffffffffffffffffffffffffff1663f14dde178a8a858b8b898b6040518863ffffffff1660e01b8152600401610288979695949392919061137d565b6020604051808303816000875af11580156102a7573d6000803e3d6000fd5b505050506040513d601f19601f820116820180604052508101906102cb919061140f565b90506000600160009054906101000a900473ffffffffffffffffffffffffffffffffffffffff1673ffffffffffffffffffffffffffffffffffffffff1663dd5de44d6000548a8a866040518563ffffffff1660e01b8152600401610332949392919061143c565b6020604051808303816000875af1158015610351573d6000803e3d6000fd5b505050506040513d601f19601f82011682018060405250810190610375919061140f565b90508173ffffffffffffffffffffffffffffffffffffffff16638f283970826040518263ffffffff1660e01b81526004016103b09190610c91565b600060405180830381600087803b1580156103ca57600080fd5b505af11580156103de573d6000803e3d6000fd5b505050508273ffffffffffffffffffffffffffffffffffffffff1663c0caa772836040518263ffffffff1660e01b815260040161041b9190610c91565b600060405180830381600087803b15801561043557600080fd5b505af1158015610449573d6000803e3d6000fd5b505050506040518061012001604052808b81526020018373ffffffffffffffffffffffffffffffffffffffff1681526020018473ffffffffffffffffffffffffffffffffffffffff1681526020018273ffffffffffffffffffffffffffffffffffffffff1681526020018973ffffffffffffffffffffffffffffffffffffffff1681526020018873ffffffffffffffffffffffffffffffffffffffff1681526020018581526020018681526020016000151581525060036000805481526020019081526020016000206000820151816000019081610527919061168d565b5060208201518160010160006101000a81548173ffffffffffffffffffffffffffffffffffffffff021916908373ffffffffffffffffffffffffffffffffffffffff16021790555060408201518160020160006101000a81548173ffffffffffffffffffffffffffffffffffffffff021916908373ffffffffffffffffffffffffffffffffffffffff16021790555060608201518160030160006101000a81548173ffffffffffffffffffffffffffffffffffffffff021916908373ffffffffffffffffffffffffffffffffffffffff16021790555060808201518160040160006101000a81548173ffffffffffffffffffffffffffffffffffffffff021916908373ffffffffffffffffffffffffffffffffffffffff16021790555060a08201518160050160006101000a81548173ffffffffffffffffffffffffffffffffffffffff021916908373ffffffffffffffffffffffffffffffffffffffff16021790555060c0820151816006015560e082015181600701556101008201518160080160006101000a81548160ff02191690831515021790555090505050505050505050505050565b60005481565b60606000805467ffffffffffffffff8111156106f4576106f3610cdb565b5b60405190808252806020026020018201604052801561072d57816020015b61071a610b94565b8152602001906001900390816107125790505b50905060005b6000548110156109fc57600360008281526020019081526020016000206040518061012001604052908160008201805461076c906114b0565b80601f0160208091040260200160405190810160405280929190818152602001828054610798906114b0565b80156107e55780601f106107ba576101008083540402835291602001916107e5565b820191906000526020600020905b8154815290600101906020018083116107c857829003601f168201915b505050505081526020016001820160009054906101000a900473ffffffffffffffffffffffffffffffffffffffff1673ffffffffffffffffffffffffffffffffffffffff1673ffffffffffffffffffffffffffffffffffffffff1681526020016002820160009054906101000a900473ffffffffffffffffffffffffffffffffffffffff1673ffffffffffffffffffffffffffffffffffffffff1673ffffffffffffffffffffffffffffffffffffffff1681526020016003820160009054906101000a900473ffffffffffffffffffffffffffffffffffffffff1673ffffffffffffffffffffffffffffffffffffffff1673ffffffffffffffffffffffffffffffffffffffff1681526020016004820160009054906101000a900473ffffffffffffffffffffffffffffffffffffffff1673ffffffffffffffffffffffffffffffffffffffff1673ffffffffffffffffffffffffffffffffffffffff1681526020016005820160009054906101000a900473ffffffffffffffffffffffffffffffffffffffff1673ffffffffffffffffffffffffffffffffffffffff1673ffffffffffffffffffffffffffffffffffffffff16815260200160068201548152602001600782015481526020016008820160009054906101000a900460ff1615151515815250508282815181106109de576109dd61175f565b5b602002602001018190525080806109f490611301565b915050610733565b508091505090565b6003602052806000526040600020600091509050806000018054610a27906114b0565b80601f0160208091040260200160405190810160405280929190818152602001828054610a53906114b0565b8015610aa05780601f10610a7557610100808354040283529160200191610aa0565b820191906000526020600020905b815481529060010190602001808311610a8357829003601f168201915b5050505050908060010160009054906101000a900473ffffffffffffffffffffffffffffffffffffffff16908060020160009054906101000a900473ffffffffffffffffffffffffffffffffffffffff16908060030160009054906101000a900473ffffffffffffffffffffffffffffffffffffffff16908060040160009054906101000a900473ffffffffffffffffffffffffffffffffffffffff16908060050160009054906101000a900473ffffffffffffffffffffffffffffffffffffffff16908060060154908060070154908060080160009054906101000a900460ff16905089565b6107798061178f83390190565b60405180610120016040528060608152602001600073ffffffffffffffffffffffffffffffffffffffff168152602001600073ffffffffffffffffffffffffffffffffffffffff168152602001600073ffffffffffffffffffffffffffffffffffffffff168152602001600073ffffffffffffffffffffffffffffffffffffffff168152602001600073ffffffffffffffffffffffffffffffffffffffff16815260200160008152602001600081526020016000151581525090565b600073ffffffffffffffffffffffffffffffffffffffff82169050919050565b6000610c7b82610c50565b9050919050565b610c8b81610c70565b82525050565b6000602082019050610ca66000830184610c82565b92915050565b6000604051905090565b600080fd5b600080fd5b600080fd5b600080fd5b6000601f19601f8301169050919050565b7f4e487b7100000000000000000000000000000000000000000000000000000000600052604160045260246000fd5b610d1382610cca565b810181811067ffffffffffffffff82111715610d3257610d31610cdb565b5b80604052505050565b6000610d45610cac565b9050610d518282610d0a565b919050565b600067ffffffffffffffff821115610d7157610d70610cdb565b5b610d7a82610cca565b9050602081019050919050565b82818337600083830152505050565b6000610da9610da484610d56565b610d3b565b905082815260208101848484011115610dc557610dc4610cc5565b5b610dd0848285610d87565b509392505050565b600082601f830112610ded57610dec610cc0565b5b8135610dfd848260208601610d96565b91505092915050565b610e0f81610c70565b8114610e1a57600080fd5b50565b600081359050610e2c81610e06565b92915050565b6000819050919050565b610e4581610e32565b8114610e5057600080fd5b50565b600081359050610e6281610e3c565b92915050565b60008060008060008060c08789031215610e8557610e84610cb6565b5b600087013567ffffffffffffffff811115610ea357610ea2610cbb565b5b610eaf89828a01610dd8565b965050602087013567ffffffffffffffff811115610ed057610ecf610cbb565b5b610edc89828a01610dd8565b9550506040610eed89828a01610e1d565b9450506060610efe89828a01610e1d565b9350506080610f0f89828a01610e53565b92505060a0610f2089828a01610e53565b9150509295509295509295565b610f3681610e32565b82525050565b6000602082019050610f516000830184610f2d565b92915050565b600081519050919050565b600082825260208201905092915050565b6000819050602082019050919050565b600081519050919050565b600082825260208201905092915050565b60005b83811015610fbd578082015181840152602081019050610fa2565b60008484015250505050565b6000610fd482610f83565b610fde8185610f8e565b9350610fee818560208601610f9f565b610ff781610cca565b840191505092915050565b61100b81610c70565b82525050565b61101a81610e32565b82525050565b60008115159050919050565b61103581611020565b82525050565b60006101208301600083015184820360008601526110598282610fc9565b915050602083015161106e6020860182611002565b5060408301516110816040860182611002565b5060608301516110946060860182611002565b5060808301516110a76080860182611002565b5060a08301516110ba60a0860182611002565b5060c08301516110cd60c0860182611011565b5060e08301516110e060e0860182611011565b506101008301516110f561010086018261102c565b508091505092915050565b600061110c838361103b565b905092915050565b6000602082019050919050565b600061112c82610f57565b6111368185610f62565b93508360208202850161114885610f73565b8060005b8581101561118457848403895281516111658582611100565b945061117083611114565b925060208a0199505060018101905061114c565b50829750879550505050505092915050565b600060208201905081810360008301526111b08184611121565b905092915050565b6000602082840312156111ce576111cd610cb6565b5b60006111dc84828501610e53565b91505092915050565b600082825260208201905092915050565b600061120182610f83565b61120b81856111e5565b935061121b818560208601610f9f565b61122481610cca565b840191505092915050565b61123881611020565b82525050565b6000610120820190508181036000830152611259818c6111f6565b9050611268602083018b610c82565b611275604083018a610c82565b6112826060830189610c82565b61128f6080830188610c82565b61129c60a0830187610c82565b6112a960c0830186610f2d565b6112b660e0830185610f2d565b6112c461010083018461122f565b9a9950505050505050505050565b7f4e487b7100000000000000000000000000000000000000000000000000000000600052601160045260246000fd5b600061130c82610e32565b91507fffffffffffffffffffffffffffffffffffffffffffffffffffffffffffffffff820361133e5761133d6112d2565b5b600182019050919050565b600061135482610e32565b915061135f83610e32565b9250828201905080821115611377576113766112d2565b5b92915050565b600060e0820190508181036000830152611397818a6111f6565b905081810360208301526113ab81896111f6565b90506113ba6040830188610c82565b6113c76060830187610c82565b6113d46080830186610c82565b6113e160a0830185610f2d565b6113ee60c0830184610f2d565b98975050505050505050565b60008151905061140981610e06565b92915050565b60006020828403121561142557611424610cb6565b5b6000611433848285016113fa565b91505092915050565b60006080820190506114516000830187610f2d565b61145e6020830186610c82565b61146b6040830185610c82565b6114786060830184610c82565b95945050505050565b7f4e487b7100000000000000000000000000000000000000000000000000000000600052602260045260246000fd5b600060028204905060018216806114c857607f821691505b6020821081036114db576114da611481565b5b50919050565b60008190508160005260206000209050919050565b60006020601f8301049050919050565b600082821b905092915050565b6000600883026115437fffffffffffffffffffffffffffffffffffffffffffffffffffffffffffffffff82611506565b61154d8683611506565b95508019841693508086168417925050509392505050565b6000819050919050565b600061158a61158561158084610e32565b611565565b610e32565b9050919050565b6000819050919050565b6115a48361156f565b6115b86115b082611591565b848454611513565b825550505050565b600090565b6115cd6115c0565b6115d881848461159b565b505050565b5b818110156115fc576115f16000826115c5565b6001810190506115de565b5050565b601f82111561164157611612816114e1565b61161b846114f6565b8101602085101561162a578190505b61163e611636856114f6565b8301826115dd565b50505b505050565b600082821c905092915050565b600061166460001984600802611646565b1980831691505092915050565b600061167d8383611653565b9150826002028217905092915050565b61169682610f83565b67ffffffffffffffff8111156116af576116ae610cdb565b5b6116b982546114b0565b6116c4828285611600565b600060209050601f8311600181146116f757600084156116e5578287015190505b6116ef8582611671565b865550611757565b601f198416611705866114e1565b60005b8281101561172d57848901518255600182019150602085019450602081019050611708565b8683101561174a5784890151611746601f891682611653565b8355505b6001600288020188555050505b505050505050565b7f4e487b7100000000000000000000000000000000000000000000000000000000600052603260045260246000fdfe608060405234801561001057600080fd5b50336000806101000a81548173ffffffffffffffffffffffffffffffffffffffff021916908373ffffffffffffffffffffffffffffffffffffffff160217905550610719806100606000396000f3fe60806040526004361061004e5760003560e01c80631162f3dd1461005a57806369d8957514610085578063a99c20a31461008f578063c0c1a370146100b8578063c0caa772146100e157610055565b3661005557005b600080fd5b34801561006657600080fd5b5061006f61010a565b60405161007c919061048a565b60405180910390f35b61008d610110565b005b34801561009b57600080fd5b506100b660048036038101906100b191906104d6565b61020b565b005b3480156100c457600080fd5b506100df60048036038101906100da91906104d6565b610307565b005b3480156100ed57600080fd5b5061010860048036038101906101039190610561565b61039f565b005b60025481565b600160009054906101000a900473ffffffffffffffffffffffffffffffffffffffff1673ffffffffffffffffffffffffffffffffffffffff163373ffffffffffffffffffffffffffffffffffffffff16146101a0576040517f08c379a0000000000000000000000000000000000000000000000000000000008152600401610197906105eb565b60405180910390fd5b600160009054906101000a900473ffffffffffffffffffffffffffffffffffffffff1673ffffffffffffffffffffffffffffffffffffffff166108fc479081150290604051600060405180830381858888f19350505050158015610208573d6000803e3d6000fd5b50565b600160009054906101000a900473ffffffffffffffffffffffffffffffffffffffff1673ffffffffffffffffffffffffffffffffffffffff163373ffffffffffffffffffffffffffffffffffffffff161461029b576040517f08c379a0000000000000000000000000000000000000000000000000000000008152600401610292906105eb565b60405180910390fd5b600160009054906101000a900473ffffffffffffffffffffffffffffffffffffffff1673ffffffffffffffffffffffffffffffffffffffff166108fc829081150290604051600060405180830381858888f19350505050158015610303573d6000803e3d6000fd5b5050565b60008054906101000a900473ffffffffffffffffffffffffffffffffffffffff1673ffffffffffffffffffffffffffffffffffffffff163373ffffffffffffffffffffffffffffffffffffffff1614610395576040517f08c379a000000000000000000000000000000000000000000000000000000000815260040161038c90610657565b60405180910390fd5b8060028190555050565b60008054906101000a900473ffffffffffffffffffffffffffffffffffffffff1673ffffffffffffffffffffffffffffffffffffffff163373ffffffffffffffffffffffffffffffffffffffff161461042d576040517f08c379a0000000000000000000000000000000000000000000000000000000008152600401610424906106c3565b60405180910390fd5b80600160006101000a81548173ffffffffffffffffffffffffffffffffffffffff021916908373ffffffffffffffffffffffffffffffffffffffff16021790555050565b6000819050919050565b61048481610471565b82525050565b600060208201905061049f600083018461047b565b92915050565b600080fd5b6104b381610471565b81146104be57600080fd5b50565b6000813590506104d0816104aa565b92915050565b6000602082840312156104ec576104eb6104a5565b5b60006104fa848285016104c1565b91505092915050565b600073ffffffffffffffffffffffffffffffffffffffff82169050919050565b600061052e82610503565b9050919050565b61053e81610523565b811461054957600080fd5b50565b60008135905061055b81610535565b92915050565b600060208284031215610577576105766104a5565b5b60006105858482850161054c565b91505092915050565b600082825260208201905092915050565b7f6f6e6c79207469636b6574732066756e6374696f6e0000000000000000000000600082015250565b60006105d560158361058e565b91506105e08261059f565b602082019050919050565b60006020820190508181036000830152610604816105c8565b9050919050565b7f6f6e6c792061646d696e2066756e6374696f6e00000000000000000000000000600082015250565b600061064160138361058e565b915061064c8261060b565b602082019050919050565b6000602082019050818103600083015261067081610634565b9050919050565b7f6f6e6c792061646d696e00000000000000000000000000000000000000000000600082015250565b60006106ad600a8361058e565b91506106b882610677565b602082019050919050565b600060208201905081810360008301526106dc816106a0565b905091905056fea2646970667358221220e09c33777463e2c12b5981c6ce70732819a76af192b711d87a9319fd2f25d66964736f6c63430008110033a2646970667358221220c078bc2cb67753edd910648663f232dacdd212ea703c111e09fdc611e561142164736f6c63430008110033",
  "linkReferences": {},
  "deployedLinkReferences": {}
}