{
  "_format": "hh-sol-artifact-1",
  "contractName": "CreatorContract",
  "sourceName": "contracts/CreatorContract.sol",
  "abi": [
    {
      "inputs": [
        {
          "internalType": "address",
          "name": "_createCon",
          "type": "address"
        },
        {
          "internalType": "address",
          "name": "_createTickAdd",
          "type": "address"
        }
      ],
      "stateMutability": "nonpayable",
      "type": "constructor"
    },
    {
      "inputs": [
        {
          "internalType": "uint256",
          "name": "",
          "type": "uint256"
        }
      ],
      "name": "allShows",
      "outputs": [
        {
          "internalType": "string",
          "name": "showName",
          "type": "string"
        },
        {
          "internalType": "address",
          "name": "ticketAddress",
          "type": "address"
        },
        {
          "internalType": "address",
          "name": "escrowAddress",
          "type": "address"
        },
        {
          "internalType": "address",
          "name": "controllerContract",
          "type": "address"
        },
        {
          "internalType": "address",
          "name": "band",
          "type": "address"
        },
        {
          "internalType": "address",
          "name": "venue",
          "type": "address"
        },
        {
          "internalType": "uint256",
          "name": "showTime",
          "type": "uint256"
        },
        {
          "internalType": "uint256",
          "name": "price",
          "type": "uint256"
        },
        {
          "internalType": "bool",
          "name": "completed",
          "type": "bool"
        }
      ],
      "stateMutability": "view",
      "type": "function"
    },
    {
      "inputs": [],
      "name": "createContAdd",
      "outputs": [
        {
          "internalType": "address",
          "name": "",
          "type": "address"
        }
      ],
      "stateMutability": "view",
      "type": "function"
    },
    {
      "inputs": [
        {
          "internalType": "string",
          "name": "_name",
          "type": "string"
        },
        {
          "internalType": "string",
          "name": "_symbol",
          "type": "string"
        },
        {
          "internalType": "address",
          "name": "_bandAddress",
          "type": "address"
        },
        {
          "internalType": "address",
          "name": "_venueAddress",
          "type": "address"
        },
        {
          "internalType": "uint256",
          "name": "endDate",
          "type": "uint256"
        },
        {
          "internalType": "uint256",
          "name": "price",
          "type": "uint256"
        }
      ],
      "name": "createShow",
      "outputs": [],
      "stateMutability": "nonpayable",
      "type": "function"
    },
    {
      "inputs": [],
      "name": "createTickAdd",
      "outputs": [
        {
          "internalType": "address",
          "name": "",
          "type": "address"
        }
      ],
      "stateMutability": "view",
      "type": "function"
    },
    {
      "inputs": [],
      "name": "returnAllShows",
      "outputs": [
        {
          "components": [
            {
              "internalType": "string",
              "name": "showName",
              "type": "string"
            },
            {
              "internalType": "address",
              "name": "ticketAddress",
              "type": "address"
            },
            {
              "internalType": "address",
              "name": "escrowAddress",
              "type": "address"
            },
            {
              "internalType": "address",
              "name": "controllerContract",
              "type": "address"
            },
            {
              "internalType": "address",
              "name": "band",
              "type": "address"
            },
            {
              "internalType": "address",
              "name": "venue",
              "type": "address"
            },
            {
              "internalType": "uint256",
              "name": "showTime",
              "type": "uint256"
            },
            {
              "internalType": "uint256",
              "name": "price",
              "type": "uint256"
            },
            {
              "internalType": "bool",
              "name": "completed",
              "type": "bool"
            }
          ],
          "internalType": "struct CreatorContract.Show[]",
          "name": "",
          "type": "tuple[]"
        }
      ],
      "stateMutability": "view",
      "type": "function"
    },
    {
      "inputs": [
        {
          "internalType": "address",
          "name": "",
          "type": "address"
        }
      ],
      "name": "showAddress",
      "outputs": [
        {
          "internalType": "string",
          "name": "showName",
          "type": "string"
        },
        {
          "internalType": "address",
          "name": "ticketAddress",
          "type": "address"
        },
        {
          "internalType": "address",
          "name": "escrowAddress",
          "type": "address"
        },
        {
          "internalType": "address",
          "name": "controllerContract",
          "type": "address"
        },
        {
          "internalType": "address",
          "name": "band",
          "type": "address"
        },
        {
          "internalType": "address",
          "name": "venue",
          "type": "address"
        },
        {
          "internalType": "uint256",
          "name": "showTime",
          "type": "uint256"
        },
        {
          "internalType": "uint256",
          "name": "price",
          "type": "uint256"
        },
        {
          "internalType": "bool",
          "name": "completed",
          "type": "bool"
        }
      ],
      "stateMutability": "view",
      "type": "function"
    },
    {
      "inputs": [],
      "name": "showNumber",
      "outputs": [
        {
          "internalType": "uint256",
          "name": "",
          "type": "uint256"
        }
      ],
      "stateMutability": "view",
      "type": "function"
    },
    {
      "stateMutability": "payable",
      "type": "receive"
    }
  ],
  "bytecode": "0x60806040523480156200001157600080fd5b50604051620025703803806200257083398181016040528101906200003791906200012b565b81600160006101000a81548173ffffffffffffffffffffffffffffffffffffffff021916908373ffffffffffffffffffffffffffffffffffffffff16021790555080600260006101000a81548173ffffffffffffffffffffffffffffffffffffffff021916908373ffffffffffffffffffffffffffffffffffffffff160217905550505062000172565b600080fd5b600073ffffffffffffffffffffffffffffffffffffffff82169050919050565b6000620000f382620000c6565b9050919050565b6200010581620000e6565b81146200011157600080fd5b50565b6000815190506200012581620000fa565b92915050565b60008060408385031215620001455762000144620000c1565b5b6000620001558582860162000114565b9250506020620001688582860162000114565b9150509250929050565b6123ee80620001826000396000f3fe6080604052600436106100745760003560e01c806376dad2231161004e57806376dad223146100ff5780639f65c0d01461012a578063a3f50f421461016f578063d64d79d01461019a5761007b565b8063473025b3146100805780635d4a389a146100ab578063711da84b146100d65761007b565b3661007b57005b600080fd5b34801561008c57600080fd5b506100956101df565b6040516100a29190611115565b60405180910390f35b3480156100b757600080fd5b506100c0610205565b6040516100cd9190611115565b60405180910390f35b3480156100e257600080fd5b506100fd60048036038101906100f891906112ec565b61022b565b005b34801561010b57600080fd5b506101146109d0565b60405161012191906113c0565b60405180910390f35b34801561013657600080fd5b50610151600480360381019061014c91906113db565b6109d6565b604051610166999897969594939291906114a2565b60405180910390f35b34801561017b57600080fd5b50610184610b59565b6040516101919190611734565b60405180910390f35b3480156101a657600080fd5b506101c160048036038101906101bc9190611756565b610e88565b6040516101d6999897969594939291906114a2565b60405180910390f35b600260009054906101000a900473ffffffffffffffffffffffffffffffffffffffff1681565b600160009054906101000a900473ffffffffffffffffffffffffffffffffffffffff1681565b60008081548092919061023d906117b2565b91905055506000428361025091906117fa565b905060006040516102609061100b565b604051809103906000f08015801561027c573d6000803e3d6000fd5b5090506000600260009054906101000a900473ffffffffffffffffffffffffffffffffffffffff1673ffffffffffffffffffffffffffffffffffffffff1663f14dde178a8a858b8b898b6040518863ffffffff1660e01b81526004016102e8979695949392919061182e565b6020604051808303816000875af1158015610307573d6000803e3d6000fd5b505050506040513d601f19601f8201168201806040525081019061032b91906118c0565b90506000600160009054906101000a900473ffffffffffffffffffffffffffffffffffffffff1673ffffffffffffffffffffffffffffffffffffffff1663dd5de44d6000548a8a866040518563ffffffff1660e01b815260040161039294939291906118ed565b6020604051808303816000875af11580156103b1573d6000803e3d6000fd5b505050506040513d601f19601f820116820180604052508101906103d591906118c0565b90508173ffffffffffffffffffffffffffffffffffffffff16638f283970826040518263ffffffff1660e01b81526004016104109190611115565b600060405180830381600087803b15801561042a57600080fd5b505af115801561043e573d6000803e3d6000fd5b505050508273ffffffffffffffffffffffffffffffffffffffff1663c0caa772836040518263ffffffff1660e01b815260040161047b9190611115565b600060405180830381600087803b15801561049557600080fd5b505af11580156104a9573d6000803e3d6000fd5b505050506040518061012001604052808b81526020018373ffffffffffffffffffffffffffffffffffffffff1681526020018473ffffffffffffffffffffffffffffffffffffffff1681526020018273ffffffffffffffffffffffffffffffffffffffff1681526020018973ffffffffffffffffffffffffffffffffffffffff1681526020018873ffffffffffffffffffffffffffffffffffffffff16815260200185815260200186815260200160001515815250600360008054815260200190815260200160002060008201518160000190816105879190611b3e565b5060208201518160010160006101000a81548173ffffffffffffffffffffffffffffffffffffffff021916908373ffffffffffffffffffffffffffffffffffffffff16021790555060408201518160020160006101000a81548173ffffffffffffffffffffffffffffffffffffffff021916908373ffffffffffffffffffffffffffffffffffffffff16021790555060608201518160030160006101000a81548173ffffffffffffffffffffffffffffffffffffffff021916908373ffffffffffffffffffffffffffffffffffffffff16021790555060808201518160040160006101000a81548173ffffffffffffffffffffffffffffffffffffffff021916908373ffffffffffffffffffffffffffffffffffffffff16021790555060a08201518160050160006101000a81548173ffffffffffffffffffffffffffffffffffffffff021916908373ffffffffffffffffffffffffffffffffffffffff16021790555060c0820151816006015560e082015181600701556101008201518160080160006101000a81548160ff0219169083151502179055509050506040518061012001604052808b81526020018373ffffffffffffffffffffffffffffffffffffffff1681526020018473ffffffffffffffffffffffffffffffffffffffff1681526020018273ffffffffffffffffffffffffffffffffffffffff1681526020018973ffffffffffffffffffffffffffffffffffffffff1681526020018873ffffffffffffffffffffffffffffffffffffffff16815260200185815260200186815260200160001515815250600460008473ffffffffffffffffffffffffffffffffffffffff1673ffffffffffffffffffffffffffffffffffffffff16815260200190815260200160002060008201518160000190816108289190611b3e565b5060208201518160010160006101000a81548173ffffffffffffffffffffffffffffffffffffffff021916908373ffffffffffffffffffffffffffffffffffffffff16021790555060408201518160020160006101000a81548173ffffffffffffffffffffffffffffffffffffffff021916908373ffffffffffffffffffffffffffffffffffffffff16021790555060608201518160030160006101000a81548173ffffffffffffffffffffffffffffffffffffffff021916908373ffffffffffffffffffffffffffffffffffffffff16021790555060808201518160040160006101000a81548173ffffffffffffffffffffffffffffffffffffffff021916908373ffffffffffffffffffffffffffffffffffffffff16021790555060a08201518160050160006101000a81548173ffffffffffffffffffffffffffffffffffffffff021916908373ffffffffffffffffffffffffffffffffffffffff16021790555060c0820151816006015560e082015181600701556101008201518160080160006101000a81548160ff02191690831515021790555090505050505050505050505050565b60005481565b60046020528060005260406000206000915090508060000180546109f990611961565b80601f0160208091040260200160405190810160405280929190818152602001828054610a2590611961565b8015610a725780601f10610a4757610100808354040283529160200191610a72565b820191906000526020600020905b815481529060010190602001808311610a5557829003601f168201915b5050505050908060010160009054906101000a900473ffffffffffffffffffffffffffffffffffffffff16908060020160009054906101000a900473ffffffffffffffffffffffffffffffffffffffff16908060030160009054906101000a900473ffffffffffffffffffffffffffffffffffffffff16908060040160009054906101000a900473ffffffffffffffffffffffffffffffffffffffff16908060050160009054906101000a900473ffffffffffffffffffffffffffffffffffffffff16908060060154908060070154908060080160009054906101000a900460ff16905089565b60606000805467ffffffffffffffff811115610b7857610b7761115f565b5b604051908082528060200260200182016040528015610bb157816020015b610b9e611018565b815260200190600190039081610b965790505b50905060005b600054811015610e80576003600082815260200190815260200160002060405180610120016040529081600082018054610bf090611961565b80601f0160208091040260200160405190810160405280929190818152602001828054610c1c90611961565b8015610c695780601f10610c3e57610100808354040283529160200191610c69565b820191906000526020600020905b815481529060010190602001808311610c4c57829003601f168201915b505050505081526020016001820160009054906101000a900473ffffffffffffffffffffffffffffffffffffffff1673ffffffffffffffffffffffffffffffffffffffff1673ffffffffffffffffffffffffffffffffffffffff1681526020016002820160009054906101000a900473ffffffffffffffffffffffffffffffffffffffff1673ffffffffffffffffffffffffffffffffffffffff1673ffffffffffffffffffffffffffffffffffffffff1681526020016003820160009054906101000a900473ffffffffffffffffffffffffffffffffffffffff1673ffffffffffffffffffffffffffffffffffffffff1673ffffffffffffffffffffffffffffffffffffffff1681526020016004820160009054906101000a900473ffffffffffffffffffffffffffffffffffffffff1673ffffffffffffffffffffffffffffffffffffffff1673ffffffffffffffffffffffffffffffffffffffff1681526020016005820160009054906101000a900473ffffffffffffffffffffffffffffffffffffffff1673ffffffffffffffffffffffffffffffffffffffff1673ffffffffffffffffffffffffffffffffffffffff16815260200160068201548152602001600782015481526020016008820160009054906101000a900460ff161515151581525050828281518110610e6257610e61611c10565b5b60200260200101819052508080610e78906117b2565b915050610bb7565b508091505090565b6003602052806000526040600020600091509050806000018054610eab90611961565b80601f0160208091040260200160405190810160405280929190818152602001828054610ed790611961565b8015610f245780601f10610ef957610100808354040283529160200191610f24565b820191906000526020600020905b815481529060010190602001808311610f0757829003601f168201915b5050505050908060010160009054906101000a900473ffffffffffffffffffffffffffffffffffffffff16908060020160009054906101000a900473ffffffffffffffffffffffffffffffffffffffff16908060030160009054906101000a900473ffffffffffffffffffffffffffffffffffffffff16908060040160009054906101000a900473ffffffffffffffffffffffffffffffffffffffff16908060050160009054906101000a900473ffffffffffffffffffffffffffffffffffffffff16908060060154908060070154908060080160009054906101000a900460ff16905089565b61077980611c4083390190565b60405180610120016040528060608152602001600073ffffffffffffffffffffffffffffffffffffffff168152602001600073ffffffffffffffffffffffffffffffffffffffff168152602001600073ffffffffffffffffffffffffffffffffffffffff168152602001600073ffffffffffffffffffffffffffffffffffffffff168152602001600073ffffffffffffffffffffffffffffffffffffffff16815260200160008152602001600081526020016000151581525090565b600073ffffffffffffffffffffffffffffffffffffffff82169050919050565b60006110ff826110d4565b9050919050565b61110f816110f4565b82525050565b600060208201905061112a6000830184611106565b92915050565b6000604051905090565b600080fd5b600080fd5b600080fd5b600080fd5b6000601f19601f8301169050919050565b7f4e487b7100000000000000000000000000000000000000000000000000000000600052604160045260246000fd5b6111978261114e565b810181811067ffffffffffffffff821117156111b6576111b561115f565b5b80604052505050565b60006111c9611130565b90506111d5828261118e565b919050565b600067ffffffffffffffff8211156111f5576111f461115f565b5b6111fe8261114e565b9050602081019050919050565b82818337600083830152505050565b600061122d611228846111da565b6111bf565b90508281526020810184848401111561124957611248611149565b5b61125484828561120b565b509392505050565b600082601f83011261127157611270611144565b5b813561128184826020860161121a565b91505092915050565b611293816110f4565b811461129e57600080fd5b50565b6000813590506112b08161128a565b92915050565b6000819050919050565b6112c9816112b6565b81146112d457600080fd5b50565b6000813590506112e6816112c0565b92915050565b60008060008060008060c087890312156113095761130861113a565b5b600087013567ffffffffffffffff8111156113275761132661113f565b5b61133389828a0161125c565b965050602087013567ffffffffffffffff8111156113545761135361113f565b5b61136089828a0161125c565b955050604061137189828a016112a1565b945050606061138289828a016112a1565b935050608061139389828a016112d7565b92505060a06113a489828a016112d7565b9150509295509295509295565b6113ba816112b6565b82525050565b60006020820190506113d560008301846113b1565b92915050565b6000602082840312156113f1576113f061113a565b5b60006113ff848285016112a1565b91505092915050565b600081519050919050565b600082825260208201905092915050565b60005b83811015611442578082015181840152602081019050611427565b60008484015250505050565b600061145982611408565b6114638185611413565b9350611473818560208601611424565b61147c8161114e565b840191505092915050565b60008115159050919050565b61149c81611487565b82525050565b60006101208201905081810360008301526114bd818c61144e565b90506114cc602083018b611106565b6114d9604083018a611106565b6114e66060830189611106565b6114f36080830188611106565b61150060a0830187611106565b61150d60c08301866113b1565b61151a60e08301856113b1565b611528610100830184611493565b9a9950505050505050505050565b600081519050919050565b600082825260208201905092915050565b6000819050602082019050919050565b600082825260208201905092915050565b600061157e82611408565b6115888185611562565b9350611598818560208601611424565b6115a18161114e565b840191505092915050565b6115b5816110f4565b82525050565b6115c4816112b6565b82525050565b6115d381611487565b82525050565b60006101208301600083015184820360008601526115f78282611573565b915050602083015161160c60208601826115ac565b50604083015161161f60408601826115ac565b50606083015161163260608601826115ac565b50608083015161164560808601826115ac565b5060a083015161165860a08601826115ac565b5060c083015161166b60c08601826115bb565b5060e083015161167e60e08601826115bb565b506101008301516116936101008601826115ca565b508091505092915050565b60006116aa83836115d9565b905092915050565b6000602082019050919050565b60006116ca82611536565b6116d48185611541565b9350836020820285016116e685611552565b8060005b858110156117225784840389528151611703858261169e565b945061170e836116b2565b925060208a019950506001810190506116ea565b50829750879550505050505092915050565b6000602082019050818103600083015261174e81846116bf565b905092915050565b60006020828403121561176c5761176b61113a565b5b600061177a848285016112d7565b91505092915050565b7f4e487b7100000000000000000000000000000000000000000000000000000000600052601160045260246000fd5b60006117bd826112b6565b91507fffffffffffffffffffffffffffffffffffffffffffffffffffffffffffffffff82036117ef576117ee611783565b5b600182019050919050565b6000611805826112b6565b9150611810836112b6565b925082820190508082111561182857611827611783565b5b92915050565b600060e0820190508181036000830152611848818a61144e565b9050818103602083015261185c818961144e565b905061186b6040830188611106565b6118786060830187611106565b6118856080830186611106565b61189260a08301856113b1565b61189f60c08301846113b1565b98975050505050505050565b6000815190506118ba8161128a565b92915050565b6000602082840312156118d6576118d561113a565b5b60006118e4848285016118ab565b91505092915050565b600060808201905061190260008301876113b1565b61190f6020830186611106565b61191c6040830185611106565b6119296060830184611106565b95945050505050565b7f4e487b7100000000000000000000000000000000000000000000000000000000600052602260045260246000fd5b6000600282049050600182168061197957607f821691505b60208210810361198c5761198b611932565b5b50919050565b60008190508160005260206000209050919050565b60006020601f8301049050919050565b600082821b905092915050565b6000600883026119f47fffffffffffffffffffffffffffffffffffffffffffffffffffffffffffffffff826119b7565b6119fe86836119b7565b95508019841693508086168417925050509392505050565b6000819050919050565b6000611a3b611a36611a31846112b6565b611a16565b6112b6565b9050919050565b6000819050919050565b611a5583611a20565b611a69611a6182611a42565b8484546119c4565b825550505050565b600090565b611a7e611a71565b611a89818484611a4c565b505050565b5b81811015611aad57611aa2600082611a76565b600181019050611a8f565b5050565b601f821115611af257611ac381611992565b611acc846119a7565b81016020851015611adb578190505b611aef611ae7856119a7565b830182611a8e565b50505b505050565b600082821c905092915050565b6000611b1560001984600802611af7565b1980831691505092915050565b6000611b2e8383611b04565b9150826002028217905092915050565b611b4782611408565b67ffffffffffffffff811115611b6057611b5f61115f565b5b611b6a8254611961565b611b75828285611ab1565b600060209050601f831160018114611ba85760008415611b96578287015190505b611ba08582611b22565b865550611c08565b601f198416611bb686611992565b60005b82811015611bde57848901518255600182019150602085019450602081019050611bb9565b86831015611bfb5784890151611bf7601f891682611b04565b8355505b6001600288020188555050505b505050505050565b7f4e487b7100000000000000000000000000000000000000000000000000000000600052603260045260246000fdfe608060405234801561001057600080fd5b50336000806101000a81548173ffffffffffffffffffffffffffffffffffffffff021916908373ffffffffffffffffffffffffffffffffffffffff160217905550610719806100606000396000f3fe60806040526004361061004e5760003560e01c80631162f3dd1461005a57806369d8957514610085578063a99c20a31461008f578063c0c1a370146100b8578063c0caa772146100e157610055565b3661005557005b600080fd5b34801561006657600080fd5b5061006f61010a565b60405161007c919061048a565b60405180910390f35b61008d610110565b005b34801561009b57600080fd5b506100b660048036038101906100b191906104d6565b61020b565b005b3480156100c457600080fd5b506100df60048036038101906100da91906104d6565b610307565b005b3480156100ed57600080fd5b5061010860048036038101906101039190610561565b61039f565b005b60025481565b600160009054906101000a900473ffffffffffffffffffffffffffffffffffffffff1673ffffffffffffffffffffffffffffffffffffffff163373ffffffffffffffffffffffffffffffffffffffff16146101a0576040517f08c379a0000000000000000000000000000000000000000000000000000000008152600401610197906105eb565b60405180910390fd5b600160009054906101000a900473ffffffffffffffffffffffffffffffffffffffff1673ffffffffffffffffffffffffffffffffffffffff166108fc479081150290604051600060405180830381858888f19350505050158015610208573d6000803e3d6000fd5b50565b600160009054906101000a900473ffffffffffffffffffffffffffffffffffffffff1673ffffffffffffffffffffffffffffffffffffffff163373ffffffffffffffffffffffffffffffffffffffff161461029b576040517f08c379a0000000000000000000000000000000000000000000000000000000008152600401610292906105eb565b60405180910390fd5b600160009054906101000a900473ffffffffffffffffffffffffffffffffffffffff1673ffffffffffffffffffffffffffffffffffffffff166108fc829081150290604051600060405180830381858888f19350505050158015610303573d6000803e3d6000fd5b5050565b60008054906101000a900473ffffffffffffffffffffffffffffffffffffffff1673ffffffffffffffffffffffffffffffffffffffff163373ffffffffffffffffffffffffffffffffffffffff1614610395576040517f08c379a000000000000000000000000000000000000000000000000000000000815260040161038c90610657565b60405180910390fd5b8060028190555050565b60008054906101000a900473ffffffffffffffffffffffffffffffffffffffff1673ffffffffffffffffffffffffffffffffffffffff163373ffffffffffffffffffffffffffffffffffffffff161461042d576040517f08c379a0000000000000000000000000000000000000000000000000000000008152600401610424906106c3565b60405180910390fd5b80600160006101000a81548173ffffffffffffffffffffffffffffffffffffffff021916908373ffffffffffffffffffffffffffffffffffffffff16021790555050565b6000819050919050565b61048481610471565b82525050565b600060208201905061049f600083018461047b565b92915050565b600080fd5b6104b381610471565b81146104be57600080fd5b50565b6000813590506104d0816104aa565b92915050565b6000602082840312156104ec576104eb6104a5565b5b60006104fa848285016104c1565b91505092915050565b600073ffffffffffffffffffffffffffffffffffffffff82169050919050565b600061052e82610503565b9050919050565b61053e81610523565b811461054957600080fd5b50565b60008135905061055b81610535565b92915050565b600060208284031215610577576105766104a5565b5b60006105858482850161054c565b91505092915050565b600082825260208201905092915050565b7f6f6e6c79207469636b6574732066756e6374696f6e0000000000000000000000600082015250565b60006105d560158361058e565b91506105e08261059f565b602082019050919050565b60006020820190508181036000830152610604816105c8565b9050919050565b7f6f6e6c792061646d696e2066756e6374696f6e00000000000000000000000000600082015250565b600061064160138361058e565b915061064c8261060b565b602082019050919050565b6000602082019050818103600083015261067081610634565b9050919050565b7f6f6e6c792061646d696e00000000000000000000000000000000000000000000600082015250565b60006106ad600a8361058e565b91506106b882610677565b602082019050919050565b600060208201905081810360008301526106dc816106a0565b905091905056fea2646970667358221220e09c33777463e2c12b5981c6ce70732819a76af192b711d87a9319fd2f25d66964736f6c63430008110033a264697066735822122036a143398251fa2aa2f89e7e4e21426be726df5cc7a175a31a987d9e359ec5de64736f6c63430008110033",
  "linkReferences": {},
  "deployedLinkReferences": {}
}