{
  "_format": "hh-sol-artifact-1",
  "contractName": "CreatorContract",
  "sourceName": "contracts/CreatorContract.sol",
  "abi": [
    {
      "inputs": [
        {
          "internalType": "address",
          "name": "_createCon",
          "type": "address"
        },
        {
          "internalType": "address",
          "name": "_createTickAdd",
          "type": "address"
        }
      ],
      "stateMutability": "nonpayable",
      "type": "constructor"
    },
    {
      "inputs": [
        {
          "internalType": "uint256",
          "name": "",
          "type": "uint256"
        }
      ],
      "name": "allShows",
      "outputs": [
        {
          "internalType": "string",
          "name": "showName",
          "type": "string"
        },
        {
          "internalType": "address",
          "name": "ticketAddress",
          "type": "address"
        },
        {
          "internalType": "address",
          "name": "escrowAddress",
          "type": "address"
        },
        {
          "internalType": "address",
          "name": "controllerContract",
          "type": "address"
        },
        {
          "internalType": "address",
          "name": "band",
          "type": "address"
        },
        {
          "internalType": "address",
          "name": "venue",
          "type": "address"
        },
        {
          "internalType": "bool",
          "name": "completed",
          "type": "bool"
        }
      ],
      "stateMutability": "view",
      "type": "function"
    },
    {
      "inputs": [],
      "name": "createContAdd",
      "outputs": [
        {
          "internalType": "address",
          "name": "",
          "type": "address"
        }
      ],
      "stateMutability": "view",
      "type": "function"
    },
    {
      "inputs": [
        {
          "internalType": "string",
          "name": "_name",
          "type": "string"
        },
        {
          "internalType": "string",
          "name": "_symbol",
          "type": "string"
        },
        {
          "internalType": "address",
          "name": "_bandAddress",
          "type": "address"
        },
        {
          "internalType": "address",
          "name": "_venueAddress",
          "type": "address"
        },
        {
          "internalType": "uint256",
          "name": "endDate",
          "type": "uint256"
        },
        {
          "internalType": "uint256",
          "name": "price",
          "type": "uint256"
        }
      ],
      "name": "createShow",
      "outputs": [],
      "stateMutability": "nonpayable",
      "type": "function"
    },
    {
      "inputs": [],
      "name": "createTickAdd",
      "outputs": [
        {
          "internalType": "address",
          "name": "",
          "type": "address"
        }
      ],
      "stateMutability": "view",
      "type": "function"
    },
    {
      "inputs": [],
      "name": "showNumber",
      "outputs": [
        {
          "internalType": "uint256",
          "name": "",
          "type": "uint256"
        }
      ],
      "stateMutability": "view",
      "type": "function"
    },
    {
      "stateMutability": "payable",
      "type": "receive"
    }
  ],
  "bytecode": "0x60806040523480156200001157600080fd5b5060405162001a0138038062001a0183398181016040528101906200003791906200012b565b81600160006101000a81548173ffffffffffffffffffffffffffffffffffffffff021916908373ffffffffffffffffffffffffffffffffffffffff16021790555080600260006101000a81548173ffffffffffffffffffffffffffffffffffffffff021916908373ffffffffffffffffffffffffffffffffffffffff160217905550505062000172565b600080fd5b600073ffffffffffffffffffffffffffffffffffffffff82169050919050565b6000620000f382620000c6565b9050919050565b6200010581620000e6565b81146200011157600080fd5b50565b6000815190506200012581620000fa565b92915050565b60008060408385031215620001455762000144620000c1565b5b6000620001558582860162000114565b9250506020620001688582860162000114565b9150509250929050565b61187f80620001826000396000f3fe60806040526004361061004e5760003560e01c8063473025b31461005a5780635d4a389a14610085578063711da84b146100b057806376dad223146100d9578063d64d79d01461010457610055565b3661005557005b600080fd5b34801561006657600080fd5b5061006f610147565b60405161007c9190610840565b60405180910390f35b34801561009157600080fd5b5061009a61016d565b6040516100a79190610840565b60405180910390f35b3480156100bc57600080fd5b506100d760048036038101906100d29190610a17565b610193565b005b3480156100e557600080fd5b506100ee610675565b6040516100fb9190610aeb565b60405180910390f35b34801561011057600080fd5b5061012b60048036038101906101269190610b06565b61067b565b60405161013e9796959493929190610bcd565b60405180910390f35b600260009054906101000a900473ffffffffffffffffffffffffffffffffffffffff1681565b600160009054906101000a900473ffffffffffffffffffffffffffffffffffffffff1681565b6000808154809291906101a590610c72565b9190505550600042836101b89190610cba565b905060006040516101c8906107f2565b604051809103906000f0801580156101e4573d6000803e3d6000fd5b5090506000600260009054906101000a900473ffffffffffffffffffffffffffffffffffffffff1673ffffffffffffffffffffffffffffffffffffffff1663f14dde178a8a858b8b898b6040518863ffffffff1660e01b81526004016102509796959493929190610cee565b6020604051808303816000875af115801561026f573d6000803e3d6000fd5b505050506040513d601f19601f820116820180604052508101906102939190610d80565b90506000600160009054906101000a900473ffffffffffffffffffffffffffffffffffffffff1673ffffffffffffffffffffffffffffffffffffffff1663dd5de44d6000548a8a866040518563ffffffff1660e01b81526004016102fa9493929190610dad565b6020604051808303816000875af1158015610319573d6000803e3d6000fd5b505050506040513d601f19601f8201168201806040525081019061033d9190610d80565b90508173ffffffffffffffffffffffffffffffffffffffff16638f283970826040518263ffffffff1660e01b81526004016103789190610840565b600060405180830381600087803b15801561039257600080fd5b505af11580156103a6573d6000803e3d6000fd5b505050508273ffffffffffffffffffffffffffffffffffffffff1663c0caa772836040518263ffffffff1660e01b81526004016103e39190610840565b600060405180830381600087803b1580156103fd57600080fd5b505af1158015610411573d6000803e3d6000fd5b505050506040518060e001604052808b81526020018373ffffffffffffffffffffffffffffffffffffffff1681526020018473ffffffffffffffffffffffffffffffffffffffff1681526020018273ffffffffffffffffffffffffffffffffffffffff1681526020018973ffffffffffffffffffffffffffffffffffffffff1681526020018873ffffffffffffffffffffffffffffffffffffffff16815260200160001515815250600360008054815260200190815260200160002060008201518160000190816104e29190610ffe565b5060208201518160010160006101000a81548173ffffffffffffffffffffffffffffffffffffffff021916908373ffffffffffffffffffffffffffffffffffffffff16021790555060408201518160020160006101000a81548173ffffffffffffffffffffffffffffffffffffffff021916908373ffffffffffffffffffffffffffffffffffffffff16021790555060608201518160030160006101000a81548173ffffffffffffffffffffffffffffffffffffffff021916908373ffffffffffffffffffffffffffffffffffffffff16021790555060808201518160040160006101000a81548173ffffffffffffffffffffffffffffffffffffffff021916908373ffffffffffffffffffffffffffffffffffffffff16021790555060a08201518160050160006101000a81548173ffffffffffffffffffffffffffffffffffffffff021916908373ffffffffffffffffffffffffffffffffffffffff16021790555060c08201518160050160146101000a81548160ff02191690831515021790555090505050505050505050505050565b60005481565b600360205280600052604060002060009150905080600001805461069e90610e21565b80601f01602080910402602001604051908101604052809291908181526020018280546106ca90610e21565b80156107175780601f106106ec57610100808354040283529160200191610717565b820191906000526020600020905b8154815290600101906020018083116106fa57829003601f168201915b5050505050908060010160009054906101000a900473ffffffffffffffffffffffffffffffffffffffff16908060020160009054906101000a900473ffffffffffffffffffffffffffffffffffffffff16908060030160009054906101000a900473ffffffffffffffffffffffffffffffffffffffff16908060040160009054906101000a900473ffffffffffffffffffffffffffffffffffffffff16908060050160009054906101000a900473ffffffffffffffffffffffffffffffffffffffff16908060050160149054906101000a900460ff16905087565b610779806110d183390190565b600073ffffffffffffffffffffffffffffffffffffffff82169050919050565b600061082a826107ff565b9050919050565b61083a8161081f565b82525050565b60006020820190506108556000830184610831565b92915050565b6000604051905090565b600080fd5b600080fd5b600080fd5b600080fd5b6000601f19601f8301169050919050565b7f4e487b7100000000000000000000000000000000000000000000000000000000600052604160045260246000fd5b6108c282610879565b810181811067ffffffffffffffff821117156108e1576108e061088a565b5b80604052505050565b60006108f461085b565b905061090082826108b9565b919050565b600067ffffffffffffffff8211156109205761091f61088a565b5b61092982610879565b9050602081019050919050565b82818337600083830152505050565b600061095861095384610905565b6108ea565b90508281526020810184848401111561097457610973610874565b5b61097f848285610936565b509392505050565b600082601f83011261099c5761099b61086f565b5b81356109ac848260208601610945565b91505092915050565b6109be8161081f565b81146109c957600080fd5b50565b6000813590506109db816109b5565b92915050565b6000819050919050565b6109f4816109e1565b81146109ff57600080fd5b50565b600081359050610a11816109eb565b92915050565b60008060008060008060c08789031215610a3457610a33610865565b5b600087013567ffffffffffffffff811115610a5257610a5161086a565b5b610a5e89828a01610987565b965050602087013567ffffffffffffffff811115610a7f57610a7e61086a565b5b610a8b89828a01610987565b9550506040610a9c89828a016109cc565b9450506060610aad89828a016109cc565b9350506080610abe89828a01610a02565b92505060a0610acf89828a01610a02565b9150509295509295509295565b610ae5816109e1565b82525050565b6000602082019050610b006000830184610adc565b92915050565b600060208284031215610b1c57610b1b610865565b5b6000610b2a84828501610a02565b91505092915050565b600081519050919050565b600082825260208201905092915050565b60005b83811015610b6d578082015181840152602081019050610b52565b60008484015250505050565b6000610b8482610b33565b610b8e8185610b3e565b9350610b9e818560208601610b4f565b610ba781610879565b840191505092915050565b60008115159050919050565b610bc781610bb2565b82525050565b600060e0820190508181036000830152610be7818a610b79565b9050610bf66020830189610831565b610c036040830188610831565b610c106060830187610831565b610c1d6080830186610831565b610c2a60a0830185610831565b610c3760c0830184610bbe565b98975050505050505050565b7f4e487b7100000000000000000000000000000000000000000000000000000000600052601160045260246000fd5b6000610c7d826109e1565b91507fffffffffffffffffffffffffffffffffffffffffffffffffffffffffffffffff8203610caf57610cae610c43565b5b600182019050919050565b6000610cc5826109e1565b9150610cd0836109e1565b9250828201905080821115610ce857610ce7610c43565b5b92915050565b600060e0820190508181036000830152610d08818a610b79565b90508181036020830152610d1c8189610b79565b9050610d2b6040830188610831565b610d386060830187610831565b610d456080830186610831565b610d5260a0830185610adc565b610d5f60c0830184610adc565b98975050505050505050565b600081519050610d7a816109b5565b92915050565b600060208284031215610d9657610d95610865565b5b6000610da484828501610d6b565b91505092915050565b6000608082019050610dc26000830187610adc565b610dcf6020830186610831565b610ddc6040830185610831565b610de96060830184610831565b95945050505050565b7f4e487b7100000000000000000000000000000000000000000000000000000000600052602260045260246000fd5b60006002820490506001821680610e3957607f821691505b602082108103610e4c57610e4b610df2565b5b50919050565b60008190508160005260206000209050919050565b60006020601f8301049050919050565b600082821b905092915050565b600060088302610eb47fffffffffffffffffffffffffffffffffffffffffffffffffffffffffffffffff82610e77565b610ebe8683610e77565b95508019841693508086168417925050509392505050565b6000819050919050565b6000610efb610ef6610ef1846109e1565b610ed6565b6109e1565b9050919050565b6000819050919050565b610f1583610ee0565b610f29610f2182610f02565b848454610e84565b825550505050565b600090565b610f3e610f31565b610f49818484610f0c565b505050565b5b81811015610f6d57610f62600082610f36565b600181019050610f4f565b5050565b601f821115610fb257610f8381610e52565b610f8c84610e67565b81016020851015610f9b578190505b610faf610fa785610e67565b830182610f4e565b50505b505050565b600082821c905092915050565b6000610fd560001984600802610fb7565b1980831691505092915050565b6000610fee8383610fc4565b9150826002028217905092915050565b61100782610b33565b67ffffffffffffffff8111156110205761101f61088a565b5b61102a8254610e21565b611035828285610f71565b600060209050601f8311600181146110685760008415611056578287015190505b6110608582610fe2565b8655506110c8565b601f19841661107686610e52565b60005b8281101561109e57848901518255600182019150602085019450602081019050611079565b868310156110bb57848901516110b7601f891682610fc4565b8355505b6001600288020188555050505b50505050505056fe608060405234801561001057600080fd5b50336000806101000a81548173ffffffffffffffffffffffffffffffffffffffff021916908373ffffffffffffffffffffffffffffffffffffffff160217905550610719806100606000396000f3fe60806040526004361061004e5760003560e01c80631162f3dd1461005a57806369d8957514610085578063a99c20a31461008f578063c0c1a370146100b8578063c0caa772146100e157610055565b3661005557005b600080fd5b34801561006657600080fd5b5061006f61010a565b60405161007c919061048a565b60405180910390f35b61008d610110565b005b34801561009b57600080fd5b506100b660048036038101906100b191906104d6565b61020b565b005b3480156100c457600080fd5b506100df60048036038101906100da91906104d6565b610307565b005b3480156100ed57600080fd5b5061010860048036038101906101039190610561565b61039f565b005b60025481565b600160009054906101000a900473ffffffffffffffffffffffffffffffffffffffff1673ffffffffffffffffffffffffffffffffffffffff163373ffffffffffffffffffffffffffffffffffffffff16146101a0576040517f08c379a0000000000000000000000000000000000000000000000000000000008152600401610197906105eb565b60405180910390fd5b600160009054906101000a900473ffffffffffffffffffffffffffffffffffffffff1673ffffffffffffffffffffffffffffffffffffffff166108fc479081150290604051600060405180830381858888f19350505050158015610208573d6000803e3d6000fd5b50565b600160009054906101000a900473ffffffffffffffffffffffffffffffffffffffff1673ffffffffffffffffffffffffffffffffffffffff163373ffffffffffffffffffffffffffffffffffffffff161461029b576040517f08c379a0000000000000000000000000000000000000000000000000000000008152600401610292906105eb565b60405180910390fd5b600160009054906101000a900473ffffffffffffffffffffffffffffffffffffffff1673ffffffffffffffffffffffffffffffffffffffff166108fc829081150290604051600060405180830381858888f19350505050158015610303573d6000803e3d6000fd5b5050565b60008054906101000a900473ffffffffffffffffffffffffffffffffffffffff1673ffffffffffffffffffffffffffffffffffffffff163373ffffffffffffffffffffffffffffffffffffffff1614610395576040517f08c379a000000000000000000000000000000000000000000000000000000000815260040161038c90610657565b60405180910390fd5b8060028190555050565b60008054906101000a900473ffffffffffffffffffffffffffffffffffffffff1673ffffffffffffffffffffffffffffffffffffffff163373ffffffffffffffffffffffffffffffffffffffff161461042d576040517f08c379a0000000000000000000000000000000000000000000000000000000008152600401610424906106c3565b60405180910390fd5b80600160006101000a81548173ffffffffffffffffffffffffffffffffffffffff021916908373ffffffffffffffffffffffffffffffffffffffff16021790555050565b6000819050919050565b61048481610471565b82525050565b600060208201905061049f600083018461047b565b92915050565b600080fd5b6104b381610471565b81146104be57600080fd5b50565b6000813590506104d0816104aa565b92915050565b6000602082840312156104ec576104eb6104a5565b5b60006104fa848285016104c1565b91505092915050565b600073ffffffffffffffffffffffffffffffffffffffff82169050919050565b600061052e82610503565b9050919050565b61053e81610523565b811461054957600080fd5b50565b60008135905061055b81610535565b92915050565b600060208284031215610577576105766104a5565b5b60006105858482850161054c565b91505092915050565b600082825260208201905092915050565b7f6f6e6c79207469636b6574732066756e6374696f6e0000000000000000000000600082015250565b60006105d560158361058e565b91506105e08261059f565b602082019050919050565b60006020820190508181036000830152610604816105c8565b9050919050565b7f6f6e6c792061646d696e2066756e6374696f6e00000000000000000000000000600082015250565b600061064160138361058e565b915061064c8261060b565b602082019050919050565b6000602082019050818103600083015261067081610634565b9050919050565b7f6f6e6c792061646d696e00000000000000000000000000000000000000000000600082015250565b60006106ad600a8361058e565b91506106b882610677565b602082019050919050565b600060208201905081810360008301526106dc816106a0565b905091905056fea2646970667358221220e09c33777463e2c12b5981c6ce70732819a76af192b711d87a9319fd2f25d66964736f6c63430008110033a26469706673582212200e423feeaa1c2246c9de9ecacc26e6718d4cfd010e000d6f24c1c05b74a2770864736f6c63430008110033",
  "linkReferences": {},
  "deployedLinkReferences": {}
}