{
  "_format": "hh-sol-artifact-1",
  "contractName": "ManageCheckTix",
  "sourceName": "contracts/checktix/ManageCheckTix.sol",
  "abi": [
    {
      "inputs": [
        {
          "internalType": "address",
          "name": "",
          "type": "address"
        }
      ],
      "name": "checkInToTix",
      "outputs": [
        {
          "internalType": "address",
          "name": "",
          "type": "address"
        }
      ],
      "stateMutability": "view",
      "type": "function"
    },
    {
      "inputs": [
        {
          "internalType": "address",
          "name": "ticketAddress",
          "type": "address"
        }
      ],
      "name": "createCheckIn",
      "outputs": [],
      "stateMutability": "nonpayable",
      "type": "function"
    },
    {
      "inputs": [
        {
          "internalType": "address",
          "name": "",
          "type": "address"
        }
      ],
      "name": "tixToCheckIn",
      "outputs": [
        {
          "internalType": "address",
          "name": "ticketContract",
          "type": "address"
        },
        {
          "internalType": "address",
          "name": "checkInContract",
          "type": "address"
        }
      ],
      "stateMutability": "view",
      "type": "function"
    },
    {
      "stateMutability": "payable",
      "type": "receive"
    }
  ],
  "bytecode": "0x608060405234801561001057600080fd5b5061137a806100206000396000f3fe6080604052600436106100385760003560e01c80632edf5a5e146100445780636212a39d14610081578063b81e50f7146100aa5761003f565b3661003f57005b600080fd5b34801561005057600080fd5b5061006b600480360381019061006691906105d0565b6100e8565b604051610078919061060c565b60405180910390f35b34801561008d57600080fd5b506100a860048036038101906100a391906105d0565b61011b565b005b3480156100b657600080fd5b506100d160048036038101906100cc91906105d0565b6104fc565b6040516100df929190610627565b60405180910390f35b60016020528060005260406000206000915054906101000a900473ffffffffffffffffffffffffffffffffffffffff1681565b8073ffffffffffffffffffffffffffffffffffffffff1663f32b80aa6040518163ffffffff1660e01b8152600401602060405180830381865afa158015610166573d6000803e3d6000fd5b505050506040513d601f19601f8201168201806040525081019061018a9190610665565b73ffffffffffffffffffffffffffffffffffffffff163373ffffffffffffffffffffffffffffffffffffffff16146101f7576040517f08c379a00000000000000000000000000000000000000000000000000000000081526004016101ee906106ef565b60405180910390fd5b600073ffffffffffffffffffffffffffffffffffffffff166000808373ffffffffffffffffffffffffffffffffffffffff1673ffffffffffffffffffffffffffffffffffffffff16815260200190815260200160002060010160009054906101000a900473ffffffffffffffffffffffffffffffffffffffff1673ffffffffffffffffffffffffffffffffffffffff16146102c7576040517f08c379a00000000000000000000000000000000000000000000000000000000081526004016102be9061075b565b60405180910390fd5b6000816040516102d690610560565b6102e0919061060c565b604051809103906000f0801580156102fc573d6000803e3d6000fd5b5090508073ffffffffffffffffffffffffffffffffffffffff1663f6abfc76336040518263ffffffff1660e01b8152600401610338919061060c565b600060405180830381600087803b15801561035257600080fd5b505af1158015610366573d6000803e3d6000fd5b5050505060405180604001604052808373ffffffffffffffffffffffffffffffffffffffff1681526020018273ffffffffffffffffffffffffffffffffffffffff168152506000808473ffffffffffffffffffffffffffffffffffffffff1673ffffffffffffffffffffffffffffffffffffffff16815260200190815260200160002060008201518160000160006101000a81548173ffffffffffffffffffffffffffffffffffffffff021916908373ffffffffffffffffffffffffffffffffffffffff16021790555060208201518160010160006101000a81548173ffffffffffffffffffffffffffffffffffffffff021916908373ffffffffffffffffffffffffffffffffffffffff16021790555090505081600160008373ffffffffffffffffffffffffffffffffffffffff1673ffffffffffffffffffffffffffffffffffffffff16815260200190815260200160002060006101000a81548173ffffffffffffffffffffffffffffffffffffffff021916908373ffffffffffffffffffffffffffffffffffffffff1602179055505050565b60006020528060005260406000206000915090508060000160009054906101000a900473ffffffffffffffffffffffffffffffffffffffff16908060010160009054906101000a900473ffffffffffffffffffffffffffffffffffffffff16905082565b610bc98061077c83390190565b600080fd5b600073ffffffffffffffffffffffffffffffffffffffff82169050919050565b600061059d82610572565b9050919050565b6105ad81610592565b81146105b857600080fd5b50565b6000813590506105ca816105a4565b92915050565b6000602082840312156105e6576105e561056d565b5b60006105f4848285016105bb565b91505092915050565b61060681610592565b82525050565b600060208201905061062160008301846105fd565b92915050565b600060408201905061063c60008301856105fd565b61064960208301846105fd565b9392505050565b60008151905061065f816105a4565b92915050565b60006020828403121561067b5761067a61056d565b5b600061068984828501610650565b91505092915050565b600082825260208201905092915050565b7f6f6e6c792063726561746f722063616e2063616c6c0000000000000000000000600082015250565b60006106d9601583610692565b91506106e4826106a3565b602082019050919050565b60006020820190508181036000830152610708816106cc565b9050919050565b7f616c726561647920637265617465640000000000000000000000000000000000600082015250565b6000610745600f83610692565b91506107508261070f565b602082019050919050565b6000602082019050818103600083015261077481610738565b905091905056fe608060405234801561001057600080fd5b50604051610bc9380380610bc98339818101604052810190610032919061011c565b80600160006101000a81548173ffffffffffffffffffffffffffffffffffffffff021916908373ffffffffffffffffffffffffffffffffffffffff160217905550336000806101000a81548173ffffffffffffffffffffffffffffffffffffffff021916908373ffffffffffffffffffffffffffffffffffffffff16021790555050610149565b600080fd5b600073ffffffffffffffffffffffffffffffffffffffff82169050919050565b60006100e9826100be565b9050919050565b6100f9816100de565b811461010457600080fd5b50565b600081519050610116816100f0565b92915050565b600060208284031215610132576101316100b9565b5b600061014084828501610107565b91505092915050565b610a71806101586000396000f3fe60806040526004361061007f5760003560e01c806364162e8f1161004e57806364162e8f1461015b578063d257b05b14610198578063f6abfc76146101af578063fa34316a146101d857610086565b8063020865961461008b5780633a5381b5146100c85780634e23ec79146100f357806358a86e1d1461013057610086565b3661008657005b600080fd5b34801561009757600080fd5b506100b260048036038101906100ad91906106b4565b610203565b6040516100bf91906106fc565b60405180910390f35b3480156100d457600080fd5b506100dd610223565b6040516100ea9190610758565b60405180910390f35b3480156100ff57600080fd5b5061011a600480360381019061011591906106b4565b610247565b60405161012791906106fc565b60405180910390f35b34801561013c57600080fd5b50610145610271565b6040516101529190610758565b60405180910390f35b34801561016757600080fd5b50610182600480360381019061017d91906106b4565b610297565b60405161018f91906106fc565b60405180910390f35b3480156101a457600080fd5b506101ad6104eb565b005b3480156101bb57600080fd5b506101d660048036038101906101d1919061079f565b610595565b005b3480156101e457600080fd5b506101ed610666565b6040516101fa91906106fc565b60405180910390f35b60026020528060005260406000206000915054906101000a900460ff1681565b60008054906101000a900473ffffffffffffffffffffffffffffffffffffffff1681565b60006002600083815260200190815260200160002060009054906101000a900460ff169050919050565b600160009054906101000a900473ffffffffffffffffffffffffffffffffffffffff1681565b6000801515600160149054906101000a900460ff161515146102ee576040517f08c379a00000000000000000000000000000000000000000000000000000000081526004016102e590610829565b60405180910390fd5b60008054906101000a900473ffffffffffffffffffffffffffffffffffffffff1673ffffffffffffffffffffffffffffffffffffffff163373ffffffffffffffffffffffffffffffffffffffff161461037c576040517f08c379a000000000000000000000000000000000000000000000000000000000815260040161037390610895565b60405180910390fd5b600015156002600084815260200190815260200160002060009054906101000a900460ff161515146103e3576040517f08c379a00000000000000000000000000000000000000000000000000000000081526004016103da90610901565b60405180910390fd5b600160009054906101000a900473ffffffffffffffffffffffffffffffffffffffff1673ffffffffffffffffffffffffffffffffffffffff1663907bff846040518163ffffffff1660e01b8152600401602060405180830381865afa158015610450573d6000803e3d6000fd5b505050506040513d601f19601f820116820180604052508101906104749190610936565b8211156104b6576040517f08c379a00000000000000000000000000000000000000000000000000000000081526004016104ad906109af565b60405180910390fd5b60016002600084815260200190815260200160002060006101000a81548160ff02191690831515021790555060019050919050565b60008054906101000a900473ffffffffffffffffffffffffffffffffffffffff1673ffffffffffffffffffffffffffffffffffffffff163373ffffffffffffffffffffffffffffffffffffffff1614610579576040517f08c379a000000000000000000000000000000000000000000000000000000000815260040161057090610a1b565b60405180910390fd5b60018060146101000a81548160ff021916908315150217905550565b60008054906101000a900473ffffffffffffffffffffffffffffffffffffffff1673ffffffffffffffffffffffffffffffffffffffff163373ffffffffffffffffffffffffffffffffffffffff1614610623576040517f08c379a000000000000000000000000000000000000000000000000000000000815260040161061a90610a1b565b60405180910390fd5b806000806101000a81548173ffffffffffffffffffffffffffffffffffffffff021916908373ffffffffffffffffffffffffffffffffffffffff16021790555050565b600160149054906101000a900460ff1681565b600080fd5b6000819050919050565b6106918161067e565b811461069c57600080fd5b50565b6000813590506106ae81610688565b92915050565b6000602082840312156106ca576106c9610679565b5b60006106d88482850161069f565b91505092915050565b60008115159050919050565b6106f6816106e1565b82525050565b600060208201905061071160008301846106ed565b92915050565b600073ffffffffffffffffffffffffffffffffffffffff82169050919050565b600061074282610717565b9050919050565b61075281610737565b82525050565b600060208201905061076d6000830184610749565b92915050565b61077c81610737565b811461078757600080fd5b50565b60008135905061079981610773565b92915050565b6000602082840312156107b5576107b4610679565b5b60006107c38482850161078a565b91505092915050565b600082825260208201905092915050565b7f6e6f206c6f6e67657220636865636b696e67207469636b657473000000000000600082015250565b6000610813601a836107cc565b915061081e826107dd565b602082019050919050565b6000602082019050818103600083015261084281610806565b9050919050565b7f76616c696461746f720000000000000000000000000000000000000000000000600082015250565b600061087f6009836107cc565b915061088a82610849565b602082019050919050565b600060208201905081810360008301526108ae81610872565b9050919050565b7f616c726561647920636865636b656420696e0000000000000000000000000000600082015250565b60006108eb6012836107cc565b91506108f6826108b5565b602082019050919050565b6000602082019050818103600083015261091a816108de565b9050919050565b60008151905061093081610688565b92915050565b60006020828403121561094c5761094b610679565b5b600061095a84828501610921565b91505092915050565b7f7469636b657420646f6573206e6f742065786973740000000000000000000000600082015250565b60006109996015836107cc565b91506109a482610963565b602082019050919050565b600060208201905081810360008301526109c88161098c565b9050919050565b7f6f6e6c792076616c696461746f72000000000000000000000000000000000000600082015250565b6000610a05600e836107cc565b9150610a10826109cf565b602082019050919050565b60006020820190508181036000830152610a34816109f8565b905091905056fea264697066735822122029c118164770236d3289234deba14b623bdcb1c897ec41e5b80afe7308b125c964736f6c63430008110033a2646970667358221220f03239c373e223e98125b664b84223a6638113402558e13d4be57fd3ea1da2ae64736f6c63430008110033",
  "linkReferences": {},
  "deployedLinkReferences": {}
}