{
  "_format": "hh-sol-artifact-1",
  "contractName": "Profile",
  "sourceName": "contracts/profilecontracts/Profile.sol",
  "abi": [
    {
      "inputs": [
        {
          "internalType": "string",
          "name": "username",
          "type": "string"
        }
      ],
      "name": "createProfile",
      "outputs": [],
      "stateMutability": "nonpayable",
      "type": "function"
    },
    {
      "inputs": [
        {
          "internalType": "address",
          "name": "",
          "type": "address"
        },
        {
          "internalType": "uint256",
          "name": "",
          "type": "uint256"
        }
      ],
      "name": "createdShows",
      "outputs": [
        {
          "internalType": "address",
          "name": "",
          "type": "address"
        }
      ],
      "stateMutability": "view",
      "type": "function"
    },
    {
      "inputs": [
        {
          "internalType": "address",
          "name": "",
          "type": "address"
        },
        {
          "internalType": "uint256",
          "name": "",
          "type": "uint256"
        }
      ],
      "name": "purchasedShows",
      "outputs": [
        {
          "internalType": "address",
          "name": "",
          "type": "address"
        }
      ],
      "stateMutability": "view",
      "type": "function"
    },
    {
      "inputs": [
        {
          "internalType": "address",
          "name": "user",
          "type": "address"
        }
      ],
      "name": "returnAllUsersEvents",
      "outputs": [
        {
          "internalType": "address[]",
          "name": "",
          "type": "address[]"
        }
      ],
      "stateMutability": "view",
      "type": "function"
    },
    {
      "inputs": [
        {
          "internalType": "address",
          "name": "user",
          "type": "address"
        }
      ],
      "name": "returnAllUsersShows",
      "outputs": [
        {
          "internalType": "address[]",
          "name": "",
          "type": "address[]"
        }
      ],
      "stateMutability": "view",
      "type": "function"
    },
    {
      "inputs": [
        {
          "internalType": "address",
          "name": "newShow",
          "type": "address"
        }
      ],
      "name": "setCreatedShow",
      "outputs": [],
      "stateMutability": "nonpayable",
      "type": "function"
    },
    {
      "inputs": [
        {
          "internalType": "string",
          "name": "newStatus",
          "type": "string"
        }
      ],
      "name": "setMessage",
      "outputs": [],
      "stateMutability": "nonpayable",
      "type": "function"
    },
    {
      "inputs": [
        {
          "internalType": "address",
          "name": "nftContract",
          "type": "address"
        },
        {
          "internalType": "uint256",
          "name": "tokenId",
          "type": "uint256"
        }
      ],
      "name": "setProfileNFt",
      "outputs": [],
      "stateMutability": "nonpayable",
      "type": "function"
    },
    {
      "inputs": [
        {
          "internalType": "address",
          "name": "newShow",
          "type": "address"
        }
      ],
      "name": "setPurchasedShow",
      "outputs": [],
      "stateMutability": "nonpayable",
      "type": "function"
    },
    {
      "inputs": [
        {
          "internalType": "address",
          "name": "",
          "type": "address"
        }
      ],
      "name": "users",
      "outputs": [
        {
          "internalType": "address",
          "name": "user",
          "type": "address"
        },
        {
          "internalType": "address",
          "name": "profileNFT",
          "type": "address"
        },
        {
          "internalType": "uint256",
          "name": "tokenId",
          "type": "uint256"
        },
        {
          "internalType": "string",
          "name": "statusMessage",
          "type": "string"
        },
        {
          "internalType": "string",
          "name": "username",
          "type": "string"
        }
      ],
      "stateMutability": "view",
      "type": "function"
    }
  ],
  "bytecode": "0x608060405234801561001057600080fd5b50611710806100206000396000f3fe608060405234801561001057600080fd5b506004361061009e5760003560e01c80639d9c2ffb116100665780639d9c2ffb14610157578063a87430ba14610187578063c4e8dac5146101bb578063e985b453146101d7578063ee949f96146102075761009e565b8063334c3f0e146100a3578063368b8772146100bf578063519a494d146100db5780635969db3a1461010b578063714c5e8714610127575b600080fd5b6100bd60048036038101906100b89190610ede565b610223565b005b6100d960048036038101906100d49190610ede565b610485565b005b6100f560048036038101906100f09190610fbb565b6104d7565b604051610102919061100a565b60405180910390f35b61012560048036038101906101209190610fbb565b610525565b005b610141600480360381019061013c9190610fbb565b6106d6565b60405161014e919061100a565b60405180910390f35b610171600480360381019061016c9190611025565b610724565b60405161017e9190611110565b60405180910390f35b6101a1600480360381019061019c9190611025565b6108ee565b6040516101b29594939291906111c0565b60405180910390f35b6101d560048036038101906101d09190611025565b610a74565b005b6101f160048036038101906101ec9190611025565b610b17565b6040516101fe9190611110565b60405180910390f35b610221600480360381019061021c9190611025565b610ce1565b005b600073ffffffffffffffffffffffffffffffffffffffff166000803373ffffffffffffffffffffffffffffffffffffffff1673ffffffffffffffffffffffffffffffffffffffff16815260200190815260200160002060000160009054906101000a900473ffffffffffffffffffffffffffffffffffffffff1673ffffffffffffffffffffffffffffffffffffffff16146102f3576040517f08c379a00000000000000000000000000000000000000000000000000000000081526004016102ea9061126d565b60405180910390fd5b6040518060a001604052803373ffffffffffffffffffffffffffffffffffffffff168152602001600073ffffffffffffffffffffffffffffffffffffffff168152602001600081526020016040518060400160405280600e81526020017f64656661756c74207374617475730000000000000000000000000000000000008152508152602001828152506000803373ffffffffffffffffffffffffffffffffffffffff1673ffffffffffffffffffffffffffffffffffffffff16815260200190815260200160002060008201518160000160006101000a81548173ffffffffffffffffffffffffffffffffffffffff021916908373ffffffffffffffffffffffffffffffffffffffff16021790555060208201518160010160006101000a81548173ffffffffffffffffffffffffffffffffffffffff021916908373ffffffffffffffffffffffffffffffffffffffff1602179055506040820151816002015560608201518160030190816104689190611499565b50608082015181600401908161047e9190611499565b5090505050565b806000803373ffffffffffffffffffffffffffffffffffffffff1673ffffffffffffffffffffffffffffffffffffffff16815260200190815260200160002060030190816104d39190611499565b5050565b600160205281600052604060002081815481106104f357600080fd5b906000526020600020016000915091509054906101000a900473ffffffffffffffffffffffffffffffffffffffff1681565b8173ffffffffffffffffffffffffffffffffffffffff16636352211e826040518263ffffffff1660e01b815260040161055e919061156b565b602060405180830381865afa15801561057b573d6000803e3d6000fd5b505050506040513d601f19601f8201168201806040525081019061059f919061159b565b73ffffffffffffffffffffffffffffffffffffffff163373ffffffffffffffffffffffffffffffffffffffff161461060c576040517f08c379a000000000000000000000000000000000000000000000000000000000815260040161060390611614565b60405180910390fd5b816000803373ffffffffffffffffffffffffffffffffffffffff1673ffffffffffffffffffffffffffffffffffffffff16815260200190815260200160002060010160006101000a81548173ffffffffffffffffffffffffffffffffffffffff021916908373ffffffffffffffffffffffffffffffffffffffff160217905550806000803373ffffffffffffffffffffffffffffffffffffffff1673ffffffffffffffffffffffffffffffffffffffff168152602001908152602001600020600201819055505050565b600260205281600052604060002081815481106106f257600080fd5b906000526020600020016000915091509054906101000a900473ffffffffffffffffffffffffffffffffffffffff1681565b60606000600260008473ffffffffffffffffffffffffffffffffffffffff1673ffffffffffffffffffffffffffffffffffffffff1681526020019081526020016000208054905067ffffffffffffffff81111561078457610783610db3565b5b6040519080825280602002602001820160405280156107b25781602001602082028036833780820191505090505b5090506000600260008573ffffffffffffffffffffffffffffffffffffffff1673ffffffffffffffffffffffffffffffffffffffff16815260200190815260200160002080549050905060005b818110156108e357600260008673ffffffffffffffffffffffffffffffffffffffff1673ffffffffffffffffffffffffffffffffffffffff168152602001908152602001600020818154811061085857610857611634565b5b9060005260206000200160009054906101000a900473ffffffffffffffffffffffffffffffffffffffff1683828151811061089657610895611634565b5b602002602001019073ffffffffffffffffffffffffffffffffffffffff16908173ffffffffffffffffffffffffffffffffffffffff168152505080806108db90611692565b9150506107ff565b508192505050919050565b60006020528060005260406000206000915090508060000160009054906101000a900473ffffffffffffffffffffffffffffffffffffffff16908060010160009054906101000a900473ffffffffffffffffffffffffffffffffffffffff1690806002015490806003018054610963906112bc565b80601f016020809104026020016040519081016040528092919081815260200182805461098f906112bc565b80156109dc5780601f106109b1576101008083540402835291602001916109dc565b820191906000526020600020905b8154815290600101906020018083116109bf57829003601f168201915b5050505050908060040180546109f1906112bc565b80601f0160208091040260200160405190810160405280929190818152602001828054610a1d906112bc565b8015610a6a5780601f10610a3f57610100808354040283529160200191610a6a565b820191906000526020600020905b815481529060010190602001808311610a4d57829003601f168201915b5050505050905085565b600160003373ffffffffffffffffffffffffffffffffffffffff1673ffffffffffffffffffffffffffffffffffffffff168152602001908152602001600020819080600181540180825580915050600190039060005260206000200160009091909190916101000a81548173ffffffffffffffffffffffffffffffffffffffff021916908373ffffffffffffffffffffffffffffffffffffffff16021790555050565b60606000600160008473ffffffffffffffffffffffffffffffffffffffff1673ffffffffffffffffffffffffffffffffffffffff1681526020019081526020016000208054905067ffffffffffffffff811115610b7757610b76610db3565b5b604051908082528060200260200182016040528015610ba55781602001602082028036833780820191505090505b5090506000600160008573ffffffffffffffffffffffffffffffffffffffff1673ffffffffffffffffffffffffffffffffffffffff16815260200190815260200160002080549050905060005b81811015610cd657600160008673ffffffffffffffffffffffffffffffffffffffff1673ffffffffffffffffffffffffffffffffffffffff1681526020019081526020016000208181548110610c4b57610c4a611634565b5b9060005260206000200160009054906101000a900473ffffffffffffffffffffffffffffffffffffffff16838281518110610c8957610c88611634565b5b602002602001019073ffffffffffffffffffffffffffffffffffffffff16908173ffffffffffffffffffffffffffffffffffffffff16815250508080610cce90611692565b915050610bf2565b508192505050919050565b600260003373ffffffffffffffffffffffffffffffffffffffff1673ffffffffffffffffffffffffffffffffffffffff168152602001908152602001600020819080600181540180825580915050600190039060005260206000200160009091909190916101000a81548173ffffffffffffffffffffffffffffffffffffffff021916908373ffffffffffffffffffffffffffffffffffffffff16021790555050565b6000604051905090565b600080fd5b600080fd5b600080fd5b600080fd5b6000601f19601f8301169050919050565b7f4e487b7100000000000000000000000000000000000000000000000000000000600052604160045260246000fd5b610deb82610da2565b810181811067ffffffffffffffff82111715610e0a57610e09610db3565b5b80604052505050565b6000610e1d610d84565b9050610e298282610de2565b919050565b600067ffffffffffffffff821115610e4957610e48610db3565b5b610e5282610da2565b9050602081019050919050565b82818337600083830152505050565b6000610e81610e7c84610e2e565b610e13565b905082815260208101848484011115610e9d57610e9c610d9d565b5b610ea8848285610e5f565b509392505050565b600082601f830112610ec557610ec4610d98565b5b8135610ed5848260208601610e6e565b91505092915050565b600060208284031215610ef457610ef3610d8e565b5b600082013567ffffffffffffffff811115610f1257610f11610d93565b5b610f1e84828501610eb0565b91505092915050565b600073ffffffffffffffffffffffffffffffffffffffff82169050919050565b6000610f5282610f27565b9050919050565b610f6281610f47565b8114610f6d57600080fd5b50565b600081359050610f7f81610f59565b92915050565b6000819050919050565b610f9881610f85565b8114610fa357600080fd5b50565b600081359050610fb581610f8f565b92915050565b60008060408385031215610fd257610fd1610d8e565b5b6000610fe085828601610f70565b9250506020610ff185828601610fa6565b9150509250929050565b61100481610f47565b82525050565b600060208201905061101f6000830184610ffb565b92915050565b60006020828403121561103b5761103a610d8e565b5b600061104984828501610f70565b91505092915050565b600081519050919050565b600082825260208201905092915050565b6000819050602082019050919050565b61108781610f47565b82525050565b6000611099838361107e565b60208301905092915050565b6000602082019050919050565b60006110bd82611052565b6110c7818561105d565b93506110d28361106e565b8060005b838110156111035781516110ea888261108d565b97506110f5836110a5565b9250506001810190506110d6565b5085935050505092915050565b6000602082019050818103600083015261112a81846110b2565b905092915050565b61113b81610f85565b82525050565b600081519050919050565b600082825260208201905092915050565b60005b8381101561117b578082015181840152602081019050611160565b60008484015250505050565b600061119282611141565b61119c818561114c565b93506111ac81856020860161115d565b6111b581610da2565b840191505092915050565b600060a0820190506111d56000830188610ffb565b6111e26020830187610ffb565b6111ef6040830186611132565b81810360608301526112018185611187565b905081810360808301526112158184611187565b90509695505050505050565b7f616c726561647920637265617465642070726f66696c65000000000000000000600082015250565b600061125760178361114c565b915061126282611221565b602082019050919050565b600060208201905081810360008301526112868161124a565b9050919050565b7f4e487b7100000000000000000000000000000000000000000000000000000000600052602260045260246000fd5b600060028204905060018216806112d457607f821691505b6020821081036112e7576112e661128d565b5b50919050565b60008190508160005260206000209050919050565b60006020601f8301049050919050565b600082821b905092915050565b60006008830261134f7fffffffffffffffffffffffffffffffffffffffffffffffffffffffffffffffff82611312565b6113598683611312565b95508019841693508086168417925050509392505050565b6000819050919050565b600061139661139161138c84610f85565b611371565b610f85565b9050919050565b6000819050919050565b6113b08361137b565b6113c46113bc8261139d565b84845461131f565b825550505050565b600090565b6113d96113cc565b6113e48184846113a7565b505050565b5b81811015611408576113fd6000826113d1565b6001810190506113ea565b5050565b601f82111561144d5761141e816112ed565b61142784611302565b81016020851015611436578190505b61144a61144285611302565b8301826113e9565b50505b505050565b600082821c905092915050565b600061147060001984600802611452565b1980831691505092915050565b6000611489838361145f565b9150826002028217905092915050565b6114a282611141565b67ffffffffffffffff8111156114bb576114ba610db3565b5b6114c582546112bc565b6114d082828561140c565b600060209050601f83116001811461150357600084156114f1578287015190505b6114fb858261147d565b865550611563565b601f198416611511866112ed565b60005b8281101561153957848901518255600182019150602085019450602081019050611514565b868310156115565784890151611552601f89168261145f565b8355505b6001600288020188555050505b505050505050565b60006020820190506115806000830184611132565b92915050565b60008151905061159581610f59565b92915050565b6000602082840312156115b1576115b0610d8e565b5b60006115bf84828501611586565b91505092915050565b7f696e636f7272656374206e6674206f776e657200000000000000000000000000600082015250565b60006115fe60138361114c565b9150611609826115c8565b602082019050919050565b6000602082019050818103600083015261162d816115f1565b9050919050565b7f4e487b7100000000000000000000000000000000000000000000000000000000600052603260045260246000fd5b7f4e487b7100000000000000000000000000000000000000000000000000000000600052601160045260246000fd5b600061169d82610f85565b91507fffffffffffffffffffffffffffffffffffffffffffffffffffffffffffffffff82036116cf576116ce611663565b5b60018201905091905056fea26469706673582212202766e8142d4429a0a1a017edc17b1e73bc620e114e4f5488017ffd78f9d5a7ad64736f6c63430008110033",
  "linkReferences": {},
  "deployedLinkReferences": {}
}