{
  "_format": "hh-sol-artifact-1",
  "contractName": "Profile",
  "sourceName": "contracts/profilecontracts/Profile.sol",
  "abi": [
    {
      "inputs": [
        {
          "internalType": "string",
          "name": "username",
          "type": "string"
        },
        {
          "internalType": "string",
          "name": "status",
          "type": "string"
        }
      ],
      "name": "createProfile",
      "outputs": [],
      "stateMutability": "nonpayable",
      "type": "function"
    },
    {
      "inputs": [
        {
          "internalType": "address",
          "name": "",
          "type": "address"
        },
        {
          "internalType": "uint256",
          "name": "",
          "type": "uint256"
        }
      ],
      "name": "createdShows",
      "outputs": [
        {
          "internalType": "address",
          "name": "",
          "type": "address"
        }
      ],
      "stateMutability": "view",
      "type": "function"
    },
    {
      "inputs": [
        {
          "internalType": "address",
          "name": "",
          "type": "address"
        },
        {
          "internalType": "uint256",
          "name": "",
          "type": "uint256"
        }
      ],
      "name": "purchasedShows",
      "outputs": [
        {
          "internalType": "address",
          "name": "",
          "type": "address"
        }
      ],
      "stateMutability": "view",
      "type": "function"
    },
    {
      "inputs": [
        {
          "internalType": "address",
          "name": "user",
          "type": "address"
        }
      ],
      "name": "returnAllUsersEvents",
      "outputs": [
        {
          "internalType": "address[]",
          "name": "",
          "type": "address[]"
        }
      ],
      "stateMutability": "view",
      "type": "function"
    },
    {
      "inputs": [
        {
          "internalType": "address",
          "name": "user",
          "type": "address"
        }
      ],
      "name": "returnAllUsersShows",
      "outputs": [
        {
          "internalType": "address[]",
          "name": "",
          "type": "address[]"
        }
      ],
      "stateMutability": "view",
      "type": "function"
    },
    {
      "inputs": [
        {
          "internalType": "address",
          "name": "newShow",
          "type": "address"
        }
      ],
      "name": "setCreatedShow",
      "outputs": [],
      "stateMutability": "nonpayable",
      "type": "function"
    },
    {
      "inputs": [
        {
          "internalType": "string",
          "name": "newStatus",
          "type": "string"
        }
      ],
      "name": "setMessage",
      "outputs": [],
      "stateMutability": "nonpayable",
      "type": "function"
    },
    {
      "inputs": [
        {
          "internalType": "address",
          "name": "nftContract",
          "type": "address"
        },
        {
          "internalType": "uint256",
          "name": "tokenId",
          "type": "uint256"
        }
      ],
      "name": "setProfileNFt",
      "outputs": [],
      "stateMutability": "nonpayable",
      "type": "function"
    },
    {
      "inputs": [
        {
          "internalType": "address",
          "name": "newShow",
          "type": "address"
        }
      ],
      "name": "setPurchasedShow",
      "outputs": [],
      "stateMutability": "nonpayable",
      "type": "function"
    },
    {
      "inputs": [
        {
          "internalType": "string",
          "name": "newUsername",
          "type": "string"
        }
      ],
      "name": "setUsername",
      "outputs": [],
      "stateMutability": "nonpayable",
      "type": "function"
    },
    {
      "inputs": [
        {
          "internalType": "address",
          "name": "",
          "type": "address"
        }
      ],
      "name": "users",
      "outputs": [
        {
          "internalType": "address",
          "name": "user",
          "type": "address"
        },
        {
          "internalType": "address",
          "name": "profileNFT",
          "type": "address"
        },
        {
          "internalType": "uint256",
          "name": "tokenId",
          "type": "uint256"
        },
        {
          "internalType": "string",
          "name": "statusMessage",
          "type": "string"
        },
        {
          "internalType": "string",
          "name": "username",
          "type": "string"
        }
      ],
      "stateMutability": "view",
      "type": "function"
    }
  ],
  "bytecode": "0x608060405234801561001057600080fd5b506117cd806100206000396000f3fe608060405234801561001057600080fd5b50600436106100a95760003560e01c8063a87430ba11610071578063a87430ba14610176578063ba1feb8a146101aa578063c4e8dac5146101c6578063e985b453146101e2578063ed59313a14610212578063ee949f961461022e576100a9565b8063368b8772146100ae578063519a494d146100ca5780635969db3a146100fa578063714c5e87146101165780639d9c2ffb14610146575b600080fd5b6100c860048036038101906100c39190610f23565b61024a565b005b6100e460048036038101906100df9190611000565b61029c565b6040516100f1919061104f565b60405180910390f35b610114600480360381019061010f9190611000565b6102ea565b005b610130600480360381019061012b9190611000565b61049b565b60405161013d919061104f565b60405180910390f35b610160600480360381019061015b919061106a565b6104e9565b60405161016d9190611155565b60405180910390f35b610190600480360381019061018b919061106a565b6106b3565b6040516101a1959493929190611205565b60405180910390f35b6101c460048036038101906101bf9190611266565b610839565b005b6101e060048036038101906101db919061106a565b610a67565b005b6101fc60048036038101906101f7919061106a565b610b0a565b6040516102099190611155565b60405180910390f35b61022c60048036038101906102279190610f23565b610cd4565b005b6102486004803603810190610243919061106a565b610d26565b005b806000803373ffffffffffffffffffffffffffffffffffffffff1673ffffffffffffffffffffffffffffffffffffffff168152602001908152602001600020600301908161029891906114ea565b5050565b600160205281600052604060002081815481106102b857600080fd5b906000526020600020016000915091509054906101000a900473ffffffffffffffffffffffffffffffffffffffff1681565b8173ffffffffffffffffffffffffffffffffffffffff16636352211e826040518263ffffffff1660e01b815260040161032391906115bc565b602060405180830381865afa158015610340573d6000803e3d6000fd5b505050506040513d601f19601f8201168201806040525081019061036491906115ec565b73ffffffffffffffffffffffffffffffffffffffff163373ffffffffffffffffffffffffffffffffffffffff16146103d1576040517f08c379a00000000000000000000000000000000000000000000000000000000081526004016103c890611665565b60405180910390fd5b816000803373ffffffffffffffffffffffffffffffffffffffff1673ffffffffffffffffffffffffffffffffffffffff16815260200190815260200160002060010160006101000a81548173ffffffffffffffffffffffffffffffffffffffff021916908373ffffffffffffffffffffffffffffffffffffffff160217905550806000803373ffffffffffffffffffffffffffffffffffffffff1673ffffffffffffffffffffffffffffffffffffffff168152602001908152602001600020600201819055505050565b600260205281600052604060002081815481106104b757600080fd5b906000526020600020016000915091509054906101000a900473ffffffffffffffffffffffffffffffffffffffff1681565b60606000600260008473ffffffffffffffffffffffffffffffffffffffff1673ffffffffffffffffffffffffffffffffffffffff1681526020019081526020016000208054905067ffffffffffffffff81111561054957610548610df8565b5b6040519080825280602002602001820160405280156105775781602001602082028036833780820191505090505b5090506000600260008573ffffffffffffffffffffffffffffffffffffffff1673ffffffffffffffffffffffffffffffffffffffff16815260200190815260200160002080549050905060005b818110156106a857600260008673ffffffffffffffffffffffffffffffffffffffff1673ffffffffffffffffffffffffffffffffffffffff168152602001908152602001600020818154811061061d5761061c611685565b5b9060005260206000200160009054906101000a900473ffffffffffffffffffffffffffffffffffffffff1683828151811061065b5761065a611685565b5b602002602001019073ffffffffffffffffffffffffffffffffffffffff16908173ffffffffffffffffffffffffffffffffffffffff168152505080806106a0906116e3565b9150506105c4565b508192505050919050565b60006020528060005260406000206000915090508060000160009054906101000a900473ffffffffffffffffffffffffffffffffffffffff16908060010160009054906101000a900473ffffffffffffffffffffffffffffffffffffffff16908060020154908060030180546107289061130d565b80601f01602080910402602001604051908101604052809291908181526020018280546107549061130d565b80156107a15780601f10610776576101008083540402835291602001916107a1565b820191906000526020600020905b81548152906001019060200180831161078457829003601f168201915b5050505050908060040180546107b69061130d565b80601f01602080910402602001604051908101604052809291908181526020018280546107e29061130d565b801561082f5780601f106108045761010080835404028352916020019161082f565b820191906000526020600020905b81548152906001019060200180831161081257829003601f168201915b5050505050905085565b600073ffffffffffffffffffffffffffffffffffffffff166000803373ffffffffffffffffffffffffffffffffffffffff1673ffffffffffffffffffffffffffffffffffffffff16815260200190815260200160002060000160009054906101000a900473ffffffffffffffffffffffffffffffffffffffff1673ffffffffffffffffffffffffffffffffffffffff1614610909576040517f08c379a000000000000000000000000000000000000000000000000000000000815260040161090090611777565b60405180910390fd5b6040518060a001604052803373ffffffffffffffffffffffffffffffffffffffff168152602001600073ffffffffffffffffffffffffffffffffffffffff16815260200160008152602001828152602001838152506000803373ffffffffffffffffffffffffffffffffffffffff1673ffffffffffffffffffffffffffffffffffffffff16815260200190815260200160002060008201518160000160006101000a81548173ffffffffffffffffffffffffffffffffffffffff021916908373ffffffffffffffffffffffffffffffffffffffff16021790555060208201518160010160006101000a81548173ffffffffffffffffffffffffffffffffffffffff021916908373ffffffffffffffffffffffffffffffffffffffff160217905550604082015181600201556060820151816003019081610a4991906114ea565b506080820151816004019081610a5f91906114ea565b509050505050565b600160003373ffffffffffffffffffffffffffffffffffffffff1673ffffffffffffffffffffffffffffffffffffffff168152602001908152602001600020819080600181540180825580915050600190039060005260206000200160009091909190916101000a81548173ffffffffffffffffffffffffffffffffffffffff021916908373ffffffffffffffffffffffffffffffffffffffff16021790555050565b60606000600160008473ffffffffffffffffffffffffffffffffffffffff1673ffffffffffffffffffffffffffffffffffffffff1681526020019081526020016000208054905067ffffffffffffffff811115610b6a57610b69610df8565b5b604051908082528060200260200182016040528015610b985781602001602082028036833780820191505090505b5090506000600160008573ffffffffffffffffffffffffffffffffffffffff1673ffffffffffffffffffffffffffffffffffffffff16815260200190815260200160002080549050905060005b81811015610cc957600160008673ffffffffffffffffffffffffffffffffffffffff1673ffffffffffffffffffffffffffffffffffffffff1681526020019081526020016000208181548110610c3e57610c3d611685565b5b9060005260206000200160009054906101000a900473ffffffffffffffffffffffffffffffffffffffff16838281518110610c7c57610c7b611685565b5b602002602001019073ffffffffffffffffffffffffffffffffffffffff16908173ffffffffffffffffffffffffffffffffffffffff16815250508080610cc1906116e3565b915050610be5565b508192505050919050565b806000803373ffffffffffffffffffffffffffffffffffffffff1673ffffffffffffffffffffffffffffffffffffffff1681526020019081526020016000206004019081610d2291906114ea565b5050565b600260003373ffffffffffffffffffffffffffffffffffffffff1673ffffffffffffffffffffffffffffffffffffffff168152602001908152602001600020819080600181540180825580915050600190039060005260206000200160009091909190916101000a81548173ffffffffffffffffffffffffffffffffffffffff021916908373ffffffffffffffffffffffffffffffffffffffff16021790555050565b6000604051905090565b600080fd5b600080fd5b600080fd5b600080fd5b6000601f19601f8301169050919050565b7f4e487b7100000000000000000000000000000000000000000000000000000000600052604160045260246000fd5b610e3082610de7565b810181811067ffffffffffffffff82111715610e4f57610e4e610df8565b5b80604052505050565b6000610e62610dc9565b9050610e6e8282610e27565b919050565b600067ffffffffffffffff821115610e8e57610e8d610df8565b5b610e9782610de7565b9050602081019050919050565b82818337600083830152505050565b6000610ec6610ec184610e73565b610e58565b905082815260208101848484011115610ee257610ee1610de2565b5b610eed848285610ea4565b509392505050565b600082601f830112610f0a57610f09610ddd565b5b8135610f1a848260208601610eb3565b91505092915050565b600060208284031215610f3957610f38610dd3565b5b600082013567ffffffffffffffff811115610f5757610f56610dd8565b5b610f6384828501610ef5565b91505092915050565b600073ffffffffffffffffffffffffffffffffffffffff82169050919050565b6000610f9782610f6c565b9050919050565b610fa781610f8c565b8114610fb257600080fd5b50565b600081359050610fc481610f9e565b92915050565b6000819050919050565b610fdd81610fca565b8114610fe857600080fd5b50565b600081359050610ffa81610fd4565b92915050565b6000806040838503121561101757611016610dd3565b5b600061102585828601610fb5565b925050602061103685828601610feb565b9150509250929050565b61104981610f8c565b82525050565b60006020820190506110646000830184611040565b92915050565b6000602082840312156110805761107f610dd3565b5b600061108e84828501610fb5565b91505092915050565b600081519050919050565b600082825260208201905092915050565b6000819050602082019050919050565b6110cc81610f8c565b82525050565b60006110de83836110c3565b60208301905092915050565b6000602082019050919050565b600061110282611097565b61110c81856110a2565b9350611117836110b3565b8060005b8381101561114857815161112f88826110d2565b975061113a836110ea565b92505060018101905061111b565b5085935050505092915050565b6000602082019050818103600083015261116f81846110f7565b905092915050565b61118081610fca565b82525050565b600081519050919050565b600082825260208201905092915050565b60005b838110156111c05780820151818401526020810190506111a5565b60008484015250505050565b60006111d782611186565b6111e18185611191565b93506111f18185602086016111a2565b6111fa81610de7565b840191505092915050565b600060a08201905061121a6000830188611040565b6112276020830187611040565b6112346040830186611177565b818103606083015261124681856111cc565b9050818103608083015261125a81846111cc565b90509695505050505050565b6000806040838503121561127d5761127c610dd3565b5b600083013567ffffffffffffffff81111561129b5761129a610dd8565b5b6112a785828601610ef5565b925050602083013567ffffffffffffffff8111156112c8576112c7610dd8565b5b6112d485828601610ef5565b9150509250929050565b7f4e487b7100000000000000000000000000000000000000000000000000000000600052602260045260246000fd5b6000600282049050600182168061132557607f821691505b602082108103611338576113376112de565b5b50919050565b60008190508160005260206000209050919050565b60006020601f8301049050919050565b600082821b905092915050565b6000600883026113a07fffffffffffffffffffffffffffffffffffffffffffffffffffffffffffffffff82611363565b6113aa8683611363565b95508019841693508086168417925050509392505050565b6000819050919050565b60006113e76113e26113dd84610fca565b6113c2565b610fca565b9050919050565b6000819050919050565b611401836113cc565b61141561140d826113ee565b848454611370565b825550505050565b600090565b61142a61141d565b6114358184846113f8565b505050565b5b818110156114595761144e600082611422565b60018101905061143b565b5050565b601f82111561149e5761146f8161133e565b61147884611353565b81016020851015611487578190505b61149b61149385611353565b83018261143a565b50505b505050565b600082821c905092915050565b60006114c1600019846008026114a3565b1980831691505092915050565b60006114da83836114b0565b9150826002028217905092915050565b6114f382611186565b67ffffffffffffffff81111561150c5761150b610df8565b5b611516825461130d565b61152182828561145d565b600060209050601f8311600181146115545760008415611542578287015190505b61154c85826114ce565b8655506115b4565b601f1984166115628661133e565b60005b8281101561158a57848901518255600182019150602085019450602081019050611565565b868310156115a757848901516115a3601f8916826114b0565b8355505b6001600288020188555050505b505050505050565b60006020820190506115d16000830184611177565b92915050565b6000815190506115e681610f9e565b92915050565b60006020828403121561160257611601610dd3565b5b6000611610848285016115d7565b91505092915050565b7f696e636f7272656374206e6674206f776e657200000000000000000000000000600082015250565b600061164f601383611191565b915061165a82611619565b602082019050919050565b6000602082019050818103600083015261167e81611642565b9050919050565b7f4e487b7100000000000000000000000000000000000000000000000000000000600052603260045260246000fd5b7f4e487b7100000000000000000000000000000000000000000000000000000000600052601160045260246000fd5b60006116ee82610fca565b91507fffffffffffffffffffffffffffffffffffffffffffffffffffffffffffffffff82036117205761171f6116b4565b5b600182019050919050565b7f616c726561647920637265617465642070726f66696c65000000000000000000600082015250565b6000611761601783611191565b915061176c8261172b565b602082019050919050565b6000602082019050818103600083015261179081611754565b905091905056fea26469706673582212206bc8da24fdf4c2d373a3191cd0dbdaf61ebadcc24515d1e5ab838df637ad2b9164736f6c63430008110033",
  "linkReferences": {},
  "deployedLinkReferences": {}
}