{
    "_format": "hh-sol-artifact-1",
    "contractName": "Profile",
    "sourceName": "contracts/profilecontracts/Profile.sol",
    "abi": [
        {
            "inputs": [
                {
                    "internalType": "string",
                    "name": "username",
                    "type": "string"
                }
            ],
            "name": "createProfile",
            "outputs": [],
            "stateMutability": "nonpayable",
            "type": "function"
        },
        {
            "inputs": [
                {
                    "internalType": "address",
                    "name": "",
                    "type": "address"
                },
                {
                    "internalType": "uint256",
                    "name": "",
                    "type": "uint256"
                }
            ],
            "name": "purchasedShows",
            "outputs": [
                {
                    "internalType": "address",
                    "name": "",
                    "type": "address"
                }
            ],
            "stateMutability": "view",
            "type": "function"
        },
        {
            "inputs": [
                {
                    "internalType": "string",
                    "name": "newStatus",
                    "type": "string"
                }
            ],
            "name": "setMessage",
            "outputs": [],
            "stateMutability": "nonpayable",
            "type": "function"
        },
        {
            "inputs": [
                {
                    "internalType": "address",
                    "name": "nftContract",
                    "type": "address"
                },
                {
                    "internalType": "uint256",
                    "name": "tokenId",
                    "type": "uint256"
                }
            ],
            "name": "setProfileNFt",
            "outputs": [],
            "stateMutability": "nonpayable",
            "type": "function"
        },
        {
            "inputs": [
                {
                    "internalType": "address",
                    "name": "newShow",
                    "type": "address"
                }
            ],
            "name": "setPurchasedShow",
            "outputs": [],
            "stateMutability": "nonpayable",
            "type": "function"
        },
        {
            "inputs": [
                {
                    "internalType": "address",
                    "name": "",
                    "type": "address"
                }
            ],
            "name": "users",
            "outputs": [
                {
                    "internalType": "address",
                    "name": "user",
                    "type": "address"
                },
                {
                    "internalType": "address",
                    "name": "profileNFT",
                    "type": "address"
                },
                {
                    "internalType": "uint256",
                    "name": "tokenId",
                    "type": "uint256"
                },
                {
                    "internalType": "string",
                    "name": "statusMessage",
                    "type": "string"
                },
                {
                    "internalType": "string",
                    "name": "username",
                    "type": "string"
                }
            ],
            "stateMutability": "view",
            "type": "function"
        }
    ],
    "bytecode": "0x608060405234801561001057600080fd5b506113ce806100206000396000f3fe608060405234801561001057600080fd5b50600436106100625760003560e01c8063334c3f0e14610067578063368b877214610083578063519a494d1461009f5780635969db3a146100cf578063a87430ba146100eb578063c4e8dac51461011f575b600080fd5b610081600480360381019061007c9190610bde565b61013b565b005b61009d60048036038101906100989190610bde565b61039d565b005b6100b960048036038101906100b49190610cbb565b6104be565b6040516100c69190610d0a565b60405180910390f35b6100e960048036038101906100e49190610cbb565b61050c565b005b61010560048036038101906101009190610d25565b61078c565b604051610116959493929190610de0565b60405180910390f35b61013960048036038101906101349190610d25565b610912565b005b600073ffffffffffffffffffffffffffffffffffffffff166000803373ffffffffffffffffffffffffffffffffffffffff1673ffffffffffffffffffffffffffffffffffffffff16815260200190815260200160002060000160009054906101000a900473ffffffffffffffffffffffffffffffffffffffff1673ffffffffffffffffffffffffffffffffffffffff161461020b576040517f08c379a000000000000000000000000000000000000000000000000000000000815260040161020290610e8d565b60405180910390fd5b6040518060a001604052803373ffffffffffffffffffffffffffffffffffffffff168152602001600073ffffffffffffffffffffffffffffffffffffffff168152602001600081526020016040518060400160405280600e81526020017f64656661756c74207374617475730000000000000000000000000000000000008152508152602001828152506000803373ffffffffffffffffffffffffffffffffffffffff1673ffffffffffffffffffffffffffffffffffffffff16815260200190815260200160002060008201518160000160006101000a81548173ffffffffffffffffffffffffffffffffffffffff021916908373ffffffffffffffffffffffffffffffffffffffff16021790555060208201518160010160006101000a81548173ffffffffffffffffffffffffffffffffffffffff021916908373ffffffffffffffffffffffffffffffffffffffff16021790555060408201518160020155606082015181600301908161038091906110b9565b50608082015181600401908161039691906110b9565b5090505050565b6000803373ffffffffffffffffffffffffffffffffffffffff1673ffffffffffffffffffffffffffffffffffffffff16815260200190815260200160002060000160009054906101000a900473ffffffffffffffffffffffffffffffffffffffff1673ffffffffffffffffffffffffffffffffffffffff163373ffffffffffffffffffffffffffffffffffffffff161461046c576040517f08c379a0000000000000000000000000000000000000000000000000000000008152600401610463906111d7565b60405180910390fd5b806000803373ffffffffffffffffffffffffffffffffffffffff1673ffffffffffffffffffffffffffffffffffffffff16815260200190815260200160002060030190816104ba91906110b9565b5050565b600160205281600052604060002081815481106104da57600080fd5b906000526020600020016000915091509054906101000a900473ffffffffffffffffffffffffffffffffffffffff1681565b6000803373ffffffffffffffffffffffffffffffffffffffff1673ffffffffffffffffffffffffffffffffffffffff16815260200190815260200160002060000160009054906101000a900473ffffffffffffffffffffffffffffffffffffffff1673ffffffffffffffffffffffffffffffffffffffff163373ffffffffffffffffffffffffffffffffffffffff16146105db576040517f08c379a00000000000000000000000000000000000000000000000000000000081526004016105d290611243565b60405180910390fd5b8173ffffffffffffffffffffffffffffffffffffffff16636352211e826040518263ffffffff1660e01b81526004016106149190611263565b602060405180830381865afa158015610631573d6000803e3d6000fd5b505050506040513d601f19601f820116820180604052508101906106559190611293565b73ffffffffffffffffffffffffffffffffffffffff163373ffffffffffffffffffffffffffffffffffffffff16146106c2576040517f08c379a00000000000000000000000000000000000000000000000000000000081526004016106b99061130c565b60405180910390fd5b816000803373ffffffffffffffffffffffffffffffffffffffff1673ffffffffffffffffffffffffffffffffffffffff16815260200190815260200160002060010160006101000a81548173ffffffffffffffffffffffffffffffffffffffff021916908373ffffffffffffffffffffffffffffffffffffffff160217905550806000803373ffffffffffffffffffffffffffffffffffffffff1673ffffffffffffffffffffffffffffffffffffffff168152602001908152602001600020600201819055505050565b60006020528060005260406000206000915090508060000160009054906101000a900473ffffffffffffffffffffffffffffffffffffffff16908060010160009054906101000a900473ffffffffffffffffffffffffffffffffffffffff169080600201549080600301805461080190610edc565b80601f016020809104026020016040519081016040528092919081815260200182805461082d90610edc565b801561087a5780601f1061084f5761010080835404028352916020019161087a565b820191906000526020600020905b81548152906001019060200180831161085d57829003601f168201915b50505050509080600401805461088f90610edc565b80601f01602080910402602001604051908101604052809291908181526020018280546108bb90610edc565b80156109085780601f106108dd57610100808354040283529160200191610908565b820191906000526020600020905b8154815290600101906020018083116108eb57829003601f168201915b5050505050905085565b6000803373ffffffffffffffffffffffffffffffffffffffff1673ffffffffffffffffffffffffffffffffffffffff16815260200190815260200160002060000160009054906101000a900473ffffffffffffffffffffffffffffffffffffffff1673ffffffffffffffffffffffffffffffffffffffff163373ffffffffffffffffffffffffffffffffffffffff16146109e1576040517f08c379a00000000000000000000000000000000000000000000000000000000081526004016109d890611378565b60405180910390fd5b600160003373ffffffffffffffffffffffffffffffffffffffff1673ffffffffffffffffffffffffffffffffffffffff168152602001908152602001600020819080600181540180825580915050600190039060005260206000200160009091909190916101000a81548173ffffffffffffffffffffffffffffffffffffffff021916908373ffffffffffffffffffffffffffffffffffffffff16021790555050565b6000604051905090565b600080fd5b600080fd5b600080fd5b600080fd5b6000601f19601f8301169050919050565b7f4e487b7100000000000000000000000000000000000000000000000000000000600052604160045260246000fd5b610aeb82610aa2565b810181811067ffffffffffffffff82111715610b0a57610b09610ab3565b5b80604052505050565b6000610b1d610a84565b9050610b298282610ae2565b919050565b600067ffffffffffffffff821115610b4957610b48610ab3565b5b610b5282610aa2565b9050602081019050919050565b82818337600083830152505050565b6000610b81610b7c84610b2e565b610b13565b905082815260208101848484011115610b9d57610b9c610a9d565b5b610ba8848285610b5f565b509392505050565b600082601f830112610bc557610bc4610a98565b5b8135610bd5848260208601610b6e565b91505092915050565b600060208284031215610bf457610bf3610a8e565b5b600082013567ffffffffffffffff811115610c1257610c11610a93565b5b610c1e84828501610bb0565b91505092915050565b600073ffffffffffffffffffffffffffffffffffffffff82169050919050565b6000610c5282610c27565b9050919050565b610c6281610c47565b8114610c6d57600080fd5b50565b600081359050610c7f81610c59565b92915050565b6000819050919050565b610c9881610c85565b8114610ca357600080fd5b50565b600081359050610cb581610c8f565b92915050565b60008060408385031215610cd257610cd1610a8e565b5b6000610ce085828601610c70565b9250506020610cf185828601610ca6565b9150509250929050565b610d0481610c47565b82525050565b6000602082019050610d1f6000830184610cfb565b92915050565b600060208284031215610d3b57610d3a610a8e565b5b6000610d4984828501610c70565b91505092915050565b610d5b81610c85565b82525050565b600081519050919050565b600082825260208201905092915050565b60005b83811015610d9b578082015181840152602081019050610d80565b60008484015250505050565b6000610db282610d61565b610dbc8185610d6c565b9350610dcc818560208601610d7d565b610dd581610aa2565b840191505092915050565b600060a082019050610df56000830188610cfb565b610e026020830187610cfb565b610e0f6040830186610d52565b8181036060830152610e218185610da7565b90508181036080830152610e358184610da7565b90509695505050505050565b7f616c726561647920637265617465642070726f66696c65000000000000000000600082015250565b6000610e77601783610d6c565b9150610e8282610e41565b602082019050919050565b60006020820190508181036000830152610ea681610e6a565b9050919050565b7f4e487b7100000000000000000000000000000000000000000000000000000000600052602260045260246000fd5b60006002820490506001821680610ef457607f821691505b602082108103610f0757610f06610ead565b5b50919050565b60008190508160005260206000209050919050565b60006020601f8301049050919050565b600082821b905092915050565b600060088302610f6f7fffffffffffffffffffffffffffffffffffffffffffffffffffffffffffffffff82610f32565b610f798683610f32565b95508019841693508086168417925050509392505050565b6000819050919050565b6000610fb6610fb1610fac84610c85565b610f91565b610c85565b9050919050565b6000819050919050565b610fd083610f9b565b610fe4610fdc82610fbd565b848454610f3f565b825550505050565b600090565b610ff9610fec565b611004818484610fc7565b505050565b5b818110156110285761101d600082610ff1565b60018101905061100a565b5050565b601f82111561106d5761103e81610f0d565b61104784610f22565b81016020851015611056578190505b61106a61106285610f22565b830182611009565b50505b505050565b600082821c905092915050565b600061109060001984600802611072565b1980831691505092915050565b60006110a9838361107f565b9150826002028217905092915050565b6110c282610d61565b67ffffffffffffffff8111156110db576110da610ab3565b5b6110e58254610edc565b6110f082828561102c565b600060209050601f8311600181146111235760008415611111578287015190505b61111b858261109d565b865550611183565b601f19841661113186610f0d565b60005b8281101561115957848901518255600182019150602085019450602081019050611134565b868310156111765784890151611172601f89168261107f565b8355505b6001600288020188555050505b505050505050565b7f6f6e6c792063616e20757064617465206f776e2070726f66696c650000000000600082015250565b60006111c1601b83610d6c565b91506111cc8261118b565b602082019050919050565b600060208201905081810360008301526111f0816111b4565b9050919050565b7f63616e206f6e6c792075706461746520796f7572206f776e2070726f66696c65600082015250565b600061122d602083610d6c565b9150611238826111f7565b602082019050919050565b6000602082019050818103600083015261125c81611220565b9050919050565b60006020820190506112786000830184610d52565b92915050565b60008151905061128d81610c59565b92915050565b6000602082840312156112a9576112a8610a8e565b5b60006112b78482850161127e565b91505092915050565b7f696e636f7272656374206e6674206f776e657200000000000000000000000000600082015250565b60006112f6601383610d6c565b9150611301826112c0565b602082019050919050565b60006020820190508181036000830152611325816112e9565b9050919050565b7f6f6e6c7920757365722063616e20757064617465206f776e2070726f66696c65600082015250565b6000611362602083610d6c565b915061136d8261132c565b602082019050919050565b6000602082019050818103600083015261139181611355565b905091905056fea26469706673582212208b7eeafad5c646393d36ac09c520464b5ead5dfc6c33312ffde93dd3f38db99864736f6c63430008110033",
    "linkReferences": {},
    "deployedLinkReferences": {}
}