{
  "_format": "hh-sol-artifact-1",
  "contractName": "Profile",
  "sourceName": "contracts/profilecontracts/Profile.sol",
  "abi": [
    {
      "inputs": [
        {
          "internalType": "string",
          "name": "username",
          "type": "string"
        }
      ],
      "name": "createProfile",
      "outputs": [],
      "stateMutability": "nonpayable",
      "type": "function"
    },
    {
      "inputs": [
        {
          "internalType": "address",
          "name": "",
          "type": "address"
        },
        {
          "internalType": "uint256",
          "name": "",
          "type": "uint256"
        }
      ],
      "name": "purchasedShows",
      "outputs": [
        {
          "internalType": "address",
          "name": "",
          "type": "address"
        }
      ],
      "stateMutability": "view",
      "type": "function"
    },
    {
      "inputs": [
        {
          "internalType": "address",
          "name": "user",
          "type": "address"
        }
      ],
      "name": "returnAllUsersShows",
      "outputs": [
        {
          "internalType": "address[]",
          "name": "",
          "type": "address[]"
        }
      ],
      "stateMutability": "view",
      "type": "function"
    },
    {
      "inputs": [
        {
          "internalType": "string",
          "name": "newStatus",
          "type": "string"
        }
      ],
      "name": "setMessage",
      "outputs": [],
      "stateMutability": "nonpayable",
      "type": "function"
    },
    {
      "inputs": [
        {
          "internalType": "address",
          "name": "nftContract",
          "type": "address"
        },
        {
          "internalType": "uint256",
          "name": "tokenId",
          "type": "uint256"
        }
      ],
      "name": "setProfileNFt",
      "outputs": [],
      "stateMutability": "nonpayable",
      "type": "function"
    },
    {
      "inputs": [
        {
          "internalType": "address",
          "name": "newShow",
          "type": "address"
        }
      ],
      "name": "setPurchasedShow",
      "outputs": [],
      "stateMutability": "nonpayable",
      "type": "function"
    },
    {
      "inputs": [
        {
          "internalType": "address",
          "name": "",
          "type": "address"
        }
      ],
      "name": "users",
      "outputs": [
        {
          "internalType": "address",
          "name": "user",
          "type": "address"
        },
        {
          "internalType": "address",
          "name": "profileNFT",
          "type": "address"
        },
        {
          "internalType": "uint256",
          "name": "tokenId",
          "type": "uint256"
        },
        {
          "internalType": "string",
          "name": "statusMessage",
          "type": "string"
        },
        {
          "internalType": "string",
          "name": "username",
          "type": "string"
        }
      ],
      "stateMutability": "view",
      "type": "function"
    }
  ],
  "bytecode": "0x608060405234801561001057600080fd5b506113b8806100206000396000f3fe608060405234801561001057600080fd5b506004361061007d5760003560e01c80635969db3a1161005b5780635969db3a146100ea578063a87430ba14610106578063c4e8dac51461013a578063e985b453146101565761007d565b8063334c3f0e14610082578063368b87721461009e578063519a494d146100ba575b600080fd5b61009c60048036038101906100979190610b86565b610186565b005b6100b860048036038101906100b39190610b86565b6103e8565b005b6100d460048036038101906100cf9190610c63565b61043a565b6040516100e19190610cb2565b60405180910390f35b61010460048036038101906100ff9190610c63565b610488565b005b610120600480360381019061011b9190610ccd565b610639565b604051610131959493929190610d88565b60405180910390f35b610154600480360381019061014f9190610ccd565b6107bf565b005b610170600480360381019061016b9190610ccd565b610862565b60405161017d9190610ea7565b60405180910390f35b600073ffffffffffffffffffffffffffffffffffffffff166000803373ffffffffffffffffffffffffffffffffffffffff1673ffffffffffffffffffffffffffffffffffffffff16815260200190815260200160002060000160009054906101000a900473ffffffffffffffffffffffffffffffffffffffff1673ffffffffffffffffffffffffffffffffffffffff1614610256576040517f08c379a000000000000000000000000000000000000000000000000000000000815260040161024d90610f15565b60405180910390fd5b6040518060a001604052803373ffffffffffffffffffffffffffffffffffffffff168152602001600073ffffffffffffffffffffffffffffffffffffffff168152602001600081526020016040518060400160405280600e81526020017f64656661756c74207374617475730000000000000000000000000000000000008152508152602001828152506000803373ffffffffffffffffffffffffffffffffffffffff1673ffffffffffffffffffffffffffffffffffffffff16815260200190815260200160002060008201518160000160006101000a81548173ffffffffffffffffffffffffffffffffffffffff021916908373ffffffffffffffffffffffffffffffffffffffff16021790555060208201518160010160006101000a81548173ffffffffffffffffffffffffffffffffffffffff021916908373ffffffffffffffffffffffffffffffffffffffff1602179055506040820151816002015560608201518160030190816103cb9190611141565b5060808201518160040190816103e19190611141565b5090505050565b806000803373ffffffffffffffffffffffffffffffffffffffff1673ffffffffffffffffffffffffffffffffffffffff16815260200190815260200160002060030190816104369190611141565b5050565b6001602052816000526040600020818154811061045657600080fd5b906000526020600020016000915091509054906101000a900473ffffffffffffffffffffffffffffffffffffffff1681565b8173ffffffffffffffffffffffffffffffffffffffff16636352211e826040518263ffffffff1660e01b81526004016104c19190611213565b602060405180830381865afa1580156104de573d6000803e3d6000fd5b505050506040513d601f19601f820116820180604052508101906105029190611243565b73ffffffffffffffffffffffffffffffffffffffff163373ffffffffffffffffffffffffffffffffffffffff161461056f576040517f08c379a0000000000000000000000000000000000000000000000000000000008152600401610566906112bc565b60405180910390fd5b816000803373ffffffffffffffffffffffffffffffffffffffff1673ffffffffffffffffffffffffffffffffffffffff16815260200190815260200160002060010160006101000a81548173ffffffffffffffffffffffffffffffffffffffff021916908373ffffffffffffffffffffffffffffffffffffffff160217905550806000803373ffffffffffffffffffffffffffffffffffffffff1673ffffffffffffffffffffffffffffffffffffffff168152602001908152602001600020600201819055505050565b60006020528060005260406000206000915090508060000160009054906101000a900473ffffffffffffffffffffffffffffffffffffffff16908060010160009054906101000a900473ffffffffffffffffffffffffffffffffffffffff16908060020154908060030180546106ae90610f64565b80601f01602080910402602001604051908101604052809291908181526020018280546106da90610f64565b80156107275780601f106106fc57610100808354040283529160200191610727565b820191906000526020600020905b81548152906001019060200180831161070a57829003601f168201915b50505050509080600401805461073c90610f64565b80601f016020809104026020016040519081016040528092919081815260200182805461076890610f64565b80156107b55780601f1061078a576101008083540402835291602001916107b5565b820191906000526020600020905b81548152906001019060200180831161079857829003601f168201915b5050505050905085565b600160003373ffffffffffffffffffffffffffffffffffffffff1673ffffffffffffffffffffffffffffffffffffffff168152602001908152602001600020819080600181540180825580915050600190039060005260206000200160009091909190916101000a81548173ffffffffffffffffffffffffffffffffffffffff021916908373ffffffffffffffffffffffffffffffffffffffff16021790555050565b60606000600160008473ffffffffffffffffffffffffffffffffffffffff1673ffffffffffffffffffffffffffffffffffffffff1681526020019081526020016000208054905067ffffffffffffffff8111156108c2576108c1610a5b565b5b6040519080825280602002602001820160405280156108f05781602001602082028036833780820191505090505b5090506000600160008573ffffffffffffffffffffffffffffffffffffffff1673ffffffffffffffffffffffffffffffffffffffff16815260200190815260200160002080549050905060005b81811015610a2157600160008673ffffffffffffffffffffffffffffffffffffffff1673ffffffffffffffffffffffffffffffffffffffff1681526020019081526020016000208181548110610996576109956112dc565b5b9060005260206000200160009054906101000a900473ffffffffffffffffffffffffffffffffffffffff168382815181106109d4576109d36112dc565b5b602002602001019073ffffffffffffffffffffffffffffffffffffffff16908173ffffffffffffffffffffffffffffffffffffffff16815250508080610a199061133a565b91505061093d565b508192505050919050565b6000604051905090565b600080fd5b600080fd5b600080fd5b600080fd5b6000601f19601f8301169050919050565b7f4e487b7100000000000000000000000000000000000000000000000000000000600052604160045260246000fd5b610a9382610a4a565b810181811067ffffffffffffffff82111715610ab257610ab1610a5b565b5b80604052505050565b6000610ac5610a2c565b9050610ad18282610a8a565b919050565b600067ffffffffffffffff821115610af157610af0610a5b565b5b610afa82610a4a565b9050602081019050919050565b82818337600083830152505050565b6000610b29610b2484610ad6565b610abb565b905082815260208101848484011115610b4557610b44610a45565b5b610b50848285610b07565b509392505050565b600082601f830112610b6d57610b6c610a40565b5b8135610b7d848260208601610b16565b91505092915050565b600060208284031215610b9c57610b9b610a36565b5b600082013567ffffffffffffffff811115610bba57610bb9610a3b565b5b610bc684828501610b58565b91505092915050565b600073ffffffffffffffffffffffffffffffffffffffff82169050919050565b6000610bfa82610bcf565b9050919050565b610c0a81610bef565b8114610c1557600080fd5b50565b600081359050610c2781610c01565b92915050565b6000819050919050565b610c4081610c2d565b8114610c4b57600080fd5b50565b600081359050610c5d81610c37565b92915050565b60008060408385031215610c7a57610c79610a36565b5b6000610c8885828601610c18565b9250506020610c9985828601610c4e565b9150509250929050565b610cac81610bef565b82525050565b6000602082019050610cc76000830184610ca3565b92915050565b600060208284031215610ce357610ce2610a36565b5b6000610cf184828501610c18565b91505092915050565b610d0381610c2d565b82525050565b600081519050919050565b600082825260208201905092915050565b60005b83811015610d43578082015181840152602081019050610d28565b60008484015250505050565b6000610d5a82610d09565b610d648185610d14565b9350610d74818560208601610d25565b610d7d81610a4a565b840191505092915050565b600060a082019050610d9d6000830188610ca3565b610daa6020830187610ca3565b610db76040830186610cfa565b8181036060830152610dc98185610d4f565b90508181036080830152610ddd8184610d4f565b90509695505050505050565b600081519050919050565b600082825260208201905092915050565b6000819050602082019050919050565b610e1e81610bef565b82525050565b6000610e308383610e15565b60208301905092915050565b6000602082019050919050565b6000610e5482610de9565b610e5e8185610df4565b9350610e6983610e05565b8060005b83811015610e9a578151610e818882610e24565b9750610e8c83610e3c565b925050600181019050610e6d565b5085935050505092915050565b60006020820190508181036000830152610ec18184610e49565b905092915050565b7f616c726561647920637265617465642070726f66696c65000000000000000000600082015250565b6000610eff601783610d14565b9150610f0a82610ec9565b602082019050919050565b60006020820190508181036000830152610f2e81610ef2565b9050919050565b7f4e487b7100000000000000000000000000000000000000000000000000000000600052602260045260246000fd5b60006002820490506001821680610f7c57607f821691505b602082108103610f8f57610f8e610f35565b5b50919050565b60008190508160005260206000209050919050565b60006020601f8301049050919050565b600082821b905092915050565b600060088302610ff77fffffffffffffffffffffffffffffffffffffffffffffffffffffffffffffffff82610fba565b6110018683610fba565b95508019841693508086168417925050509392505050565b6000819050919050565b600061103e61103961103484610c2d565b611019565b610c2d565b9050919050565b6000819050919050565b61105883611023565b61106c61106482611045565b848454610fc7565b825550505050565b600090565b611081611074565b61108c81848461104f565b505050565b5b818110156110b0576110a5600082611079565b600181019050611092565b5050565b601f8211156110f5576110c681610f95565b6110cf84610faa565b810160208510156110de578190505b6110f26110ea85610faa565b830182611091565b50505b505050565b600082821c905092915050565b6000611118600019846008026110fa565b1980831691505092915050565b60006111318383611107565b9150826002028217905092915050565b61114a82610d09565b67ffffffffffffffff81111561116357611162610a5b565b5b61116d8254610f64565b6111788282856110b4565b600060209050601f8311600181146111ab5760008415611199578287015190505b6111a38582611125565b86555061120b565b601f1984166111b986610f95565b60005b828110156111e1578489015182556001820191506020850194506020810190506111bc565b868310156111fe57848901516111fa601f891682611107565b8355505b6001600288020188555050505b505050505050565b60006020820190506112286000830184610cfa565b92915050565b60008151905061123d81610c01565b92915050565b60006020828403121561125957611258610a36565b5b60006112678482850161122e565b91505092915050565b7f696e636f7272656374206e6674206f776e657200000000000000000000000000600082015250565b60006112a6601383610d14565b91506112b182611270565b602082019050919050565b600060208201905081810360008301526112d581611299565b9050919050565b7f4e487b7100000000000000000000000000000000000000000000000000000000600052603260045260246000fd5b7f4e487b7100000000000000000000000000000000000000000000000000000000600052601160045260246000fd5b600061134582610c2d565b91507fffffffffffffffffffffffffffffffffffffffffffffffffffffffffffffffff82036113775761137661130b565b5b60018201905091905056fea2646970667358221220158209d2a36b49963e268aae8f952c50c70b54070ce7de5de7986653d23054dd64736f6c63430008110033",
  "linkReferences": {},
  "deployedLinkReferences": {}
}