{
  "_format": "hh-sol-artifact-1",
  "contractName": "Cryptickets",
  "sourceName": "contracts/Cryptickets.sol",
  "abi": [
    {
      "inputs": [
        {
          "internalType": "string",
          "name": "_name",
          "type": "string"
        },
        {
          "internalType": "string",
          "name": "_symbol",
          "type": "string"
        },
        {
          "internalType": "address",
          "name": "_escrowAddress",
          "type": "address"
        },
        {
          "internalType": "address",
          "name": "_bandAddress",
          "type": "address"
        },
        {
          "internalType": "address",
          "name": "_venueAddress",
          "type": "address"
        },
        {
          "internalType": "uint256",
          "name": "_endDate",
          "type": "uint256"
        },
        {
          "internalType": "uint256",
          "name": "_price",
          "type": "uint256"
        }
      ],
      "stateMutability": "nonpayable",
      "type": "constructor"
    },
    {
      "anonymous": false,
      "inputs": [
        {
          "indexed": true,
          "internalType": "address",
          "name": "owner",
          "type": "address"
        },
        {
          "indexed": true,
          "internalType": "address",
          "name": "approved",
          "type": "address"
        },
        {
          "indexed": true,
          "internalType": "uint256",
          "name": "tokenId",
          "type": "uint256"
        }
      ],
      "name": "Approval",
      "type": "event"
    },
    {
      "anonymous": false,
      "inputs": [
        {
          "indexed": true,
          "internalType": "address",
          "name": "owner",
          "type": "address"
        },
        {
          "indexed": true,
          "internalType": "address",
          "name": "operator",
          "type": "address"
        },
        {
          "indexed": false,
          "internalType": "bool",
          "name": "approved",
          "type": "bool"
        }
      ],
      "name": "ApprovalForAll",
      "type": "event"
    },
    {
      "anonymous": false,
      "inputs": [
        {
          "indexed": false,
          "internalType": "address",
          "name": "to",
          "type": "address"
        },
        {
          "indexed": false,
          "internalType": "uint256",
          "name": "amountPurchased",
          "type": "uint256"
        }
      ],
      "name": "TicketsPurchased",
      "type": "event"
    },
    {
      "anonymous": false,
      "inputs": [
        {
          "indexed": true,
          "internalType": "address",
          "name": "from",
          "type": "address"
        },
        {
          "indexed": true,
          "internalType": "address",
          "name": "to",
          "type": "address"
        },
        {
          "indexed": true,
          "internalType": "uint256",
          "name": "tokenId",
          "type": "uint256"
        }
      ],
      "name": "Transfer",
      "type": "event"
    },
    {
      "inputs": [],
      "name": "_tokenIds",
      "outputs": [
        {
          "internalType": "uint256",
          "name": "_value",
          "type": "uint256"
        }
      ],
      "stateMutability": "view",
      "type": "function"
    },
    {
      "inputs": [],
      "name": "admin",
      "outputs": [
        {
          "internalType": "address",
          "name": "",
          "type": "address"
        }
      ],
      "stateMutability": "view",
      "type": "function"
    },
    {
      "inputs": [
        {
          "internalType": "uint256",
          "name": "",
          "type": "uint256"
        }
      ],
      "name": "allOwners",
      "outputs": [
        {
          "internalType": "address",
          "name": "",
          "type": "address"
        }
      ],
      "stateMutability": "view",
      "type": "function"
    },
    {
      "inputs": [
        {
          "internalType": "address",
          "name": "to",
          "type": "address"
        },
        {
          "internalType": "uint256",
          "name": "tokenId",
          "type": "uint256"
        }
      ],
      "name": "approve",
      "outputs": [],
      "stateMutability": "nonpayable",
      "type": "function"
    },
    {
      "inputs": [
        {
          "internalType": "address",
          "name": "owner",
          "type": "address"
        }
      ],
      "name": "balanceOf",
      "outputs": [
        {
          "internalType": "uint256",
          "name": "",
          "type": "uint256"
        }
      ],
      "stateMutability": "view",
      "type": "function"
    },
    {
      "inputs": [],
      "name": "bandAddress",
      "outputs": [
        {
          "internalType": "address",
          "name": "",
          "type": "address"
        }
      ],
      "stateMutability": "view",
      "type": "function"
    },
    {
      "inputs": [],
      "name": "bandPercent",
      "outputs": [
        {
          "internalType": "uint256",
          "name": "",
          "type": "uint256"
        }
      ],
      "stateMutability": "view",
      "type": "function"
    },
    {
      "inputs": [],
      "name": "baseUri",
      "outputs": [
        {
          "internalType": "string",
          "name": "",
          "type": "string"
        }
      ],
      "stateMutability": "view",
      "type": "function"
    },
    {
      "inputs": [
        {
          "internalType": "address",
          "name": "_controller",
          "type": "address"
        }
      ],
      "name": "changeAdmin",
      "outputs": [],
      "stateMutability": "nonpayable",
      "type": "function"
    },
    {
      "inputs": [
        {
          "internalType": "uint256",
          "name": "_newShowDate",
          "type": "uint256"
        }
      ],
      "name": "changeShowDate",
      "outputs": [],
      "stateMutability": "nonpayable",
      "type": "function"
    },
    {
      "inputs": [],
      "name": "endDate",
      "outputs": [
        {
          "internalType": "uint256",
          "name": "",
          "type": "uint256"
        }
      ],
      "stateMutability": "view",
      "type": "function"
    },
    {
      "inputs": [],
      "name": "escrowAddress",
      "outputs": [
        {
          "internalType": "address",
          "name": "",
          "type": "address"
        }
      ],
      "stateMutability": "view",
      "type": "function"
    },
    {
      "inputs": [
        {
          "internalType": "uint256",
          "name": "tokenId",
          "type": "uint256"
        }
      ],
      "name": "getApproved",
      "outputs": [
        {
          "internalType": "address",
          "name": "",
          "type": "address"
        }
      ],
      "stateMutability": "view",
      "type": "function"
    },
    {
      "inputs": [
        {
          "internalType": "address",
          "name": "owner",
          "type": "address"
        },
        {
          "internalType": "address",
          "name": "operator",
          "type": "address"
        }
      ],
      "name": "isApprovedForAll",
      "outputs": [
        {
          "internalType": "bool",
          "name": "",
          "type": "bool"
        }
      ],
      "stateMutability": "view",
      "type": "function"
    },
    {
      "inputs": [],
      "name": "maxSupply",
      "outputs": [
        {
          "internalType": "uint256",
          "name": "",
          "type": "uint256"
        }
      ],
      "stateMutability": "view",
      "type": "function"
    },
    {
      "inputs": [],
      "name": "name",
      "outputs": [
        {
          "internalType": "string",
          "name": "",
          "type": "string"
        }
      ],
      "stateMutability": "view",
      "type": "function"
    },
    {
      "inputs": [
        {
          "internalType": "uint256",
          "name": "tokenId",
          "type": "uint256"
        }
      ],
      "name": "ownerOf",
      "outputs": [
        {
          "internalType": "address",
          "name": "",
          "type": "address"
        }
      ],
      "stateMutability": "view",
      "type": "function"
    },
    {
      "inputs": [],
      "name": "payBandAndVenue",
      "outputs": [],
      "stateMutability": "payable",
      "type": "function"
    },
    {
      "inputs": [
        {
          "internalType": "uint256",
          "name": "amount",
          "type": "uint256"
        },
        {
          "internalType": "string",
          "name": "tokenUri",
          "type": "string"
        }
      ],
      "name": "purchaseTickets",
      "outputs": [],
      "stateMutability": "payable",
      "type": "function"
    },
    {
      "inputs": [],
      "name": "refundAllTickets",
      "outputs": [],
      "stateMutability": "payable",
      "type": "function"
    },
    {
      "inputs": [],
      "name": "requestRefund",
      "outputs": [],
      "stateMutability": "nonpayable",
      "type": "function"
    },
    {
      "inputs": [],
      "name": "rescheduled",
      "outputs": [
        {
          "internalType": "bool",
          "name": "",
          "type": "bool"
        }
      ],
      "stateMutability": "view",
      "type": "function"
    },
    {
      "inputs": [],
      "name": "returnAllOwners",
      "outputs": [
        {
          "internalType": "address[]",
          "name": "",
          "type": "address[]"
        }
      ],
      "stateMutability": "view",
      "type": "function"
    },
    {
      "inputs": [
        {
          "internalType": "address",
          "name": "from",
          "type": "address"
        },
        {
          "internalType": "address",
          "name": "to",
          "type": "address"
        },
        {
          "internalType": "uint256",
          "name": "tokenId",
          "type": "uint256"
        }
      ],
      "name": "safeTransferFrom",
      "outputs": [],
      "stateMutability": "nonpayable",
      "type": "function"
    },
    {
      "inputs": [
        {
          "internalType": "address",
          "name": "from",
          "type": "address"
        },
        {
          "internalType": "address",
          "name": "to",
          "type": "address"
        },
        {
          "internalType": "uint256",
          "name": "tokenId",
          "type": "uint256"
        },
        {
          "internalType": "bytes",
          "name": "data",
          "type": "bytes"
        }
      ],
      "name": "safeTransferFrom",
      "outputs": [],
      "stateMutability": "nonpayable",
      "type": "function"
    },
    {
      "inputs": [
        {
          "internalType": "address",
          "name": "operator",
          "type": "address"
        },
        {
          "internalType": "bool",
          "name": "approved",
          "type": "bool"
        }
      ],
      "name": "setApprovalForAll",
      "outputs": [],
      "stateMutability": "nonpayable",
      "type": "function"
    },
    {
      "inputs": [
        {
          "internalType": "string",
          "name": "_bseuri",
          "type": "string"
        }
      ],
      "name": "setBaseUri",
      "outputs": [],
      "stateMutability": "nonpayable",
      "type": "function"
    },
    {
      "inputs": [],
      "name": "setCancelledShow",
      "outputs": [],
      "stateMutability": "nonpayable",
      "type": "function"
    },
    {
      "inputs": [
        {
          "internalType": "uint256",
          "name": "_maxSupply",
          "type": "uint256"
        }
      ],
      "name": "setMaxSupply",
      "outputs": [],
      "stateMutability": "nonpayable",
      "type": "function"
    },
    {
      "inputs": [],
      "name": "showCancelled",
      "outputs": [
        {
          "internalType": "bool",
          "name": "",
          "type": "bool"
        }
      ],
      "stateMutability": "view",
      "type": "function"
    },
    {
      "inputs": [],
      "name": "showCompleted",
      "outputs": [
        {
          "internalType": "bool",
          "name": "",
          "type": "bool"
        }
      ],
      "stateMutability": "view",
      "type": "function"
    },
    {
      "inputs": [
        {
          "internalType": "bytes4",
          "name": "interfaceId",
          "type": "bytes4"
        }
      ],
      "name": "supportsInterface",
      "outputs": [
        {
          "internalType": "bool",
          "name": "",
          "type": "bool"
        }
      ],
      "stateMutability": "view",
      "type": "function"
    },
    {
      "inputs": [],
      "name": "symbol",
      "outputs": [
        {
          "internalType": "string",
          "name": "",
          "type": "string"
        }
      ],
      "stateMutability": "view",
      "type": "function"
    },
    {
      "inputs": [],
      "name": "ticketLimit",
      "outputs": [
        {
          "internalType": "uint256",
          "name": "",
          "type": "uint256"
        }
      ],
      "stateMutability": "view",
      "type": "function"
    },
    {
      "inputs": [],
      "name": "ticketPrice",
      "outputs": [
        {
          "internalType": "uint256",
          "name": "",
          "type": "uint256"
        }
      ],
      "stateMutability": "view",
      "type": "function"
    },
    {
      "inputs": [
        {
          "internalType": "address",
          "name": "",
          "type": "address"
        }
      ],
      "name": "ticketsPurchased",
      "outputs": [
        {
          "internalType": "uint256",
          "name": "",
          "type": "uint256"
        }
      ],
      "stateMutability": "view",
      "type": "function"
    },
    {
      "inputs": [
        {
          "internalType": "uint256",
          "name": "tokenId",
          "type": "uint256"
        }
      ],
      "name": "tokenURI",
      "outputs": [
        {
          "internalType": "string",
          "name": "",
          "type": "string"
        }
      ],
      "stateMutability": "view",
      "type": "function"
    },
    {
      "inputs": [
        {
          "internalType": "address",
          "name": "from",
          "type": "address"
        },
        {
          "internalType": "address",
          "name": "to",
          "type": "address"
        },
        {
          "internalType": "uint256",
          "name": "tokenId",
          "type": "uint256"
        }
      ],
      "name": "transferFrom",
      "outputs": [],
      "stateMutability": "nonpayable",
      "type": "function"
    },
    {
      "inputs": [],
      "name": "venueAddress",
      "outputs": [
        {
          "internalType": "address",
          "name": "",
          "type": "address"
        }
      ],
      "stateMutability": "view",
      "type": "function"
    },
    {
      "stateMutability": "payable",
      "type": "receive"
    }
  ],
  "bytecode": "0x60e06040526064600955600a600b556008600d553480156200002057600080fd5b506040516200516438038062005164833981810160405281019062000046919062000399565b86868160009081620000599190620006cb565b5080600190816200006b9190620006cb565b50505033600a60006101000a81548173ffffffffffffffffffffffffffffffffffffffff021916908373ffffffffffffffffffffffffffffffffffffffff1602179055508473ffffffffffffffffffffffffffffffffffffffff1660c08173ffffffffffffffffffffffffffffffffffffffff16815250508373ffffffffffffffffffffffffffffffffffffffff1660808173ffffffffffffffffffffffffffffffffffffffff16815250508273ffffffffffffffffffffffffffffffffffffffff1660a08173ffffffffffffffffffffffffffffffffffffffff168152505081600e8190555080600c8190555050505050505050620007b2565b6000604051905090565b600080fd5b600080fd5b600080fd5b600080fd5b6000601f19601f8301169050919050565b7f4e487b7100000000000000000000000000000000000000000000000000000000600052604160045260246000fd5b620001cf8262000184565b810181811067ffffffffffffffff82111715620001f157620001f062000195565b5b80604052505050565b60006200020662000166565b9050620002148282620001c4565b919050565b600067ffffffffffffffff82111562000237576200023662000195565b5b620002428262000184565b9050602081019050919050565b60005b838110156200026f57808201518184015260208101905062000252565b60008484015250505050565b6000620002926200028c8462000219565b620001fa565b905082815260208101848484011115620002b157620002b06200017f565b5b620002be8482856200024f565b509392505050565b600082601f830112620002de57620002dd6200017a565b5b8151620002f08482602086016200027b565b91505092915050565b600073ffffffffffffffffffffffffffffffffffffffff82169050919050565b60006200032682620002f9565b9050919050565b620003388162000319565b81146200034457600080fd5b50565b60008151905062000358816200032d565b92915050565b6000819050919050565b62000373816200035e565b81146200037f57600080fd5b50565b600081519050620003938162000368565b92915050565b600080600080600080600060e0888a031215620003bb57620003ba62000170565b5b600088015167ffffffffffffffff811115620003dc57620003db62000175565b5b620003ea8a828b01620002c6565b975050602088015167ffffffffffffffff8111156200040e576200040d62000175565b5b6200041c8a828b01620002c6565b96505060406200042f8a828b0162000347565b9550506060620004428a828b0162000347565b9450506080620004558a828b0162000347565b93505060a0620004688a828b0162000382565b92505060c06200047b8a828b0162000382565b91505092959891949750929550565b600081519050919050565b7f4e487b7100000000000000000000000000000000000000000000000000000000600052602260045260246000fd5b60006002820490506001821680620004dd57607f821691505b602082108103620004f357620004f262000495565b5b50919050565b60008190508160005260206000209050919050565b60006020601f8301049050919050565b600082821b905092915050565b6000600883026200055d7fffffffffffffffffffffffffffffffffffffffffffffffffffffffffffffffff826200051e565b6200056986836200051e565b95508019841693508086168417925050509392505050565b6000819050919050565b6000620005ac620005a6620005a0846200035e565b62000581565b6200035e565b9050919050565b6000819050919050565b620005c8836200058b565b620005e0620005d782620005b3565b8484546200052b565b825550505050565b600090565b620005f7620005e8565b62000604818484620005bd565b505050565b5b818110156200062c5762000620600082620005ed565b6001810190506200060a565b5050565b601f8211156200067b576200064581620004f9565b62000650846200050e565b8101602085101562000660578190505b620006786200066f856200050e565b83018262000609565b50505b505050565b600082821c905092915050565b6000620006a06000198460080262000680565b1980831691505092915050565b6000620006bb83836200068d565b9150826002028217905092915050565b620006d6826200048a565b67ffffffffffffffff811115620006f257620006f162000195565b5b620006fe8254620004c4565b6200070b82828562000630565b600060209050601f8311600181146200074357600084156200072e578287015190505b6200073a8582620006ad565b865550620007aa565b601f1984166200075386620004f9565b60005b828110156200077d5784890151825560018201915060208501945060208101905062000756565b868310156200079d578489015162000799601f8916826200068d565b8355505b6001600288020188555050505b505050505050565b60805160a05160c0516149586200080c60003960008181610ba5015281816112f00152818161183701528181611b830152611cc7015260008181610e380152611e29015260008181611a680152611dc201526149586000f3fe6080604052600436106102345760003560e01c8063833534bb1161012e578063c24a0f8b116100ab578063d5cef1331161006f578063d5cef1331461081e578063e146f72714610835578063e985e9c51461083f578063ecaabf7f1461087c578063f851a440146108a75761023b565b8063c24a0f8b14610735578063c769a54114610760578063c87b56dd1461078b578063ccc5efc5146107c8578063d5abeb01146107f35761023b565b8063a0bcfc7f116100f2578063a0bcfc7f14610673578063a22cb4651461069c578063aa46a400146106c5578063b82af82d146106f0578063b88d4fde1461070c5761023b565b8063833534bb146105bf5780638f283970146105ea57806395d89b411461061357806399203d231461063e5780639abc8320146106485761023b565b806342842e0e116101bc5780636ccda0a6116101805780636ccda0a6146104da5780636f8b44b01461051757806370a08231146105405780637389df8a1461057d57806373b4dba1146105945761023b565b806342842e0e146103f55780635b7646bf1461041e5780635e321dfc146104475780636352211e1461047257806369ba4f68146104af5761023b565b80630d5defa4116102035780630d5defa41461030e5780631209b1f6146103395780631516db091461036457806323b872dd146103a15780632cc403e0146103ca5761023b565b806301ffc9a71461024057806306fdde031461027d578063081812fc146102a8578063095ea7b3146102e55761023b565b3661023b57005b600080fd5b34801561024c57600080fd5b50610267600480360381019061026291906130d0565b6108d2565b6040516102749190613118565b60405180910390f35b34801561028957600080fd5b506102926109b4565b60405161029f91906131c3565b60405180910390f35b3480156102b457600080fd5b506102cf60048036038101906102ca919061321b565b610a46565b6040516102dc9190613289565b60405180910390f35b3480156102f157600080fd5b5061030c600480360381019061030791906132d0565b610a8c565b005b34801561031a57600080fd5b50610323610ba3565b6040516103309190613289565b60405180910390f35b34801561034557600080fd5b5061034e610bc7565b60405161035b919061331f565b60405180910390f35b34801561037057600080fd5b5061038b6004803603810190610386919061321b565b610bcd565b6040516103989190613289565b60405180910390f35b3480156103ad57600080fd5b506103c860048036038101906103c3919061333a565b610c0c565b005b3480156103d657600080fd5b506103df610ccf565b6040516103ec919061331f565b60405180910390f35b34801561040157600080fd5b5061041c6004803603810190610417919061333a565b610cd5565b005b34801561042a57600080fd5b506104456004803603810190610440919061321b565b610cf5565b005b34801561045357600080fd5b5061045c610daa565b604051610469919061331f565b60405180910390f35b34801561047e57600080fd5b506104996004803603810190610494919061321b565b610db0565b6040516104a69190613289565b60405180910390f35b3480156104bb57600080fd5b506104c4610e36565b6040516104d19190613289565b60405180910390f35b3480156104e657600080fd5b5061050160048036038101906104fc919061338d565b610e5a565b60405161050e919061331f565b60405180910390f35b34801561052357600080fd5b5061053e6004803603810190610539919061321b565b610e72565b005b34801561054c57600080fd5b506105676004803603810190610562919061338d565b610f0c565b604051610574919061331f565b60405180910390f35b34801561058957600080fd5b50610592610fc3565b005b3480156105a057600080fd5b506105a9611070565b6040516105b69190613118565b60405180910390f35b3480156105cb57600080fd5b506105d4611083565b6040516105e19190613118565b60405180910390f35b3480156105f657600080fd5b50610611600480360381019061060c919061338d565b611096565b005b34801561061f57600080fd5b5061062861116a565b60405161063591906131c3565b60405180910390f35b6106466111fc565b005b34801561065457600080fd5b5061065d611431565b60405161066a91906131c3565b60405180910390f35b34801561067f57600080fd5b5061069a600480360381019061069591906134ef565b6114bf565b005b3480156106a857600080fd5b506106c360048036038101906106be9190613564565b611562565b005b3480156106d157600080fd5b506106da611578565b6040516106e7919061331f565b60405180910390f35b61070a600480360381019061070591906135a4565b611584565b005b34801561071857600080fd5b50610733600480360381019061072e91906136a1565b6118d9565b005b34801561074157600080fd5b5061074a61193b565b604051610757919061331f565b60405180910390f35b34801561076c57600080fd5b50610775611941565b6040516107829190613118565b60405180910390f35b34801561079757600080fd5b506107b260048036038101906107ad919061321b565b611954565b6040516107bf91906131c3565b60405180910390f35b3480156107d457600080fd5b506107dd611a66565b6040516107ea9190613289565b60405180910390f35b3480156107ff57600080fd5b50610808611a8a565b604051610815919061331f565b60405180910390f35b34801561082a57600080fd5b50610833611a90565b005b61083d611c10565b005b34801561084b57600080fd5b5061086660048036038101906108619190613724565b611e91565b6040516108739190613118565b60405180910390f35b34801561088857600080fd5b50610891611f25565b60405161089e9190613822565b60405180910390f35b3480156108b357600080fd5b506108bc6120d0565b6040516108c99190613289565b60405180910390f35b60007f80ac58cd000000000000000000000000000000000000000000000000000000007bffffffffffffffffffffffffffffffffffffffffffffffffffffffff1916827bffffffffffffffffffffffffffffffffffffffffffffffffffffffff1916148061099d57507f5b5e139f000000000000000000000000000000000000000000000000000000007bffffffffffffffffffffffffffffffffffffffffffffffffffffffff1916827bffffffffffffffffffffffffffffffffffffffffffffffffffffffff1916145b806109ad57506109ac826120f6565b5b9050919050565b6060600080546109c390613873565b80601f01602080910402602001604051908101604052809291908181526020018280546109ef90613873565b8015610a3c5780601f10610a1157610100808354040283529160200191610a3c565b820191906000526020600020905b815481529060010190602001808311610a1f57829003601f168201915b5050505050905090565b6000610a5182612160565b6004600083815260200190815260200160002060009054906101000a900473ffffffffffffffffffffffffffffffffffffffff169050919050565b6000610a9782610db0565b90508073ffffffffffffffffffffffffffffffffffffffff168373ffffffffffffffffffffffffffffffffffffffff1603610b07576040517f08c379a0000000000000000000000000000000000000000000000000000000008152600401610afe90613916565b60405180910390fd5b8073ffffffffffffffffffffffffffffffffffffffff16610b266121ab565b73ffffffffffffffffffffffffffffffffffffffff161480610b555750610b5481610b4f6121ab565b611e91565b5b610b94576040517f08c379a0000000000000000000000000000000000000000000000000000000008152600401610b8b906139a8565b60405180910390fd5b610b9e83836121b3565b505050565b7f000000000000000000000000000000000000000000000000000000000000000081565b600c5481565b60108181548110610bdd57600080fd5b906000526020600020016000915054906101000a900473ffffffffffffffffffffffffffffffffffffffff1681565b610c1d610c176121ab565b8261226c565b610c5c576040517f08c379a0000000000000000000000000000000000000000000000000000000008152600401610c5390613a3a565b60405180910390fd5b6010829080600181540180825580915050600190039060005260206000200160009091909190916101000a81548173ffffffffffffffffffffffffffffffffffffffff021916908373ffffffffffffffffffffffffffffffffffffffff160217905550610cca838383612301565b505050565b600b5481565b610cf0838383604051806020016040528060008152506118d9565b505050565b600a60009054906101000a900473ffffffffffffffffffffffffffffffffffffffff1673ffffffffffffffffffffffffffffffffffffffff163373ffffffffffffffffffffffffffffffffffffffff1614610d85576040517f08c379a0000000000000000000000000000000000000000000000000000000008152600401610d7c90613aa6565b60405180910390fd5b80600e819055506001600f60026101000a81548160ff02191690831515021790555050565b600d5481565b600080610dbc836125fa565b9050600073ffffffffffffffffffffffffffffffffffffffff168173ffffffffffffffffffffffffffffffffffffffff1603610e2d576040517f08c379a0000000000000000000000000000000000000000000000000000000008152600401610e2490613b12565b60405180910390fd5b80915050919050565b7f000000000000000000000000000000000000000000000000000000000000000081565b60116020528060005260406000206000915090505481565b600a60009054906101000a900473ffffffffffffffffffffffffffffffffffffffff1673ffffffffffffffffffffffffffffffffffffffff163373ffffffffffffffffffffffffffffffffffffffff1614610f02576040517f08c379a0000000000000000000000000000000000000000000000000000000008152600401610ef990613aa6565b60405180910390fd5b8060098190555050565b60008073ffffffffffffffffffffffffffffffffffffffff168273ffffffffffffffffffffffffffffffffffffffff1603610f7c576040517f08c379a0000000000000000000000000000000000000000000000000000000008152600401610f7390613ba4565b60405180910390fd5b600360008373ffffffffffffffffffffffffffffffffffffffff1673ffffffffffffffffffffffffffffffffffffffff168152602001908152602001600020549050919050565b600a60009054906101000a900473ffffffffffffffffffffffffffffffffffffffff1673ffffffffffffffffffffffffffffffffffffffff163373ffffffffffffffffffffffffffffffffffffffff1614611053576040517f08c379a000000000000000000000000000000000000000000000000000000000815260040161104a90613c10565b60405180910390fd5b6001600f60006101000a81548160ff021916908315150217905550565b600f60019054906101000a900460ff1681565b600f60029054906101000a900460ff1681565b600a60009054906101000a900473ffffffffffffffffffffffffffffffffffffffff1673ffffffffffffffffffffffffffffffffffffffff163373ffffffffffffffffffffffffffffffffffffffff1614611126576040517f08c379a000000000000000000000000000000000000000000000000000000000815260040161111d90613aa6565b60405180910390fd5b80600a60006101000a81548173ffffffffffffffffffffffffffffffffffffffff021916908373ffffffffffffffffffffffffffffffffffffffff16021790555050565b60606001805461117990613873565b80601f01602080910402602001604051908101604052809291908181526020018280546111a590613873565b80156111f25780601f106111c7576101008083540402835291602001916111f2565b820191906000526020600020905b8154815290600101906020018083116111d557829003601f168201915b5050505050905090565b60011515600f60009054906101000a900460ff16151514611252576040517f08c379a000000000000000000000000000000000000000000000000000000000815260040161124990613c7c565b60405180910390fd5b600a60009054906101000a900473ffffffffffffffffffffffffffffffffffffffff1673ffffffffffffffffffffffffffffffffffffffff163373ffffffffffffffffffffffffffffffffffffffff16146112e2576040517f08c379a00000000000000000000000000000000000000000000000000000000081526004016112d990613aa6565b60405180910390fd5b60006112ec611f25565b90507f000000000000000000000000000000000000000000000000000000000000000073ffffffffffffffffffffffffffffffffffffffff166369d895756040518163ffffffff1660e01b8152600401600060405180830381600087803b15801561135657600080fd5b505af115801561136a573d6000803e3d6000fd5b5050505060005b60108054905081101561142d5760006113a383838151811061139657611395613c9c565b5b6020026020010151610f0c565b90506000600c54826113b59190613cfa565b90508383815181106113ca576113c9613c9c565b5b602002602001015173ffffffffffffffffffffffffffffffffffffffff166108fc829081150290604051600060405180830381858888f19350505050158015611417573d6000803e3d6000fd5b505050808061142590613d3c565b915050611371565b5050565b6008805461143e90613873565b80601f016020809104026020016040519081016040528092919081815260200182805461146a90613873565b80156114b75780601f1061148c576101008083540402835291602001916114b7565b820191906000526020600020905b81548152906001019060200180831161149a57829003601f168201915b505050505081565b600a60009054906101000a900473ffffffffffffffffffffffffffffffffffffffff1673ffffffffffffffffffffffffffffffffffffffff163373ffffffffffffffffffffffffffffffffffffffff161461154f576040517f08c379a000000000000000000000000000000000000000000000000000000000815260040161154690613dd0565b60405180910390fd5b806008908161155e9190613f9c565b5050565b61157461156d6121ab565b8383612637565b5050565b60078060000154905081565b81600c546115929190613cfa565b3410156115d4576040517f08c379a00000000000000000000000000000000000000000000000000000000081526004016115cb906140ba565b60405180910390fd5b600d5482601160003373ffffffffffffffffffffffffffffffffffffffff1673ffffffffffffffffffffffffffffffffffffffff1681526020019081526020016000205461162291906140da565b1115611663576040517f08c379a000000000000000000000000000000000000000000000000000000000815260040161165a9061415a565b60405180910390fd5b6009548261167160076127a3565b61167b91906140da565b11156116bc576040517f08c379a00000000000000000000000000000000000000000000000000000000081526004016116b3906141c6565b60405180910390fd5b60001515600f60009054906101000a900460ff16151514806116f1575060011515600f60019054906101000a900460ff161515145b611730576040517f08c379a000000000000000000000000000000000000000000000000000000000815260040161172790614232565b60405180910390fd5b81601160003373ffffffffffffffffffffffffffffffffffffffff1673ffffffffffffffffffffffffffffffffffffffff168152602001908152602001600020600082825461177f91906140da565b925050819055506010339080600181540180825580915050600190039060005260206000200160009091909190916101000a81548173ffffffffffffffffffffffffffffffffffffffff021916908373ffffffffffffffffffffffffffffffffffffffff16021790555060005b82811015611834576117fe60076127b1565b600061180a60076127a3565b905061181633826127c7565b61182081846129e4565b50808061182c90613d3c565b9150506117ec565b507f000000000000000000000000000000000000000000000000000000000000000073ffffffffffffffffffffffffffffffffffffffff166108fc349081150290604051600060405180830381858888f1935050505015801561189b573d6000803e3d6000fd5b507fe11731cb4f1eb3ec3dd09bdc96809bb07365f4c881cda3192b397a4bc0b6da4033836040516118cd929190614252565b60405180910390a15050565b6118ea6118e46121ab565b8361226c565b611929576040517f08c379a000000000000000000000000000000000000000000000000000000000815260040161192090613a3a565b60405180910390fd5b61193584848484612a51565b50505050565b600e5481565b600f60009054906101000a900460ff1681565b606061195f82612160565b600060066000848152602001908152602001600020805461197f90613873565b80601f01602080910402602001604051908101604052809291908181526020018280546119ab90613873565b80156119f85780601f106119cd576101008083540402835291602001916119f8565b820191906000526020600020905b8154815290600101906020018083116119db57829003601f168201915b505050505090506000611a09612aad565b90506000815103611a1e578192505050611a61565b600082511115611a53578082604051602001611a3b9291906142b7565b60405160208183030381529060405292505050611a61565b611a5c84612ac4565b925050505b919050565b7f000000000000000000000000000000000000000000000000000000000000000081565b60095481565b60011515600f60029054906101000a900460ff16151514611ae6576040517f08c379a0000000000000000000000000000000000000000000000000000000008152600401611add90614327565b60405180910390fd5b6000601160003373ffffffffffffffffffffffffffffffffffffffff1673ffffffffffffffffffffffffffffffffffffffff1681526020019081526020016000205490506000600c5482611b3a9190613cfa565b90506000601160003373ffffffffffffffffffffffffffffffffffffffff1673ffffffffffffffffffffffffffffffffffffffff168152602001908152602001600020819055507f000000000000000000000000000000000000000000000000000000000000000073ffffffffffffffffffffffffffffffffffffffff1663a99c20a3826040518263ffffffff1660e01b8152600401611bda919061331f565b600060405180830381600087803b158015611bf457600080fd5b505af1158015611c08573d6000803e3d6000fd5b505050505050565b60001515600f60009054906101000a900460ff16151514611c66576040517f08c379a0000000000000000000000000000000000000000000000000000000008152600401611c5d90614393565b60405180910390fd5b42600e5411611caa576040517f08c379a0000000000000000000000000000000000000000000000000000000008152600401611ca1906143ff565b60405180910390fd5b6001600f60016101000a81548160ff0219169083151502179055507f000000000000000000000000000000000000000000000000000000000000000073ffffffffffffffffffffffffffffffffffffffff166369d895756040518163ffffffff1660e01b8152600401600060405180830381600087803b158015611d2d57600080fd5b505af1158015611d41573d6000803e3d6000fd5b505050506000600b5447611d55919061444e565b9050600a60009054906101000a900473ffffffffffffffffffffffffffffffffffffffff1673ffffffffffffffffffffffffffffffffffffffff166108fc829081150290604051600060405180830381858888f19350505050158015611dbf573d6000803e3d6000fd5b507f000000000000000000000000000000000000000000000000000000000000000073ffffffffffffffffffffffffffffffffffffffff166108fc829081150290604051600060405180830381858888f19350505050158015611e26573d6000803e3d6000fd5b507f000000000000000000000000000000000000000000000000000000000000000073ffffffffffffffffffffffffffffffffffffffff166108fc479081150290604051600060405180830381858888f19350505050158015611e8d573d6000803e3d6000fd5b5050565b6000600560008473ffffffffffffffffffffffffffffffffffffffff1673ffffffffffffffffffffffffffffffffffffffff16815260200190815260200160002060008373ffffffffffffffffffffffffffffffffffffffff1673ffffffffffffffffffffffffffffffffffffffff16815260200190815260200160002060009054906101000a900460ff16905092915050565b6060600a60009054906101000a900473ffffffffffffffffffffffffffffffffffffffff1673ffffffffffffffffffffffffffffffffffffffff163373ffffffffffffffffffffffffffffffffffffffff1614611fb7576040517f08c379a0000000000000000000000000000000000000000000000000000000008152600401611fae90613dd0565b60405180910390fd5b600060108054905067ffffffffffffffff811115611fd857611fd76133c4565b5b6040519080825280602002602001820160405280156120065781602001602082028036833780820191505090505b5090506000805b6010805490508110156120c7576010818154811061202e5761202d613c9c565b5b9060005260206000200160009054906101000a900473ffffffffffffffffffffffffffffffffffffffff1683838151811061206c5761206b613c9c565b5b602002602001019073ffffffffffffffffffffffffffffffffffffffff16908173ffffffffffffffffffffffffffffffffffffffff168152505081806120b190613d3c565b92505080806120bf90613d3c565b91505061200d565b50819250505090565b600a60009054906101000a900473ffffffffffffffffffffffffffffffffffffffff1681565b60007f01ffc9a7000000000000000000000000000000000000000000000000000000007bffffffffffffffffffffffffffffffffffffffffffffffffffffffff1916827bffffffffffffffffffffffffffffffffffffffffffffffffffffffff1916149050919050565b61216981612b2c565b6121a8576040517f08c379a000000000000000000000000000000000000000000000000000000000815260040161219f90613b12565b60405180910390fd5b50565b600033905090565b816004600083815260200190815260200160002060006101000a81548173ffffffffffffffffffffffffffffffffffffffff021916908373ffffffffffffffffffffffffffffffffffffffff160217905550808273ffffffffffffffffffffffffffffffffffffffff1661222683610db0565b73ffffffffffffffffffffffffffffffffffffffff167f8c5be1e5ebec7d5bd14f71427d1e84f3dd0314c0f7b2291e5b200ac8c7c3b92560405160405180910390a45050565b60008061227883610db0565b90508073ffffffffffffffffffffffffffffffffffffffff168473ffffffffffffffffffffffffffffffffffffffff1614806122ba57506122b98185611e91565b5b806122f857508373ffffffffffffffffffffffffffffffffffffffff166122e084610a46565b73ffffffffffffffffffffffffffffffffffffffff16145b91505092915050565b8273ffffffffffffffffffffffffffffffffffffffff1661232182610db0565b73ffffffffffffffffffffffffffffffffffffffff1614612377576040517f08c379a000000000000000000000000000000000000000000000000000000000815260040161236e906144f1565b60405180910390fd5b600073ffffffffffffffffffffffffffffffffffffffff168273ffffffffffffffffffffffffffffffffffffffff16036123e6576040517f08c379a00000000000000000000000000000000000000000000000000000000081526004016123dd90614583565b60405180910390fd5b6123f38383836001612b6d565b8273ffffffffffffffffffffffffffffffffffffffff1661241382610db0565b73ffffffffffffffffffffffffffffffffffffffff1614612469576040517f08c379a0000000000000000000000000000000000000000000000000000000008152600401612460906144f1565b60405180910390fd5b6004600082815260200190815260200160002060006101000a81549073ffffffffffffffffffffffffffffffffffffffff02191690556001600360008573ffffffffffffffffffffffffffffffffffffffff1673ffffffffffffffffffffffffffffffffffffffff168152602001908152602001600020600082825403925050819055506001600360008473ffffffffffffffffffffffffffffffffffffffff1673ffffffffffffffffffffffffffffffffffffffff16815260200190815260200160002060008282540192505081905550816002600083815260200190815260200160002060006101000a81548173ffffffffffffffffffffffffffffffffffffffff021916908373ffffffffffffffffffffffffffffffffffffffff160217905550808273ffffffffffffffffffffffffffffffffffffffff168473ffffffffffffffffffffffffffffffffffffffff167fddf252ad1be2c89b69c2b068fc378daa952ba7f163c4a11628f55a4df523b3ef60405160405180910390a46125f58383836001612c93565b505050565b60006002600083815260200190815260200160002060009054906101000a900473ffffffffffffffffffffffffffffffffffffffff169050919050565b8173ffffffffffffffffffffffffffffffffffffffff168373ffffffffffffffffffffffffffffffffffffffff16036126a5576040517f08c379a000000000000000000000000000000000000000000000000000000000815260040161269c906145ef565b60405180910390fd5b80600560008573ffffffffffffffffffffffffffffffffffffffff1673ffffffffffffffffffffffffffffffffffffffff16815260200190815260200160002060008473ffffffffffffffffffffffffffffffffffffffff1673ffffffffffffffffffffffffffffffffffffffff16815260200190815260200160002060006101000a81548160ff0219169083151502179055508173ffffffffffffffffffffffffffffffffffffffff168373ffffffffffffffffffffffffffffffffffffffff167f17307eab39ab6107e8899845ad3d59bd9653f200f220920489ca2b5937696c31836040516127969190613118565b60405180910390a3505050565b600081600001549050919050565b6001816000016000828254019250508190555050565b600073ffffffffffffffffffffffffffffffffffffffff168273ffffffffffffffffffffffffffffffffffffffff1603612836576040517f08c379a000000000000000000000000000000000000000000000000000000000815260040161282d9061465b565b60405180910390fd5b61283f81612b2c565b1561287f576040517f08c379a0000000000000000000000000000000000000000000000000000000008152600401612876906146c7565b60405180910390fd5b61288d600083836001612b6d565b61289681612b2c565b156128d6576040517f08c379a00000000000000000000000000000000000000000000000000000000081526004016128cd906146c7565b60405180910390fd5b6001600360008473ffffffffffffffffffffffffffffffffffffffff1673ffffffffffffffffffffffffffffffffffffffff16815260200190815260200160002060008282540192505081905550816002600083815260200190815260200160002060006101000a81548173ffffffffffffffffffffffffffffffffffffffff021916908373ffffffffffffffffffffffffffffffffffffffff160217905550808273ffffffffffffffffffffffffffffffffffffffff16600073ffffffffffffffffffffffffffffffffffffffff167fddf252ad1be2c89b69c2b068fc378daa952ba7f163c4a11628f55a4df523b3ef60405160405180910390a46129e0600083836001612c93565b5050565b6129ed82612b2c565b612a2c576040517f08c379a0000000000000000000000000000000000000000000000000000000008152600401612a2390614759565b60405180910390fd5b80600660008481526020019081526020016000209081612a4c9190613f9c565b505050565b612a5c848484612301565b612a6884848484612c99565b612aa7576040517f08c379a0000000000000000000000000000000000000000000000000000000008152600401612a9e906147eb565b60405180910390fd5b50505050565b606060405180602001604052806000815250905090565b6060612acf82612160565b6000612ad9612aad565b90506000815111612af95760405180602001604052806000815250612b24565b80612b0384612e20565b604051602001612b149291906142b7565b6040516020818303038152906040525b915050919050565b60008073ffffffffffffffffffffffffffffffffffffffff16612b4e836125fa565b73ffffffffffffffffffffffffffffffffffffffff1614159050919050565b6001811115612c8d57600073ffffffffffffffffffffffffffffffffffffffff168473ffffffffffffffffffffffffffffffffffffffff1614612c015780600360008673ffffffffffffffffffffffffffffffffffffffff1673ffffffffffffffffffffffffffffffffffffffff1681526020019081526020016000206000828254612bf9919061480b565b925050819055505b600073ffffffffffffffffffffffffffffffffffffffff168373ffffffffffffffffffffffffffffffffffffffff1614612c8c5780600360008573ffffffffffffffffffffffffffffffffffffffff1673ffffffffffffffffffffffffffffffffffffffff1681526020019081526020016000206000828254612c8491906140da565b925050819055505b5b50505050565b50505050565b6000612cba8473ffffffffffffffffffffffffffffffffffffffff16612eee565b15612e13578373ffffffffffffffffffffffffffffffffffffffff1663150b7a02612ce36121ab565b8786866040518563ffffffff1660e01b8152600401612d059493929190614894565b6020604051808303816000875af1925050508015612d4157506040513d601f19601f82011682018060405250810190612d3e91906148f5565b60015b612dc3573d8060008114612d71576040519150601f19603f3d011682016040523d82523d6000602084013e612d76565b606091505b506000815103612dbb576040517f08c379a0000000000000000000000000000000000000000000000000000000008152600401612db2906147eb565b60405180910390fd5b805181602001fd5b63150b7a0260e01b7bffffffffffffffffffffffffffffffffffffffffffffffffffffffff1916817bffffffffffffffffffffffffffffffffffffffffffffffffffffffff191614915050612e18565b600190505b949350505050565b606060006001612e2f84612f11565b01905060008167ffffffffffffffff811115612e4e57612e4d6133c4565b5b6040519080825280601f01601f191660200182016040528015612e805781602001600182028036833780820191505090505b509050600082602001820190505b600115612ee3578080600190039150507f3031323334353637383961626364656600000000000000000000000000000000600a86061a8153600a8581612ed757612ed661441f565b5b04945060008503612e8e575b819350505050919050565b6000808273ffffffffffffffffffffffffffffffffffffffff163b119050919050565b600080600090507a184f03e93ff9f4daa797ed6e38ed64bf6a1f0100000000000000008310612f6f577a184f03e93ff9f4daa797ed6e38ed64bf6a1f0100000000000000008381612f6557612f6461441f565b5b0492506040810190505b6d04ee2d6d415b85acef81000000008310612fac576d04ee2d6d415b85acef81000000008381612fa257612fa161441f565b5b0492506020810190505b662386f26fc100008310612fdb57662386f26fc100008381612fd157612fd061441f565b5b0492506010810190505b6305f5e1008310613004576305f5e1008381612ffa57612ff961441f565b5b0492506008810190505b612710831061302957612710838161301f5761301e61441f565b5b0492506004810190505b6064831061304c57606483816130425761304161441f565b5b0492506002810190505b600a831061305b576001810190505b80915050919050565b6000604051905090565b600080fd5b600080fd5b60007fffffffff0000000000000000000000000000000000000000000000000000000082169050919050565b6130ad81613078565b81146130b857600080fd5b50565b6000813590506130ca816130a4565b92915050565b6000602082840312156130e6576130e561306e565b5b60006130f4848285016130bb565b91505092915050565b60008115159050919050565b613112816130fd565b82525050565b600060208201905061312d6000830184613109565b92915050565b600081519050919050565b600082825260208201905092915050565b60005b8381101561316d578082015181840152602081019050613152565b60008484015250505050565b6000601f19601f8301169050919050565b600061319582613133565b61319f818561313e565b93506131af81856020860161314f565b6131b881613179565b840191505092915050565b600060208201905081810360008301526131dd818461318a565b905092915050565b6000819050919050565b6131f8816131e5565b811461320357600080fd5b50565b600081359050613215816131ef565b92915050565b6000602082840312156132315761323061306e565b5b600061323f84828501613206565b91505092915050565b600073ffffffffffffffffffffffffffffffffffffffff82169050919050565b600061327382613248565b9050919050565b61328381613268565b82525050565b600060208201905061329e600083018461327a565b92915050565b6132ad81613268565b81146132b857600080fd5b50565b6000813590506132ca816132a4565b92915050565b600080604083850312156132e7576132e661306e565b5b60006132f5858286016132bb565b925050602061330685828601613206565b9150509250929050565b613319816131e5565b82525050565b60006020820190506133346000830184613310565b92915050565b6000806000606084860312156133535761335261306e565b5b6000613361868287016132bb565b9350506020613372868287016132bb565b925050604061338386828701613206565b9150509250925092565b6000602082840312156133a3576133a261306e565b5b60006133b1848285016132bb565b91505092915050565b600080fd5b600080fd5b7f4e487b7100000000000000000000000000000000000000000000000000000000600052604160045260246000fd5b6133fc82613179565b810181811067ffffffffffffffff8211171561341b5761341a6133c4565b5b80604052505050565b600061342e613064565b905061343a82826133f3565b919050565b600067ffffffffffffffff82111561345a576134596133c4565b5b61346382613179565b9050602081019050919050565b82818337600083830152505050565b600061349261348d8461343f565b613424565b9050828152602081018484840111156134ae576134ad6133bf565b5b6134b9848285613470565b509392505050565b600082601f8301126134d6576134d56133ba565b5b81356134e684826020860161347f565b91505092915050565b6000602082840312156135055761350461306e565b5b600082013567ffffffffffffffff81111561352357613522613073565b5b61352f848285016134c1565b91505092915050565b613541816130fd565b811461354c57600080fd5b50565b60008135905061355e81613538565b92915050565b6000806040838503121561357b5761357a61306e565b5b6000613589858286016132bb565b925050602061359a8582860161354f565b9150509250929050565b600080604083850312156135bb576135ba61306e565b5b60006135c985828601613206565b925050602083013567ffffffffffffffff8111156135ea576135e9613073565b5b6135f6858286016134c1565b9150509250929050565b600067ffffffffffffffff82111561361b5761361a6133c4565b5b61362482613179565b9050602081019050919050565b600061364461363f84613600565b613424565b9050828152602081018484840111156136605761365f6133bf565b5b61366b848285613470565b509392505050565b600082601f830112613688576136876133ba565b5b8135613698848260208601613631565b91505092915050565b600080600080608085870312156136bb576136ba61306e565b5b60006136c9878288016132bb565b94505060206136da878288016132bb565b93505060406136eb87828801613206565b925050606085013567ffffffffffffffff81111561370c5761370b613073565b5b61371887828801613673565b91505092959194509250565b6000806040838503121561373b5761373a61306e565b5b6000613749858286016132bb565b925050602061375a858286016132bb565b9150509250929050565b600081519050919050565b600082825260208201905092915050565b6000819050602082019050919050565b61379981613268565b82525050565b60006137ab8383613790565b60208301905092915050565b6000602082019050919050565b60006137cf82613764565b6137d9818561376f565b93506137e483613780565b8060005b838110156138155781516137fc888261379f565b9750613807836137b7565b9250506001810190506137e8565b5085935050505092915050565b6000602082019050818103600083015261383c81846137c4565b905092915050565b7f4e487b7100000000000000000000000000000000000000000000000000000000600052602260045260246000fd5b6000600282049050600182168061388b57607f821691505b60208210810361389e5761389d613844565b5b50919050565b7f4552433732313a20617070726f76616c20746f2063757272656e74206f776e6560008201527f7200000000000000000000000000000000000000000000000000000000000000602082015250565b600061390060218361313e565b915061390b826138a4565b604082019050919050565b6000602082019050818103600083015261392f816138f3565b9050919050565b7f4552433732313a20617070726f76652063616c6c6572206973206e6f7420746f60008201527f6b656e206f776e6572206f7220617070726f76656420666f7220616c6c000000602082015250565b6000613992603d8361313e565b915061399d82613936565b604082019050919050565b600060208201905081810360008301526139c181613985565b9050919050565b7f4552433732313a2063616c6c6572206973206e6f7420746f6b656e206f776e6560008201527f72206f7220617070726f76656400000000000000000000000000000000000000602082015250565b6000613a24602d8361313e565b9150613a2f826139c8565b604082019050919050565b60006020820190508181036000830152613a5381613a17565b9050919050565b7f6f6e6c792061646d696e00000000000000000000000000000000000000000000600082015250565b6000613a90600a8361313e565b9150613a9b82613a5a565b602082019050919050565b60006020820190508181036000830152613abf81613a83565b9050919050565b7f4552433732313a20696e76616c696420746f6b656e2049440000000000000000600082015250565b6000613afc60188361313e565b9150613b0782613ac6565b602082019050919050565b60006020820190508181036000830152613b2b81613aef565b9050919050565b7f4552433732313a2061646472657373207a65726f206973206e6f74206120766160008201527f6c6964206f776e65720000000000000000000000000000000000000000000000602082015250565b6000613b8e60298361313e565b9150613b9982613b32565b604082019050919050565b60006020820190508181036000830152613bbd81613b81565b9050919050565b7f6f6e6c7941646d696e0000000000000000000000000000000000000000000000600082015250565b6000613bfa60098361313e565b9150613c0582613bc4565b602082019050919050565b60006020820190508181036000830152613c2981613bed565b9050919050565b7f73686f77206e6f742063616e63656c6c65640000000000000000000000000000600082015250565b6000613c6660128361313e565b9150613c7182613c30565b602082019050919050565b60006020820190508181036000830152613c9581613c59565b9050919050565b7f4e487b7100000000000000000000000000000000000000000000000000000000600052603260045260246000fd5b7f4e487b7100000000000000000000000000000000000000000000000000000000600052601160045260246000fd5b6000613d05826131e5565b9150613d10836131e5565b9250828202613d1e816131e5565b91508282048414831517613d3557613d34613ccb565b5b5092915050565b6000613d47826131e5565b91507fffffffffffffffffffffffffffffffffffffffffffffffffffffffffffffffff8203613d7957613d78613ccb565b5b600182019050919050565b7f6f61000000000000000000000000000000000000000000000000000000000000600082015250565b6000613dba60028361313e565b9150613dc582613d84565b602082019050919050565b60006020820190508181036000830152613de981613dad565b9050919050565b60008190508160005260206000209050919050565b60006020601f8301049050919050565b600082821b905092915050565b600060088302613e527fffffffffffffffffffffffffffffffffffffffffffffffffffffffffffffffff82613e15565b613e5c8683613e15565b95508019841693508086168417925050509392505050565b6000819050919050565b6000613e99613e94613e8f846131e5565b613e74565b6131e5565b9050919050565b6000819050919050565b613eb383613e7e565b613ec7613ebf82613ea0565b848454613e22565b825550505050565b600090565b613edc613ecf565b613ee7818484613eaa565b505050565b5b81811015613f0b57613f00600082613ed4565b600181019050613eed565b5050565b601f821115613f5057613f2181613df0565b613f2a84613e05565b81016020851015613f39578190505b613f4d613f4585613e05565b830182613eec565b50505b505050565b600082821c905092915050565b6000613f7360001984600802613f55565b1980831691505092915050565b6000613f8c8383613f62565b9150826002028217905092915050565b613fa582613133565b67ffffffffffffffff811115613fbe57613fbd6133c4565b5b613fc88254613873565b613fd3828285613f0f565b600060209050601f8311600181146140065760008415613ff4578287015190505b613ffe8582613f80565b865550614066565b601f19841661401486613df0565b60005b8281101561403c57848901518255600182019150602085019450602081019050614017565b868310156140595784890151614055601f891682613f62565b8355505b6001600288020188555050505b505050505050565b7f7061790000000000000000000000000000000000000000000000000000000000600082015250565b60006140a460038361313e565b91506140af8261406e565b602082019050919050565b600060208201905081810360008301526140d381614097565b9050919050565b60006140e5826131e5565b91506140f0836131e5565b925082820190508082111561410857614107613ccb565b5b92915050565b7f6d61782074697800000000000000000000000000000000000000000000000000600082015250565b600061414460078361313e565b915061414f8261410e565b602082019050919050565b6000602082019050818103600083015261417381614137565b9050919050565b7f736f6c64206f7574000000000000000000000000000000000000000000000000600082015250565b60006141b060088361313e565b91506141bb8261417a565b602082019050919050565b600060208201905081810360008301526141df816141a3565b9050919050565b7f73686f77206973206e6f74206f70656e00000000000000000000000000000000600082015250565b600061421c60108361313e565b9150614227826141e6565b602082019050919050565b6000602082019050818103600083015261424b8161420f565b9050919050565b6000604082019050614267600083018561327a565b6142746020830184613310565b9392505050565b600081905092915050565b600061429182613133565b61429b818561427b565b93506142ab81856020860161314f565b80840191505092915050565b60006142c38285614286565b91506142cf8284614286565b91508190509392505050565b7f6e6f742072657363686564756c65640000000000000000000000000000000000600082015250565b6000614311600f8361313e565b915061431c826142db565b602082019050919050565b6000602082019050818103600083015261434081614304565b9050919050565b7f73686f77206e6f7420636f6d706c657465640000000000000000000000000000600082015250565b600061437d60128361313e565b915061438882614347565b602082019050919050565b600060208201905081810360008301526143ac81614370565b9050919050565b7f73686f77206e6f74206f76657200000000000000000000000000000000000000600082015250565b60006143e9600d8361313e565b91506143f4826143b3565b602082019050919050565b60006020820190508181036000830152614418816143dc565b9050919050565b7f4e487b7100000000000000000000000000000000000000000000000000000000600052601260045260246000fd5b6000614459826131e5565b9150614464836131e5565b9250826144745761447361441f565b5b828204905092915050565b7f4552433732313a207472616e736665722066726f6d20696e636f72726563742060008201527f6f776e6572000000000000000000000000000000000000000000000000000000602082015250565b60006144db60258361313e565b91506144e68261447f565b604082019050919050565b6000602082019050818103600083015261450a816144ce565b9050919050565b7f4552433732313a207472616e7366657220746f20746865207a65726f2061646460008201527f7265737300000000000000000000000000000000000000000000000000000000602082015250565b600061456d60248361313e565b915061457882614511565b604082019050919050565b6000602082019050818103600083015261459c81614560565b9050919050565b7f4552433732313a20617070726f766520746f2063616c6c657200000000000000600082015250565b60006145d960198361313e565b91506145e4826145a3565b602082019050919050565b60006020820190508181036000830152614608816145cc565b9050919050565b7f4552433732313a206d696e7420746f20746865207a65726f2061646472657373600082015250565b600061464560208361313e565b91506146508261460f565b602082019050919050565b6000602082019050818103600083015261467481614638565b9050919050565b7f4552433732313a20746f6b656e20616c7265616479206d696e74656400000000600082015250565b60006146b1601c8361313e565b91506146bc8261467b565b602082019050919050565b600060208201905081810360008301526146e0816146a4565b9050919050565b7f45524337323155524953746f726167653a2055524920736574206f66206e6f6e60008201527f6578697374656e7420746f6b656e000000000000000000000000000000000000602082015250565b6000614743602e8361313e565b915061474e826146e7565b604082019050919050565b6000602082019050818103600083015261477281614736565b9050919050565b7f4552433732313a207472616e7366657220746f206e6f6e20455243373231526560008201527f63656976657220696d706c656d656e7465720000000000000000000000000000602082015250565b60006147d560328361313e565b91506147e082614779565b604082019050919050565b60006020820190508181036000830152614804816147c8565b9050919050565b6000614816826131e5565b9150614821836131e5565b925082820390508181111561483957614838613ccb565b5b92915050565b600081519050919050565b600082825260208201905092915050565b60006148668261483f565b614870818561484a565b935061488081856020860161314f565b61488981613179565b840191505092915050565b60006080820190506148a9600083018761327a565b6148b6602083018661327a565b6148c36040830185613310565b81810360608301526148d5818461485b565b905095945050505050565b6000815190506148ef816130a4565b92915050565b60006020828403121561490b5761490a61306e565b5b6000614919848285016148e0565b9150509291505056fea2646970667358221220b9efc413e2e02cf33257f4a8b5d12657949ac3b871fdfa5720aec064e3ca71ac64736f6c63430008110033",
  "linkReferences": {},
  "deployedLinkReferences": {}
}