{
  "_format": "hh-sol-artifact-1",
  "contractName": "Cryptickets",
  "sourceName": "contracts/Cryptickets.sol",
  "abi": [
    {
      "inputs": [
        {
          "internalType": "string",
          "name": "_name",
          "type": "string"
        },
        {
          "internalType": "string",
          "name": "_symbol",
          "type": "string"
        },
        {
          "internalType": "address",
          "name": "_escrowAddress",
          "type": "address"
        },
        {
          "internalType": "address",
          "name": "_bandAddress",
          "type": "address"
        },
        {
          "internalType": "address",
          "name": "_venueAddress",
          "type": "address"
        },
        {
          "internalType": "uint256",
          "name": "_endDate",
          "type": "uint256"
        },
        {
          "internalType": "uint256",
          "name": "_price",
          "type": "uint256"
        }
      ],
      "stateMutability": "nonpayable",
      "type": "constructor"
    },
    {
      "anonymous": false,
      "inputs": [
        {
          "indexed": true,
          "internalType": "address",
          "name": "owner",
          "type": "address"
        },
        {
          "indexed": true,
          "internalType": "address",
          "name": "approved",
          "type": "address"
        },
        {
          "indexed": true,
          "internalType": "uint256",
          "name": "tokenId",
          "type": "uint256"
        }
      ],
      "name": "Approval",
      "type": "event"
    },
    {
      "anonymous": false,
      "inputs": [
        {
          "indexed": true,
          "internalType": "address",
          "name": "owner",
          "type": "address"
        },
        {
          "indexed": true,
          "internalType": "address",
          "name": "operator",
          "type": "address"
        },
        {
          "indexed": false,
          "internalType": "bool",
          "name": "approved",
          "type": "bool"
        }
      ],
      "name": "ApprovalForAll",
      "type": "event"
    },
    {
      "anonymous": false,
      "inputs": [
        {
          "indexed": false,
          "internalType": "address",
          "name": "to",
          "type": "address"
        },
        {
          "indexed": false,
          "internalType": "uint256",
          "name": "amountPurchased",
          "type": "uint256"
        }
      ],
      "name": "TicketsPurchased",
      "type": "event"
    },
    {
      "anonymous": false,
      "inputs": [
        {
          "indexed": true,
          "internalType": "address",
          "name": "from",
          "type": "address"
        },
        {
          "indexed": true,
          "internalType": "address",
          "name": "to",
          "type": "address"
        },
        {
          "indexed": true,
          "internalType": "uint256",
          "name": "tokenId",
          "type": "uint256"
        }
      ],
      "name": "Transfer",
      "type": "event"
    },
    {
      "inputs": [],
      "name": "_tokenIds",
      "outputs": [
        {
          "internalType": "uint256",
          "name": "_value",
          "type": "uint256"
        }
      ],
      "stateMutability": "view",
      "type": "function"
    },
    {
      "inputs": [],
      "name": "admin",
      "outputs": [
        {
          "internalType": "address",
          "name": "",
          "type": "address"
        }
      ],
      "stateMutability": "view",
      "type": "function"
    },
    {
      "inputs": [
        {
          "internalType": "uint256",
          "name": "",
          "type": "uint256"
        }
      ],
      "name": "allOwners",
      "outputs": [
        {
          "internalType": "address",
          "name": "",
          "type": "address"
        }
      ],
      "stateMutability": "view",
      "type": "function"
    },
    {
      "inputs": [
        {
          "internalType": "address",
          "name": "to",
          "type": "address"
        },
        {
          "internalType": "uint256",
          "name": "tokenId",
          "type": "uint256"
        }
      ],
      "name": "approve",
      "outputs": [],
      "stateMutability": "nonpayable",
      "type": "function"
    },
    {
      "inputs": [
        {
          "internalType": "address",
          "name": "owner",
          "type": "address"
        }
      ],
      "name": "balanceOf",
      "outputs": [
        {
          "internalType": "uint256",
          "name": "",
          "type": "uint256"
        }
      ],
      "stateMutability": "view",
      "type": "function"
    },
    {
      "inputs": [],
      "name": "bandPercent",
      "outputs": [
        {
          "internalType": "uint256",
          "name": "",
          "type": "uint256"
        }
      ],
      "stateMutability": "view",
      "type": "function"
    },
    {
      "inputs": [],
      "name": "baseUri",
      "outputs": [
        {
          "internalType": "string",
          "name": "",
          "type": "string"
        }
      ],
      "stateMutability": "view",
      "type": "function"
    },
    {
      "inputs": [
        {
          "internalType": "address",
          "name": "_controller",
          "type": "address"
        }
      ],
      "name": "changeAdmin",
      "outputs": [],
      "stateMutability": "nonpayable",
      "type": "function"
    },
    {
      "inputs": [
        {
          "internalType": "uint256",
          "name": "_newShowDate",
          "type": "uint256"
        }
      ],
      "name": "changeShowDate",
      "outputs": [],
      "stateMutability": "nonpayable",
      "type": "function"
    },
    {
      "inputs": [],
      "name": "endDate",
      "outputs": [
        {
          "internalType": "uint256",
          "name": "",
          "type": "uint256"
        }
      ],
      "stateMutability": "view",
      "type": "function"
    },
    {
      "inputs": [
        {
          "internalType": "uint256",
          "name": "tokenId",
          "type": "uint256"
        }
      ],
      "name": "getApproved",
      "outputs": [
        {
          "internalType": "address",
          "name": "",
          "type": "address"
        }
      ],
      "stateMutability": "view",
      "type": "function"
    },
    {
      "inputs": [
        {
          "internalType": "address",
          "name": "owner",
          "type": "address"
        },
        {
          "internalType": "address",
          "name": "operator",
          "type": "address"
        }
      ],
      "name": "isApprovedForAll",
      "outputs": [
        {
          "internalType": "bool",
          "name": "",
          "type": "bool"
        }
      ],
      "stateMutability": "view",
      "type": "function"
    },
    {
      "inputs": [],
      "name": "maxSupply",
      "outputs": [
        {
          "internalType": "uint256",
          "name": "",
          "type": "uint256"
        }
      ],
      "stateMutability": "view",
      "type": "function"
    },
    {
      "inputs": [],
      "name": "name",
      "outputs": [
        {
          "internalType": "string",
          "name": "",
          "type": "string"
        }
      ],
      "stateMutability": "view",
      "type": "function"
    },
    {
      "inputs": [
        {
          "internalType": "uint256",
          "name": "tokenId",
          "type": "uint256"
        }
      ],
      "name": "ownerOf",
      "outputs": [
        {
          "internalType": "address",
          "name": "",
          "type": "address"
        }
      ],
      "stateMutability": "view",
      "type": "function"
    },
    {
      "inputs": [],
      "name": "payBandAndVenue",
      "outputs": [],
      "stateMutability": "payable",
      "type": "function"
    },
    {
      "inputs": [
        {
          "internalType": "uint256",
          "name": "amount",
          "type": "uint256"
        },
        {
          "internalType": "string",
          "name": "tokenUri",
          "type": "string"
        }
      ],
      "name": "purchaseTickets",
      "outputs": [],
      "stateMutability": "payable",
      "type": "function"
    },
    {
      "inputs": [],
      "name": "refundAllTickets",
      "outputs": [],
      "stateMutability": "payable",
      "type": "function"
    },
    {
      "inputs": [],
      "name": "requestRefund",
      "outputs": [],
      "stateMutability": "nonpayable",
      "type": "function"
    },
    {
      "inputs": [],
      "name": "rescheduled",
      "outputs": [
        {
          "internalType": "bool",
          "name": "",
          "type": "bool"
        }
      ],
      "stateMutability": "view",
      "type": "function"
    },
    {
      "inputs": [],
      "name": "returnAllOwners",
      "outputs": [
        {
          "internalType": "address[]",
          "name": "",
          "type": "address[]"
        }
      ],
      "stateMutability": "view",
      "type": "function"
    },
    {
      "inputs": [
        {
          "internalType": "address",
          "name": "from",
          "type": "address"
        },
        {
          "internalType": "address",
          "name": "to",
          "type": "address"
        },
        {
          "internalType": "uint256",
          "name": "tokenId",
          "type": "uint256"
        }
      ],
      "name": "safeTransferFrom",
      "outputs": [],
      "stateMutability": "nonpayable",
      "type": "function"
    },
    {
      "inputs": [
        {
          "internalType": "address",
          "name": "from",
          "type": "address"
        },
        {
          "internalType": "address",
          "name": "to",
          "type": "address"
        },
        {
          "internalType": "uint256",
          "name": "tokenId",
          "type": "uint256"
        },
        {
          "internalType": "bytes",
          "name": "data",
          "type": "bytes"
        }
      ],
      "name": "safeTransferFrom",
      "outputs": [],
      "stateMutability": "nonpayable",
      "type": "function"
    },
    {
      "inputs": [
        {
          "internalType": "address",
          "name": "operator",
          "type": "address"
        },
        {
          "internalType": "bool",
          "name": "approved",
          "type": "bool"
        }
      ],
      "name": "setApprovalForAll",
      "outputs": [],
      "stateMutability": "nonpayable",
      "type": "function"
    },
    {
      "inputs": [
        {
          "internalType": "string",
          "name": "_bseuri",
          "type": "string"
        }
      ],
      "name": "setBaseUri",
      "outputs": [],
      "stateMutability": "nonpayable",
      "type": "function"
    },
    {
      "inputs": [],
      "name": "setCancelledShow",
      "outputs": [],
      "stateMutability": "nonpayable",
      "type": "function"
    },
    {
      "inputs": [
        {
          "internalType": "uint256",
          "name": "_maxSupply",
          "type": "uint256"
        }
      ],
      "name": "setMaxSupply",
      "outputs": [],
      "stateMutability": "nonpayable",
      "type": "function"
    },
    {
      "inputs": [],
      "name": "showCancelled",
      "outputs": [
        {
          "internalType": "bool",
          "name": "",
          "type": "bool"
        }
      ],
      "stateMutability": "view",
      "type": "function"
    },
    {
      "inputs": [],
      "name": "showCompleted",
      "outputs": [
        {
          "internalType": "bool",
          "name": "",
          "type": "bool"
        }
      ],
      "stateMutability": "view",
      "type": "function"
    },
    {
      "inputs": [
        {
          "internalType": "bytes4",
          "name": "interfaceId",
          "type": "bytes4"
        }
      ],
      "name": "supportsInterface",
      "outputs": [
        {
          "internalType": "bool",
          "name": "",
          "type": "bool"
        }
      ],
      "stateMutability": "view",
      "type": "function"
    },
    {
      "inputs": [],
      "name": "symbol",
      "outputs": [
        {
          "internalType": "string",
          "name": "",
          "type": "string"
        }
      ],
      "stateMutability": "view",
      "type": "function"
    },
    {
      "inputs": [],
      "name": "ticketLimit",
      "outputs": [
        {
          "internalType": "uint256",
          "name": "",
          "type": "uint256"
        }
      ],
      "stateMutability": "view",
      "type": "function"
    },
    {
      "inputs": [],
      "name": "ticketPrice",
      "outputs": [
        {
          "internalType": "uint256",
          "name": "",
          "type": "uint256"
        }
      ],
      "stateMutability": "view",
      "type": "function"
    },
    {
      "inputs": [
        {
          "internalType": "address",
          "name": "",
          "type": "address"
        }
      ],
      "name": "ticketsPurchased",
      "outputs": [
        {
          "internalType": "uint256",
          "name": "",
          "type": "uint256"
        }
      ],
      "stateMutability": "view",
      "type": "function"
    },
    {
      "inputs": [
        {
          "internalType": "uint256",
          "name": "tokenId",
          "type": "uint256"
        }
      ],
      "name": "tokenURI",
      "outputs": [
        {
          "internalType": "string",
          "name": "",
          "type": "string"
        }
      ],
      "stateMutability": "view",
      "type": "function"
    },
    {
      "inputs": [
        {
          "internalType": "address",
          "name": "from",
          "type": "address"
        },
        {
          "internalType": "address",
          "name": "to",
          "type": "address"
        },
        {
          "internalType": "uint256",
          "name": "tokenId",
          "type": "uint256"
        }
      ],
      "name": "transferFrom",
      "outputs": [],
      "stateMutability": "nonpayable",
      "type": "function"
    },
    {
      "stateMutability": "payable",
      "type": "receive"
    }
  ],
  "bytecode": "0x60e06040526064600955600a600b556008600d553480156200002057600080fd5b506040516200504138038062005041833981810160405281019062000046919062000399565b86868160009081620000599190620006cb565b5080600190816200006b9190620006cb565b50505033600a60006101000a81548173ffffffffffffffffffffffffffffffffffffffff021916908373ffffffffffffffffffffffffffffffffffffffff1602179055508473ffffffffffffffffffffffffffffffffffffffff1660c08173ffffffffffffffffffffffffffffffffffffffff16815250508373ffffffffffffffffffffffffffffffffffffffff1660808173ffffffffffffffffffffffffffffffffffffffff16815250508273ffffffffffffffffffffffffffffffffffffffff1660a08173ffffffffffffffffffffffffffffffffffffffff168152505081600e8190555080600c8190555050505050505050620007b2565b6000604051905090565b600080fd5b600080fd5b600080fd5b600080fd5b6000601f19601f8301169050919050565b7f4e487b7100000000000000000000000000000000000000000000000000000000600052604160045260246000fd5b620001cf8262000184565b810181811067ffffffffffffffff82111715620001f157620001f062000195565b5b80604052505050565b60006200020662000166565b9050620002148282620001c4565b919050565b600067ffffffffffffffff82111562000237576200023662000195565b5b620002428262000184565b9050602081019050919050565b60005b838110156200026f57808201518184015260208101905062000252565b60008484015250505050565b6000620002926200028c8462000219565b620001fa565b905082815260208101848484011115620002b157620002b06200017f565b5b620002be8482856200024f565b509392505050565b600082601f830112620002de57620002dd6200017a565b5b8151620002f08482602086016200027b565b91505092915050565b600073ffffffffffffffffffffffffffffffffffffffff82169050919050565b60006200032682620002f9565b9050919050565b620003388162000319565b81146200034457600080fd5b50565b60008151905062000358816200032d565b92915050565b6000819050919050565b62000373816200035e565b81146200037f57600080fd5b50565b600081519050620003938162000368565b92915050565b600080600080600080600060e0888a031215620003bb57620003ba62000170565b5b600088015167ffffffffffffffff811115620003dc57620003db62000175565b5b620003ea8a828b01620002c6565b975050602088015167ffffffffffffffff8111156200040e576200040d62000175565b5b6200041c8a828b01620002c6565b96505060406200042f8a828b0162000347565b9550506060620004428a828b0162000347565b9450506080620004558a828b0162000347565b93505060a0620004688a828b0162000382565b92505060c06200047b8a828b0162000382565b91505092959891949750929550565b600081519050919050565b7f4e487b7100000000000000000000000000000000000000000000000000000000600052602260045260246000fd5b60006002820490506001821680620004dd57607f821691505b602082108103620004f357620004f262000495565b5b50919050565b60008190508160005260206000209050919050565b60006020601f8301049050919050565b600082821b905092915050565b6000600883026200055d7fffffffffffffffffffffffffffffffffffffffffffffffffffffffffffffffff826200051e565b6200056986836200051e565b95508019841693508086168417925050509392505050565b6000819050919050565b6000620005ac620005a6620005a0846200035e565b62000581565b6200035e565b9050919050565b6000819050919050565b620005c8836200058b565b620005e0620005d782620005b3565b8484546200052b565b825550505050565b600090565b620005f7620005e8565b62000604818484620005bd565b505050565b5b818110156200062c5762000620600082620005ed565b6001810190506200060a565b5050565b601f8211156200067b576200064581620004f9565b62000650846200050e565b8101602085101562000660578190505b620006786200066f856200050e565b83018262000609565b50505b505050565b600082821c905092915050565b6000620006a06000198460080262000680565b1980831691505092915050565b6000620006bb83836200068d565b9150826002028217905092915050565b620006d6826200048a565b67ffffffffffffffff811115620006f257620006f162000195565b5b620006fe8254620004c4565b6200070b82828562000630565b600060209050601f8311600181146200074357600084156200072e578287015190505b6200073a8582620006ad565b865550620007aa565b601f1984166200075386620004f9565b60005b828110156200077d5784890151825560018201915060208501945060208101905062000756565b868310156200079d578489015162000799601f8916826200068d565b8355505b6001600288020188555050505b505050505050565b60805160a05160c05161484a620007f7600039600081816112060152818161174d01528181611a750152611bb901526000611d1b01526000611cb4015261484a6000f3fe6080604052600436106102135760003560e01c80638f28397011610118578063c24a0f8b116100a0578063d5cef1331161006f578063d5cef1331461077c578063e146f72714610793578063e985e9c51461079d578063ecaabf7f146107da578063f851a440146108055761021a565b8063c24a0f8b146106be578063c769a541146106e9578063c87b56dd14610714578063d5abeb01146107515761021a565b8063a0bcfc7f116100e7578063a0bcfc7f146105fc578063a22cb46514610625578063aa46a4001461064e578063b82af82d14610679578063b88d4fde146106955761021a565b80638f2839701461057357806395d89b411461059c57806399203d23146105c75780639abc8320146105d15761021a565b80635b7646bf1161019b5780636f8b44b01161016a5780636f8b44b0146104a057806370a08231146104c95780637389df8a1461050657806373b4dba11461051d578063833534bb146105485761021a565b80635b7646bf146103d25780635e321dfc146103fb5780636352211e146104265780636ccda0a6146104635761021a565b80631209b1f6116101e25780631209b1f6146102ed5780631516db091461031857806323b872dd146103555780632cc403e01461037e57806342842e0e146103a95761021a565b806301ffc9a71461021f57806306fdde031461025c578063081812fc14610287578063095ea7b3146102c45761021a565b3661021a57005b600080fd5b34801561022b57600080fd5b5061024660048036038101906102419190612fc2565b610830565b604051610253919061300a565b60405180910390f35b34801561026857600080fd5b50610271610912565b60405161027e91906130b5565b60405180910390f35b34801561029357600080fd5b506102ae60048036038101906102a9919061310d565b6109a4565b6040516102bb919061317b565b60405180910390f35b3480156102d057600080fd5b506102eb60048036038101906102e691906131c2565b6109ea565b005b3480156102f957600080fd5b50610302610b01565b60405161030f9190613211565b60405180910390f35b34801561032457600080fd5b5061033f600480360381019061033a919061310d565b610b07565b60405161034c919061317b565b60405180910390f35b34801561036157600080fd5b5061037c6004803603810190610377919061322c565b610b46565b005b34801561038a57600080fd5b50610393610c09565b6040516103a09190613211565b60405180910390f35b3480156103b557600080fd5b506103d060048036038101906103cb919061322c565b610c0f565b005b3480156103de57600080fd5b506103f960048036038101906103f4919061310d565b610c2f565b005b34801561040757600080fd5b50610410610ce4565b60405161041d9190613211565b60405180910390f35b34801561043257600080fd5b5061044d6004803603810190610448919061310d565b610cea565b60405161045a919061317b565b60405180910390f35b34801561046f57600080fd5b5061048a6004803603810190610485919061327f565b610d70565b6040516104979190613211565b60405180910390f35b3480156104ac57600080fd5b506104c760048036038101906104c2919061310d565b610d88565b005b3480156104d557600080fd5b506104f060048036038101906104eb919061327f565b610e22565b6040516104fd9190613211565b60405180910390f35b34801561051257600080fd5b5061051b610ed9565b005b34801561052957600080fd5b50610532610f86565b60405161053f919061300a565b60405180910390f35b34801561055457600080fd5b5061055d610f99565b60405161056a919061300a565b60405180910390f35b34801561057f57600080fd5b5061059a6004803603810190610595919061327f565b610fac565b005b3480156105a857600080fd5b506105b1611080565b6040516105be91906130b5565b60405180910390f35b6105cf611112565b005b3480156105dd57600080fd5b506105e6611347565b6040516105f391906130b5565b60405180910390f35b34801561060857600080fd5b50610623600480360381019061061e91906133e1565b6113d5565b005b34801561063157600080fd5b5061064c60048036038101906106479190613456565b611478565b005b34801561065a57600080fd5b5061066361148e565b6040516106709190613211565b60405180910390f35b610693600480360381019061068e9190613496565b61149a565b005b3480156106a157600080fd5b506106bc60048036038101906106b79190613593565b6117ef565b005b3480156106ca57600080fd5b506106d3611851565b6040516106e09190613211565b60405180910390f35b3480156106f557600080fd5b506106fe611857565b60405161070b919061300a565b60405180910390f35b34801561072057600080fd5b5061073b6004803603810190610736919061310d565b61186a565b60405161074891906130b5565b60405180910390f35b34801561075d57600080fd5b5061076661197c565b6040516107739190613211565b60405180910390f35b34801561078857600080fd5b50610791611982565b005b61079b611b02565b005b3480156107a957600080fd5b506107c460048036038101906107bf9190613616565b611d83565b6040516107d1919061300a565b60405180910390f35b3480156107e657600080fd5b506107ef611e17565b6040516107fc9190613714565b60405180910390f35b34801561081157600080fd5b5061081a611fc2565b604051610827919061317b565b60405180910390f35b60007f80ac58cd000000000000000000000000000000000000000000000000000000007bffffffffffffffffffffffffffffffffffffffffffffffffffffffff1916827bffffffffffffffffffffffffffffffffffffffffffffffffffffffff191614806108fb57507f5b5e139f000000000000000000000000000000000000000000000000000000007bffffffffffffffffffffffffffffffffffffffffffffffffffffffff1916827bffffffffffffffffffffffffffffffffffffffffffffffffffffffff1916145b8061090b575061090a82611fe8565b5b9050919050565b60606000805461092190613765565b80601f016020809104026020016040519081016040528092919081815260200182805461094d90613765565b801561099a5780601f1061096f5761010080835404028352916020019161099a565b820191906000526020600020905b81548152906001019060200180831161097d57829003601f168201915b5050505050905090565b60006109af82612052565b6004600083815260200190815260200160002060009054906101000a900473ffffffffffffffffffffffffffffffffffffffff169050919050565b60006109f582610cea565b90508073ffffffffffffffffffffffffffffffffffffffff168373ffffffffffffffffffffffffffffffffffffffff1603610a65576040517f08c379a0000000000000000000000000000000000000000000000000000000008152600401610a5c90613808565b60405180910390fd5b8073ffffffffffffffffffffffffffffffffffffffff16610a8461209d565b73ffffffffffffffffffffffffffffffffffffffff161480610ab35750610ab281610aad61209d565b611d83565b5b610af2576040517f08c379a0000000000000000000000000000000000000000000000000000000008152600401610ae99061389a565b60405180910390fd5b610afc83836120a5565b505050565b600c5481565b60108181548110610b1757600080fd5b906000526020600020016000915054906101000a900473ffffffffffffffffffffffffffffffffffffffff1681565b610b57610b5161209d565b8261215e565b610b96576040517f08c379a0000000000000000000000000000000000000000000000000000000008152600401610b8d9061392c565b60405180910390fd5b6010829080600181540180825580915050600190039060005260206000200160009091909190916101000a81548173ffffffffffffffffffffffffffffffffffffffff021916908373ffffffffffffffffffffffffffffffffffffffff160217905550610c048383836121f3565b505050565b600b5481565b610c2a838383604051806020016040528060008152506117ef565b505050565b600a60009054906101000a900473ffffffffffffffffffffffffffffffffffffffff1673ffffffffffffffffffffffffffffffffffffffff163373ffffffffffffffffffffffffffffffffffffffff1614610cbf576040517f08c379a0000000000000000000000000000000000000000000000000000000008152600401610cb690613998565b60405180910390fd5b80600e819055506001600f60026101000a81548160ff02191690831515021790555050565b600d5481565b600080610cf6836124ec565b9050600073ffffffffffffffffffffffffffffffffffffffff168173ffffffffffffffffffffffffffffffffffffffff1603610d67576040517f08c379a0000000000000000000000000000000000000000000000000000000008152600401610d5e90613a04565b60405180910390fd5b80915050919050565b60116020528060005260406000206000915090505481565b600a60009054906101000a900473ffffffffffffffffffffffffffffffffffffffff1673ffffffffffffffffffffffffffffffffffffffff163373ffffffffffffffffffffffffffffffffffffffff1614610e18576040517f08c379a0000000000000000000000000000000000000000000000000000000008152600401610e0f90613998565b60405180910390fd5b8060098190555050565b60008073ffffffffffffffffffffffffffffffffffffffff168273ffffffffffffffffffffffffffffffffffffffff1603610e92576040517f08c379a0000000000000000000000000000000000000000000000000000000008152600401610e8990613a96565b60405180910390fd5b600360008373ffffffffffffffffffffffffffffffffffffffff1673ffffffffffffffffffffffffffffffffffffffff168152602001908152602001600020549050919050565b600a60009054906101000a900473ffffffffffffffffffffffffffffffffffffffff1673ffffffffffffffffffffffffffffffffffffffff163373ffffffffffffffffffffffffffffffffffffffff1614610f69576040517f08c379a0000000000000000000000000000000000000000000000000000000008152600401610f6090613b02565b60405180910390fd5b6001600f60006101000a81548160ff021916908315150217905550565b600f60019054906101000a900460ff1681565b600f60029054906101000a900460ff1681565b600a60009054906101000a900473ffffffffffffffffffffffffffffffffffffffff1673ffffffffffffffffffffffffffffffffffffffff163373ffffffffffffffffffffffffffffffffffffffff161461103c576040517f08c379a000000000000000000000000000000000000000000000000000000000815260040161103390613998565b60405180910390fd5b80600a60006101000a81548173ffffffffffffffffffffffffffffffffffffffff021916908373ffffffffffffffffffffffffffffffffffffffff16021790555050565b60606001805461108f90613765565b80601f01602080910402602001604051908101604052809291908181526020018280546110bb90613765565b80156111085780601f106110dd57610100808354040283529160200191611108565b820191906000526020600020905b8154815290600101906020018083116110eb57829003601f168201915b5050505050905090565b60011515600f60009054906101000a900460ff16151514611168576040517f08c379a000000000000000000000000000000000000000000000000000000000815260040161115f90613b6e565b60405180910390fd5b600a60009054906101000a900473ffffffffffffffffffffffffffffffffffffffff1673ffffffffffffffffffffffffffffffffffffffff163373ffffffffffffffffffffffffffffffffffffffff16146111f8576040517f08c379a00000000000000000000000000000000000000000000000000000000081526004016111ef90613998565b60405180910390fd5b6000611202611e17565b90507f000000000000000000000000000000000000000000000000000000000000000073ffffffffffffffffffffffffffffffffffffffff166369d895756040518163ffffffff1660e01b8152600401600060405180830381600087803b15801561126c57600080fd5b505af1158015611280573d6000803e3d6000fd5b5050505060005b6010805490508110156113435760006112b98383815181106112ac576112ab613b8e565b5b6020026020010151610e22565b90506000600c54826112cb9190613bec565b90508383815181106112e0576112df613b8e565b5b602002602001015173ffffffffffffffffffffffffffffffffffffffff166108fc829081150290604051600060405180830381858888f1935050505015801561132d573d6000803e3d6000fd5b505050808061133b90613c2e565b915050611287565b5050565b6008805461135490613765565b80601f016020809104026020016040519081016040528092919081815260200182805461138090613765565b80156113cd5780601f106113a2576101008083540402835291602001916113cd565b820191906000526020600020905b8154815290600101906020018083116113b057829003601f168201915b505050505081565b600a60009054906101000a900473ffffffffffffffffffffffffffffffffffffffff1673ffffffffffffffffffffffffffffffffffffffff163373ffffffffffffffffffffffffffffffffffffffff1614611465576040517f08c379a000000000000000000000000000000000000000000000000000000000815260040161145c90613cc2565b60405180910390fd5b80600890816114749190613e8e565b5050565b61148a61148361209d565b8383612529565b5050565b60078060000154905081565b81600c546114a89190613bec565b3410156114ea576040517f08c379a00000000000000000000000000000000000000000000000000000000081526004016114e190613fac565b60405180910390fd5b600d5482601160003373ffffffffffffffffffffffffffffffffffffffff1673ffffffffffffffffffffffffffffffffffffffff168152602001908152602001600020546115389190613fcc565b1115611579576040517f08c379a00000000000000000000000000000000000000000000000000000000081526004016115709061404c565b60405180910390fd5b600954826115876007612695565b6115919190613fcc565b11156115d2576040517f08c379a00000000000000000000000000000000000000000000000000000000081526004016115c9906140b8565b60405180910390fd5b60001515600f60009054906101000a900460ff1615151480611607575060011515600f60019054906101000a900460ff161515145b611646576040517f08c379a000000000000000000000000000000000000000000000000000000000815260040161163d90614124565b60405180910390fd5b81601160003373ffffffffffffffffffffffffffffffffffffffff1673ffffffffffffffffffffffffffffffffffffffff16815260200190815260200160002060008282546116959190613fcc565b925050819055506010339080600181540180825580915050600190039060005260206000200160009091909190916101000a81548173ffffffffffffffffffffffffffffffffffffffff021916908373ffffffffffffffffffffffffffffffffffffffff16021790555060005b8281101561174a5761171460076126a3565b60006117206007612695565b905061172c33826126b9565b61173681846128d6565b50808061174290613c2e565b915050611702565b507f000000000000000000000000000000000000000000000000000000000000000073ffffffffffffffffffffffffffffffffffffffff166108fc349081150290604051600060405180830381858888f193505050501580156117b1573d6000803e3d6000fd5b507fe11731cb4f1eb3ec3dd09bdc96809bb07365f4c881cda3192b397a4bc0b6da4033836040516117e3929190614144565b60405180910390a15050565b6118006117fa61209d565b8361215e565b61183f576040517f08c379a00000000000000000000000000000000000000000000000000000000081526004016118369061392c565b60405180910390fd5b61184b84848484612943565b50505050565b600e5481565b600f60009054906101000a900460ff1681565b606061187582612052565b600060066000848152602001908152602001600020805461189590613765565b80601f01602080910402602001604051908101604052809291908181526020018280546118c190613765565b801561190e5780601f106118e35761010080835404028352916020019161190e565b820191906000526020600020905b8154815290600101906020018083116118f157829003601f168201915b50505050509050600061191f61299f565b90506000815103611934578192505050611977565b6000825111156119695780826040516020016119519291906141a9565b60405160208183030381529060405292505050611977565b611972846129b6565b925050505b919050565b60095481565b60011515600f60029054906101000a900460ff161515146119d8576040517f08c379a00000000000000000000000000000000000000000000000000000000081526004016119cf90614219565b60405180910390fd5b6000601160003373ffffffffffffffffffffffffffffffffffffffff1673ffffffffffffffffffffffffffffffffffffffff1681526020019081526020016000205490506000600c5482611a2c9190613bec565b90506000601160003373ffffffffffffffffffffffffffffffffffffffff1673ffffffffffffffffffffffffffffffffffffffff168152602001908152602001600020819055507f000000000000000000000000000000000000000000000000000000000000000073ffffffffffffffffffffffffffffffffffffffff1663a99c20a3826040518263ffffffff1660e01b8152600401611acc9190613211565b600060405180830381600087803b158015611ae657600080fd5b505af1158015611afa573d6000803e3d6000fd5b505050505050565b60001515600f60009054906101000a900460ff16151514611b58576040517f08c379a0000000000000000000000000000000000000000000000000000000008152600401611b4f90614285565b60405180910390fd5b42600e5411611b9c576040517f08c379a0000000000000000000000000000000000000000000000000000000008152600401611b93906142f1565b60405180910390fd5b6001600f60016101000a81548160ff0219169083151502179055507f000000000000000000000000000000000000000000000000000000000000000073ffffffffffffffffffffffffffffffffffffffff166369d895756040518163ffffffff1660e01b8152600401600060405180830381600087803b158015611c1f57600080fd5b505af1158015611c33573d6000803e3d6000fd5b505050506000600b5447611c479190614340565b9050600a60009054906101000a900473ffffffffffffffffffffffffffffffffffffffff1673ffffffffffffffffffffffffffffffffffffffff166108fc829081150290604051600060405180830381858888f19350505050158015611cb1573d6000803e3d6000fd5b507f000000000000000000000000000000000000000000000000000000000000000073ffffffffffffffffffffffffffffffffffffffff166108fc829081150290604051600060405180830381858888f19350505050158015611d18573d6000803e3d6000fd5b507f000000000000000000000000000000000000000000000000000000000000000073ffffffffffffffffffffffffffffffffffffffff166108fc479081150290604051600060405180830381858888f19350505050158015611d7f573d6000803e3d6000fd5b5050565b6000600560008473ffffffffffffffffffffffffffffffffffffffff1673ffffffffffffffffffffffffffffffffffffffff16815260200190815260200160002060008373ffffffffffffffffffffffffffffffffffffffff1673ffffffffffffffffffffffffffffffffffffffff16815260200190815260200160002060009054906101000a900460ff16905092915050565b6060600a60009054906101000a900473ffffffffffffffffffffffffffffffffffffffff1673ffffffffffffffffffffffffffffffffffffffff163373ffffffffffffffffffffffffffffffffffffffff1614611ea9576040517f08c379a0000000000000000000000000000000000000000000000000000000008152600401611ea090613cc2565b60405180910390fd5b600060108054905067ffffffffffffffff811115611eca57611ec96132b6565b5b604051908082528060200260200182016040528015611ef85781602001602082028036833780820191505090505b5090506000805b601080549050811015611fb95760108181548110611f2057611f1f613b8e565b5b9060005260206000200160009054906101000a900473ffffffffffffffffffffffffffffffffffffffff16838381518110611f5e57611f5d613b8e565b5b602002602001019073ffffffffffffffffffffffffffffffffffffffff16908173ffffffffffffffffffffffffffffffffffffffff16815250508180611fa390613c2e565b9250508080611fb190613c2e565b915050611eff565b50819250505090565b600a60009054906101000a900473ffffffffffffffffffffffffffffffffffffffff1681565b60007f01ffc9a7000000000000000000000000000000000000000000000000000000007bffffffffffffffffffffffffffffffffffffffffffffffffffffffff1916827bffffffffffffffffffffffffffffffffffffffffffffffffffffffff1916149050919050565b61205b81612a1e565b61209a576040517f08c379a000000000000000000000000000000000000000000000000000000000815260040161209190613a04565b60405180910390fd5b50565b600033905090565b816004600083815260200190815260200160002060006101000a81548173ffffffffffffffffffffffffffffffffffffffff021916908373ffffffffffffffffffffffffffffffffffffffff160217905550808273ffffffffffffffffffffffffffffffffffffffff1661211883610cea565b73ffffffffffffffffffffffffffffffffffffffff167f8c5be1e5ebec7d5bd14f71427d1e84f3dd0314c0f7b2291e5b200ac8c7c3b92560405160405180910390a45050565b60008061216a83610cea565b90508073ffffffffffffffffffffffffffffffffffffffff168473ffffffffffffffffffffffffffffffffffffffff1614806121ac57506121ab8185611d83565b5b806121ea57508373ffffffffffffffffffffffffffffffffffffffff166121d2846109a4565b73ffffffffffffffffffffffffffffffffffffffff16145b91505092915050565b8273ffffffffffffffffffffffffffffffffffffffff1661221382610cea565b73ffffffffffffffffffffffffffffffffffffffff1614612269576040517f08c379a0000000000000000000000000000000000000000000000000000000008152600401612260906143e3565b60405180910390fd5b600073ffffffffffffffffffffffffffffffffffffffff168273ffffffffffffffffffffffffffffffffffffffff16036122d8576040517f08c379a00000000000000000000000000000000000000000000000000000000081526004016122cf90614475565b60405180910390fd5b6122e58383836001612a5f565b8273ffffffffffffffffffffffffffffffffffffffff1661230582610cea565b73ffffffffffffffffffffffffffffffffffffffff161461235b576040517f08c379a0000000000000000000000000000000000000000000000000000000008152600401612352906143e3565b60405180910390fd5b6004600082815260200190815260200160002060006101000a81549073ffffffffffffffffffffffffffffffffffffffff02191690556001600360008573ffffffffffffffffffffffffffffffffffffffff1673ffffffffffffffffffffffffffffffffffffffff168152602001908152602001600020600082825403925050819055506001600360008473ffffffffffffffffffffffffffffffffffffffff1673ffffffffffffffffffffffffffffffffffffffff16815260200190815260200160002060008282540192505081905550816002600083815260200190815260200160002060006101000a81548173ffffffffffffffffffffffffffffffffffffffff021916908373ffffffffffffffffffffffffffffffffffffffff160217905550808273ffffffffffffffffffffffffffffffffffffffff168473ffffffffffffffffffffffffffffffffffffffff167fddf252ad1be2c89b69c2b068fc378daa952ba7f163c4a11628f55a4df523b3ef60405160405180910390a46124e78383836001612b85565b505050565b60006002600083815260200190815260200160002060009054906101000a900473ffffffffffffffffffffffffffffffffffffffff169050919050565b8173ffffffffffffffffffffffffffffffffffffffff168373ffffffffffffffffffffffffffffffffffffffff1603612597576040517f08c379a000000000000000000000000000000000000000000000000000000000815260040161258e906144e1565b60405180910390fd5b80600560008573ffffffffffffffffffffffffffffffffffffffff1673ffffffffffffffffffffffffffffffffffffffff16815260200190815260200160002060008473ffffffffffffffffffffffffffffffffffffffff1673ffffffffffffffffffffffffffffffffffffffff16815260200190815260200160002060006101000a81548160ff0219169083151502179055508173ffffffffffffffffffffffffffffffffffffffff168373ffffffffffffffffffffffffffffffffffffffff167f17307eab39ab6107e8899845ad3d59bd9653f200f220920489ca2b5937696c3183604051612688919061300a565b60405180910390a3505050565b600081600001549050919050565b6001816000016000828254019250508190555050565b600073ffffffffffffffffffffffffffffffffffffffff168273ffffffffffffffffffffffffffffffffffffffff1603612728576040517f08c379a000000000000000000000000000000000000000000000000000000000815260040161271f9061454d565b60405180910390fd5b61273181612a1e565b15612771576040517f08c379a0000000000000000000000000000000000000000000000000000000008152600401612768906145b9565b60405180910390fd5b61277f600083836001612a5f565b61278881612a1e565b156127c8576040517f08c379a00000000000000000000000000000000000000000000000000000000081526004016127bf906145b9565b60405180910390fd5b6001600360008473ffffffffffffffffffffffffffffffffffffffff1673ffffffffffffffffffffffffffffffffffffffff16815260200190815260200160002060008282540192505081905550816002600083815260200190815260200160002060006101000a81548173ffffffffffffffffffffffffffffffffffffffff021916908373ffffffffffffffffffffffffffffffffffffffff160217905550808273ffffffffffffffffffffffffffffffffffffffff16600073ffffffffffffffffffffffffffffffffffffffff167fddf252ad1be2c89b69c2b068fc378daa952ba7f163c4a11628f55a4df523b3ef60405160405180910390a46128d2600083836001612b85565b5050565b6128df82612a1e565b61291e576040517f08c379a00000000000000000000000000000000000000000000000000000000081526004016129159061464b565b60405180910390fd5b8060066000848152602001908152602001600020908161293e9190613e8e565b505050565b61294e8484846121f3565b61295a84848484612b8b565b612999576040517f08c379a0000000000000000000000000000000000000000000000000000000008152600401612990906146dd565b60405180910390fd5b50505050565b606060405180602001604052806000815250905090565b60606129c182612052565b60006129cb61299f565b905060008151116129eb5760405180602001604052806000815250612a16565b806129f584612d12565b604051602001612a069291906141a9565b6040516020818303038152906040525b915050919050565b60008073ffffffffffffffffffffffffffffffffffffffff16612a40836124ec565b73ffffffffffffffffffffffffffffffffffffffff1614159050919050565b6001811115612b7f57600073ffffffffffffffffffffffffffffffffffffffff168473ffffffffffffffffffffffffffffffffffffffff1614612af35780600360008673ffffffffffffffffffffffffffffffffffffffff1673ffffffffffffffffffffffffffffffffffffffff1681526020019081526020016000206000828254612aeb91906146fd565b925050819055505b600073ffffffffffffffffffffffffffffffffffffffff168373ffffffffffffffffffffffffffffffffffffffff1614612b7e5780600360008573ffffffffffffffffffffffffffffffffffffffff1673ffffffffffffffffffffffffffffffffffffffff1681526020019081526020016000206000828254612b769190613fcc565b925050819055505b5b50505050565b50505050565b6000612bac8473ffffffffffffffffffffffffffffffffffffffff16612de0565b15612d05578373ffffffffffffffffffffffffffffffffffffffff1663150b7a02612bd561209d565b8786866040518563ffffffff1660e01b8152600401612bf79493929190614786565b6020604051808303816000875af1925050508015612c3357506040513d601f19601f82011682018060405250810190612c3091906147e7565b60015b612cb5573d8060008114612c63576040519150601f19603f3d011682016040523d82523d6000602084013e612c68565b606091505b506000815103612cad576040517f08c379a0000000000000000000000000000000000000000000000000000000008152600401612ca4906146dd565b60405180910390fd5b805181602001fd5b63150b7a0260e01b7bffffffffffffffffffffffffffffffffffffffffffffffffffffffff1916817bffffffffffffffffffffffffffffffffffffffffffffffffffffffff191614915050612d0a565b600190505b949350505050565b606060006001612d2184612e03565b01905060008167ffffffffffffffff811115612d4057612d3f6132b6565b5b6040519080825280601f01601f191660200182016040528015612d725781602001600182028036833780820191505090505b509050600082602001820190505b600115612dd5578080600190039150507f3031323334353637383961626364656600000000000000000000000000000000600a86061a8153600a8581612dc957612dc8614311565b5b04945060008503612d80575b819350505050919050565b6000808273ffffffffffffffffffffffffffffffffffffffff163b119050919050565b600080600090507a184f03e93ff9f4daa797ed6e38ed64bf6a1f0100000000000000008310612e61577a184f03e93ff9f4daa797ed6e38ed64bf6a1f0100000000000000008381612e5757612e56614311565b5b0492506040810190505b6d04ee2d6d415b85acef81000000008310612e9e576d04ee2d6d415b85acef81000000008381612e9457612e93614311565b5b0492506020810190505b662386f26fc100008310612ecd57662386f26fc100008381612ec357612ec2614311565b5b0492506010810190505b6305f5e1008310612ef6576305f5e1008381612eec57612eeb614311565b5b0492506008810190505b6127108310612f1b576127108381612f1157612f10614311565b5b0492506004810190505b60648310612f3e5760648381612f3457612f33614311565b5b0492506002810190505b600a8310612f4d576001810190505b80915050919050565b6000604051905090565b600080fd5b600080fd5b60007fffffffff0000000000000000000000000000000000000000000000000000000082169050919050565b612f9f81612f6a565b8114612faa57600080fd5b50565b600081359050612fbc81612f96565b92915050565b600060208284031215612fd857612fd7612f60565b5b6000612fe684828501612fad565b91505092915050565b60008115159050919050565b61300481612fef565b82525050565b600060208201905061301f6000830184612ffb565b92915050565b600081519050919050565b600082825260208201905092915050565b60005b8381101561305f578082015181840152602081019050613044565b60008484015250505050565b6000601f19601f8301169050919050565b600061308782613025565b6130918185613030565b93506130a1818560208601613041565b6130aa8161306b565b840191505092915050565b600060208201905081810360008301526130cf818461307c565b905092915050565b6000819050919050565b6130ea816130d7565b81146130f557600080fd5b50565b600081359050613107816130e1565b92915050565b60006020828403121561312357613122612f60565b5b6000613131848285016130f8565b91505092915050565b600073ffffffffffffffffffffffffffffffffffffffff82169050919050565b60006131658261313a565b9050919050565b6131758161315a565b82525050565b6000602082019050613190600083018461316c565b92915050565b61319f8161315a565b81146131aa57600080fd5b50565b6000813590506131bc81613196565b92915050565b600080604083850312156131d9576131d8612f60565b5b60006131e7858286016131ad565b92505060206131f8858286016130f8565b9150509250929050565b61320b816130d7565b82525050565b60006020820190506132266000830184613202565b92915050565b60008060006060848603121561324557613244612f60565b5b6000613253868287016131ad565b9350506020613264868287016131ad565b9250506040613275868287016130f8565b9150509250925092565b60006020828403121561329557613294612f60565b5b60006132a3848285016131ad565b91505092915050565b600080fd5b600080fd5b7f4e487b7100000000000000000000000000000000000000000000000000000000600052604160045260246000fd5b6132ee8261306b565b810181811067ffffffffffffffff8211171561330d5761330c6132b6565b5b80604052505050565b6000613320612f56565b905061332c82826132e5565b919050565b600067ffffffffffffffff82111561334c5761334b6132b6565b5b6133558261306b565b9050602081019050919050565b82818337600083830152505050565b600061338461337f84613331565b613316565b9050828152602081018484840111156133a05761339f6132b1565b5b6133ab848285613362565b509392505050565b600082601f8301126133c8576133c76132ac565b5b81356133d8848260208601613371565b91505092915050565b6000602082840312156133f7576133f6612f60565b5b600082013567ffffffffffffffff81111561341557613414612f65565b5b613421848285016133b3565b91505092915050565b61343381612fef565b811461343e57600080fd5b50565b6000813590506134508161342a565b92915050565b6000806040838503121561346d5761346c612f60565b5b600061347b858286016131ad565b925050602061348c85828601613441565b9150509250929050565b600080604083850312156134ad576134ac612f60565b5b60006134bb858286016130f8565b925050602083013567ffffffffffffffff8111156134dc576134db612f65565b5b6134e8858286016133b3565b9150509250929050565b600067ffffffffffffffff82111561350d5761350c6132b6565b5b6135168261306b565b9050602081019050919050565b6000613536613531846134f2565b613316565b905082815260208101848484011115613552576135516132b1565b5b61355d848285613362565b509392505050565b600082601f83011261357a576135796132ac565b5b813561358a848260208601613523565b91505092915050565b600080600080608085870312156135ad576135ac612f60565b5b60006135bb878288016131ad565b94505060206135cc878288016131ad565b93505060406135dd878288016130f8565b925050606085013567ffffffffffffffff8111156135fe576135fd612f65565b5b61360a87828801613565565b91505092959194509250565b6000806040838503121561362d5761362c612f60565b5b600061363b858286016131ad565b925050602061364c858286016131ad565b9150509250929050565b600081519050919050565b600082825260208201905092915050565b6000819050602082019050919050565b61368b8161315a565b82525050565b600061369d8383613682565b60208301905092915050565b6000602082019050919050565b60006136c182613656565b6136cb8185613661565b93506136d683613672565b8060005b838110156137075781516136ee8882613691565b97506136f9836136a9565b9250506001810190506136da565b5085935050505092915050565b6000602082019050818103600083015261372e81846136b6565b905092915050565b7f4e487b7100000000000000000000000000000000000000000000000000000000600052602260045260246000fd5b6000600282049050600182168061377d57607f821691505b6020821081036137905761378f613736565b5b50919050565b7f4552433732313a20617070726f76616c20746f2063757272656e74206f776e6560008201527f7200000000000000000000000000000000000000000000000000000000000000602082015250565b60006137f2602183613030565b91506137fd82613796565b604082019050919050565b60006020820190508181036000830152613821816137e5565b9050919050565b7f4552433732313a20617070726f76652063616c6c6572206973206e6f7420746f60008201527f6b656e206f776e6572206f7220617070726f76656420666f7220616c6c000000602082015250565b6000613884603d83613030565b915061388f82613828565b604082019050919050565b600060208201905081810360008301526138b381613877565b9050919050565b7f4552433732313a2063616c6c6572206973206e6f7420746f6b656e206f776e6560008201527f72206f7220617070726f76656400000000000000000000000000000000000000602082015250565b6000613916602d83613030565b9150613921826138ba565b604082019050919050565b6000602082019050818103600083015261394581613909565b9050919050565b7f6f6e6c792061646d696e00000000000000000000000000000000000000000000600082015250565b6000613982600a83613030565b915061398d8261394c565b602082019050919050565b600060208201905081810360008301526139b181613975565b9050919050565b7f4552433732313a20696e76616c696420746f6b656e2049440000000000000000600082015250565b60006139ee601883613030565b91506139f9826139b8565b602082019050919050565b60006020820190508181036000830152613a1d816139e1565b9050919050565b7f4552433732313a2061646472657373207a65726f206973206e6f74206120766160008201527f6c6964206f776e65720000000000000000000000000000000000000000000000602082015250565b6000613a80602983613030565b9150613a8b82613a24565b604082019050919050565b60006020820190508181036000830152613aaf81613a73565b9050919050565b7f6f6e6c7941646d696e0000000000000000000000000000000000000000000000600082015250565b6000613aec600983613030565b9150613af782613ab6565b602082019050919050565b60006020820190508181036000830152613b1b81613adf565b9050919050565b7f73686f77206e6f742063616e63656c6c65640000000000000000000000000000600082015250565b6000613b58601283613030565b9150613b6382613b22565b602082019050919050565b60006020820190508181036000830152613b8781613b4b565b9050919050565b7f4e487b7100000000000000000000000000000000000000000000000000000000600052603260045260246000fd5b7f4e487b7100000000000000000000000000000000000000000000000000000000600052601160045260246000fd5b6000613bf7826130d7565b9150613c02836130d7565b9250828202613c10816130d7565b91508282048414831517613c2757613c26613bbd565b5b5092915050565b6000613c39826130d7565b91507fffffffffffffffffffffffffffffffffffffffffffffffffffffffffffffffff8203613c6b57613c6a613bbd565b5b600182019050919050565b7f6f61000000000000000000000000000000000000000000000000000000000000600082015250565b6000613cac600283613030565b9150613cb782613c76565b602082019050919050565b60006020820190508181036000830152613cdb81613c9f565b9050919050565b60008190508160005260206000209050919050565b60006020601f8301049050919050565b600082821b905092915050565b600060088302613d447fffffffffffffffffffffffffffffffffffffffffffffffffffffffffffffffff82613d07565b613d4e8683613d07565b95508019841693508086168417925050509392505050565b6000819050919050565b6000613d8b613d86613d81846130d7565b613d66565b6130d7565b9050919050565b6000819050919050565b613da583613d70565b613db9613db182613d92565b848454613d14565b825550505050565b600090565b613dce613dc1565b613dd9818484613d9c565b505050565b5b81811015613dfd57613df2600082613dc6565b600181019050613ddf565b5050565b601f821115613e4257613e1381613ce2565b613e1c84613cf7565b81016020851015613e2b578190505b613e3f613e3785613cf7565b830182613dde565b50505b505050565b600082821c905092915050565b6000613e6560001984600802613e47565b1980831691505092915050565b6000613e7e8383613e54565b9150826002028217905092915050565b613e9782613025565b67ffffffffffffffff811115613eb057613eaf6132b6565b5b613eba8254613765565b613ec5828285613e01565b600060209050601f831160018114613ef85760008415613ee6578287015190505b613ef08582613e72565b865550613f58565b601f198416613f0686613ce2565b60005b82811015613f2e57848901518255600182019150602085019450602081019050613f09565b86831015613f4b5784890151613f47601f891682613e54565b8355505b6001600288020188555050505b505050505050565b7f7061790000000000000000000000000000000000000000000000000000000000600082015250565b6000613f96600383613030565b9150613fa182613f60565b602082019050919050565b60006020820190508181036000830152613fc581613f89565b9050919050565b6000613fd7826130d7565b9150613fe2836130d7565b9250828201905080821115613ffa57613ff9613bbd565b5b92915050565b7f6d61782074697800000000000000000000000000000000000000000000000000600082015250565b6000614036600783613030565b915061404182614000565b602082019050919050565b6000602082019050818103600083015261406581614029565b9050919050565b7f736f6c64206f7574000000000000000000000000000000000000000000000000600082015250565b60006140a2600883613030565b91506140ad8261406c565b602082019050919050565b600060208201905081810360008301526140d181614095565b9050919050565b7f73686f77206973206e6f74206f70656e00000000000000000000000000000000600082015250565b600061410e601083613030565b9150614119826140d8565b602082019050919050565b6000602082019050818103600083015261413d81614101565b9050919050565b6000604082019050614159600083018561316c565b6141666020830184613202565b9392505050565b600081905092915050565b600061418382613025565b61418d818561416d565b935061419d818560208601613041565b80840191505092915050565b60006141b58285614178565b91506141c18284614178565b91508190509392505050565b7f6e6f742072657363686564756c65640000000000000000000000000000000000600082015250565b6000614203600f83613030565b915061420e826141cd565b602082019050919050565b60006020820190508181036000830152614232816141f6565b9050919050565b7f73686f77206e6f7420636f6d706c657465640000000000000000000000000000600082015250565b600061426f601283613030565b915061427a82614239565b602082019050919050565b6000602082019050818103600083015261429e81614262565b9050919050565b7f73686f77206e6f74206f76657200000000000000000000000000000000000000600082015250565b60006142db600d83613030565b91506142e6826142a5565b602082019050919050565b6000602082019050818103600083015261430a816142ce565b9050919050565b7f4e487b7100000000000000000000000000000000000000000000000000000000600052601260045260246000fd5b600061434b826130d7565b9150614356836130d7565b92508261436657614365614311565b5b828204905092915050565b7f4552433732313a207472616e736665722066726f6d20696e636f72726563742060008201527f6f776e6572000000000000000000000000000000000000000000000000000000602082015250565b60006143cd602583613030565b91506143d882614371565b604082019050919050565b600060208201905081810360008301526143fc816143c0565b9050919050565b7f4552433732313a207472616e7366657220746f20746865207a65726f2061646460008201527f7265737300000000000000000000000000000000000000000000000000000000602082015250565b600061445f602483613030565b915061446a82614403565b604082019050919050565b6000602082019050818103600083015261448e81614452565b9050919050565b7f4552433732313a20617070726f766520746f2063616c6c657200000000000000600082015250565b60006144cb601983613030565b91506144d682614495565b602082019050919050565b600060208201905081810360008301526144fa816144be565b9050919050565b7f4552433732313a206d696e7420746f20746865207a65726f2061646472657373600082015250565b6000614537602083613030565b915061454282614501565b602082019050919050565b600060208201905081810360008301526145668161452a565b9050919050565b7f4552433732313a20746f6b656e20616c7265616479206d696e74656400000000600082015250565b60006145a3601c83613030565b91506145ae8261456d565b602082019050919050565b600060208201905081810360008301526145d281614596565b9050919050565b7f45524337323155524953746f726167653a2055524920736574206f66206e6f6e60008201527f6578697374656e7420746f6b656e000000000000000000000000000000000000602082015250565b6000614635602e83613030565b9150614640826145d9565b604082019050919050565b6000602082019050818103600083015261466481614628565b9050919050565b7f4552433732313a207472616e7366657220746f206e6f6e20455243373231526560008201527f63656976657220696d706c656d656e7465720000000000000000000000000000602082015250565b60006146c7603283613030565b91506146d28261466b565b604082019050919050565b600060208201905081810360008301526146f6816146ba565b9050919050565b6000614708826130d7565b9150614713836130d7565b925082820390508181111561472b5761472a613bbd565b5b92915050565b600081519050919050565b600082825260208201905092915050565b600061475882614731565b614762818561473c565b9350614772818560208601613041565b61477b8161306b565b840191505092915050565b600060808201905061479b600083018761316c565b6147a8602083018661316c565b6147b56040830185613202565b81810360608301526147c7818461474d565b905095945050505050565b6000815190506147e181612f96565b92915050565b6000602082840312156147fd576147fc612f60565b5b600061480b848285016147d2565b9150509291505056fea2646970667358221220d4817d1e7f3668d6ddc605fe937bcc538f96b06656edf5a67fd9aa325963e5ad64736f6c63430008110033",
  "linkReferences": {},
  "deployedLinkReferences": {}
}