{
  "_format": "hh-sol-artifact-1",
  "contractName": "Cryptickets",
  "sourceName": "contracts/Cryptickets.sol",
  "abi": [
    {
      "inputs": [
        {
          "internalType": "string",
          "name": "_name",
          "type": "string"
        },
        {
          "internalType": "string",
          "name": "_symbol",
          "type": "string"
        },
        {
          "internalType": "address",
          "name": "_escrowAddress",
          "type": "address"
        },
        {
          "internalType": "address",
          "name": "_bandAddress",
          "type": "address"
        },
        {
          "internalType": "address",
          "name": "_venueAddress",
          "type": "address"
        },
        {
          "internalType": "uint256",
          "name": "_endDate",
          "type": "uint256"
        },
        {
          "internalType": "uint256",
          "name": "_price",
          "type": "uint256"
        }
      ],
      "stateMutability": "nonpayable",
      "type": "constructor"
    },
    {
      "anonymous": false,
      "inputs": [
        {
          "indexed": true,
          "internalType": "address",
          "name": "owner",
          "type": "address"
        },
        {
          "indexed": true,
          "internalType": "address",
          "name": "approved",
          "type": "address"
        },
        {
          "indexed": true,
          "internalType": "uint256",
          "name": "tokenId",
          "type": "uint256"
        }
      ],
      "name": "Approval",
      "type": "event"
    },
    {
      "anonymous": false,
      "inputs": [
        {
          "indexed": true,
          "internalType": "address",
          "name": "owner",
          "type": "address"
        },
        {
          "indexed": true,
          "internalType": "address",
          "name": "operator",
          "type": "address"
        },
        {
          "indexed": false,
          "internalType": "bool",
          "name": "approved",
          "type": "bool"
        }
      ],
      "name": "ApprovalForAll",
      "type": "event"
    },
    {
      "anonymous": false,
      "inputs": [
        {
          "indexed": false,
          "internalType": "address",
          "name": "to",
          "type": "address"
        },
        {
          "indexed": false,
          "internalType": "uint256",
          "name": "amountPurchased",
          "type": "uint256"
        }
      ],
      "name": "TicketsPurchased",
      "type": "event"
    },
    {
      "anonymous": false,
      "inputs": [
        {
          "indexed": true,
          "internalType": "address",
          "name": "from",
          "type": "address"
        },
        {
          "indexed": true,
          "internalType": "address",
          "name": "to",
          "type": "address"
        },
        {
          "indexed": true,
          "internalType": "uint256",
          "name": "tokenId",
          "type": "uint256"
        }
      ],
      "name": "Transfer",
      "type": "event"
    },
    {
      "inputs": [],
      "name": "ProfileContract",
      "outputs": [
        {
          "internalType": "address",
          "name": "",
          "type": "address"
        }
      ],
      "stateMutability": "view",
      "type": "function"
    },
    {
      "inputs": [],
      "name": "_tokenIds",
      "outputs": [
        {
          "internalType": "uint256",
          "name": "_value",
          "type": "uint256"
        }
      ],
      "stateMutability": "view",
      "type": "function"
    },
    {
      "inputs": [],
      "name": "admin",
      "outputs": [
        {
          "internalType": "address",
          "name": "",
          "type": "address"
        }
      ],
      "stateMutability": "view",
      "type": "function"
    },
    {
      "inputs": [
        {
          "internalType": "uint256",
          "name": "",
          "type": "uint256"
        }
      ],
      "name": "allOwners",
      "outputs": [
        {
          "internalType": "address",
          "name": "",
          "type": "address"
        }
      ],
      "stateMutability": "view",
      "type": "function"
    },
    {
      "inputs": [
        {
          "internalType": "address",
          "name": "to",
          "type": "address"
        },
        {
          "internalType": "uint256",
          "name": "tokenId",
          "type": "uint256"
        }
      ],
      "name": "approve",
      "outputs": [],
      "stateMutability": "nonpayable",
      "type": "function"
    },
    {
      "inputs": [
        {
          "internalType": "address",
          "name": "owner",
          "type": "address"
        }
      ],
      "name": "balanceOf",
      "outputs": [
        {
          "internalType": "uint256",
          "name": "",
          "type": "uint256"
        }
      ],
      "stateMutability": "view",
      "type": "function"
    },
    {
      "inputs": [],
      "name": "bandPercent",
      "outputs": [
        {
          "internalType": "uint256",
          "name": "",
          "type": "uint256"
        }
      ],
      "stateMutability": "view",
      "type": "function"
    },
    {
      "inputs": [],
      "name": "baseUri",
      "outputs": [
        {
          "internalType": "string",
          "name": "",
          "type": "string"
        }
      ],
      "stateMutability": "view",
      "type": "function"
    },
    {
      "inputs": [
        {
          "internalType": "address",
          "name": "_controller",
          "type": "address"
        }
      ],
      "name": "changeAdmin",
      "outputs": [],
      "stateMutability": "nonpayable",
      "type": "function"
    },
    {
      "inputs": [
        {
          "internalType": "uint256",
          "name": "_newShowDate",
          "type": "uint256"
        }
      ],
      "name": "changeShowDate",
      "outputs": [],
      "stateMutability": "nonpayable",
      "type": "function"
    },
    {
      "inputs": [],
      "name": "endDate",
      "outputs": [
        {
          "internalType": "uint256",
          "name": "",
          "type": "uint256"
        }
      ],
      "stateMutability": "view",
      "type": "function"
    },
    {
      "inputs": [
        {
          "internalType": "uint256",
          "name": "tokenId",
          "type": "uint256"
        }
      ],
      "name": "getApproved",
      "outputs": [
        {
          "internalType": "address",
          "name": "",
          "type": "address"
        }
      ],
      "stateMutability": "view",
      "type": "function"
    },
    {
      "inputs": [
        {
          "internalType": "address",
          "name": "owner",
          "type": "address"
        },
        {
          "internalType": "address",
          "name": "operator",
          "type": "address"
        }
      ],
      "name": "isApprovedForAll",
      "outputs": [
        {
          "internalType": "bool",
          "name": "",
          "type": "bool"
        }
      ],
      "stateMutability": "view",
      "type": "function"
    },
    {
      "inputs": [],
      "name": "maxSupply",
      "outputs": [
        {
          "internalType": "uint256",
          "name": "",
          "type": "uint256"
        }
      ],
      "stateMutability": "view",
      "type": "function"
    },
    {
      "inputs": [],
      "name": "name",
      "outputs": [
        {
          "internalType": "string",
          "name": "",
          "type": "string"
        }
      ],
      "stateMutability": "view",
      "type": "function"
    },
    {
      "inputs": [
        {
          "internalType": "uint256",
          "name": "tokenId",
          "type": "uint256"
        }
      ],
      "name": "ownerOf",
      "outputs": [
        {
          "internalType": "address",
          "name": "",
          "type": "address"
        }
      ],
      "stateMutability": "view",
      "type": "function"
    },
    {
      "inputs": [],
      "name": "payBandAndVenue",
      "outputs": [],
      "stateMutability": "payable",
      "type": "function"
    },
    {
      "inputs": [
        {
          "internalType": "uint256",
          "name": "amount",
          "type": "uint256"
        },
        {
          "internalType": "string",
          "name": "tokenUri",
          "type": "string"
        }
      ],
      "name": "purchaseTickets",
      "outputs": [],
      "stateMutability": "payable",
      "type": "function"
    },
    {
      "inputs": [],
      "name": "refundAllTickets",
      "outputs": [],
      "stateMutability": "payable",
      "type": "function"
    },
    {
      "inputs": [],
      "name": "requestRefund",
      "outputs": [],
      "stateMutability": "nonpayable",
      "type": "function"
    },
    {
      "inputs": [],
      "name": "rescheduled",
      "outputs": [
        {
          "internalType": "bool",
          "name": "",
          "type": "bool"
        }
      ],
      "stateMutability": "view",
      "type": "function"
    },
    {
      "inputs": [],
      "name": "returnAllOwners",
      "outputs": [
        {
          "internalType": "address[]",
          "name": "",
          "type": "address[]"
        }
      ],
      "stateMutability": "view",
      "type": "function"
    },
    {
      "inputs": [
        {
          "internalType": "address",
          "name": "from",
          "type": "address"
        },
        {
          "internalType": "address",
          "name": "to",
          "type": "address"
        },
        {
          "internalType": "uint256",
          "name": "tokenId",
          "type": "uint256"
        }
      ],
      "name": "safeTransferFrom",
      "outputs": [],
      "stateMutability": "nonpayable",
      "type": "function"
    },
    {
      "inputs": [
        {
          "internalType": "address",
          "name": "from",
          "type": "address"
        },
        {
          "internalType": "address",
          "name": "to",
          "type": "address"
        },
        {
          "internalType": "uint256",
          "name": "tokenId",
          "type": "uint256"
        },
        {
          "internalType": "bytes",
          "name": "data",
          "type": "bytes"
        }
      ],
      "name": "safeTransferFrom",
      "outputs": [],
      "stateMutability": "nonpayable",
      "type": "function"
    },
    {
      "inputs": [
        {
          "internalType": "address",
          "name": "operator",
          "type": "address"
        },
        {
          "internalType": "bool",
          "name": "approved",
          "type": "bool"
        }
      ],
      "name": "setApprovalForAll",
      "outputs": [],
      "stateMutability": "nonpayable",
      "type": "function"
    },
    {
      "inputs": [
        {
          "internalType": "string",
          "name": "_bseuri",
          "type": "string"
        }
      ],
      "name": "setBaseUri",
      "outputs": [],
      "stateMutability": "nonpayable",
      "type": "function"
    },
    {
      "inputs": [],
      "name": "setCancelledShow",
      "outputs": [],
      "stateMutability": "nonpayable",
      "type": "function"
    },
    {
      "inputs": [
        {
          "internalType": "uint256",
          "name": "_maxSupply",
          "type": "uint256"
        }
      ],
      "name": "setMaxSupply",
      "outputs": [],
      "stateMutability": "nonpayable",
      "type": "function"
    },
    {
      "inputs": [],
      "name": "showCancelled",
      "outputs": [
        {
          "internalType": "bool",
          "name": "",
          "type": "bool"
        }
      ],
      "stateMutability": "view",
      "type": "function"
    },
    {
      "inputs": [],
      "name": "showCompleted",
      "outputs": [
        {
          "internalType": "bool",
          "name": "",
          "type": "bool"
        }
      ],
      "stateMutability": "view",
      "type": "function"
    },
    {
      "inputs": [
        {
          "internalType": "bytes4",
          "name": "interfaceId",
          "type": "bytes4"
        }
      ],
      "name": "supportsInterface",
      "outputs": [
        {
          "internalType": "bool",
          "name": "",
          "type": "bool"
        }
      ],
      "stateMutability": "view",
      "type": "function"
    },
    {
      "inputs": [],
      "name": "symbol",
      "outputs": [
        {
          "internalType": "string",
          "name": "",
          "type": "string"
        }
      ],
      "stateMutability": "view",
      "type": "function"
    },
    {
      "inputs": [],
      "name": "ticketLimit",
      "outputs": [
        {
          "internalType": "uint256",
          "name": "",
          "type": "uint256"
        }
      ],
      "stateMutability": "view",
      "type": "function"
    },
    {
      "inputs": [],
      "name": "ticketPrice",
      "outputs": [
        {
          "internalType": "uint256",
          "name": "",
          "type": "uint256"
        }
      ],
      "stateMutability": "view",
      "type": "function"
    },
    {
      "inputs": [
        {
          "internalType": "address",
          "name": "",
          "type": "address"
        }
      ],
      "name": "ticketsPurchased",
      "outputs": [
        {
          "internalType": "uint256",
          "name": "",
          "type": "uint256"
        }
      ],
      "stateMutability": "view",
      "type": "function"
    },
    {
      "inputs": [
        {
          "internalType": "uint256",
          "name": "tokenId",
          "type": "uint256"
        }
      ],
      "name": "tokenURI",
      "outputs": [
        {
          "internalType": "string",
          "name": "",
          "type": "string"
        }
      ],
      "stateMutability": "view",
      "type": "function"
    },
    {
      "inputs": [
        {
          "internalType": "address",
          "name": "from",
          "type": "address"
        },
        {
          "internalType": "address",
          "name": "to",
          "type": "address"
        },
        {
          "internalType": "uint256",
          "name": "tokenId",
          "type": "uint256"
        }
      ],
      "name": "transferFrom",
      "outputs": [],
      "stateMutability": "nonpayable",
      "type": "function"
    },
    {
      "stateMutability": "payable",
      "type": "receive"
    }
  ],
  "bytecode": "0x60e06040526064600955600a600b556008600d557364493418e635f3e2d5788d4dc2f68ce9707c51a5600f60036101000a81548173ffffffffffffffffffffffffffffffffffffffff021916908373ffffffffffffffffffffffffffffffffffffffff1602179055503480156200007557600080fd5b506040516200517f3803806200517f83398181016040528101906200009b9190620003ee565b86868160009081620000ae919062000720565b508060019081620000c0919062000720565b50505033600a60006101000a81548173ffffffffffffffffffffffffffffffffffffffff021916908373ffffffffffffffffffffffffffffffffffffffff1602179055508473ffffffffffffffffffffffffffffffffffffffff1660c08173ffffffffffffffffffffffffffffffffffffffff16815250508373ffffffffffffffffffffffffffffffffffffffff1660808173ffffffffffffffffffffffffffffffffffffffff16815250508273ffffffffffffffffffffffffffffffffffffffff1660a08173ffffffffffffffffffffffffffffffffffffffff168152505081600e8190555080600c819055505050505050505062000807565b6000604051905090565b600080fd5b600080fd5b600080fd5b600080fd5b6000601f19601f8301169050919050565b7f4e487b7100000000000000000000000000000000000000000000000000000000600052604160045260246000fd5b6200022482620001d9565b810181811067ffffffffffffffff82111715620002465762000245620001ea565b5b80604052505050565b60006200025b620001bb565b905062000269828262000219565b919050565b600067ffffffffffffffff8211156200028c576200028b620001ea565b5b6200029782620001d9565b9050602081019050919050565b60005b83811015620002c4578082015181840152602081019050620002a7565b60008484015250505050565b6000620002e7620002e1846200026e565b6200024f565b905082815260208101848484011115620003065762000305620001d4565b5b62000313848285620002a4565b509392505050565b600082601f830112620003335762000332620001cf565b5b815162000345848260208601620002d0565b91505092915050565b600073ffffffffffffffffffffffffffffffffffffffff82169050919050565b60006200037b826200034e565b9050919050565b6200038d816200036e565b81146200039957600080fd5b50565b600081519050620003ad8162000382565b92915050565b6000819050919050565b620003c881620003b3565b8114620003d457600080fd5b50565b600081519050620003e881620003bd565b92915050565b600080600080600080600060e0888a03121562000410576200040f620001c5565b5b600088015167ffffffffffffffff811115620004315762000430620001ca565b5b6200043f8a828b016200031b565b975050602088015167ffffffffffffffff811115620004635762000462620001ca565b5b620004718a828b016200031b565b9650506040620004848a828b016200039c565b9550506060620004978a828b016200039c565b9450506080620004aa8a828b016200039c565b93505060a0620004bd8a828b01620003d7565b92505060c0620004d08a828b01620003d7565b91505092959891949750929550565b600081519050919050565b7f4e487b7100000000000000000000000000000000000000000000000000000000600052602260045260246000fd5b600060028204905060018216806200053257607f821691505b602082108103620005485762000547620004ea565b5b50919050565b60008190508160005260206000209050919050565b60006020601f8301049050919050565b600082821b905092915050565b600060088302620005b27fffffffffffffffffffffffffffffffffffffffffffffffffffffffffffffffff8262000573565b620005be868362000573565b95508019841693508086168417925050509392505050565b6000819050919050565b600062000601620005fb620005f584620003b3565b620005d6565b620003b3565b9050919050565b6000819050919050565b6200061d83620005e0565b620006356200062c8262000608565b84845462000580565b825550505050565b600090565b6200064c6200063d565b6200065981848462000612565b505050565b5b8181101562000681576200067560008262000642565b6001810190506200065f565b5050565b601f821115620006d0576200069a816200054e565b620006a58462000563565b81016020851015620006b5578190505b620006cd620006c48562000563565b8301826200065e565b50505b505050565b600082821c905092915050565b6000620006f560001984600802620006d5565b1980831691505092915050565b6000620007108383620006e2565b9150826002028217905092915050565b6200072b82620004df565b67ffffffffffffffff811115620007475762000746620001ea565b5b62000753825462000519565b6200076082828562000685565b600060209050601f83116001811462000798576000841562000783578287015190505b6200078f858262000702565b865550620007ff565b601f198416620007a8866200054e565b60005b82811015620007d257848901518255600182019150602085019450602081019050620007ab565b86831015620007f25784890151620007ee601f891682620006e2565b8355505b6001600288020188555050505b505050505050565b60805160a05160c0516149336200084c60003960008181611262015281816117a901528181611b5e0152611ca201526000611e0401526000611d9d01526149336000f3fe60806040526004361061021e5760003560e01c8063833534bb11610123578063b88d4fde116100ab578063d5cef1331161006f578063d5cef133146107b2578063e146f727146107c9578063e985e9c5146107d3578063ecaabf7f14610810578063f851a4401461083b57610225565b8063b88d4fde146106cb578063c24a0f8b146106f4578063c769a5411461071f578063c87b56dd1461074a578063d5abeb011461078757610225565b80639abc8320116100f25780639abc832014610607578063a0bcfc7f14610632578063a22cb4651461065b578063aa46a40014610684578063b82af82d146106af57610225565b8063833534bb1461057e5780638f283970146105a957806395d89b41146105d257806399203d23146105fd57610225565b8063435c2e80116101a65780636ccda0a6116101755780636ccda0a6146104995780636f8b44b0146104d657806370a08231146104ff5780637389df8a1461053c57806373b4dba11461055357610225565b8063435c2e80146103dd5780635b7646bf146104085780635e321dfc146104315780636352211e1461045c57610225565b80631209b1f6116101ed5780631209b1f6146102f85780631516db091461032357806323b872dd146103605780632cc403e01461038957806342842e0e146103b457610225565b806301ffc9a71461022a57806306fdde0314610267578063081812fc14610292578063095ea7b3146102cf57610225565b3661022557005b600080fd5b34801561023657600080fd5b50610251600480360381019061024c91906130ab565b610866565b60405161025e91906130f3565b60405180910390f35b34801561027357600080fd5b5061027c610948565b604051610289919061319e565b60405180910390f35b34801561029e57600080fd5b506102b960048036038101906102b491906131f6565b6109da565b6040516102c69190613264565b60405180910390f35b3480156102db57600080fd5b506102f660048036038101906102f191906132ab565b610a20565b005b34801561030457600080fd5b5061030d610b37565b60405161031a91906132fa565b60405180910390f35b34801561032f57600080fd5b5061034a600480360381019061034591906131f6565b610b3d565b6040516103579190613264565b60405180910390f35b34801561036c57600080fd5b5061038760048036038101906103829190613315565b610b7c565b005b34801561039557600080fd5b5061039e610c3f565b6040516103ab91906132fa565b60405180910390f35b3480156103c057600080fd5b506103db60048036038101906103d69190613315565b610c45565b005b3480156103e957600080fd5b506103f2610c65565b6040516103ff9190613264565b60405180910390f35b34801561041457600080fd5b5061042f600480360381019061042a91906131f6565b610c8b565b005b34801561043d57600080fd5b50610446610d40565b60405161045391906132fa565b60405180910390f35b34801561046857600080fd5b50610483600480360381019061047e91906131f6565b610d46565b6040516104909190613264565b60405180910390f35b3480156104a557600080fd5b506104c060048036038101906104bb9190613368565b610dcc565b6040516104cd91906132fa565b60405180910390f35b3480156104e257600080fd5b506104fd60048036038101906104f891906131f6565b610de4565b005b34801561050b57600080fd5b5061052660048036038101906105219190613368565b610e7e565b60405161053391906132fa565b60405180910390f35b34801561054857600080fd5b50610551610f35565b005b34801561055f57600080fd5b50610568610fe2565b60405161057591906130f3565b60405180910390f35b34801561058a57600080fd5b50610593610ff5565b6040516105a091906130f3565b60405180910390f35b3480156105b557600080fd5b506105d060048036038101906105cb9190613368565b611008565b005b3480156105de57600080fd5b506105e76110dc565b6040516105f4919061319e565b60405180910390f35b61060561116e565b005b34801561061357600080fd5b5061061c6113a3565b604051610629919061319e565b60405180910390f35b34801561063e57600080fd5b50610659600480360381019061065491906134ca565b611431565b005b34801561066757600080fd5b50610682600480360381019061067d919061353f565b6114d4565b005b34801561069057600080fd5b506106996114ea565b6040516106a691906132fa565b60405180910390f35b6106c960048036038101906106c4919061357f565b6114f6565b005b3480156106d757600080fd5b506106f260048036038101906106ed919061367c565b6118d8565b005b34801561070057600080fd5b5061070961193a565b60405161071691906132fa565b60405180910390f35b34801561072b57600080fd5b50610734611940565b60405161074191906130f3565b60405180910390f35b34801561075657600080fd5b50610771600480360381019061076c91906131f6565b611953565b60405161077e919061319e565b60405180910390f35b34801561079357600080fd5b5061079c611a65565b6040516107a991906132fa565b60405180910390f35b3480156107be57600080fd5b506107c7611a6b565b005b6107d1611beb565b005b3480156107df57600080fd5b506107fa60048036038101906107f591906136ff565b611e6c565b60405161080791906130f3565b60405180910390f35b34801561081c57600080fd5b50610825611f00565b60405161083291906137fd565b60405180910390f35b34801561084757600080fd5b506108506120ab565b60405161085d9190613264565b60405180910390f35b60007f80ac58cd000000000000000000000000000000000000000000000000000000007bffffffffffffffffffffffffffffffffffffffffffffffffffffffff1916827bffffffffffffffffffffffffffffffffffffffffffffffffffffffff1916148061093157507f5b5e139f000000000000000000000000000000000000000000000000000000007bffffffffffffffffffffffffffffffffffffffffffffffffffffffff1916827bffffffffffffffffffffffffffffffffffffffffffffffffffffffff1916145b806109415750610940826120d1565b5b9050919050565b6060600080546109579061384e565b80601f01602080910402602001604051908101604052809291908181526020018280546109839061384e565b80156109d05780601f106109a5576101008083540402835291602001916109d0565b820191906000526020600020905b8154815290600101906020018083116109b357829003601f168201915b5050505050905090565b60006109e58261213b565b6004600083815260200190815260200160002060009054906101000a900473ffffffffffffffffffffffffffffffffffffffff169050919050565b6000610a2b82610d46565b90508073ffffffffffffffffffffffffffffffffffffffff168373ffffffffffffffffffffffffffffffffffffffff1603610a9b576040517f08c379a0000000000000000000000000000000000000000000000000000000008152600401610a92906138f1565b60405180910390fd5b8073ffffffffffffffffffffffffffffffffffffffff16610aba612186565b73ffffffffffffffffffffffffffffffffffffffff161480610ae95750610ae881610ae3612186565b611e6c565b5b610b28576040517f08c379a0000000000000000000000000000000000000000000000000000000008152600401610b1f90613983565b60405180910390fd5b610b32838361218e565b505050565b600c5481565b60108181548110610b4d57600080fd5b906000526020600020016000915054906101000a900473ffffffffffffffffffffffffffffffffffffffff1681565b610b8d610b87612186565b82612247565b610bcc576040517f08c379a0000000000000000000000000000000000000000000000000000000008152600401610bc390613a15565b60405180910390fd5b6010829080600181540180825580915050600190039060005260206000200160009091909190916101000a81548173ffffffffffffffffffffffffffffffffffffffff021916908373ffffffffffffffffffffffffffffffffffffffff160217905550610c3a8383836122dc565b505050565b600b5481565b610c60838383604051806020016040528060008152506118d8565b505050565b600f60039054906101000a900473ffffffffffffffffffffffffffffffffffffffff1681565b600a60009054906101000a900473ffffffffffffffffffffffffffffffffffffffff1673ffffffffffffffffffffffffffffffffffffffff163373ffffffffffffffffffffffffffffffffffffffff1614610d1b576040517f08c379a0000000000000000000000000000000000000000000000000000000008152600401610d1290613a81565b60405180910390fd5b80600e819055506001600f60026101000a81548160ff02191690831515021790555050565b600d5481565b600080610d52836125d5565b9050600073ffffffffffffffffffffffffffffffffffffffff168173ffffffffffffffffffffffffffffffffffffffff1603610dc3576040517f08c379a0000000000000000000000000000000000000000000000000000000008152600401610dba90613aed565b60405180910390fd5b80915050919050565b60116020528060005260406000206000915090505481565b600a60009054906101000a900473ffffffffffffffffffffffffffffffffffffffff1673ffffffffffffffffffffffffffffffffffffffff163373ffffffffffffffffffffffffffffffffffffffff1614610e74576040517f08c379a0000000000000000000000000000000000000000000000000000000008152600401610e6b90613a81565b60405180910390fd5b8060098190555050565b60008073ffffffffffffffffffffffffffffffffffffffff168273ffffffffffffffffffffffffffffffffffffffff1603610eee576040517f08c379a0000000000000000000000000000000000000000000000000000000008152600401610ee590613b7f565b60405180910390fd5b600360008373ffffffffffffffffffffffffffffffffffffffff1673ffffffffffffffffffffffffffffffffffffffff168152602001908152602001600020549050919050565b600a60009054906101000a900473ffffffffffffffffffffffffffffffffffffffff1673ffffffffffffffffffffffffffffffffffffffff163373ffffffffffffffffffffffffffffffffffffffff1614610fc5576040517f08c379a0000000000000000000000000000000000000000000000000000000008152600401610fbc90613beb565b60405180910390fd5b6001600f60006101000a81548160ff021916908315150217905550565b600f60019054906101000a900460ff1681565b600f60029054906101000a900460ff1681565b600a60009054906101000a900473ffffffffffffffffffffffffffffffffffffffff1673ffffffffffffffffffffffffffffffffffffffff163373ffffffffffffffffffffffffffffffffffffffff1614611098576040517f08c379a000000000000000000000000000000000000000000000000000000000815260040161108f90613a81565b60405180910390fd5b80600a60006101000a81548173ffffffffffffffffffffffffffffffffffffffff021916908373ffffffffffffffffffffffffffffffffffffffff16021790555050565b6060600180546110eb9061384e565b80601f01602080910402602001604051908101604052809291908181526020018280546111179061384e565b80156111645780601f1061113957610100808354040283529160200191611164565b820191906000526020600020905b81548152906001019060200180831161114757829003601f168201915b5050505050905090565b60011515600f60009054906101000a900460ff161515146111c4576040517f08c379a00000000000000000000000000000000000000000000000000000000081526004016111bb90613c57565b60405180910390fd5b600a60009054906101000a900473ffffffffffffffffffffffffffffffffffffffff1673ffffffffffffffffffffffffffffffffffffffff163373ffffffffffffffffffffffffffffffffffffffff1614611254576040517f08c379a000000000000000000000000000000000000000000000000000000000815260040161124b90613a81565b60405180910390fd5b600061125e611f00565b90507f000000000000000000000000000000000000000000000000000000000000000073ffffffffffffffffffffffffffffffffffffffff166369d895756040518163ffffffff1660e01b8152600401600060405180830381600087803b1580156112c857600080fd5b505af11580156112dc573d6000803e3d6000fd5b5050505060005b60108054905081101561139f57600061131583838151811061130857611307613c77565b5b6020026020010151610e7e565b90506000600c54826113279190613cd5565b905083838151811061133c5761133b613c77565b5b602002602001015173ffffffffffffffffffffffffffffffffffffffff166108fc829081150290604051600060405180830381858888f19350505050158015611389573d6000803e3d6000fd5b505050808061139790613d17565b9150506112e3565b5050565b600880546113b09061384e565b80601f01602080910402602001604051908101604052809291908181526020018280546113dc9061384e565b80156114295780601f106113fe57610100808354040283529160200191611429565b820191906000526020600020905b81548152906001019060200180831161140c57829003601f168201915b505050505081565b600a60009054906101000a900473ffffffffffffffffffffffffffffffffffffffff1673ffffffffffffffffffffffffffffffffffffffff163373ffffffffffffffffffffffffffffffffffffffff16146114c1576040517f08c379a00000000000000000000000000000000000000000000000000000000081526004016114b890613dab565b60405180910390fd5b80600890816114d09190613f77565b5050565b6114e66114df612186565b8383612612565b5050565b60078060000154905081565b81600c546115049190613cd5565b341015611546576040517f08c379a000000000000000000000000000000000000000000000000000000000815260040161153d90614095565b60405180910390fd5b600d5482601160003373ffffffffffffffffffffffffffffffffffffffff1673ffffffffffffffffffffffffffffffffffffffff1681526020019081526020016000205461159491906140b5565b11156115d5576040517f08c379a00000000000000000000000000000000000000000000000000000000081526004016115cc90614135565b60405180910390fd5b600954826115e3600761277e565b6115ed91906140b5565b111561162e576040517f08c379a0000000000000000000000000000000000000000000000000000000008152600401611625906141a1565b60405180910390fd5b60001515600f60009054906101000a900460ff1615151480611663575060011515600f60019054906101000a900460ff161515145b6116a2576040517f08c379a00000000000000000000000000000000000000000000000000000000081526004016116999061420d565b60405180910390fd5b81601160003373ffffffffffffffffffffffffffffffffffffffff1673ffffffffffffffffffffffffffffffffffffffff16815260200190815260200160002060008282546116f191906140b5565b925050819055506010339080600181540180825580915050600190039060005260206000200160009091909190916101000a81548173ffffffffffffffffffffffffffffffffffffffff021916908373ffffffffffffffffffffffffffffffffffffffff16021790555060005b828110156117a657611770600761278c565b600061177c600761277e565b905061178833826127a2565b61179281846129bf565b50808061179e90613d17565b91505061175e565b507f000000000000000000000000000000000000000000000000000000000000000073ffffffffffffffffffffffffffffffffffffffff166108fc349081150290604051600060405180830381858888f1935050505015801561180d573d6000803e3d6000fd5b50600f60039054906101000a900473ffffffffffffffffffffffffffffffffffffffff1673ffffffffffffffffffffffffffffffffffffffff1663c4e8dac5306040518263ffffffff1660e01b81526004016118699190613264565b600060405180830381600087803b15801561188357600080fd5b505af1158015611897573d6000803e3d6000fd5b505050507fe11731cb4f1eb3ec3dd09bdc96809bb07365f4c881cda3192b397a4bc0b6da4033836040516118cc92919061422d565b60405180910390a15050565b6118e96118e3612186565b83612247565b611928576040517f08c379a000000000000000000000000000000000000000000000000000000000815260040161191f90613a15565b60405180910390fd5b61193484848484612a2c565b50505050565b600e5481565b600f60009054906101000a900460ff1681565b606061195e8261213b565b600060066000848152602001908152602001600020805461197e9061384e565b80601f01602080910402602001604051908101604052809291908181526020018280546119aa9061384e565b80156119f75780601f106119cc576101008083540402835291602001916119f7565b820191906000526020600020905b8154815290600101906020018083116119da57829003601f168201915b505050505090506000611a08612a88565b90506000815103611a1d578192505050611a60565b600082511115611a52578082604051602001611a3a929190614292565b60405160208183030381529060405292505050611a60565b611a5b84612a9f565b925050505b919050565b60095481565b60011515600f60029054906101000a900460ff16151514611ac1576040517f08c379a0000000000000000000000000000000000000000000000000000000008152600401611ab890614302565b60405180910390fd5b6000601160003373ffffffffffffffffffffffffffffffffffffffff1673ffffffffffffffffffffffffffffffffffffffff1681526020019081526020016000205490506000600c5482611b159190613cd5565b90506000601160003373ffffffffffffffffffffffffffffffffffffffff1673ffffffffffffffffffffffffffffffffffffffff168152602001908152602001600020819055507f000000000000000000000000000000000000000000000000000000000000000073ffffffffffffffffffffffffffffffffffffffff1663a99c20a3826040518263ffffffff1660e01b8152600401611bb591906132fa565b600060405180830381600087803b158015611bcf57600080fd5b505af1158015611be3573d6000803e3d6000fd5b505050505050565b60001515600f60009054906101000a900460ff16151514611c41576040517f08c379a0000000000000000000000000000000000000000000000000000000008152600401611c389061436e565b60405180910390fd5b42600e5411611c85576040517f08c379a0000000000000000000000000000000000000000000000000000000008152600401611c7c906143da565b60405180910390fd5b6001600f60016101000a81548160ff0219169083151502179055507f000000000000000000000000000000000000000000000000000000000000000073ffffffffffffffffffffffffffffffffffffffff166369d895756040518163ffffffff1660e01b8152600401600060405180830381600087803b158015611d0857600080fd5b505af1158015611d1c573d6000803e3d6000fd5b505050506000600b5447611d309190614429565b9050600a60009054906101000a900473ffffffffffffffffffffffffffffffffffffffff1673ffffffffffffffffffffffffffffffffffffffff166108fc829081150290604051600060405180830381858888f19350505050158015611d9a573d6000803e3d6000fd5b507f000000000000000000000000000000000000000000000000000000000000000073ffffffffffffffffffffffffffffffffffffffff166108fc829081150290604051600060405180830381858888f19350505050158015611e01573d6000803e3d6000fd5b507f000000000000000000000000000000000000000000000000000000000000000073ffffffffffffffffffffffffffffffffffffffff166108fc479081150290604051600060405180830381858888f19350505050158015611e68573d6000803e3d6000fd5b5050565b6000600560008473ffffffffffffffffffffffffffffffffffffffff1673ffffffffffffffffffffffffffffffffffffffff16815260200190815260200160002060008373ffffffffffffffffffffffffffffffffffffffff1673ffffffffffffffffffffffffffffffffffffffff16815260200190815260200160002060009054906101000a900460ff16905092915050565b6060600a60009054906101000a900473ffffffffffffffffffffffffffffffffffffffff1673ffffffffffffffffffffffffffffffffffffffff163373ffffffffffffffffffffffffffffffffffffffff1614611f92576040517f08c379a0000000000000000000000000000000000000000000000000000000008152600401611f8990613dab565b60405180910390fd5b600060108054905067ffffffffffffffff811115611fb357611fb261339f565b5b604051908082528060200260200182016040528015611fe15781602001602082028036833780820191505090505b5090506000805b6010805490508110156120a2576010818154811061200957612008613c77565b5b9060005260206000200160009054906101000a900473ffffffffffffffffffffffffffffffffffffffff1683838151811061204757612046613c77565b5b602002602001019073ffffffffffffffffffffffffffffffffffffffff16908173ffffffffffffffffffffffffffffffffffffffff1681525050818061208c90613d17565b925050808061209a90613d17565b915050611fe8565b50819250505090565b600a60009054906101000a900473ffffffffffffffffffffffffffffffffffffffff1681565b60007f01ffc9a7000000000000000000000000000000000000000000000000000000007bffffffffffffffffffffffffffffffffffffffffffffffffffffffff1916827bffffffffffffffffffffffffffffffffffffffffffffffffffffffff1916149050919050565b61214481612b07565b612183576040517f08c379a000000000000000000000000000000000000000000000000000000000815260040161217a90613aed565b60405180910390fd5b50565b600033905090565b816004600083815260200190815260200160002060006101000a81548173ffffffffffffffffffffffffffffffffffffffff021916908373ffffffffffffffffffffffffffffffffffffffff160217905550808273ffffffffffffffffffffffffffffffffffffffff1661220183610d46565b73ffffffffffffffffffffffffffffffffffffffff167f8c5be1e5ebec7d5bd14f71427d1e84f3dd0314c0f7b2291e5b200ac8c7c3b92560405160405180910390a45050565b60008061225383610d46565b90508073ffffffffffffffffffffffffffffffffffffffff168473ffffffffffffffffffffffffffffffffffffffff16148061229557506122948185611e6c565b5b806122d357508373ffffffffffffffffffffffffffffffffffffffff166122bb846109da565b73ffffffffffffffffffffffffffffffffffffffff16145b91505092915050565b8273ffffffffffffffffffffffffffffffffffffffff166122fc82610d46565b73ffffffffffffffffffffffffffffffffffffffff1614612352576040517f08c379a0000000000000000000000000000000000000000000000000000000008152600401612349906144cc565b60405180910390fd5b600073ffffffffffffffffffffffffffffffffffffffff168273ffffffffffffffffffffffffffffffffffffffff16036123c1576040517f08c379a00000000000000000000000000000000000000000000000000000000081526004016123b89061455e565b60405180910390fd5b6123ce8383836001612b48565b8273ffffffffffffffffffffffffffffffffffffffff166123ee82610d46565b73ffffffffffffffffffffffffffffffffffffffff1614612444576040517f08c379a000000000000000000000000000000000000000000000000000000000815260040161243b906144cc565b60405180910390fd5b6004600082815260200190815260200160002060006101000a81549073ffffffffffffffffffffffffffffffffffffffff02191690556001600360008573ffffffffffffffffffffffffffffffffffffffff1673ffffffffffffffffffffffffffffffffffffffff168152602001908152602001600020600082825403925050819055506001600360008473ffffffffffffffffffffffffffffffffffffffff1673ffffffffffffffffffffffffffffffffffffffff16815260200190815260200160002060008282540192505081905550816002600083815260200190815260200160002060006101000a81548173ffffffffffffffffffffffffffffffffffffffff021916908373ffffffffffffffffffffffffffffffffffffffff160217905550808273ffffffffffffffffffffffffffffffffffffffff168473ffffffffffffffffffffffffffffffffffffffff167fddf252ad1be2c89b69c2b068fc378daa952ba7f163c4a11628f55a4df523b3ef60405160405180910390a46125d08383836001612c6e565b505050565b60006002600083815260200190815260200160002060009054906101000a900473ffffffffffffffffffffffffffffffffffffffff169050919050565b8173ffffffffffffffffffffffffffffffffffffffff168373ffffffffffffffffffffffffffffffffffffffff1603612680576040517f08c379a0000000000000000000000000000000000000000000000000000000008152600401612677906145ca565b60405180910390fd5b80600560008573ffffffffffffffffffffffffffffffffffffffff1673ffffffffffffffffffffffffffffffffffffffff16815260200190815260200160002060008473ffffffffffffffffffffffffffffffffffffffff1673ffffffffffffffffffffffffffffffffffffffff16815260200190815260200160002060006101000a81548160ff0219169083151502179055508173ffffffffffffffffffffffffffffffffffffffff168373ffffffffffffffffffffffffffffffffffffffff167f17307eab39ab6107e8899845ad3d59bd9653f200f220920489ca2b5937696c318360405161277191906130f3565b60405180910390a3505050565b600081600001549050919050565b6001816000016000828254019250508190555050565b600073ffffffffffffffffffffffffffffffffffffffff168273ffffffffffffffffffffffffffffffffffffffff1603612811576040517f08c379a000000000000000000000000000000000000000000000000000000000815260040161280890614636565b60405180910390fd5b61281a81612b07565b1561285a576040517f08c379a0000000000000000000000000000000000000000000000000000000008152600401612851906146a2565b60405180910390fd5b612868600083836001612b48565b61287181612b07565b156128b1576040517f08c379a00000000000000000000000000000000000000000000000000000000081526004016128a8906146a2565b60405180910390fd5b6001600360008473ffffffffffffffffffffffffffffffffffffffff1673ffffffffffffffffffffffffffffffffffffffff16815260200190815260200160002060008282540192505081905550816002600083815260200190815260200160002060006101000a81548173ffffffffffffffffffffffffffffffffffffffff021916908373ffffffffffffffffffffffffffffffffffffffff160217905550808273ffffffffffffffffffffffffffffffffffffffff16600073ffffffffffffffffffffffffffffffffffffffff167fddf252ad1be2c89b69c2b068fc378daa952ba7f163c4a11628f55a4df523b3ef60405160405180910390a46129bb600083836001612c6e565b5050565b6129c882612b07565b612a07576040517f08c379a00000000000000000000000000000000000000000000000000000000081526004016129fe90614734565b60405180910390fd5b80600660008481526020019081526020016000209081612a279190613f77565b505050565b612a378484846122dc565b612a4384848484612c74565b612a82576040517f08c379a0000000000000000000000000000000000000000000000000000000008152600401612a79906147c6565b60405180910390fd5b50505050565b606060405180602001604052806000815250905090565b6060612aaa8261213b565b6000612ab4612a88565b90506000815111612ad45760405180602001604052806000815250612aff565b80612ade84612dfb565b604051602001612aef929190614292565b6040516020818303038152906040525b915050919050565b60008073ffffffffffffffffffffffffffffffffffffffff16612b29836125d5565b73ffffffffffffffffffffffffffffffffffffffff1614159050919050565b6001811115612c6857600073ffffffffffffffffffffffffffffffffffffffff168473ffffffffffffffffffffffffffffffffffffffff1614612bdc5780600360008673ffffffffffffffffffffffffffffffffffffffff1673ffffffffffffffffffffffffffffffffffffffff1681526020019081526020016000206000828254612bd491906147e6565b925050819055505b600073ffffffffffffffffffffffffffffffffffffffff168373ffffffffffffffffffffffffffffffffffffffff1614612c675780600360008573ffffffffffffffffffffffffffffffffffffffff1673ffffffffffffffffffffffffffffffffffffffff1681526020019081526020016000206000828254612c5f91906140b5565b925050819055505b5b50505050565b50505050565b6000612c958473ffffffffffffffffffffffffffffffffffffffff16612ec9565b15612dee578373ffffffffffffffffffffffffffffffffffffffff1663150b7a02612cbe612186565b8786866040518563ffffffff1660e01b8152600401612ce0949392919061486f565b6020604051808303816000875af1925050508015612d1c57506040513d601f19601f82011682018060405250810190612d1991906148d0565b60015b612d9e573d8060008114612d4c576040519150601f19603f3d011682016040523d82523d6000602084013e612d51565b606091505b506000815103612d96576040517f08c379a0000000000000000000000000000000000000000000000000000000008152600401612d8d906147c6565b60405180910390fd5b805181602001fd5b63150b7a0260e01b7bffffffffffffffffffffffffffffffffffffffffffffffffffffffff1916817bffffffffffffffffffffffffffffffffffffffffffffffffffffffff191614915050612df3565b600190505b949350505050565b606060006001612e0a84612eec565b01905060008167ffffffffffffffff811115612e2957612e2861339f565b5b6040519080825280601f01601f191660200182016040528015612e5b5781602001600182028036833780820191505090505b509050600082602001820190505b600115612ebe578080600190039150507f3031323334353637383961626364656600000000000000000000000000000000600a86061a8153600a8581612eb257612eb16143fa565b5b04945060008503612e69575b819350505050919050565b6000808273ffffffffffffffffffffffffffffffffffffffff163b119050919050565b600080600090507a184f03e93ff9f4daa797ed6e38ed64bf6a1f0100000000000000008310612f4a577a184f03e93ff9f4daa797ed6e38ed64bf6a1f0100000000000000008381612f4057612f3f6143fa565b5b0492506040810190505b6d04ee2d6d415b85acef81000000008310612f87576d04ee2d6d415b85acef81000000008381612f7d57612f7c6143fa565b5b0492506020810190505b662386f26fc100008310612fb657662386f26fc100008381612fac57612fab6143fa565b5b0492506010810190505b6305f5e1008310612fdf576305f5e1008381612fd557612fd46143fa565b5b0492506008810190505b6127108310613004576127108381612ffa57612ff96143fa565b5b0492506004810190505b60648310613027576064838161301d5761301c6143fa565b5b0492506002810190505b600a8310613036576001810190505b80915050919050565b6000604051905090565b600080fd5b600080fd5b60007fffffffff0000000000000000000000000000000000000000000000000000000082169050919050565b61308881613053565b811461309357600080fd5b50565b6000813590506130a58161307f565b92915050565b6000602082840312156130c1576130c0613049565b5b60006130cf84828501613096565b91505092915050565b60008115159050919050565b6130ed816130d8565b82525050565b600060208201905061310860008301846130e4565b92915050565b600081519050919050565b600082825260208201905092915050565b60005b8381101561314857808201518184015260208101905061312d565b60008484015250505050565b6000601f19601f8301169050919050565b60006131708261310e565b61317a8185613119565b935061318a81856020860161312a565b61319381613154565b840191505092915050565b600060208201905081810360008301526131b88184613165565b905092915050565b6000819050919050565b6131d3816131c0565b81146131de57600080fd5b50565b6000813590506131f0816131ca565b92915050565b60006020828403121561320c5761320b613049565b5b600061321a848285016131e1565b91505092915050565b600073ffffffffffffffffffffffffffffffffffffffff82169050919050565b600061324e82613223565b9050919050565b61325e81613243565b82525050565b60006020820190506132796000830184613255565b92915050565b61328881613243565b811461329357600080fd5b50565b6000813590506132a58161327f565b92915050565b600080604083850312156132c2576132c1613049565b5b60006132d085828601613296565b92505060206132e1858286016131e1565b9150509250929050565b6132f4816131c0565b82525050565b600060208201905061330f60008301846132eb565b92915050565b60008060006060848603121561332e5761332d613049565b5b600061333c86828701613296565b935050602061334d86828701613296565b925050604061335e868287016131e1565b9150509250925092565b60006020828403121561337e5761337d613049565b5b600061338c84828501613296565b91505092915050565b600080fd5b600080fd5b7f4e487b7100000000000000000000000000000000000000000000000000000000600052604160045260246000fd5b6133d782613154565b810181811067ffffffffffffffff821117156133f6576133f561339f565b5b80604052505050565b600061340961303f565b905061341582826133ce565b919050565b600067ffffffffffffffff8211156134355761343461339f565b5b61343e82613154565b9050602081019050919050565b82818337600083830152505050565b600061346d6134688461341a565b6133ff565b9050828152602081018484840111156134895761348861339a565b5b61349484828561344b565b509392505050565b600082601f8301126134b1576134b0613395565b5b81356134c184826020860161345a565b91505092915050565b6000602082840312156134e0576134df613049565b5b600082013567ffffffffffffffff8111156134fe576134fd61304e565b5b61350a8482850161349c565b91505092915050565b61351c816130d8565b811461352757600080fd5b50565b60008135905061353981613513565b92915050565b6000806040838503121561355657613555613049565b5b600061356485828601613296565b92505060206135758582860161352a565b9150509250929050565b6000806040838503121561359657613595613049565b5b60006135a4858286016131e1565b925050602083013567ffffffffffffffff8111156135c5576135c461304e565b5b6135d18582860161349c565b9150509250929050565b600067ffffffffffffffff8211156135f6576135f561339f565b5b6135ff82613154565b9050602081019050919050565b600061361f61361a846135db565b6133ff565b90508281526020810184848401111561363b5761363a61339a565b5b61364684828561344b565b509392505050565b600082601f83011261366357613662613395565b5b813561367384826020860161360c565b91505092915050565b6000806000806080858703121561369657613695613049565b5b60006136a487828801613296565b94505060206136b587828801613296565b93505060406136c6878288016131e1565b925050606085013567ffffffffffffffff8111156136e7576136e661304e565b5b6136f38782880161364e565b91505092959194509250565b6000806040838503121561371657613715613049565b5b600061372485828601613296565b925050602061373585828601613296565b9150509250929050565b600081519050919050565b600082825260208201905092915050565b6000819050602082019050919050565b61377481613243565b82525050565b6000613786838361376b565b60208301905092915050565b6000602082019050919050565b60006137aa8261373f565b6137b4818561374a565b93506137bf8361375b565b8060005b838110156137f05781516137d7888261377a565b97506137e283613792565b9250506001810190506137c3565b5085935050505092915050565b60006020820190508181036000830152613817818461379f565b905092915050565b7f4e487b7100000000000000000000000000000000000000000000000000000000600052602260045260246000fd5b6000600282049050600182168061386657607f821691505b6020821081036138795761387861381f565b5b50919050565b7f4552433732313a20617070726f76616c20746f2063757272656e74206f776e6560008201527f7200000000000000000000000000000000000000000000000000000000000000602082015250565b60006138db602183613119565b91506138e68261387f565b604082019050919050565b6000602082019050818103600083015261390a816138ce565b9050919050565b7f4552433732313a20617070726f76652063616c6c6572206973206e6f7420746f60008201527f6b656e206f776e6572206f7220617070726f76656420666f7220616c6c000000602082015250565b600061396d603d83613119565b915061397882613911565b604082019050919050565b6000602082019050818103600083015261399c81613960565b9050919050565b7f4552433732313a2063616c6c6572206973206e6f7420746f6b656e206f776e6560008201527f72206f7220617070726f76656400000000000000000000000000000000000000602082015250565b60006139ff602d83613119565b9150613a0a826139a3565b604082019050919050565b60006020820190508181036000830152613a2e816139f2565b9050919050565b7f6f6e6c792061646d696e00000000000000000000000000000000000000000000600082015250565b6000613a6b600a83613119565b9150613a7682613a35565b602082019050919050565b60006020820190508181036000830152613a9a81613a5e565b9050919050565b7f4552433732313a20696e76616c696420746f6b656e2049440000000000000000600082015250565b6000613ad7601883613119565b9150613ae282613aa1565b602082019050919050565b60006020820190508181036000830152613b0681613aca565b9050919050565b7f4552433732313a2061646472657373207a65726f206973206e6f74206120766160008201527f6c6964206f776e65720000000000000000000000000000000000000000000000602082015250565b6000613b69602983613119565b9150613b7482613b0d565b604082019050919050565b60006020820190508181036000830152613b9881613b5c565b9050919050565b7f6f6e6c7941646d696e0000000000000000000000000000000000000000000000600082015250565b6000613bd5600983613119565b9150613be082613b9f565b602082019050919050565b60006020820190508181036000830152613c0481613bc8565b9050919050565b7f73686f77206e6f742063616e63656c6c65640000000000000000000000000000600082015250565b6000613c41601283613119565b9150613c4c82613c0b565b602082019050919050565b60006020820190508181036000830152613c7081613c34565b9050919050565b7f4e487b7100000000000000000000000000000000000000000000000000000000600052603260045260246000fd5b7f4e487b7100000000000000000000000000000000000000000000000000000000600052601160045260246000fd5b6000613ce0826131c0565b9150613ceb836131c0565b9250828202613cf9816131c0565b91508282048414831517613d1057613d0f613ca6565b5b5092915050565b6000613d22826131c0565b91507fffffffffffffffffffffffffffffffffffffffffffffffffffffffffffffffff8203613d5457613d53613ca6565b5b600182019050919050565b7f6f61000000000000000000000000000000000000000000000000000000000000600082015250565b6000613d95600283613119565b9150613da082613d5f565b602082019050919050565b60006020820190508181036000830152613dc481613d88565b9050919050565b60008190508160005260206000209050919050565b60006020601f8301049050919050565b600082821b905092915050565b600060088302613e2d7fffffffffffffffffffffffffffffffffffffffffffffffffffffffffffffffff82613df0565b613e378683613df0565b95508019841693508086168417925050509392505050565b6000819050919050565b6000613e74613e6f613e6a846131c0565b613e4f565b6131c0565b9050919050565b6000819050919050565b613e8e83613e59565b613ea2613e9a82613e7b565b848454613dfd565b825550505050565b600090565b613eb7613eaa565b613ec2818484613e85565b505050565b5b81811015613ee657613edb600082613eaf565b600181019050613ec8565b5050565b601f821115613f2b57613efc81613dcb565b613f0584613de0565b81016020851015613f14578190505b613f28613f2085613de0565b830182613ec7565b50505b505050565b600082821c905092915050565b6000613f4e60001984600802613f30565b1980831691505092915050565b6000613f678383613f3d565b9150826002028217905092915050565b613f808261310e565b67ffffffffffffffff811115613f9957613f9861339f565b5b613fa3825461384e565b613fae828285613eea565b600060209050601f831160018114613fe15760008415613fcf578287015190505b613fd98582613f5b565b865550614041565b601f198416613fef86613dcb565b60005b8281101561401757848901518255600182019150602085019450602081019050613ff2565b868310156140345784890151614030601f891682613f3d565b8355505b6001600288020188555050505b505050505050565b7f7061790000000000000000000000000000000000000000000000000000000000600082015250565b600061407f600383613119565b915061408a82614049565b602082019050919050565b600060208201905081810360008301526140ae81614072565b9050919050565b60006140c0826131c0565b91506140cb836131c0565b92508282019050808211156140e3576140e2613ca6565b5b92915050565b7f6d61782074697800000000000000000000000000000000000000000000000000600082015250565b600061411f600783613119565b915061412a826140e9565b602082019050919050565b6000602082019050818103600083015261414e81614112565b9050919050565b7f736f6c64206f7574000000000000000000000000000000000000000000000000600082015250565b600061418b600883613119565b915061419682614155565b602082019050919050565b600060208201905081810360008301526141ba8161417e565b9050919050565b7f73686f77206973206e6f74206f70656e00000000000000000000000000000000600082015250565b60006141f7601083613119565b9150614202826141c1565b602082019050919050565b60006020820190508181036000830152614226816141ea565b9050919050565b60006040820190506142426000830185613255565b61424f60208301846132eb565b9392505050565b600081905092915050565b600061426c8261310e565b6142768185614256565b935061428681856020860161312a565b80840191505092915050565b600061429e8285614261565b91506142aa8284614261565b91508190509392505050565b7f6e6f742072657363686564756c65640000000000000000000000000000000000600082015250565b60006142ec600f83613119565b91506142f7826142b6565b602082019050919050565b6000602082019050818103600083015261431b816142df565b9050919050565b7f73686f77206e6f7420636f6d706c657465640000000000000000000000000000600082015250565b6000614358601283613119565b915061436382614322565b602082019050919050565b600060208201905081810360008301526143878161434b565b9050919050565b7f73686f77206e6f74206f76657200000000000000000000000000000000000000600082015250565b60006143c4600d83613119565b91506143cf8261438e565b602082019050919050565b600060208201905081810360008301526143f3816143b7565b9050919050565b7f4e487b7100000000000000000000000000000000000000000000000000000000600052601260045260246000fd5b6000614434826131c0565b915061443f836131c0565b92508261444f5761444e6143fa565b5b828204905092915050565b7f4552433732313a207472616e736665722066726f6d20696e636f72726563742060008201527f6f776e6572000000000000000000000000000000000000000000000000000000602082015250565b60006144b6602583613119565b91506144c18261445a565b604082019050919050565b600060208201905081810360008301526144e5816144a9565b9050919050565b7f4552433732313a207472616e7366657220746f20746865207a65726f2061646460008201527f7265737300000000000000000000000000000000000000000000000000000000602082015250565b6000614548602483613119565b9150614553826144ec565b604082019050919050565b600060208201905081810360008301526145778161453b565b9050919050565b7f4552433732313a20617070726f766520746f2063616c6c657200000000000000600082015250565b60006145b4601983613119565b91506145bf8261457e565b602082019050919050565b600060208201905081810360008301526145e3816145a7565b9050919050565b7f4552433732313a206d696e7420746f20746865207a65726f2061646472657373600082015250565b6000614620602083613119565b915061462b826145ea565b602082019050919050565b6000602082019050818103600083015261464f81614613565b9050919050565b7f4552433732313a20746f6b656e20616c7265616479206d696e74656400000000600082015250565b600061468c601c83613119565b915061469782614656565b602082019050919050565b600060208201905081810360008301526146bb8161467f565b9050919050565b7f45524337323155524953746f726167653a2055524920736574206f66206e6f6e60008201527f6578697374656e7420746f6b656e000000000000000000000000000000000000602082015250565b600061471e602e83613119565b9150614729826146c2565b604082019050919050565b6000602082019050818103600083015261474d81614711565b9050919050565b7f4552433732313a207472616e7366657220746f206e6f6e20455243373231526560008201527f63656976657220696d706c656d656e7465720000000000000000000000000000602082015250565b60006147b0603283613119565b91506147bb82614754565b604082019050919050565b600060208201905081810360008301526147df816147a3565b9050919050565b60006147f1826131c0565b91506147fc836131c0565b925082820390508181111561481457614813613ca6565b5b92915050565b600081519050919050565b600082825260208201905092915050565b60006148418261481a565b61484b8185614825565b935061485b81856020860161312a565b61486481613154565b840191505092915050565b60006080820190506148846000830187613255565b6148916020830186613255565b61489e60408301856132eb565b81810360608301526148b08184614836565b905095945050505050565b6000815190506148ca8161307f565b92915050565b6000602082840312156148e6576148e5613049565b5b60006148f4848285016148bb565b9150509291505056fea26469706673582212207c5ace81695a1ebbb1df8632bf60128644a52df72bcc4ca99c73af1ab132827264736f6c63430008110033",
  "linkReferences": {},
  "deployedLinkReferences": {}
}