{
    "_format": "hh-sol-artifact-1",
    "contractName": "CheckTix",
    "sourceName": "contracts/checktix/CheckTix.sol",
    "abi": [
        {
            "inputs": [
                {
                    "internalType": "address",
                    "name": "_showAdd",
                    "type": "address"
                }
            ],
            "stateMutability": "nonpayable",
            "type": "constructor"
        },
        {
            "inputs": [
                {
                    "internalType": "address",
                    "name": "newValidator",
                    "type": "address"
                }
            ],
            "name": "changeValidator",
            "outputs": [],
            "stateMutability": "nonpayable",
            "type": "function"
        },
        {
            "inputs": [
                {
                    "internalType": "uint256",
                    "name": "nftNumber",
                    "type": "uint256"
                }
            ],
            "name": "checkInNft",
            "outputs": [
                {
                    "internalType": "bool",
                    "name": "",
                    "type": "bool"
                }
            ],
            "stateMutability": "nonpayable",
            "type": "function"
        },
        {
            "inputs": [
                {
                    "internalType": "uint256",
                    "name": "",
                    "type": "uint256"
                }
            ],
            "name": "checkedIn",
            "outputs": [
                {
                    "internalType": "bool",
                    "name": "",
                    "type": "bool"
                }
            ],
            "stateMutability": "view",
            "type": "function"
        },
        {
            "inputs": [],
            "name": "ticketContract",
            "outputs": [
                {
                    "internalType": "address",
                    "name": "",
                    "type": "address"
                }
            ],
            "stateMutability": "view",
            "type": "function"
        },
        {
            "inputs": [],
            "name": "validator",
            "outputs": [
                {
                    "internalType": "address",
                    "name": "",
                    "type": "address"
                }
            ],
            "stateMutability": "view",
            "type": "function"
        },
        {
            "inputs": [
                {
                    "internalType": "uint256",
                    "name": "nftNum",
                    "type": "uint256"
                }
            ],
            "name": "viewCheckedIn",
            "outputs": [
                {
                    "internalType": "bool",
                    "name": "",
                    "type": "bool"
                }
            ],
            "stateMutability": "view",
            "type": "function"
        },
        {
            "stateMutability": "payable",
            "type": "receive"
        }
    ],
    "bytecode": "0x608060405234801561001057600080fd5b506040516109e43803806109e48339818101604052810190610032919061011c565b80600160006101000a81548173ffffffffffffffffffffffffffffffffffffffff021916908373ffffffffffffffffffffffffffffffffffffffff160217905550336000806101000a81548173ffffffffffffffffffffffffffffffffffffffff021916908373ffffffffffffffffffffffffffffffffffffffff16021790555050610149565b600080fd5b600073ffffffffffffffffffffffffffffffffffffffff82169050919050565b60006100e9826100be565b9050919050565b6100f9816100de565b811461010457600080fd5b50565b600081519050610116816100f0565b92915050565b600060208284031215610132576101316100b9565b5b600061014084828501610107565b91505092915050565b61088c806101586000396000f3fe6080604052600436106100595760003560e01c806302086596146100655780633a5381b5146100a25780634e23ec79146100cd57806358a86e1d1461010a57806364162e8f14610135578063f6abfc761461017257610060565b3661006057005b600080fd5b34801561007157600080fd5b5061008c6004803603810190610087919061053b565b61019b565b6040516100999190610583565b60405180910390f35b3480156100ae57600080fd5b506100b76101bb565b6040516100c491906105df565b60405180910390f35b3480156100d957600080fd5b506100f460048036038101906100ef919061053b565b6101df565b6040516101019190610583565b60405180910390f35b34801561011657600080fd5b5061011f610209565b60405161012c91906105df565b60405180910390f35b34801561014157600080fd5b5061015c6004803603810190610157919061053b565b61022f565b6040516101699190610583565b60405180910390f35b34801561017e57600080fd5b5061019960048036038101906101949190610626565b61042f565b005b60026020528060005260406000206000915054906101000a900460ff1681565b60008054906101000a900473ffffffffffffffffffffffffffffffffffffffff1681565b60006002600083815260200190815260200160002060009054906101000a900460ff169050919050565b600160009054906101000a900473ffffffffffffffffffffffffffffffffffffffff1681565b60008060009054906101000a900473ffffffffffffffffffffffffffffffffffffffff1673ffffffffffffffffffffffffffffffffffffffff163373ffffffffffffffffffffffffffffffffffffffff16146102c0576040517f08c379a00000000000000000000000000000000000000000000000000000000081526004016102b7906106b0565b60405180910390fd5b600015156002600084815260200190815260200160002060009054906101000a900460ff16151514610327576040517f08c379a000000000000000000000000000000000000000000000000000000000815260040161031e9061071c565b60405180910390fd5b600160009054906101000a900473ffffffffffffffffffffffffffffffffffffffff1673ffffffffffffffffffffffffffffffffffffffff1663907bff846040518163ffffffff1660e01b8152600401602060405180830381865afa158015610394573d6000803e3d6000fd5b505050506040513d601f19601f820116820180604052508101906103b89190610751565b8211156103fa576040517f08c379a00000000000000000000000000000000000000000000000000000000081526004016103f1906107ca565b60405180910390fd5b60016002600084815260200190815260200160002060006101000a81548160ff02191690831515021790555060019050919050565b60008054906101000a900473ffffffffffffffffffffffffffffffffffffffff1673ffffffffffffffffffffffffffffffffffffffff163373ffffffffffffffffffffffffffffffffffffffff16146104bd576040517f08c379a00000000000000000000000000000000000000000000000000000000081526004016104b490610836565b60405180910390fd5b806000806101000a81548173ffffffffffffffffffffffffffffffffffffffff021916908373ffffffffffffffffffffffffffffffffffffffff16021790555050565b600080fd5b6000819050919050565b61051881610505565b811461052357600080fd5b50565b6000813590506105358161050f565b92915050565b60006020828403121561055157610550610500565b5b600061055f84828501610526565b91505092915050565b60008115159050919050565b61057d81610568565b82525050565b60006020820190506105986000830184610574565b92915050565b600073ffffffffffffffffffffffffffffffffffffffff82169050919050565b60006105c98261059e565b9050919050565b6105d9816105be565b82525050565b60006020820190506105f460008301846105d0565b92915050565b610603816105be565b811461060e57600080fd5b50565b600081359050610620816105fa565b92915050565b60006020828403121561063c5761063b610500565b5b600061064a84828501610611565b91505092915050565b600082825260208201905092915050565b7f76616c696461746f720000000000000000000000000000000000000000000000600082015250565b600061069a600983610653565b91506106a582610664565b602082019050919050565b600060208201905081810360008301526106c98161068d565b9050919050565b7f616c726561647920636865636b656420696e0000000000000000000000000000600082015250565b6000610706601283610653565b9150610711826106d0565b602082019050919050565b60006020820190508181036000830152610735816106f9565b9050919050565b60008151905061074b8161050f565b92915050565b60006020828403121561076757610766610500565b5b60006107758482850161073c565b91505092915050565b7f7469636b657420646f6573206e6f742065786973740000000000000000000000600082015250565b60006107b4601583610653565b91506107bf8261077e565b602082019050919050565b600060208201905081810360008301526107e3816107a7565b9050919050565b7f6f6e6c792076616c696461746f72000000000000000000000000000000000000600082015250565b6000610820600e83610653565b915061082b826107ea565b602082019050919050565b6000602082019050818103600083015261084f81610813565b905091905056fea264697066735822122009026ee535bd906652e550cb87ff33294e0753490942feeb43f0839ce18a091d64736f6c63430008110033",
    "linkReferences": {},
    "deployedLinkReferences": {}
}