{
  "_format": "hh-sol-artifact-1",
  "contractName": "ControlShow",
  "sourceName": "contracts/ControlShow.sol",
  "abi": [
    {
      "inputs": [
        {
          "internalType": "uint256",
          "name": "_showNumber",
          "type": "uint256"
        },
        {
          "internalType": "address",
          "name": "_band",
          "type": "address"
        },
        {
          "internalType": "address",
          "name": "_venue",
          "type": "address"
        }
      ],
      "stateMutability": "nonpayable",
      "type": "constructor"
    },
    {
      "inputs": [],
      "name": "completeShow",
      "outputs": [],
      "stateMutability": "nonpayable",
      "type": "function"
    },
    {
      "inputs": [],
      "name": "refundShow",
      "outputs": [],
      "stateMutability": "nonpayable",
      "type": "function"
    },
    {
      "inputs": [
        {
          "internalType": "uint256",
          "name": "newShowDate",
          "type": "uint256"
        }
      ],
      "name": "rescheduleShow",
      "outputs": [],
      "stateMutability": "nonpayable",
      "type": "function"
    },
    {
      "inputs": [
        {
          "internalType": "string",
          "name": "_baseUri",
          "type": "string"
        }
      ],
      "name": "setNewBaseUri",
      "outputs": [],
      "stateMutability": "nonpayable",
      "type": "function"
    },
    {
      "inputs": [
        {
          "internalType": "uint256",
          "name": "newMaxSup",
          "type": "uint256"
        }
      ],
      "name": "setNewMaxSupply",
      "outputs": [],
      "stateMutability": "nonpayable",
      "type": "function"
    },
    {
      "inputs": [
        {
          "internalType": "address",
          "name": "_ticketContract",
          "type": "address"
        }
      ],
      "name": "setTicketContract",
      "outputs": [],
      "stateMutability": "nonpayable",
      "type": "function"
    },
    {
      "inputs": [],
      "name": "showCompleted",
      "outputs": [
        {
          "internalType": "bool",
          "name": "",
          "type": "bool"
        }
      ],
      "stateMutability": "view",
      "type": "function"
    },
    {
      "inputs": [],
      "name": "showNumber",
      "outputs": [
        {
          "internalType": "uint256",
          "name": "",
          "type": "uint256"
        }
      ],
      "stateMutability": "view",
      "type": "function"
    },
    {
      "stateMutability": "payable",
      "type": "receive"
    }
  ],
  "bytecode": "0x60e06040523480156200001157600080fd5b506040516200118238038062001182833981810160405281019062000037919062000196565b8260c081815250508173ffffffffffffffffffffffffffffffffffffffff1660808173ffffffffffffffffffffffffffffffffffffffff16815250508073ffffffffffffffffffffffffffffffffffffffff1660a08173ffffffffffffffffffffffffffffffffffffffff168152505033600160006101000a81548173ffffffffffffffffffffffffffffffffffffffff021916908373ffffffffffffffffffffffffffffffffffffffff160217905550505050620001f2565b600080fd5b6000819050919050565b6200010b81620000f6565b81146200011757600080fd5b50565b6000815190506200012b8162000100565b92915050565b600073ffffffffffffffffffffffffffffffffffffffff82169050919050565b60006200015e8262000131565b9050919050565b620001708162000151565b81146200017c57600080fd5b50565b600081519050620001908162000165565b92915050565b600080600060608486031215620001b257620001b1620000f1565b5b6000620001c2868287016200011a565b9350506020620001d5868287016200017f565b9250506040620001e8868287016200017f565b9150509250925092565b60805160a05160c051610f2f62000253600039600061033a01526000818161020a015281816103b3015281816105990152818161078901526109080152600081816101b50152818161035e0152818161054401526108b30152610f2f6000f3fe60806040526004361061007f5760003560e01c8063b7c7d9a71161004e578063b7c7d9a714610121578063c0caa7721461014a578063cb00953f14610173578063efa725f61461018a57610086565b8063501fb35c1461008b57806373b4dba1146100b457806376dad223146100df578063a2a5aa3a1461010a57610086565b3661008657005b600080fd5b34801561009757600080fd5b506100b260048036038101906100ad9190610b7d565b6101b3565b005b3480156100c057600080fd5b506100c9610325565b6040516100d69190610be1565b60405180910390f35b3480156100eb57600080fd5b506100f4610338565b6040516101019190610c15565b60405180910390f35b34801561011657600080fd5b5061011f61035c565b005b34801561012d57600080fd5b5061014860048036038101906101439190610c5c565b610542565b005b34801561015657600080fd5b50610171600480360381019061016c9190610ce7565b6106b4565b005b34801561017f57600080fd5b50610188610787565b005b34801561019657600080fd5b506101b160048036038101906101ac9190610c5c565b6108b1565b005b7f000000000000000000000000000000000000000000000000000000000000000073ffffffffffffffffffffffffffffffffffffffff163373ffffffffffffffffffffffffffffffffffffffff16148061025857507f000000000000000000000000000000000000000000000000000000000000000073ffffffffffffffffffffffffffffffffffffffff163373ffffffffffffffffffffffffffffffffffffffff16145b610297576040517f08c379a000000000000000000000000000000000000000000000000000000000815260040161028e90610d71565b60405180910390fd5b60008054906101000a900473ffffffffffffffffffffffffffffffffffffffff1673ffffffffffffffffffffffffffffffffffffffff1663a0bcfc7f826040518263ffffffff1660e01b81526004016102f09190610dff565b600060405180830381600087803b15801561030a57600080fd5b505af115801561031e573d6000803e3d6000fd5b5050505050565b600160149054906101000a900460ff1681565b7f000000000000000000000000000000000000000000000000000000000000000081565b7f000000000000000000000000000000000000000000000000000000000000000073ffffffffffffffffffffffffffffffffffffffff163373ffffffffffffffffffffffffffffffffffffffff16148061040157507f000000000000000000000000000000000000000000000000000000000000000073ffffffffffffffffffffffffffffffffffffffff163373ffffffffffffffffffffffffffffffffffffffff16145b610440576040517f08c379a000000000000000000000000000000000000000000000000000000000815260040161043790610d71565b60405180910390fd5b60008054906101000a900473ffffffffffffffffffffffffffffffffffffffff1673ffffffffffffffffffffffffffffffffffffffff16637389df8a6040518163ffffffff1660e01b8152600401600060405180830381600087803b1580156104a857600080fd5b505af11580156104bc573d6000803e3d6000fd5b5050505060008054906101000a900473ffffffffffffffffffffffffffffffffffffffff1673ffffffffffffffffffffffffffffffffffffffff166399203d236040518163ffffffff1660e01b8152600401600060405180830381600087803b15801561052857600080fd5b505af115801561053c573d6000803e3d6000fd5b50505050565b7f000000000000000000000000000000000000000000000000000000000000000073ffffffffffffffffffffffffffffffffffffffff163373ffffffffffffffffffffffffffffffffffffffff1614806105e757507f000000000000000000000000000000000000000000000000000000000000000073ffffffffffffffffffffffffffffffffffffffff163373ffffffffffffffffffffffffffffffffffffffff16145b610626576040517f08c379a000000000000000000000000000000000000000000000000000000000815260040161061d90610d71565b60405180910390fd5b60008054906101000a900473ffffffffffffffffffffffffffffffffffffffff1673ffffffffffffffffffffffffffffffffffffffff16636f8b44b0826040518263ffffffff1660e01b815260040161067f9190610c15565b600060405180830381600087803b15801561069957600080fd5b505af11580156106ad573d6000803e3d6000fd5b5050505050565b600160009054906101000a900473ffffffffffffffffffffffffffffffffffffffff1673ffffffffffffffffffffffffffffffffffffffff163373ffffffffffffffffffffffffffffffffffffffff1614610744576040517f08c379a000000000000000000000000000000000000000000000000000000000815260040161073b90610e6d565b60405180910390fd5b806000806101000a81548173ffffffffffffffffffffffffffffffffffffffff021916908373ffffffffffffffffffffffffffffffffffffffff16021790555050565b7f000000000000000000000000000000000000000000000000000000000000000073ffffffffffffffffffffffffffffffffffffffff163373ffffffffffffffffffffffffffffffffffffffff1614610815576040517f08c379a000000000000000000000000000000000000000000000000000000000815260040161080c90610ed9565b60405180910390fd5b60018060146101000a81548160ff02191690831515021790555060008054906101000a900473ffffffffffffffffffffffffffffffffffffffff1673ffffffffffffffffffffffffffffffffffffffff1663e146f7276040518163ffffffff1660e01b8152600401600060405180830381600087803b15801561089757600080fd5b505af11580156108ab573d6000803e3d6000fd5b50505050565b7f000000000000000000000000000000000000000000000000000000000000000073ffffffffffffffffffffffffffffffffffffffff163373ffffffffffffffffffffffffffffffffffffffff16148061095657507f000000000000000000000000000000000000000000000000000000000000000073ffffffffffffffffffffffffffffffffffffffff163373ffffffffffffffffffffffffffffffffffffffff16145b610995576040517f08c379a000000000000000000000000000000000000000000000000000000000815260040161098c90610d71565b60405180910390fd5b60008054906101000a900473ffffffffffffffffffffffffffffffffffffffff1673ffffffffffffffffffffffffffffffffffffffff16635b7646bf826040518263ffffffff1660e01b81526004016109ee9190610c15565b600060405180830381600087803b158015610a0857600080fd5b505af1158015610a1c573d6000803e3d6000fd5b5050505050565b6000604051905090565b600080fd5b600080fd5b600080fd5b600080fd5b6000601f19601f8301169050919050565b7f4e487b7100000000000000000000000000000000000000000000000000000000600052604160045260246000fd5b610a8a82610a41565b810181811067ffffffffffffffff82111715610aa957610aa8610a52565b5b80604052505050565b6000610abc610a23565b9050610ac88282610a81565b919050565b600067ffffffffffffffff821115610ae857610ae7610a52565b5b610af182610a41565b9050602081019050919050565b82818337600083830152505050565b6000610b20610b1b84610acd565b610ab2565b905082815260208101848484011115610b3c57610b3b610a3c565b5b610b47848285610afe565b509392505050565b600082601f830112610b6457610b63610a37565b5b8135610b74848260208601610b0d565b91505092915050565b600060208284031215610b9357610b92610a2d565b5b600082013567ffffffffffffffff811115610bb157610bb0610a32565b5b610bbd84828501610b4f565b91505092915050565b60008115159050919050565b610bdb81610bc6565b82525050565b6000602082019050610bf66000830184610bd2565b92915050565b6000819050919050565b610c0f81610bfc565b82525050565b6000602082019050610c2a6000830184610c06565b92915050565b610c3981610bfc565b8114610c4457600080fd5b50565b600081359050610c5681610c30565b92915050565b600060208284031215610c7257610c71610a2d565b5b6000610c8084828501610c47565b91505092915050565b600073ffffffffffffffffffffffffffffffffffffffff82169050919050565b6000610cb482610c89565b9050919050565b610cc481610ca9565b8114610ccf57600080fd5b50565b600081359050610ce181610cbb565b92915050565b600060208284031215610cfd57610cfc610a2d565b5b6000610d0b84828501610cd2565b91505092915050565b600082825260208201905092915050565b7f6f6e6c792062616e64206f722076656e75650000000000000000000000000000600082015250565b6000610d5b601283610d14565b9150610d6682610d25565b602082019050919050565b60006020820190508181036000830152610d8a81610d4e565b9050919050565b600081519050919050565b60005b83811015610dba578082015181840152602081019050610d9f565b60008484015250505050565b6000610dd182610d91565b610ddb8185610d14565b9350610deb818560208601610d9c565b610df481610a41565b840191505092915050565b60006020820190508181036000830152610e198184610dc6565b905092915050565b7f6f6e6c792063726561746f722063616e2063616c6c0000000000000000000000600082015250565b6000610e57601583610d14565b9150610e6282610e21565b602082019050919050565b60006020820190508181036000830152610e8681610e4a565b9050919050565b7f6f6e6c792076656e756500000000000000000000000000000000000000000000600082015250565b6000610ec3600a83610d14565b9150610ece82610e8d565b602082019050919050565b60006020820190508181036000830152610ef281610eb6565b905091905056fea2646970667358221220c5a3fb86ad746e27f187074188783ea8849c4dda1c97823bba9f9fec3dedfa7164736f6c63430008110033",
  "linkReferences": {},
  "deployedLinkReferences": {}
}