{
  "_format": "hh-sol-artifact-1",
  "contractName": "CreateController",
  "sourceName": "contracts/Initializers/CreateController.sol",
  "abi": [
    {
      "inputs": [
        {
          "internalType": "uint256",
          "name": "showNum",
          "type": "uint256"
        },
        {
          "internalType": "address",
          "name": "_band",
          "type": "address"
        },
        {
          "internalType": "address",
          "name": "_venue",
          "type": "address"
        },
        {
          "internalType": "address",
          "name": "_ticketContract",
          "type": "address"
        }
      ],
      "name": "createController",
      "outputs": [
        {
          "internalType": "address",
          "name": "",
          "type": "address"
        }
      ],
      "stateMutability": "nonpayable",
      "type": "function"
    }
  ],
  "bytecode": "0x608060405234801561001057600080fd5b50610e8a806100206000396000f3fe608060405234801561001057600080fd5b506004361061002b5760003560e01c8063dd5de44d14610030575b600080fd5b61004a600480360381019061004591906101ba565b610060565b6040516100579190610230565b60405180910390f35b60008085858560405161007290610114565b61007e9392919061025a565b604051809103906000f08015801561009a573d6000803e3d6000fd5b5090508073ffffffffffffffffffffffffffffffffffffffff1663c0caa772846040518263ffffffff1660e01b81526004016100d69190610230565b600060405180830381600087803b1580156100f057600080fd5b505af1158015610104573d6000803e3d6000fd5b5050505080915050949350505050565b610bc38061029283390190565b600080fd5b6000819050919050565b61013981610126565b811461014457600080fd5b50565b60008135905061015681610130565b92915050565b600073ffffffffffffffffffffffffffffffffffffffff82169050919050565b60006101878261015c565b9050919050565b6101978161017c565b81146101a257600080fd5b50565b6000813590506101b48161018e565b92915050565b600080600080608085870312156101d4576101d3610121565b5b60006101e287828801610147565b94505060206101f3878288016101a5565b9350506040610204878288016101a5565b9250506060610215878288016101a5565b91505092959194509250565b61022a8161017c565b82525050565b60006020820190506102456000830184610221565b92915050565b61025481610126565b82525050565b600060608201905061026f600083018661024b565b61027c6020830185610221565b6102896040830184610221565b94935050505056fe60e060405234801561001057600080fd5b5060405162000bc338038062000bc383398181016040528101906100349190610186565b8260c081815250508173ffffffffffffffffffffffffffffffffffffffff1660808173ffffffffffffffffffffffffffffffffffffffff16815250508073ffffffffffffffffffffffffffffffffffffffff1660a08173ffffffffffffffffffffffffffffffffffffffff168152505033600160006101000a81548173ffffffffffffffffffffffffffffffffffffffff021916908373ffffffffffffffffffffffffffffffffffffffff1602179055505050506101d9565b600080fd5b6000819050919050565b610105816100f2565b811461011057600080fd5b50565b600081519050610122816100fc565b92915050565b600073ffffffffffffffffffffffffffffffffffffffff82169050919050565b600061015382610128565b9050919050565b61016381610148565b811461016e57600080fd5b50565b6000815190506101808161015a565b92915050565b60008060006060848603121561019f5761019e6100ed565b5b60006101ad86828701610113565b93505060206101be86828701610171565b92505060406101cf86828701610171565b9150509250925092565b60805160a05160c0516109a56200021e60003960006101500152600081816101c90152818161042d01526105ac015260008181610174015261055701526109a56000f3fe6080604052600436106100595760003560e01c806373b4dba11461006557806376dad22314610090578063a2a5aa3a146100bb578063c0caa772146100d2578063cb00953f146100fb578063efa725f61461011257610060565b3661006057005b600080fd5b34801561007157600080fd5b5061007a61013b565b60405161008791906106e2565b60405180910390f35b34801561009c57600080fd5b506100a561014e565b6040516100b29190610716565b60405180910390f35b3480156100c757600080fd5b506100d0610172565b005b3480156100de57600080fd5b506100f960048036038101906100f49190610794565b610358565b005b34801561010757600080fd5b5061011061042b565b005b34801561011e57600080fd5b50610139600480360381019061013491906107ed565b610555565b005b600160149054906101000a900460ff1681565b7f000000000000000000000000000000000000000000000000000000000000000081565b7f000000000000000000000000000000000000000000000000000000000000000073ffffffffffffffffffffffffffffffffffffffff163373ffffffffffffffffffffffffffffffffffffffff16148061021757507f000000000000000000000000000000000000000000000000000000000000000073ffffffffffffffffffffffffffffffffffffffff163373ffffffffffffffffffffffffffffffffffffffff16145b610256576040517f08c379a000000000000000000000000000000000000000000000000000000000815260040161024d90610877565b60405180910390fd5b60008054906101000a900473ffffffffffffffffffffffffffffffffffffffff1673ffffffffffffffffffffffffffffffffffffffff16637389df8a6040518163ffffffff1660e01b8152600401600060405180830381600087803b1580156102be57600080fd5b505af11580156102d2573d6000803e3d6000fd5b5050505060008054906101000a900473ffffffffffffffffffffffffffffffffffffffff1673ffffffffffffffffffffffffffffffffffffffff166399203d236040518163ffffffff1660e01b8152600401600060405180830381600087803b15801561033e57600080fd5b505af1158015610352573d6000803e3d6000fd5b50505050565b600160009054906101000a900473ffffffffffffffffffffffffffffffffffffffff1673ffffffffffffffffffffffffffffffffffffffff163373ffffffffffffffffffffffffffffffffffffffff16146103e8576040517f08c379a00000000000000000000000000000000000000000000000000000000081526004016103df906108e3565b60405180910390fd5b806000806101000a81548173ffffffffffffffffffffffffffffffffffffffff021916908373ffffffffffffffffffffffffffffffffffffffff16021790555050565b7f000000000000000000000000000000000000000000000000000000000000000073ffffffffffffffffffffffffffffffffffffffff163373ffffffffffffffffffffffffffffffffffffffff16146104b9576040517f08c379a00000000000000000000000000000000000000000000000000000000081526004016104b09061094f565b60405180910390fd5b60018060146101000a81548160ff02191690831515021790555060008054906101000a900473ffffffffffffffffffffffffffffffffffffffff1673ffffffffffffffffffffffffffffffffffffffff1663e146f7276040518163ffffffff1660e01b8152600401600060405180830381600087803b15801561053b57600080fd5b505af115801561054f573d6000803e3d6000fd5b50505050565b7f000000000000000000000000000000000000000000000000000000000000000073ffffffffffffffffffffffffffffffffffffffff163373ffffffffffffffffffffffffffffffffffffffff1614806105fa57507f000000000000000000000000000000000000000000000000000000000000000073ffffffffffffffffffffffffffffffffffffffff163373ffffffffffffffffffffffffffffffffffffffff16145b610639576040517f08c379a000000000000000000000000000000000000000000000000000000000815260040161063090610877565b60405180910390fd5b60008054906101000a900473ffffffffffffffffffffffffffffffffffffffff1673ffffffffffffffffffffffffffffffffffffffff16635b7646bf826040518263ffffffff1660e01b81526004016106929190610716565b600060405180830381600087803b1580156106ac57600080fd5b505af11580156106c0573d6000803e3d6000fd5b5050505050565b60008115159050919050565b6106dc816106c7565b82525050565b60006020820190506106f760008301846106d3565b92915050565b6000819050919050565b610710816106fd565b82525050565b600060208201905061072b6000830184610707565b92915050565b600080fd5b600073ffffffffffffffffffffffffffffffffffffffff82169050919050565b600061076182610736565b9050919050565b61077181610756565b811461077c57600080fd5b50565b60008135905061078e81610768565b92915050565b6000602082840312156107aa576107a9610731565b5b60006107b88482850161077f565b91505092915050565b6107ca816106fd565b81146107d557600080fd5b50565b6000813590506107e7816107c1565b92915050565b60006020828403121561080357610802610731565b5b6000610811848285016107d8565b91505092915050565b600082825260208201905092915050565b7f6f6e6c792062616e64206f722076656e75650000000000000000000000000000600082015250565b600061086160128361081a565b915061086c8261082b565b602082019050919050565b6000602082019050818103600083015261089081610854565b9050919050565b7f6f6e6c792063726561746f722063616e2063616c6c0000000000000000000000600082015250565b60006108cd60158361081a565b91506108d882610897565b602082019050919050565b600060208201905081810360008301526108fc816108c0565b9050919050565b7f6f6e6c792076656e756500000000000000000000000000000000000000000000600082015250565b6000610939600a8361081a565b915061094482610903565b602082019050919050565b600060208201905081810360008301526109688161092c565b905091905056fea2646970667358221220b516b825fc6437a013db2f3426bd9bfb54ea1eead8290109a39fd04521925cb464736f6c63430008110033a26469706673582212208d775411f59ac05f2745e35e40438d5bef1be64e753deab9386347df3853d2a864736f6c63430008110033",
  "linkReferences": {},
  "deployedLinkReferences": {}
}