{
  "_format": "hh-sol-artifact-1",
  "contractName": "Cryptickets",
  "sourceName": "contracts/Cryptickets.sol",
  "abi": [
    {
      "inputs": [
        {
          "internalType": "string",
          "name": "_name",
          "type": "string"
        },
        {
          "internalType": "string",
          "name": "_symbol",
          "type": "string"
        },
        {
          "internalType": "address",
          "name": "_escrowAddress",
          "type": "address"
        },
        {
          "internalType": "address",
          "name": "_bandAddress",
          "type": "address"
        },
        {
          "internalType": "address",
          "name": "_venueAddress",
          "type": "address"
        },
        {
          "internalType": "uint256",
          "name": "_endDate",
          "type": "uint256"
        },
        {
          "internalType": "uint256",
          "name": "_price",
          "type": "uint256"
        }
      ],
      "stateMutability": "nonpayable",
      "type": "constructor"
    },
    {
      "anonymous": false,
      "inputs": [
        {
          "indexed": true,
          "internalType": "address",
          "name": "owner",
          "type": "address"
        },
        {
          "indexed": true,
          "internalType": "address",
          "name": "approved",
          "type": "address"
        },
        {
          "indexed": true,
          "internalType": "uint256",
          "name": "tokenId",
          "type": "uint256"
        }
      ],
      "name": "Approval",
      "type": "event"
    },
    {
      "anonymous": false,
      "inputs": [
        {
          "indexed": true,
          "internalType": "address",
          "name": "owner",
          "type": "address"
        },
        {
          "indexed": true,
          "internalType": "address",
          "name": "operator",
          "type": "address"
        },
        {
          "indexed": false,
          "internalType": "bool",
          "name": "approved",
          "type": "bool"
        }
      ],
      "name": "ApprovalForAll",
      "type": "event"
    },
    {
      "anonymous": false,
      "inputs": [
        {
          "indexed": false,
          "internalType": "address",
          "name": "to",
          "type": "address"
        },
        {
          "indexed": false,
          "internalType": "uint256",
          "name": "amountPurchased",
          "type": "uint256"
        }
      ],
      "name": "TicketsPurchased",
      "type": "event"
    },
    {
      "anonymous": false,
      "inputs": [
        {
          "indexed": true,
          "internalType": "address",
          "name": "from",
          "type": "address"
        },
        {
          "indexed": true,
          "internalType": "address",
          "name": "to",
          "type": "address"
        },
        {
          "indexed": true,
          "internalType": "uint256",
          "name": "tokenId",
          "type": "uint256"
        }
      ],
      "name": "Transfer",
      "type": "event"
    },
    {
      "inputs": [],
      "name": "admin",
      "outputs": [
        {
          "internalType": "address",
          "name": "",
          "type": "address"
        }
      ],
      "stateMutability": "view",
      "type": "function"
    },
    {
      "inputs": [
        {
          "internalType": "uint256",
          "name": "",
          "type": "uint256"
        }
      ],
      "name": "allOwners",
      "outputs": [
        {
          "internalType": "address",
          "name": "",
          "type": "address"
        }
      ],
      "stateMutability": "view",
      "type": "function"
    },
    {
      "inputs": [
        {
          "internalType": "address",
          "name": "to",
          "type": "address"
        },
        {
          "internalType": "uint256",
          "name": "tokenId",
          "type": "uint256"
        }
      ],
      "name": "approve",
      "outputs": [],
      "stateMutability": "nonpayable",
      "type": "function"
    },
    {
      "inputs": [
        {
          "internalType": "address",
          "name": "owner",
          "type": "address"
        }
      ],
      "name": "balanceOf",
      "outputs": [
        {
          "internalType": "uint256",
          "name": "",
          "type": "uint256"
        }
      ],
      "stateMutability": "view",
      "type": "function"
    },
    {
      "inputs": [],
      "name": "bandPercent",
      "outputs": [
        {
          "internalType": "uint256",
          "name": "",
          "type": "uint256"
        }
      ],
      "stateMutability": "view",
      "type": "function"
    },
    {
      "inputs": [],
      "name": "baseUri",
      "outputs": [
        {
          "internalType": "string",
          "name": "",
          "type": "string"
        }
      ],
      "stateMutability": "view",
      "type": "function"
    },
    {
      "inputs": [
        {
          "internalType": "address",
          "name": "_controller",
          "type": "address"
        }
      ],
      "name": "changeAdmin",
      "outputs": [],
      "stateMutability": "nonpayable",
      "type": "function"
    },
    {
      "inputs": [
        {
          "internalType": "uint256",
          "name": "_newShowDate",
          "type": "uint256"
        }
      ],
      "name": "changeShowDate",
      "outputs": [],
      "stateMutability": "nonpayable",
      "type": "function"
    },
    {
      "inputs": [],
      "name": "endDate",
      "outputs": [
        {
          "internalType": "uint256",
          "name": "",
          "type": "uint256"
        }
      ],
      "stateMutability": "view",
      "type": "function"
    },
    {
      "inputs": [
        {
          "internalType": "uint256",
          "name": "tokenId",
          "type": "uint256"
        }
      ],
      "name": "getApproved",
      "outputs": [
        {
          "internalType": "address",
          "name": "",
          "type": "address"
        }
      ],
      "stateMutability": "view",
      "type": "function"
    },
    {
      "inputs": [
        {
          "internalType": "address",
          "name": "owner",
          "type": "address"
        },
        {
          "internalType": "address",
          "name": "operator",
          "type": "address"
        }
      ],
      "name": "isApprovedForAll",
      "outputs": [
        {
          "internalType": "bool",
          "name": "",
          "type": "bool"
        }
      ],
      "stateMutability": "view",
      "type": "function"
    },
    {
      "inputs": [],
      "name": "maxSupply",
      "outputs": [
        {
          "internalType": "uint256",
          "name": "",
          "type": "uint256"
        }
      ],
      "stateMutability": "view",
      "type": "function"
    },
    {
      "inputs": [],
      "name": "name",
      "outputs": [
        {
          "internalType": "string",
          "name": "",
          "type": "string"
        }
      ],
      "stateMutability": "view",
      "type": "function"
    },
    {
      "inputs": [
        {
          "internalType": "uint256",
          "name": "tokenId",
          "type": "uint256"
        }
      ],
      "name": "ownerOf",
      "outputs": [
        {
          "internalType": "address",
          "name": "",
          "type": "address"
        }
      ],
      "stateMutability": "view",
      "type": "function"
    },
    {
      "inputs": [],
      "name": "payBandAndVenue",
      "outputs": [],
      "stateMutability": "payable",
      "type": "function"
    },
    {
      "inputs": [
        {
          "internalType": "uint256",
          "name": "amount",
          "type": "uint256"
        }
      ],
      "name": "purchaseTickets",
      "outputs": [],
      "stateMutability": "payable",
      "type": "function"
    },
    {
      "inputs": [],
      "name": "refundAllTickets",
      "outputs": [],
      "stateMutability": "payable",
      "type": "function"
    },
    {
      "inputs": [],
      "name": "requestRefund",
      "outputs": [],
      "stateMutability": "nonpayable",
      "type": "function"
    },
    {
      "inputs": [],
      "name": "rescheduled",
      "outputs": [
        {
          "internalType": "bool",
          "name": "",
          "type": "bool"
        }
      ],
      "stateMutability": "view",
      "type": "function"
    },
    {
      "inputs": [],
      "name": "returnAllOwners",
      "outputs": [
        {
          "internalType": "address[]",
          "name": "",
          "type": "address[]"
        }
      ],
      "stateMutability": "view",
      "type": "function"
    },
    {
      "inputs": [
        {
          "internalType": "address",
          "name": "from",
          "type": "address"
        },
        {
          "internalType": "address",
          "name": "to",
          "type": "address"
        },
        {
          "internalType": "uint256",
          "name": "tokenId",
          "type": "uint256"
        }
      ],
      "name": "safeTransferFrom",
      "outputs": [],
      "stateMutability": "nonpayable",
      "type": "function"
    },
    {
      "inputs": [
        {
          "internalType": "address",
          "name": "from",
          "type": "address"
        },
        {
          "internalType": "address",
          "name": "to",
          "type": "address"
        },
        {
          "internalType": "uint256",
          "name": "tokenId",
          "type": "uint256"
        },
        {
          "internalType": "bytes",
          "name": "data",
          "type": "bytes"
        }
      ],
      "name": "safeTransferFrom",
      "outputs": [],
      "stateMutability": "nonpayable",
      "type": "function"
    },
    {
      "inputs": [
        {
          "internalType": "address",
          "name": "operator",
          "type": "address"
        },
        {
          "internalType": "bool",
          "name": "approved",
          "type": "bool"
        }
      ],
      "name": "setApprovalForAll",
      "outputs": [],
      "stateMutability": "nonpayable",
      "type": "function"
    },
    {
      "inputs": [
        {
          "internalType": "string",
          "name": "_bseuri",
          "type": "string"
        }
      ],
      "name": "setBaseUri",
      "outputs": [],
      "stateMutability": "nonpayable",
      "type": "function"
    },
    {
      "inputs": [],
      "name": "setCancelledShow",
      "outputs": [],
      "stateMutability": "nonpayable",
      "type": "function"
    },
    {
      "inputs": [
        {
          "internalType": "uint256",
          "name": "_maxSupply",
          "type": "uint256"
        }
      ],
      "name": "setMaxSupply",
      "outputs": [],
      "stateMutability": "nonpayable",
      "type": "function"
    },
    {
      "inputs": [],
      "name": "showCancelled",
      "outputs": [
        {
          "internalType": "bool",
          "name": "",
          "type": "bool"
        }
      ],
      "stateMutability": "view",
      "type": "function"
    },
    {
      "inputs": [],
      "name": "showCompleted",
      "outputs": [
        {
          "internalType": "bool",
          "name": "",
          "type": "bool"
        }
      ],
      "stateMutability": "view",
      "type": "function"
    },
    {
      "inputs": [
        {
          "internalType": "bytes4",
          "name": "interfaceId",
          "type": "bytes4"
        }
      ],
      "name": "supportsInterface",
      "outputs": [
        {
          "internalType": "bool",
          "name": "",
          "type": "bool"
        }
      ],
      "stateMutability": "view",
      "type": "function"
    },
    {
      "inputs": [],
      "name": "symbol",
      "outputs": [
        {
          "internalType": "string",
          "name": "",
          "type": "string"
        }
      ],
      "stateMutability": "view",
      "type": "function"
    },
    {
      "inputs": [],
      "name": "ticketLimit",
      "outputs": [
        {
          "internalType": "uint256",
          "name": "",
          "type": "uint256"
        }
      ],
      "stateMutability": "view",
      "type": "function"
    },
    {
      "inputs": [],
      "name": "ticketPrice",
      "outputs": [
        {
          "internalType": "uint256",
          "name": "",
          "type": "uint256"
        }
      ],
      "stateMutability": "view",
      "type": "function"
    },
    {
      "inputs": [
        {
          "internalType": "address",
          "name": "",
          "type": "address"
        }
      ],
      "name": "ticketsPurchased",
      "outputs": [
        {
          "internalType": "uint256",
          "name": "",
          "type": "uint256"
        }
      ],
      "stateMutability": "view",
      "type": "function"
    },
    {
      "inputs": [
        {
          "internalType": "uint256",
          "name": "tokenId",
          "type": "uint256"
        }
      ],
      "name": "tokenURI",
      "outputs": [
        {
          "internalType": "string",
          "name": "",
          "type": "string"
        }
      ],
      "stateMutability": "view",
      "type": "function"
    },
    {
      "inputs": [
        {
          "internalType": "address",
          "name": "from",
          "type": "address"
        },
        {
          "internalType": "address",
          "name": "to",
          "type": "address"
        },
        {
          "internalType": "uint256",
          "name": "tokenId",
          "type": "uint256"
        }
      ],
      "name": "transferFrom",
      "outputs": [],
      "stateMutability": "nonpayable",
      "type": "function"
    },
    {
      "stateMutability": "payable",
      "type": "receive"
    }
  ],
  "bytecode": "0x60e06040526040518060400160405280600a81526020017f53414d504c454241534500000000000000000000000000000000000000000000815250600890816200004a919062000427565b506064600955600a600b556008600d553480156200006757600080fd5b50604051620050833803806200508383398181016040528101906200008d919062000708565b86868160009081620000a0919062000427565b508060019081620000b2919062000427565b50505033600a60006101000a81548173ffffffffffffffffffffffffffffffffffffffff021916908373ffffffffffffffffffffffffffffffffffffffff1602179055508473ffffffffffffffffffffffffffffffffffffffff1660c08173ffffffffffffffffffffffffffffffffffffffff16815250508373ffffffffffffffffffffffffffffffffffffffff1660808173ffffffffffffffffffffffffffffffffffffffff16815250508273ffffffffffffffffffffffffffffffffffffffff1660a08173ffffffffffffffffffffffffffffffffffffffff168152505081600e8190555080600c8190555050505050505050620007f9565b600081519050919050565b7f4e487b7100000000000000000000000000000000000000000000000000000000600052604160045260246000fd5b7f4e487b7100000000000000000000000000000000000000000000000000000000600052602260045260246000fd5b600060028204905060018216806200022f57607f821691505b602082108103620002455762000244620001e7565b5b50919050565b60008190508160005260206000209050919050565b60006020601f8301049050919050565b600082821b905092915050565b600060088302620002af7fffffffffffffffffffffffffffffffffffffffffffffffffffffffffffffffff8262000270565b620002bb868362000270565b95508019841693508086168417925050509392505050565b6000819050919050565b6000819050919050565b60006200030862000302620002fc84620002d3565b620002dd565b620002d3565b9050919050565b6000819050919050565b6200032483620002e7565b6200033c62000333826200030f565b8484546200027d565b825550505050565b600090565b6200035362000344565b6200036081848462000319565b505050565b5b8181101562000388576200037c60008262000349565b60018101905062000366565b5050565b601f821115620003d757620003a1816200024b565b620003ac8462000260565b81016020851015620003bc578190505b620003d4620003cb8562000260565b83018262000365565b50505b505050565b600082821c905092915050565b6000620003fc60001984600802620003dc565b1980831691505092915050565b6000620004178383620003e9565b9150826002028217905092915050565b6200043282620001ad565b67ffffffffffffffff8111156200044e576200044d620001b8565b5b6200045a825462000216565b620004678282856200038c565b600060209050601f8311600181146200049f57600084156200048a578287015190505b62000496858262000409565b86555062000506565b601f198416620004af866200024b565b60005b82811015620004d957848901518255600182019150602085019450602081019050620004b2565b86831015620004f95784890151620004f5601f891682620003e9565b8355505b6001600288020188555050505b505050505050565b6000604051905090565b600080fd5b600080fd5b600080fd5b600080fd5b6000601f19601f8301169050919050565b62000548826200052c565b810181811067ffffffffffffffff821117156200056a5762000569620001b8565b5b80604052505050565b60006200057f6200050e565b90506200058d82826200053d565b919050565b600067ffffffffffffffff821115620005b057620005af620001b8565b5b620005bb826200052c565b9050602081019050919050565b60005b83811015620005e8578082015181840152602081019050620005cb565b60008484015250505050565b60006200060b620006058462000592565b62000573565b9050828152602081018484840111156200062a576200062962000527565b5b62000637848285620005c8565b509392505050565b600082601f83011262000657576200065662000522565b5b815162000669848260208601620005f4565b91505092915050565b600073ffffffffffffffffffffffffffffffffffffffff82169050919050565b60006200069f8262000672565b9050919050565b620006b18162000692565b8114620006bd57600080fd5b50565b600081519050620006d181620006a6565b92915050565b620006e281620002d3565b8114620006ee57600080fd5b50565b6000815190506200070281620006d7565b92915050565b600080600080600080600060e0888a0312156200072a576200072962000518565b5b600088015167ffffffffffffffff8111156200074b576200074a6200051d565b5b620007598a828b016200063f565b975050602088015167ffffffffffffffff8111156200077d576200077c6200051d565b5b6200078b8a828b016200063f565b96505060406200079e8a828b01620006c0565b9550506060620007b18a828b01620006c0565b9450506080620007c48a828b01620006c0565b93505060a0620007d78a828b01620006f1565b92505060c0620007ea8a828b01620006f1565b91505092959891949750929550565b60805160a05160c0516148456200083e600039600081816111d00152818161172501528181611a620152611b6201526000611cc401526000611c5d01526148456000f3fe6080604052600436106102085760003560e01c8063833534bb11610118578063c24a0f8b116100a0578063d5cef1331161006f578063d5cef13314610746578063e146f7271461075d578063e985e9c514610767578063ecaabf7f146107a4578063f851a440146107cf5761020f565b8063c24a0f8b14610688578063c769a541146106b3578063c87b56dd146106de578063d5abeb011461071b5761020f565b80639abc8320116100e75780639abc8320146105c6578063a0bcfc7f146105f1578063a12776001461061a578063a22cb46514610636578063b88d4fde1461065f5761020f565b8063833534bb1461053d5780638f2839701461056857806395d89b411461059157806399203d23146105bc5761020f565b806342842e0e1161019b5780636ccda0a61161016a5780636ccda0a6146104585780636f8b44b01461049557806370a08231146104be5780637389df8a146104fb57806373b4dba1146105125761020f565b806342842e0e1461039e5780635b7646bf146103c75780635e321dfc146103f05780636352211e1461041b5761020f565b80631209b1f6116101d75780631209b1f6146102e25780631516db091461030d57806323b872dd1461034a5780632cc403e0146103735761020f565b806301ffc9a71461021457806306fdde0314610251578063081812fc1461027c578063095ea7b3146102b95761020f565b3661020f57005b600080fd5b34801561022057600080fd5b5061023b60048036038101906102369190612f6b565b6107fa565b6040516102489190612fb3565b60405180910390f35b34801561025d57600080fd5b506102666108dc565b604051610273919061305e565b60405180910390f35b34801561028857600080fd5b506102a3600480360381019061029e91906130b6565b61096e565b6040516102b09190613124565b60405180910390f35b3480156102c557600080fd5b506102e060048036038101906102db919061316b565b6109b4565b005b3480156102ee57600080fd5b506102f7610acb565b60405161030491906131ba565b60405180910390f35b34801561031957600080fd5b50610334600480360381019061032f91906130b6565b610ad1565b6040516103419190613124565b60405180910390f35b34801561035657600080fd5b50610371600480360381019061036c91906131d5565b610b10565b005b34801561037f57600080fd5b50610388610bd3565b60405161039591906131ba565b60405180910390f35b3480156103aa57600080fd5b506103c560048036038101906103c091906131d5565b610bd9565b005b3480156103d357600080fd5b506103ee60048036038101906103e991906130b6565b610bf9565b005b3480156103fc57600080fd5b50610405610cae565b60405161041291906131ba565b60405180910390f35b34801561042757600080fd5b50610442600480360381019061043d91906130b6565b610cb4565b60405161044f9190613124565b60405180910390f35b34801561046457600080fd5b5061047f600480360381019061047a9190613228565b610d3a565b60405161048c91906131ba565b60405180910390f35b3480156104a157600080fd5b506104bc60048036038101906104b791906130b6565b610d52565b005b3480156104ca57600080fd5b506104e560048036038101906104e09190613228565b610dec565b6040516104f291906131ba565b60405180910390f35b34801561050757600080fd5b50610510610ea3565b005b34801561051e57600080fd5b50610527610f50565b6040516105349190612fb3565b60405180910390f35b34801561054957600080fd5b50610552610f63565b60405161055f9190612fb3565b60405180910390f35b34801561057457600080fd5b5061058f600480360381019061058a9190613228565b610f76565b005b34801561059d57600080fd5b506105a661104a565b6040516105b3919061305e565b60405180910390f35b6105c46110dc565b005b3480156105d257600080fd5b506105db611311565b6040516105e8919061305e565b60405180910390f35b3480156105fd57600080fd5b506106186004803603810190610613919061338a565b61139f565b005b610634600480360381019061062f91906130b6565b611442565b005b34801561064257600080fd5b5061065d600480360381019061065891906133ff565b6117c6565b005b34801561066b57600080fd5b50610686600480360381019061068191906134e0565b6117dc565b005b34801561069457600080fd5b5061069d61183e565b6040516106aa91906131ba565b60405180910390f35b3480156106bf57600080fd5b506106c8611844565b6040516106d59190612fb3565b60405180910390f35b3480156106ea57600080fd5b50610705600480360381019061070091906130b6565b611857565b604051610712919061305e565b60405180910390f35b34801561072757600080fd5b50610730611969565b60405161073d91906131ba565b60405180910390f35b34801561075257600080fd5b5061075b61196f565b005b610765611aef565b005b34801561077357600080fd5b5061078e60048036038101906107899190613563565b611d2c565b60405161079b9190612fb3565b60405180910390f35b3480156107b057600080fd5b506107b9611dc0565b6040516107c69190613661565b60405180910390f35b3480156107db57600080fd5b506107e4611f6b565b6040516107f19190613124565b60405180910390f35b60007f80ac58cd000000000000000000000000000000000000000000000000000000007bffffffffffffffffffffffffffffffffffffffffffffffffffffffff1916827bffffffffffffffffffffffffffffffffffffffffffffffffffffffff191614806108c557507f5b5e139f000000000000000000000000000000000000000000000000000000007bffffffffffffffffffffffffffffffffffffffffffffffffffffffff1916827bffffffffffffffffffffffffffffffffffffffffffffffffffffffff1916145b806108d557506108d482611f91565b5b9050919050565b6060600080546108eb906136b2565b80601f0160208091040260200160405190810160405280929190818152602001828054610917906136b2565b80156109645780601f1061093957610100808354040283529160200191610964565b820191906000526020600020905b81548152906001019060200180831161094757829003601f168201915b5050505050905090565b600061097982611ffb565b6004600083815260200190815260200160002060009054906101000a900473ffffffffffffffffffffffffffffffffffffffff169050919050565b60006109bf82610cb4565b90508073ffffffffffffffffffffffffffffffffffffffff168373ffffffffffffffffffffffffffffffffffffffff1603610a2f576040517f08c379a0000000000000000000000000000000000000000000000000000000008152600401610a2690613755565b60405180910390fd5b8073ffffffffffffffffffffffffffffffffffffffff16610a4e612046565b73ffffffffffffffffffffffffffffffffffffffff161480610a7d5750610a7c81610a77612046565b611d2c565b5b610abc576040517f08c379a0000000000000000000000000000000000000000000000000000000008152600401610ab3906137e7565b60405180910390fd5b610ac6838361204e565b505050565b600c5481565b60108181548110610ae157600080fd5b906000526020600020016000915054906101000a900473ffffffffffffffffffffffffffffffffffffffff1681565b610b21610b1b612046565b82612107565b610b60576040517f08c379a0000000000000000000000000000000000000000000000000000000008152600401610b5790613879565b60405180910390fd5b6010829080600181540180825580915050600190039060005260206000200160009091909190916101000a81548173ffffffffffffffffffffffffffffffffffffffff021916908373ffffffffffffffffffffffffffffffffffffffff160217905550610bce83838361219c565b505050565b600b5481565b610bf4838383604051806020016040528060008152506117dc565b505050565b600a60009054906101000a900473ffffffffffffffffffffffffffffffffffffffff1673ffffffffffffffffffffffffffffffffffffffff163373ffffffffffffffffffffffffffffffffffffffff1614610c89576040517f08c379a0000000000000000000000000000000000000000000000000000000008152600401610c80906138e5565b60405180910390fd5b80600e819055506001600f60026101000a81548160ff02191690831515021790555050565b600d5481565b600080610cc083612495565b9050600073ffffffffffffffffffffffffffffffffffffffff168173ffffffffffffffffffffffffffffffffffffffff1603610d31576040517f08c379a0000000000000000000000000000000000000000000000000000000008152600401610d2890613951565b60405180910390fd5b80915050919050565b60116020528060005260406000206000915090505481565b600a60009054906101000a900473ffffffffffffffffffffffffffffffffffffffff1673ffffffffffffffffffffffffffffffffffffffff163373ffffffffffffffffffffffffffffffffffffffff1614610de2576040517f08c379a0000000000000000000000000000000000000000000000000000000008152600401610dd9906138e5565b60405180910390fd5b8060098190555050565b60008073ffffffffffffffffffffffffffffffffffffffff168273ffffffffffffffffffffffffffffffffffffffff1603610e5c576040517f08c379a0000000000000000000000000000000000000000000000000000000008152600401610e53906139e3565b60405180910390fd5b600360008373ffffffffffffffffffffffffffffffffffffffff1673ffffffffffffffffffffffffffffffffffffffff168152602001908152602001600020549050919050565b600a60009054906101000a900473ffffffffffffffffffffffffffffffffffffffff1673ffffffffffffffffffffffffffffffffffffffff163373ffffffffffffffffffffffffffffffffffffffff1614610f33576040517f08c379a0000000000000000000000000000000000000000000000000000000008152600401610f2a90613a4f565b60405180910390fd5b6001600f60006101000a81548160ff021916908315150217905550565b600f60019054906101000a900460ff1681565b600f60029054906101000a900460ff1681565b600a60009054906101000a900473ffffffffffffffffffffffffffffffffffffffff1673ffffffffffffffffffffffffffffffffffffffff163373ffffffffffffffffffffffffffffffffffffffff1614611006576040517f08c379a0000000000000000000000000000000000000000000000000000000008152600401610ffd906138e5565b60405180910390fd5b80600a60006101000a81548173ffffffffffffffffffffffffffffffffffffffff021916908373ffffffffffffffffffffffffffffffffffffffff16021790555050565b606060018054611059906136b2565b80601f0160208091040260200160405190810160405280929190818152602001828054611085906136b2565b80156110d25780601f106110a7576101008083540402835291602001916110d2565b820191906000526020600020905b8154815290600101906020018083116110b557829003601f168201915b5050505050905090565b60011515600f60009054906101000a900460ff16151514611132576040517f08c379a000000000000000000000000000000000000000000000000000000000815260040161112990613abb565b60405180910390fd5b600a60009054906101000a900473ffffffffffffffffffffffffffffffffffffffff1673ffffffffffffffffffffffffffffffffffffffff163373ffffffffffffffffffffffffffffffffffffffff16146111c2576040517f08c379a00000000000000000000000000000000000000000000000000000000081526004016111b9906138e5565b60405180910390fd5b60006111cc611dc0565b90507f000000000000000000000000000000000000000000000000000000000000000073ffffffffffffffffffffffffffffffffffffffff166369d895756040518163ffffffff1660e01b8152600401600060405180830381600087803b15801561123657600080fd5b505af115801561124a573d6000803e3d6000fd5b5050505060005b60108054905081101561130d57600061128383838151811061127657611275613adb565b5b6020026020010151610dec565b90506000600c54826112959190613b39565b90508383815181106112aa576112a9613adb565b5b602002602001015173ffffffffffffffffffffffffffffffffffffffff166108fc829081150290604051600060405180830381858888f193505050501580156112f7573d6000803e3d6000fd5b505050808061130590613b7b565b915050611251565b5050565b6008805461131e906136b2565b80601f016020809104026020016040519081016040528092919081815260200182805461134a906136b2565b80156113975780601f1061136c57610100808354040283529160200191611397565b820191906000526020600020905b81548152906001019060200180831161137a57829003601f168201915b505050505081565b600a60009054906101000a900473ffffffffffffffffffffffffffffffffffffffff1673ffffffffffffffffffffffffffffffffffffffff163373ffffffffffffffffffffffffffffffffffffffff161461142f576040517f08c379a000000000000000000000000000000000000000000000000000000000815260040161142690613c0f565b60405180910390fd5b806008908161143e9190613ddb565b5050565b80600c546114509190613b39565b341015611492576040517f08c379a000000000000000000000000000000000000000000000000000000000815260040161148990613ef9565b60405180910390fd5b600d5481601160003373ffffffffffffffffffffffffffffffffffffffff1673ffffffffffffffffffffffffffffffffffffffff168152602001908152602001600020546114e09190613f19565b1115611521576040517f08c379a000000000000000000000000000000000000000000000000000000000815260040161151890613f99565b60405180910390fd5b6009548161152f60076124d2565b6115399190613f19565b111561157a576040517f08c379a000000000000000000000000000000000000000000000000000000000815260040161157190614005565b60405180910390fd5b60001515600f60009054906101000a900460ff16151514806115af575060011515600f60019054906101000a900460ff161515145b6115ee576040517f08c379a00000000000000000000000000000000000000000000000000000000081526004016115e590614071565b60405180910390fd5b80601160003373ffffffffffffffffffffffffffffffffffffffff1673ffffffffffffffffffffffffffffffffffffffff168152602001908152602001600020600082825461163d9190613f19565b925050819055506010339080600181540180825580915050600190039060005260206000200160009091909190916101000a81548173ffffffffffffffffffffffffffffffffffffffff021916908373ffffffffffffffffffffffffffffffffffffffff16021790555060005b81811015611722576116bc60076124e0565b60006116c860076124d2565b90506116d433826124f6565b600060086116e183612713565b6040516020016116f2929190614161565b604051602081830303815290604052905061170d82826127e1565b5050808061171a90613b7b565b9150506116aa565b507f000000000000000000000000000000000000000000000000000000000000000073ffffffffffffffffffffffffffffffffffffffff166108fc349081150290604051600060405180830381858888f19350505050158015611789573d6000803e3d6000fd5b507fe11731cb4f1eb3ec3dd09bdc96809bb07365f4c881cda3192b397a4bc0b6da4033826040516117bb9291906141ab565b60405180910390a150565b6117d86117d1612046565b838361284e565b5050565b6117ed6117e7612046565b83612107565b61182c576040517f08c379a000000000000000000000000000000000000000000000000000000000815260040161182390613879565b60405180910390fd5b611838848484846129ba565b50505050565b600e5481565b600f60009054906101000a900460ff1681565b606061186282611ffb565b6000600660008481526020019081526020016000208054611882906136b2565b80601f01602080910402602001604051908101604052809291908181526020018280546118ae906136b2565b80156118fb5780601f106118d0576101008083540402835291602001916118fb565b820191906000526020600020905b8154815290600101906020018083116118de57829003601f168201915b50505050509050600061190c612a16565b90506000815103611921578192505050611964565b60008251111561195657808260405160200161193e929190614210565b60405160208183030381529060405292505050611964565b61195f84612a2d565b925050505b919050565b60095481565b60011515600f60029054906101000a900460ff161515146119c5576040517f08c379a00000000000000000000000000000000000000000000000000000000081526004016119bc90614280565b60405180910390fd5b6000601160003373ffffffffffffffffffffffffffffffffffffffff1673ffffffffffffffffffffffffffffffffffffffff1681526020019081526020016000205490506000600c5482611a199190613b39565b90506000601160003373ffffffffffffffffffffffffffffffffffffffff1673ffffffffffffffffffffffffffffffffffffffff168152602001908152602001600020819055507f000000000000000000000000000000000000000000000000000000000000000073ffffffffffffffffffffffffffffffffffffffff1663a99c20a3826040518263ffffffff1660e01b8152600401611ab991906131ba565b600060405180830381600087803b158015611ad357600080fd5b505af1158015611ae7573d6000803e3d6000fd5b505050505050565b60001515600f60009054906101000a900460ff16151514611b45576040517f08c379a0000000000000000000000000000000000000000000000000000000008152600401611b3c906142ec565b60405180910390fd5b6001600f60016101000a81548160ff0219169083151502179055507f000000000000000000000000000000000000000000000000000000000000000073ffffffffffffffffffffffffffffffffffffffff166369d895756040518163ffffffff1660e01b8152600401600060405180830381600087803b158015611bc857600080fd5b505af1158015611bdc573d6000803e3d6000fd5b505050506000600b5447611bf0919061433b565b9050600a60009054906101000a900473ffffffffffffffffffffffffffffffffffffffff1673ffffffffffffffffffffffffffffffffffffffff166108fc829081150290604051600060405180830381858888f19350505050158015611c5a573d6000803e3d6000fd5b507f000000000000000000000000000000000000000000000000000000000000000073ffffffffffffffffffffffffffffffffffffffff166108fc829081150290604051600060405180830381858888f19350505050158015611cc1573d6000803e3d6000fd5b507f000000000000000000000000000000000000000000000000000000000000000073ffffffffffffffffffffffffffffffffffffffff166108fc479081150290604051600060405180830381858888f19350505050158015611d28573d6000803e3d6000fd5b5050565b6000600560008473ffffffffffffffffffffffffffffffffffffffff1673ffffffffffffffffffffffffffffffffffffffff16815260200190815260200160002060008373ffffffffffffffffffffffffffffffffffffffff1673ffffffffffffffffffffffffffffffffffffffff16815260200190815260200160002060009054906101000a900460ff16905092915050565b6060600a60009054906101000a900473ffffffffffffffffffffffffffffffffffffffff1673ffffffffffffffffffffffffffffffffffffffff163373ffffffffffffffffffffffffffffffffffffffff1614611e52576040517f08c379a0000000000000000000000000000000000000000000000000000000008152600401611e4990613c0f565b60405180910390fd5b600060108054905067ffffffffffffffff811115611e7357611e7261325f565b5b604051908082528060200260200182016040528015611ea15781602001602082028036833780820191505090505b5090506000805b601080549050811015611f625760108181548110611ec957611ec8613adb565b5b9060005260206000200160009054906101000a900473ffffffffffffffffffffffffffffffffffffffff16838381518110611f0757611f06613adb565b5b602002602001019073ffffffffffffffffffffffffffffffffffffffff16908173ffffffffffffffffffffffffffffffffffffffff16815250508180611f4c90613b7b565b9250508080611f5a90613b7b565b915050611ea8565b50819250505090565b600a60009054906101000a900473ffffffffffffffffffffffffffffffffffffffff1681565b60007f01ffc9a7000000000000000000000000000000000000000000000000000000007bffffffffffffffffffffffffffffffffffffffffffffffffffffffff1916827bffffffffffffffffffffffffffffffffffffffffffffffffffffffff1916149050919050565b61200481612a95565b612043576040517f08c379a000000000000000000000000000000000000000000000000000000000815260040161203a90613951565b60405180910390fd5b50565b600033905090565b816004600083815260200190815260200160002060006101000a81548173ffffffffffffffffffffffffffffffffffffffff021916908373ffffffffffffffffffffffffffffffffffffffff160217905550808273ffffffffffffffffffffffffffffffffffffffff166120c183610cb4565b73ffffffffffffffffffffffffffffffffffffffff167f8c5be1e5ebec7d5bd14f71427d1e84f3dd0314c0f7b2291e5b200ac8c7c3b92560405160405180910390a45050565b60008061211383610cb4565b90508073ffffffffffffffffffffffffffffffffffffffff168473ffffffffffffffffffffffffffffffffffffffff16148061215557506121548185611d2c565b5b8061219357508373ffffffffffffffffffffffffffffffffffffffff1661217b8461096e565b73ffffffffffffffffffffffffffffffffffffffff16145b91505092915050565b8273ffffffffffffffffffffffffffffffffffffffff166121bc82610cb4565b73ffffffffffffffffffffffffffffffffffffffff1614612212576040517f08c379a0000000000000000000000000000000000000000000000000000000008152600401612209906143de565b60405180910390fd5b600073ffffffffffffffffffffffffffffffffffffffff168273ffffffffffffffffffffffffffffffffffffffff1603612281576040517f08c379a000000000000000000000000000000000000000000000000000000000815260040161227890614470565b60405180910390fd5b61228e8383836001612ad6565b8273ffffffffffffffffffffffffffffffffffffffff166122ae82610cb4565b73ffffffffffffffffffffffffffffffffffffffff1614612304576040517f08c379a00000000000000000000000000000000000000000000000000000000081526004016122fb906143de565b60405180910390fd5b6004600082815260200190815260200160002060006101000a81549073ffffffffffffffffffffffffffffffffffffffff02191690556001600360008573ffffffffffffffffffffffffffffffffffffffff1673ffffffffffffffffffffffffffffffffffffffff168152602001908152602001600020600082825403925050819055506001600360008473ffffffffffffffffffffffffffffffffffffffff1673ffffffffffffffffffffffffffffffffffffffff16815260200190815260200160002060008282540192505081905550816002600083815260200190815260200160002060006101000a81548173ffffffffffffffffffffffffffffffffffffffff021916908373ffffffffffffffffffffffffffffffffffffffff160217905550808273ffffffffffffffffffffffffffffffffffffffff168473ffffffffffffffffffffffffffffffffffffffff167fddf252ad1be2c89b69c2b068fc378daa952ba7f163c4a11628f55a4df523b3ef60405160405180910390a46124908383836001612bfc565b505050565b60006002600083815260200190815260200160002060009054906101000a900473ffffffffffffffffffffffffffffffffffffffff169050919050565b600081600001549050919050565b6001816000016000828254019250508190555050565b600073ffffffffffffffffffffffffffffffffffffffff168273ffffffffffffffffffffffffffffffffffffffff1603612565576040517f08c379a000000000000000000000000000000000000000000000000000000000815260040161255c906144dc565b60405180910390fd5b61256e81612a95565b156125ae576040517f08c379a00000000000000000000000000000000000000000000000000000000081526004016125a590614548565b60405180910390fd5b6125bc600083836001612ad6565b6125c581612a95565b15612605576040517f08c379a00000000000000000000000000000000000000000000000000000000081526004016125fc90614548565b60405180910390fd5b6001600360008473ffffffffffffffffffffffffffffffffffffffff1673ffffffffffffffffffffffffffffffffffffffff16815260200190815260200160002060008282540192505081905550816002600083815260200190815260200160002060006101000a81548173ffffffffffffffffffffffffffffffffffffffff021916908373ffffffffffffffffffffffffffffffffffffffff160217905550808273ffffffffffffffffffffffffffffffffffffffff16600073ffffffffffffffffffffffffffffffffffffffff167fddf252ad1be2c89b69c2b068fc378daa952ba7f163c4a11628f55a4df523b3ef60405160405180910390a461270f600083836001612bfc565b5050565b60606000600161272284612c02565b01905060008167ffffffffffffffff8111156127415761274061325f565b5b6040519080825280601f01601f1916602001820160405280156127735781602001600182028036833780820191505090505b509050600082602001820190505b6001156127d6578080600190039150507f3031323334353637383961626364656600000000000000000000000000000000600a86061a8153600a85816127ca576127c961430c565b5b04945060008503612781575b819350505050919050565b6127ea82612a95565b612829576040517f08c379a0000000000000000000000000000000000000000000000000000000008152600401612820906145da565b60405180910390fd5b806006600084815260200190815260200160002090816128499190613ddb565b505050565b8173ffffffffffffffffffffffffffffffffffffffff168373ffffffffffffffffffffffffffffffffffffffff16036128bc576040517f08c379a00000000000000000000000000000000000000000000000000000000081526004016128b390614646565b60405180910390fd5b80600560008573ffffffffffffffffffffffffffffffffffffffff1673ffffffffffffffffffffffffffffffffffffffff16815260200190815260200160002060008473ffffffffffffffffffffffffffffffffffffffff1673ffffffffffffffffffffffffffffffffffffffff16815260200190815260200160002060006101000a81548160ff0219169083151502179055508173ffffffffffffffffffffffffffffffffffffffff168373ffffffffffffffffffffffffffffffffffffffff167f17307eab39ab6107e8899845ad3d59bd9653f200f220920489ca2b5937696c31836040516129ad9190612fb3565b60405180910390a3505050565b6129c584848461219c565b6129d184848484612d55565b612a10576040517f08c379a0000000000000000000000000000000000000000000000000000000008152600401612a07906146d8565b60405180910390fd5b50505050565b606060405180602001604052806000815250905090565b6060612a3882611ffb565b6000612a42612a16565b90506000815111612a625760405180602001604052806000815250612a8d565b80612a6c84612713565b604051602001612a7d929190614210565b6040516020818303038152906040525b915050919050565b60008073ffffffffffffffffffffffffffffffffffffffff16612ab783612495565b73ffffffffffffffffffffffffffffffffffffffff1614159050919050565b6001811115612bf657600073ffffffffffffffffffffffffffffffffffffffff168473ffffffffffffffffffffffffffffffffffffffff1614612b6a5780600360008673ffffffffffffffffffffffffffffffffffffffff1673ffffffffffffffffffffffffffffffffffffffff1681526020019081526020016000206000828254612b6291906146f8565b925050819055505b600073ffffffffffffffffffffffffffffffffffffffff168373ffffffffffffffffffffffffffffffffffffffff1614612bf55780600360008573ffffffffffffffffffffffffffffffffffffffff1673ffffffffffffffffffffffffffffffffffffffff1681526020019081526020016000206000828254612bed9190613f19565b925050819055505b5b50505050565b50505050565b600080600090507a184f03e93ff9f4daa797ed6e38ed64bf6a1f0100000000000000008310612c60577a184f03e93ff9f4daa797ed6e38ed64bf6a1f0100000000000000008381612c5657612c5561430c565b5b0492506040810190505b6d04ee2d6d415b85acef81000000008310612c9d576d04ee2d6d415b85acef81000000008381612c9357612c9261430c565b5b0492506020810190505b662386f26fc100008310612ccc57662386f26fc100008381612cc257612cc161430c565b5b0492506010810190505b6305f5e1008310612cf5576305f5e1008381612ceb57612cea61430c565b5b0492506008810190505b6127108310612d1a576127108381612d1057612d0f61430c565b5b0492506004810190505b60648310612d3d5760648381612d3357612d3261430c565b5b0492506002810190505b600a8310612d4c576001810190505b80915050919050565b6000612d768473ffffffffffffffffffffffffffffffffffffffff16612edc565b15612ecf578373ffffffffffffffffffffffffffffffffffffffff1663150b7a02612d9f612046565b8786866040518563ffffffff1660e01b8152600401612dc19493929190614781565b6020604051808303816000875af1925050508015612dfd57506040513d601f19601f82011682018060405250810190612dfa91906147e2565b60015b612e7f573d8060008114612e2d576040519150601f19603f3d011682016040523d82523d6000602084013e612e32565b606091505b506000815103612e77576040517f08c379a0000000000000000000000000000000000000000000000000000000008152600401612e6e906146d8565b60405180910390fd5b805181602001fd5b63150b7a0260e01b7bffffffffffffffffffffffffffffffffffffffffffffffffffffffff1916817bffffffffffffffffffffffffffffffffffffffffffffffffffffffff191614915050612ed4565b600190505b949350505050565b6000808273ffffffffffffffffffffffffffffffffffffffff163b119050919050565b6000604051905090565b600080fd5b600080fd5b60007fffffffff0000000000000000000000000000000000000000000000000000000082169050919050565b612f4881612f13565b8114612f5357600080fd5b50565b600081359050612f6581612f3f565b92915050565b600060208284031215612f8157612f80612f09565b5b6000612f8f84828501612f56565b91505092915050565b60008115159050919050565b612fad81612f98565b82525050565b6000602082019050612fc86000830184612fa4565b92915050565b600081519050919050565b600082825260208201905092915050565b60005b83811015613008578082015181840152602081019050612fed565b60008484015250505050565b6000601f19601f8301169050919050565b600061303082612fce565b61303a8185612fd9565b935061304a818560208601612fea565b61305381613014565b840191505092915050565b600060208201905081810360008301526130788184613025565b905092915050565b6000819050919050565b61309381613080565b811461309e57600080fd5b50565b6000813590506130b08161308a565b92915050565b6000602082840312156130cc576130cb612f09565b5b60006130da848285016130a1565b91505092915050565b600073ffffffffffffffffffffffffffffffffffffffff82169050919050565b600061310e826130e3565b9050919050565b61311e81613103565b82525050565b60006020820190506131396000830184613115565b92915050565b61314881613103565b811461315357600080fd5b50565b6000813590506131658161313f565b92915050565b6000806040838503121561318257613181612f09565b5b600061319085828601613156565b92505060206131a1858286016130a1565b9150509250929050565b6131b481613080565b82525050565b60006020820190506131cf60008301846131ab565b92915050565b6000806000606084860312156131ee576131ed612f09565b5b60006131fc86828701613156565b935050602061320d86828701613156565b925050604061321e868287016130a1565b9150509250925092565b60006020828403121561323e5761323d612f09565b5b600061324c84828501613156565b91505092915050565b600080fd5b600080fd5b7f4e487b7100000000000000000000000000000000000000000000000000000000600052604160045260246000fd5b61329782613014565b810181811067ffffffffffffffff821117156132b6576132b561325f565b5b80604052505050565b60006132c9612eff565b90506132d5828261328e565b919050565b600067ffffffffffffffff8211156132f5576132f461325f565b5b6132fe82613014565b9050602081019050919050565b82818337600083830152505050565b600061332d613328846132da565b6132bf565b9050828152602081018484840111156133495761334861325a565b5b61335484828561330b565b509392505050565b600082601f83011261337157613370613255565b5b813561338184826020860161331a565b91505092915050565b6000602082840312156133a05761339f612f09565b5b600082013567ffffffffffffffff8111156133be576133bd612f0e565b5b6133ca8482850161335c565b91505092915050565b6133dc81612f98565b81146133e757600080fd5b50565b6000813590506133f9816133d3565b92915050565b6000806040838503121561341657613415612f09565b5b600061342485828601613156565b9250506020613435858286016133ea565b9150509250929050565b600067ffffffffffffffff82111561345a5761345961325f565b5b61346382613014565b9050602081019050919050565b600061348361347e8461343f565b6132bf565b90508281526020810184848401111561349f5761349e61325a565b5b6134aa84828561330b565b509392505050565b600082601f8301126134c7576134c6613255565b5b81356134d7848260208601613470565b91505092915050565b600080600080608085870312156134fa576134f9612f09565b5b600061350887828801613156565b945050602061351987828801613156565b935050604061352a878288016130a1565b925050606085013567ffffffffffffffff81111561354b5761354a612f0e565b5b613557878288016134b2565b91505092959194509250565b6000806040838503121561357a57613579612f09565b5b600061358885828601613156565b925050602061359985828601613156565b9150509250929050565b600081519050919050565b600082825260208201905092915050565b6000819050602082019050919050565b6135d881613103565b82525050565b60006135ea83836135cf565b60208301905092915050565b6000602082019050919050565b600061360e826135a3565b61361881856135ae565b9350613623836135bf565b8060005b8381101561365457815161363b88826135de565b9750613646836135f6565b925050600181019050613627565b5085935050505092915050565b6000602082019050818103600083015261367b8184613603565b905092915050565b7f4e487b7100000000000000000000000000000000000000000000000000000000600052602260045260246000fd5b600060028204905060018216806136ca57607f821691505b6020821081036136dd576136dc613683565b5b50919050565b7f4552433732313a20617070726f76616c20746f2063757272656e74206f776e6560008201527f7200000000000000000000000000000000000000000000000000000000000000602082015250565b600061373f602183612fd9565b915061374a826136e3565b604082019050919050565b6000602082019050818103600083015261376e81613732565b9050919050565b7f4552433732313a20617070726f76652063616c6c6572206973206e6f7420746f60008201527f6b656e206f776e6572206f7220617070726f76656420666f7220616c6c000000602082015250565b60006137d1603d83612fd9565b91506137dc82613775565b604082019050919050565b60006020820190508181036000830152613800816137c4565b9050919050565b7f4552433732313a2063616c6c6572206973206e6f7420746f6b656e206f776e6560008201527f72206f7220617070726f76656400000000000000000000000000000000000000602082015250565b6000613863602d83612fd9565b915061386e82613807565b604082019050919050565b6000602082019050818103600083015261389281613856565b9050919050565b7f6f6e6c792061646d696e00000000000000000000000000000000000000000000600082015250565b60006138cf600a83612fd9565b91506138da82613899565b602082019050919050565b600060208201905081810360008301526138fe816138c2565b9050919050565b7f4552433732313a20696e76616c696420746f6b656e2049440000000000000000600082015250565b600061393b601883612fd9565b915061394682613905565b602082019050919050565b6000602082019050818103600083015261396a8161392e565b9050919050565b7f4552433732313a2061646472657373207a65726f206973206e6f74206120766160008201527f6c6964206f776e65720000000000000000000000000000000000000000000000602082015250565b60006139cd602983612fd9565b91506139d882613971565b604082019050919050565b600060208201905081810360008301526139fc816139c0565b9050919050565b7f6f6e6c7941646d696e0000000000000000000000000000000000000000000000600082015250565b6000613a39600983612fd9565b9150613a4482613a03565b602082019050919050565b60006020820190508181036000830152613a6881613a2c565b9050919050565b7f73686f77206e6f742063616e63656c6c65640000000000000000000000000000600082015250565b6000613aa5601283612fd9565b9150613ab082613a6f565b602082019050919050565b60006020820190508181036000830152613ad481613a98565b9050919050565b7f4e487b7100000000000000000000000000000000000000000000000000000000600052603260045260246000fd5b7f4e487b7100000000000000000000000000000000000000000000000000000000600052601160045260246000fd5b6000613b4482613080565b9150613b4f83613080565b9250828202613b5d81613080565b91508282048414831517613b7457613b73613b0a565b5b5092915050565b6000613b8682613080565b91507fffffffffffffffffffffffffffffffffffffffffffffffffffffffffffffffff8203613bb857613bb7613b0a565b5b600182019050919050565b7f6f61000000000000000000000000000000000000000000000000000000000000600082015250565b6000613bf9600283612fd9565b9150613c0482613bc3565b602082019050919050565b60006020820190508181036000830152613c2881613bec565b9050919050565b60008190508160005260206000209050919050565b60006020601f8301049050919050565b600082821b905092915050565b600060088302613c917fffffffffffffffffffffffffffffffffffffffffffffffffffffffffffffffff82613c54565b613c9b8683613c54565b95508019841693508086168417925050509392505050565b6000819050919050565b6000613cd8613cd3613cce84613080565b613cb3565b613080565b9050919050565b6000819050919050565b613cf283613cbd565b613d06613cfe82613cdf565b848454613c61565b825550505050565b600090565b613d1b613d0e565b613d26818484613ce9565b505050565b5b81811015613d4a57613d3f600082613d13565b600181019050613d2c565b5050565b601f821115613d8f57613d6081613c2f565b613d6984613c44565b81016020851015613d78578190505b613d8c613d8485613c44565b830182613d2b565b50505b505050565b600082821c905092915050565b6000613db260001984600802613d94565b1980831691505092915050565b6000613dcb8383613da1565b9150826002028217905092915050565b613de482612fce565b67ffffffffffffffff811115613dfd57613dfc61325f565b5b613e0782546136b2565b613e12828285613d4e565b600060209050601f831160018114613e455760008415613e33578287015190505b613e3d8582613dbf565b865550613ea5565b601f198416613e5386613c2f565b60005b82811015613e7b57848901518255600182019150602085019450602081019050613e56565b86831015613e985784890151613e94601f891682613da1565b8355505b6001600288020188555050505b505050505050565b7f7061790000000000000000000000000000000000000000000000000000000000600082015250565b6000613ee3600383612fd9565b9150613eee82613ead565b602082019050919050565b60006020820190508181036000830152613f1281613ed6565b9050919050565b6000613f2482613080565b9150613f2f83613080565b9250828201905080821115613f4757613f46613b0a565b5b92915050565b7f6d61782074697800000000000000000000000000000000000000000000000000600082015250565b6000613f83600783612fd9565b9150613f8e82613f4d565b602082019050919050565b60006020820190508181036000830152613fb281613f76565b9050919050565b7f736f6c64206f7574000000000000000000000000000000000000000000000000600082015250565b6000613fef600883612fd9565b9150613ffa82613fb9565b602082019050919050565b6000602082019050818103600083015261401e81613fe2565b9050919050565b7f73686f77206973206e6f74206f70656e00000000000000000000000000000000600082015250565b600061405b601083612fd9565b915061406682614025565b602082019050919050565b6000602082019050818103600083015261408a8161404e565b9050919050565b6000815461409e816136b2565b6140a88186612fd9565b945060018216600081146140c357600181146140d95761410c565b60ff19831686528115156020028601935061410c565b6140e285613c2f565b60005b83811015614104578154818901526001820191506020810190506140e5565b808801955050505b50505092915050565b7f2e6a736f6e000000000000000000000000000000000000000000000000000000600082015250565b600061414b600583612fd9565b915061415682614115565b602082019050919050565b6000606082019050818103600083015261417b8185614091565b9050818103602083015261418f8184613025565b905081810360408301526141a28161413e565b90509392505050565b60006040820190506141c06000830185613115565b6141cd60208301846131ab565b9392505050565b600081905092915050565b60006141ea82612fce565b6141f481856141d4565b9350614204818560208601612fea565b80840191505092915050565b600061421c82856141df565b915061422882846141df565b91508190509392505050565b7f6e6f742072657363686564756c65640000000000000000000000000000000000600082015250565b600061426a600f83612fd9565b915061427582614234565b602082019050919050565b600060208201905081810360008301526142998161425d565b9050919050565b7f73686f77206e6f7420636f6d706c657465640000000000000000000000000000600082015250565b60006142d6601283612fd9565b91506142e1826142a0565b602082019050919050565b60006020820190508181036000830152614305816142c9565b9050919050565b7f4e487b7100000000000000000000000000000000000000000000000000000000600052601260045260246000fd5b600061434682613080565b915061435183613080565b9250826143615761436061430c565b5b828204905092915050565b7f4552433732313a207472616e736665722066726f6d20696e636f72726563742060008201527f6f776e6572000000000000000000000000000000000000000000000000000000602082015250565b60006143c8602583612fd9565b91506143d38261436c565b604082019050919050565b600060208201905081810360008301526143f7816143bb565b9050919050565b7f4552433732313a207472616e7366657220746f20746865207a65726f2061646460008201527f7265737300000000000000000000000000000000000000000000000000000000602082015250565b600061445a602483612fd9565b9150614465826143fe565b604082019050919050565b600060208201905081810360008301526144898161444d565b9050919050565b7f4552433732313a206d696e7420746f20746865207a65726f2061646472657373600082015250565b60006144c6602083612fd9565b91506144d182614490565b602082019050919050565b600060208201905081810360008301526144f5816144b9565b9050919050565b7f4552433732313a20746f6b656e20616c7265616479206d696e74656400000000600082015250565b6000614532601c83612fd9565b915061453d826144fc565b602082019050919050565b6000602082019050818103600083015261456181614525565b9050919050565b7f45524337323155524953746f726167653a2055524920736574206f66206e6f6e60008201527f6578697374656e7420746f6b656e000000000000000000000000000000000000602082015250565b60006145c4602e83612fd9565b91506145cf82614568565b604082019050919050565b600060208201905081810360008301526145f3816145b7565b9050919050565b7f4552433732313a20617070726f766520746f2063616c6c657200000000000000600082015250565b6000614630601983612fd9565b915061463b826145fa565b602082019050919050565b6000602082019050818103600083015261465f81614623565b9050919050565b7f4552433732313a207472616e7366657220746f206e6f6e20455243373231526560008201527f63656976657220696d706c656d656e7465720000000000000000000000000000602082015250565b60006146c2603283612fd9565b91506146cd82614666565b604082019050919050565b600060208201905081810360008301526146f1816146b5565b9050919050565b600061470382613080565b915061470e83613080565b925082820390508181111561472657614725613b0a565b5b92915050565b600081519050919050565b600082825260208201905092915050565b60006147538261472c565b61475d8185614737565b935061476d818560208601612fea565b61477681613014565b840191505092915050565b60006080820190506147966000830187613115565b6147a36020830186613115565b6147b060408301856131ab565b81810360608301526147c28184614748565b905095945050505050565b6000815190506147dc81612f3f565b92915050565b6000602082840312156147f8576147f7612f09565b5b6000614806848285016147cd565b9150509291505056fea26469706673582212207f1727654048bedafd829078cf7f8bf1524b5bdb025833516b66c01a1527c00364736f6c63430008110033",
  "linkReferences": {},
  "deployedLinkReferences": {}
}