{
    "_format": "hh-sol-artifact-1",
    "contractName": "ManageCheckTix",
    "sourceName": "contracts/checktix/ManageCheckTix.sol",
    "abi": [
        {
            "inputs": [
                {
                    "internalType": "address",
                    "name": "",
                    "type": "address"
                }
            ],
            "name": "checkInToTix",
            "outputs": [
                {
                    "internalType": "address",
                    "name": "",
                    "type": "address"
                }
            ],
            "stateMutability": "view",
            "type": "function"
        },
        {
            "inputs": [
                {
                    "internalType": "address",
                    "name": "ticketAddress",
                    "type": "address"
                }
            ],
            "name": "createCheckIn",
            "outputs": [],
            "stateMutability": "nonpayable",
            "type": "function"
        },
        {
            "inputs": [
                {
                    "internalType": "address",
                    "name": "",
                    "type": "address"
                }
            ],
            "name": "tixToCheckIn",
            "outputs": [
                {
                    "internalType": "address",
                    "name": "ticketContract",
                    "type": "address"
                },
                {
                    "internalType": "address",
                    "name": "checkInContract",
                    "type": "address"
                }
            ],
            "stateMutability": "view",
            "type": "function"
        }
    ],
    "bytecode": "0x608060405234801561001057600080fd5b5061164a806100206000396000f3fe608060405234801561001057600080fd5b50600436106100415760003560e01c80632edf5a5e146100465780636212a39d14610076578063b81e50f714610092575b600080fd5b610060600480360381019061005b91906105ab565b6100c3565b60405161006d91906105e7565b60405180910390f35b610090600480360381019061008b91906105ab565b6100f6565b005b6100ac60048036038101906100a791906105ab565b6104d7565b6040516100ba929190610602565b60405180910390f35b60016020528060005260406000206000915054906101000a900473ffffffffffffffffffffffffffffffffffffffff1681565b8073ffffffffffffffffffffffffffffffffffffffff1663f32b80aa6040518163ffffffff1660e01b8152600401602060405180830381865afa158015610141573d6000803e3d6000fd5b505050506040513d601f19601f820116820180604052508101906101659190610640565b73ffffffffffffffffffffffffffffffffffffffff163373ffffffffffffffffffffffffffffffffffffffff16146101d2576040517f08c379a00000000000000000000000000000000000000000000000000000000081526004016101c9906106ca565b60405180910390fd5b600073ffffffffffffffffffffffffffffffffffffffff166000808373ffffffffffffffffffffffffffffffffffffffff1673ffffffffffffffffffffffffffffffffffffffff16815260200190815260200160002060010160009054906101000a900473ffffffffffffffffffffffffffffffffffffffff1673ffffffffffffffffffffffffffffffffffffffff16146102a2576040517f08c379a000000000000000000000000000000000000000000000000000000000815260040161029990610736565b60405180910390fd5b6000816040516102b19061053b565b6102bb91906105e7565b604051809103906000f0801580156102d7573d6000803e3d6000fd5b5090508073ffffffffffffffffffffffffffffffffffffffff1663f6abfc76336040518263ffffffff1660e01b815260040161031391906105e7565b600060405180830381600087803b15801561032d57600080fd5b505af1158015610341573d6000803e3d6000fd5b5050505060405180604001604052808373ffffffffffffffffffffffffffffffffffffffff1681526020018273ffffffffffffffffffffffffffffffffffffffff168152506000808473ffffffffffffffffffffffffffffffffffffffff1673ffffffffffffffffffffffffffffffffffffffff16815260200190815260200160002060008201518160000160006101000a81548173ffffffffffffffffffffffffffffffffffffffff021916908373ffffffffffffffffffffffffffffffffffffffff16021790555060208201518160010160006101000a81548173ffffffffffffffffffffffffffffffffffffffff021916908373ffffffffffffffffffffffffffffffffffffffff16021790555090505081600160008373ffffffffffffffffffffffffffffffffffffffff1673ffffffffffffffffffffffffffffffffffffffff16815260200190815260200160002060006101000a81548173ffffffffffffffffffffffffffffffffffffffff021916908373ffffffffffffffffffffffffffffffffffffffff1602179055505050565b60006020528060005260406000206000915090508060000160009054906101000a900473ffffffffffffffffffffffffffffffffffffffff16908060010160009054906101000a900473ffffffffffffffffffffffffffffffffffffffff16905082565b610ebe8061075783390190565b600080fd5b600073ffffffffffffffffffffffffffffffffffffffff82169050919050565b60006105788261054d565b9050919050565b6105888161056d565b811461059357600080fd5b50565b6000813590506105a58161057f565b92915050565b6000602082840312156105c1576105c0610548565b5b60006105cf84828501610596565b91505092915050565b6105e18161056d565b82525050565b60006020820190506105fc60008301846105d8565b92915050565b600060408201905061061760008301856105d8565b61062460208301846105d8565b9392505050565b60008151905061063a8161057f565b92915050565b60006020828403121561065657610655610548565b5b60006106648482850161062b565b91505092915050565b600082825260208201905092915050565b7f6f6e6c792063726561746f722063616e2063616c6c0000000000000000000000600082015250565b60006106b460158361066d565b91506106bf8261067e565b602082019050919050565b600060208201905081810360008301526106e3816106a7565b9050919050565b7f616c726561647920637265617465640000000000000000000000000000000000600082015250565b6000610720600f8361066d565b915061072b826106ea565b602082019050919050565b6000602082019050818103600083015261074f81610713565b905091905056fe608060405234801561001057600080fd5b50604051610ebe380380610ebe8339818101604052810190610032919061011c565b80600160006101000a81548173ffffffffffffffffffffffffffffffffffffffff021916908373ffffffffffffffffffffffffffffffffffffffff160217905550336000806101000a81548173ffffffffffffffffffffffffffffffffffffffff021916908373ffffffffffffffffffffffffffffffffffffffff16021790555050610149565b600080fd5b600073ffffffffffffffffffffffffffffffffffffffff82169050919050565b60006100e9826100be565b9050919050565b6100f9816100de565b811461010457600080fd5b50565b600081519050610116816100f0565b92915050565b600060208284031215610132576101316100b9565b5b600061014084828501610107565b91505092915050565b610d66806101586000396000f3fe608060405234801561001057600080fd5b50600436106100885760003560e01c806364162e8f1161005b57806364162e8f14610129578063c39e8d2d14610159578063db8e54e014610177578063f6abfc76146101a757610088565b8063020865961461008d5780633a5381b5146100bd5780634e23ec79146100db57806358a86e1d1461010b575b600080fd5b6100a760048036038101906100a291906107b7565b6101c3565b6040516100b491906107ff565b60405180910390f35b6100c56101e3565b6040516100d2919061085b565b60405180910390f35b6100f560048036038101906100f091906107b7565b610207565b60405161010291906107ff565b60405180910390f35b610113610231565b604051610120919061085b565b60405180910390f35b610143600480360381019061013e91906107b7565b610257565b60405161015091906107ff565b60405180910390f35b610161610457565b60405161016e9190610934565b60405180910390f35b610191600480360381019061018c91906107b7565b61056b565b60405161019e91906107ff565b60405180910390f35b6101c160048036038101906101bc9190610982565b6106ab565b005b60026020528060005260406000206000915054906101000a900460ff1681565b60008054906101000a900473ffffffffffffffffffffffffffffffffffffffff1681565b60006002600083815260200190815260200160002060009054906101000a900460ff169050919050565b600160009054906101000a900473ffffffffffffffffffffffffffffffffffffffff1681565b60008060009054906101000a900473ffffffffffffffffffffffffffffffffffffffff1673ffffffffffffffffffffffffffffffffffffffff163373ffffffffffffffffffffffffffffffffffffffff16146102e8576040517f08c379a00000000000000000000000000000000000000000000000000000000081526004016102df90610a0c565b60405180910390fd5b600015156002600084815260200190815260200160002060009054906101000a900460ff1615151461034f576040517f08c379a000000000000000000000000000000000000000000000000000000000815260040161034690610a78565b60405180910390fd5b600160009054906101000a900473ffffffffffffffffffffffffffffffffffffffff1673ffffffffffffffffffffffffffffffffffffffff1663907bff846040518163ffffffff1660e01b8152600401602060405180830381865afa1580156103bc573d6000803e3d6000fd5b505050506040513d601f19601f820116820180604052508101906103e09190610aad565b821115610422576040517f08c379a000000000000000000000000000000000000000000000000000000000815260040161041990610b26565b60405180910390fd5b60016002600084815260200190815260200160002060006101000a81548160ff02191690831515021790555060019050919050565b6060806000600160009054906101000a900473ffffffffffffffffffffffffffffffffffffffff1673ffffffffffffffffffffffffffffffffffffffff1663907bff846040518163ffffffff1660e01b8152600401602060405180830381865afa1580156104c9573d6000803e3d6000fd5b505050506040513d601f19601f820116820180604052508101906104ed9190610aad565b905060005b8181101561056457600115156002600083815260200190815260200160002060009054906101000a900460ff16151503610551578083828151811061053a57610539610b46565b5b602002602001018181525050829350505050610568565b808061055c90610ba4565b9150506104f2565b5050505b90565b60003373ffffffffffffffffffffffffffffffffffffffff16600160009054906101000a900473ffffffffffffffffffffffffffffffffffffffff1673ffffffffffffffffffffffffffffffffffffffff16636352211e846040518263ffffffff1660e01b81526004016105df9190610bfb565b602060405180830381865afa1580156105fc573d6000803e3d6000fd5b505050506040513d601f19601f820116820180604052508101906106209190610c2b565b73ffffffffffffffffffffffffffffffffffffffff1614610676576040517f08c379a000000000000000000000000000000000000000000000000000000000815260040161066d90610ca4565b60405180910390fd5b60016002600084815260200190815260200160002060006101000a81548160ff02191690831515021790555060019050919050565b60008054906101000a900473ffffffffffffffffffffffffffffffffffffffff1673ffffffffffffffffffffffffffffffffffffffff163373ffffffffffffffffffffffffffffffffffffffff1614610739576040517f08c379a000000000000000000000000000000000000000000000000000000000815260040161073090610d10565b60405180910390fd5b806000806101000a81548173ffffffffffffffffffffffffffffffffffffffff021916908373ffffffffffffffffffffffffffffffffffffffff16021790555050565b600080fd5b6000819050919050565b61079481610781565b811461079f57600080fd5b50565b6000813590506107b18161078b565b92915050565b6000602082840312156107cd576107cc61077c565b5b60006107db848285016107a2565b91505092915050565b60008115159050919050565b6107f9816107e4565b82525050565b600060208201905061081460008301846107f0565b92915050565b600073ffffffffffffffffffffffffffffffffffffffff82169050919050565b60006108458261081a565b9050919050565b6108558161083a565b82525050565b6000602082019050610870600083018461084c565b92915050565b600081519050919050565b600082825260208201905092915050565b6000819050602082019050919050565b6108ab81610781565b82525050565b60006108bd83836108a2565b60208301905092915050565b6000602082019050919050565b60006108e182610876565b6108eb8185610881565b93506108f683610892565b8060005b8381101561092757815161090e88826108b1565b9750610919836108c9565b9250506001810190506108fa565b5085935050505092915050565b6000602082019050818103600083015261094e81846108d6565b905092915050565b61095f8161083a565b811461096a57600080fd5b50565b60008135905061097c81610956565b92915050565b6000602082840312156109985761099761077c565b5b60006109a68482850161096d565b91505092915050565b600082825260208201905092915050565b7f76616c696461746f720000000000000000000000000000000000000000000000600082015250565b60006109f66009836109af565b9150610a01826109c0565b602082019050919050565b60006020820190508181036000830152610a25816109e9565b9050919050565b7f616c726561647920636865636b656420696e0000000000000000000000000000600082015250565b6000610a626012836109af565b9150610a6d82610a2c565b602082019050919050565b60006020820190508181036000830152610a9181610a55565b9050919050565b600081519050610aa78161078b565b92915050565b600060208284031215610ac357610ac261077c565b5b6000610ad184828501610a98565b91505092915050565b7f7469636b657420646f6573206e6f742065786973740000000000000000000000600082015250565b6000610b106015836109af565b9150610b1b82610ada565b602082019050919050565b60006020820190508181036000830152610b3f81610b03565b9050919050565b7f4e487b7100000000000000000000000000000000000000000000000000000000600052603260045260246000fd5b7f4e487b7100000000000000000000000000000000000000000000000000000000600052601160045260246000fd5b6000610baf82610781565b91507fffffffffffffffffffffffffffffffffffffffffffffffffffffffffffffffff8203610be157610be0610b75565b5b600182019050919050565b610bf581610781565b82525050565b6000602082019050610c106000830184610bec565b92915050565b600081519050610c2581610956565b92915050565b600060208284031215610c4157610c4061077c565b5b6000610c4f84828501610c16565b91505092915050565b7f6e6f7420746f6b656e206f776e65720000000000000000000000000000000000600082015250565b6000610c8e600f836109af565b9150610c9982610c58565b602082019050919050565b60006020820190508181036000830152610cbd81610c81565b9050919050565b7f6f6e6c792076616c696461746f72000000000000000000000000000000000000600082015250565b6000610cfa600e836109af565b9150610d0582610cc4565b602082019050919050565b60006020820190508181036000830152610d2981610ced565b905091905056fea2646970667358221220485455a8af59baef1a7087647240d315d51613255f537c72a5142f0a121ae93664736f6c63430008110033a2646970667358221220b56bcb78f98fe83c67e84b779b32a7c125da1910dc87f5edaea35c61185d5ec464736f6c63430008110033",
    "linkReferences": {},
    "deployedLinkReferences": {}
}